{
  "contractName": "CRYPTNFT",
  "abi": [
    {
      "inputs": [
        {
          "internalType": "address",
          "name": "marketplaceAddress",
          "type": "address"
        }
      ],
      "stateMutability": "nonpayable",
      "type": "constructor"
    },
    {
      "anonymous": false,
      "inputs": [
        {
          "indexed": true,
          "internalType": "address",
          "name": "owner",
          "type": "address"
        },
        {
          "indexed": true,
          "internalType": "address",
          "name": "approved",
          "type": "address"
        },
        {
          "indexed": true,
          "internalType": "uint256",
          "name": "tokenId",
          "type": "uint256"
        }
      ],
      "name": "Approval",
      "type": "event"
    },
    {
      "anonymous": false,
      "inputs": [
        {
          "indexed": true,
          "internalType": "address",
          "name": "owner",
          "type": "address"
        },
        {
          "indexed": true,
          "internalType": "address",
          "name": "operator",
          "type": "address"
        },
        {
          "indexed": false,
          "internalType": "bool",
          "name": "approved",
          "type": "bool"
        }
      ],
      "name": "ApprovalForAll",
      "type": "event"
    },
    {
      "anonymous": false,
      "inputs": [
        {
          "indexed": true,
          "internalType": "address",
          "name": "from",
          "type": "address"
        },
        {
          "indexed": true,
          "internalType": "address",
          "name": "to",
          "type": "address"
        },
        {
          "indexed": true,
          "internalType": "uint256",
          "name": "tokenId",
          "type": "uint256"
        }
      ],
      "name": "Transfer",
      "type": "event"
    },
    {
      "anonymous": false,
      "inputs": [
        {
          "indexed": false,
          "internalType": "string",
          "name": "msg",
          "type": "string"
        },
        {
          "indexed": false,
          "internalType": "address",
          "name": "addr",
          "type": "address"
        }
      ],
      "name": "random",
      "type": "event"
    },
    {
      "inputs": [
        {
          "internalType": "address",
          "name": "to",
          "type": "address"
        },
        {
          "internalType": "uint256",
          "name": "tokenId",
          "type": "uint256"
        }
      ],
      "name": "approve",
      "outputs": [],
      "stateMutability": "nonpayable",
      "type": "function"
    },
    {
      "inputs": [
        {
          "internalType": "address",
          "name": "owner",
          "type": "address"
        }
      ],
      "name": "balanceOf",
      "outputs": [
        {
          "internalType": "uint256",
          "name": "",
          "type": "uint256"
        }
      ],
      "stateMutability": "view",
      "type": "function",
      "constant": true
    },
    {
      "inputs": [
        {
          "internalType": "uint256",
          "name": "tokenId",
          "type": "uint256"
        }
      ],
      "name": "getApproved",
      "outputs": [
        {
          "internalType": "address",
          "name": "",
          "type": "address"
        }
      ],
      "stateMutability": "view",
      "type": "function",
      "constant": true
    },
    {
      "inputs": [],
      "name": "name",
      "outputs": [
        {
          "internalType": "string",
          "name": "",
          "type": "string"
        }
      ],
      "stateMutability": "view",
      "type": "function",
      "constant": true
    },
    {
      "inputs": [
        {
          "internalType": "uint256",
          "name": "tokenId",
          "type": "uint256"
        }
      ],
      "name": "ownerOf",
      "outputs": [
        {
          "internalType": "address",
          "name": "",
          "type": "address"
        }
      ],
      "stateMutability": "view",
      "type": "function",
      "constant": true
    },
    {
      "inputs": [
        {
          "internalType": "address",
          "name": "from",
          "type": "address"
        },
        {
          "internalType": "address",
          "name": "to",
          "type": "address"
        },
        {
          "internalType": "uint256",
          "name": "tokenId",
          "type": "uint256"
        }
      ],
      "name": "safeTransferFrom",
      "outputs": [],
      "stateMutability": "nonpayable",
      "type": "function"
    },
    {
      "inputs": [
        {
          "internalType": "address",
          "name": "from",
          "type": "address"
        },
        {
          "internalType": "address",
          "name": "to",
          "type": "address"
        },
        {
          "internalType": "uint256",
          "name": "tokenId",
          "type": "uint256"
        },
        {
          "internalType": "bytes",
          "name": "_data",
          "type": "bytes"
        }
      ],
      "name": "safeTransferFrom",
      "outputs": [],
      "stateMutability": "nonpayable",
      "type": "function"
    },
    {
      "inputs": [
        {
          "internalType": "address",
          "name": "operator",
          "type": "address"
        },
        {
          "internalType": "bool",
          "name": "approved",
          "type": "bool"
        }
      ],
      "name": "setApprovalForAll",
      "outputs": [],
      "stateMutability": "nonpayable",
      "type": "function"
    },
    {
      "inputs": [
        {
          "internalType": "bytes4",
          "name": "interfaceId",
          "type": "bytes4"
        }
      ],
      "name": "supportsInterface",
      "outputs": [
        {
          "internalType": "bool",
          "name": "",
          "type": "bool"
        }
      ],
      "stateMutability": "view",
      "type": "function",
      "constant": true
    },
    {
      "inputs": [],
      "name": "symbol",
      "outputs": [
        {
          "internalType": "string",
          "name": "",
          "type": "string"
        }
      ],
      "stateMutability": "view",
      "type": "function",
      "constant": true
    },
    {
      "inputs": [
        {
          "internalType": "uint256",
          "name": "tokenId",
          "type": "uint256"
        }
      ],
      "name": "tokenURI",
      "outputs": [
        {
          "internalType": "string",
          "name": "",
          "type": "string"
        }
      ],
      "stateMutability": "view",
      "type": "function",
      "constant": true
    },
    {
      "inputs": [
        {
          "internalType": "address",
          "name": "from",
          "type": "address"
        },
        {
          "internalType": "address",
          "name": "to",
          "type": "address"
        },
        {
          "internalType": "uint256",
          "name": "tokenId",
          "type": "uint256"
        }
      ],
      "name": "transferFrom",
      "outputs": [],
      "stateMutability": "nonpayable",
      "type": "function"
    },
    {
      "inputs": [],
      "name": "getLastTokenId",
      "outputs": [
        {
          "internalType": "uint256",
          "name": "",
          "type": "uint256"
        }
      ],
      "stateMutability": "view",
      "type": "function",
      "constant": true
    },
    {
      "inputs": [],
      "name": "getStoreOwner",
      "outputs": [
        {
          "internalType": "address",
          "name": "",
          "type": "address"
        }
      ],
      "stateMutability": "view",
      "type": "function",
      "constant": true
    },
    {
      "inputs": [
        {
          "internalType": "string",
          "name": "tokenURI",
          "type": "string"
        },
        {
          "internalType": "address",
          "name": "creator",
          "type": "address"
        }
      ],
      "name": "createToken",
      "outputs": [
        {
          "internalType": "uint256",
          "name": "",
          "type": "uint256"
        }
      ],
      "stateMutability": "nonpayable",
      "type": "function"
    },
    {
      "inputs": [
        {
          "internalType": "address",
          "name": "owner",
          "type": "address"
        },
        {
          "internalType": "address",
          "name": "operator",
          "type": "address"
        }
      ],
      "name": "isApprovedForAll",
      "outputs": [
        {
          "internalType": "bool",
          "name": "",
          "type": "bool"
        }
      ],
      "stateMutability": "view",
      "type": "function",
      "constant": true
    },
    {
      "inputs": [
        {
          "internalType": "uint256",
          "name": "id",
          "type": "uint256"
        },
        {
          "internalType": "address",
          "name": "buyer",
          "type": "address"
        }
      ],
      "name": "transferToken",
      "outputs": [],
      "stateMutability": "payable",
      "type": "function",
      "payable": true
    }
  ],
  "bytecode": "0x60806040523480156200001157600080fd5b506040516200336538038062003365833981810160405281019062000037919062000241565b6040518060400160405280600a81526020017f43727970747665727365000000000000000000000000000000000000000000008152506040518060400160405280600581526020017f43525950540000000000000000000000000000000000000000000000000000008152508160009080519060200190620000bb92919062000127565b508060019080519060200190620000d492919062000127565b505050600060078190555080600860006101000a81548173ffffffffffffffffffffffffffffffffffffffff021916908373ffffffffffffffffffffffffffffffffffffffff16021790555050620002d7565b8280546200013590620002a2565b90600052602060002090601f016020900481019282620001595760008555620001a5565b82601f106200017457805160ff1916838001178555620001a5565b82800160010185558215620001a5579182015b82811115620001a457825182559160200191906001019062000187565b5b509050620001b49190620001b8565b5090565b5b80821115620001d3576000816000905550600101620001b9565b5090565b600080fd5b600073ffffffffffffffffffffffffffffffffffffffff82169050919050565b60006200020982620001dc565b9050919050565b6200021b81620001fc565b81146200022757600080fd5b50565b6000815190506200023b8162000210565b92915050565b6000602082840312156200025a5762000259620001d7565b5b60006200026a848285016200022a565b91505092915050565b7f4e487b7100000000000000000000000000000000000000000000000000000000600052602260045260246000fd5b60006002820490506001821680620002bb57607f821691505b602082108103620002d157620002d062000273565b5b50919050565b61307e80620002e76000396000f3fe6080604052600436106100fe5760003560e01c806370a0823111610095578063a22cb46511610064578063a22cb4651461035b578063b88d4fde14610384578063bad42590146103ad578063c87b56dd146103c9578063e985e9c514610406576100fe565b806370a082311461028b57806383c4c00d146102c857806395d89b41146102f3578063a21193771461031e576100fe565b806323b872dd116100d157806323b872dd146101d157806326665de8146101fa57806342842e0e146102255780636352211e1461024e576100fe565b806301ffc9a71461010357806306fdde0314610140578063081812fc1461016b578063095ea7b3146101a8575b600080fd5b34801561010f57600080fd5b5061012a60048036038101906101259190611d07565b610443565b6040516101379190611d4f565b60405180910390f35b34801561014c57600080fd5b50610155610525565b6040516101629190611e03565b60405180910390f35b34801561017757600080fd5b50610192600480360381019061018d9190611e5b565b6105b7565b60405161019f9190611ec9565b60405180910390f35b3480156101b457600080fd5b506101cf60048036038101906101ca9190611f10565b61063c565b005b3480156101dd57600080fd5b506101f860048036038101906101f39190611f50565b610753565b005b34801561020657600080fd5b5061020f6107b3565b60405161021c9190611ec9565b60405180910390f35b34801561023157600080fd5b5061024c60048036038101906102479190611f50565b6107dd565b005b34801561025a57600080fd5b5061027560048036038101906102709190611e5b565b6107fd565b6040516102829190611ec9565b60405180910390f35b34801561029757600080fd5b506102b260048036038101906102ad9190611fa3565b6108ae565b6040516102bf9190611fdf565b60405180910390f35b3480156102d457600080fd5b506102dd610965565b6040516102ea9190611fdf565b60405180910390f35b3480156102ff57600080fd5b50610308610980565b6040516103159190611e03565b60405180910390f35b34801561032a57600080fd5b506103456004803603810190610340919061205f565b610a12565b6040516103529190611fdf565b60405180910390f35b34801561036757600080fd5b50610382600480360381019061037d91906120eb565b610a95565b005b34801561039057600080fd5b506103ab60048036038101906103a6919061225b565b610aab565b005b6103c760048036038101906103c291906122de565b610b0d565b005b3480156103d557600080fd5b506103f060048036038101906103eb9190611e5b565b610ba6565b6040516103fd9190611e03565b60405180910390f35b34801561041257600080fd5b5061042d6004803603810190610428919061231e565b610cf7565b60405161043a9190611d4f565b60405180910390f35b60007f80ac58cd000000000000000000000000000000000000000000000000000000007bffffffffffffffffffffffffffffffffffffffffffffffffffffffff1916827bffffffffffffffffffffffffffffffffffffffffffffffffffffffff1916148061050e57507f5b5e139f000000000000000000000000000000000000000000000000000000007bffffffffffffffffffffffffffffffffffffffffffffffffffffffff1916827bffffffffffffffffffffffffffffffffffffffffffffffffffffffff1916145b8061051e575061051d82610e29565b5b9050919050565b6060600080546105349061238d565b80601f01602080910402602001604051908101604052809291908181526020018280546105609061238d565b80156105ad5780601f10610582576101008083540402835291602001916105ad565b820191906000526020600020905b81548152906001019060200180831161059057829003601f168201915b5050505050905090565b60006105c282610e93565b610601576040517f08c379a00000000000000000000000000000000000000000000000000000000081526004016105f890612430565b60405180910390fd5b6004600083815260200190815260200160002060009054906101000a900473ffffffffffffffffffffffffffffffffffffffff169050919050565b6000610647826107fd565b90508073ffffffffffffffffffffffffffffffffffffffff168373ffffffffffffffffffffffffffffffffffffffff16036106b7576040517f08c379a00000000000000000000000000000000000000000000000000000000081526004016106ae906124c2565b60405180910390fd5b8073ffffffffffffffffffffffffffffffffffffffff166106d6610eff565b73ffffffffffffffffffffffffffffffffffffffff1614806107055750610704816106ff610eff565b610cf7565b5b610744576040517f08c379a000000000000000000000000000000000000000000000000000000000815260040161073b90612554565b60405180910390fd5b61074e8383610f07565b505050565b61076461075e610eff565b82610fc0565b6107a3576040517f08c379a000000000000000000000000000000000000000000000000000000000815260040161079a906125e6565b60405180910390fd5b6107ae83838361109e565b505050565b6000600860009054906101000a900473ffffffffffffffffffffffffffffffffffffffff16905090565b6107f883838360405180602001604052806000815250610aab565b505050565b6000806002600084815260200190815260200160002060009054906101000a900473ffffffffffffffffffffffffffffffffffffffff169050600073ffffffffffffffffffffffffffffffffffffffff168173ffffffffffffffffffffffffffffffffffffffff16036108a5576040517f08c379a000000000000000000000000000000000000000000000000000000000815260040161089c90612678565b60405180910390fd5b80915050919050565b60008073ffffffffffffffffffffffffffffffffffffffff168273ffffffffffffffffffffffffffffffffffffffff160361091e576040517f08c379a00000000000000000000000000000000000000000000000000000000081526004016109159061270a565b60405180910390fd5b600360008373ffffffffffffffffffffffffffffffffffffffff1673ffffffffffffffffffffffffffffffffffffffff168152602001908152602001600020549050919050565b60008060016007546109779190612759565b90508091505090565b60606001805461098f9061238d565b80601f01602080910402602001604051908101604052809291908181526020018280546109bb9061238d565b8015610a085780601f106109dd57610100808354040283529160200191610a08565b820191906000526020600020905b8154815290600101906020018083116109eb57829003601f168201915b5050505050905090565b6000806007549050610a248382611304565b610a728186868080601f016020809104026020016040519081016040528093929190818152602001838380828437600081840152601f19601f82011690508083019250505050505050611322565b60076000815480929190610a859061278d565b9190505550809150509392505050565b610aa7610aa0610eff565b8383611396565b5050565b610abc610ab6610eff565b83610fc0565b610afb576040517f08c379a0000000000000000000000000000000000000000000000000000000008152600401610af2906125e6565b60405180910390fd5b610b0784848484611502565b50505050565b6000610b18836107fd565b9050610b25818385610753565b6000610b30846107fd565b90508273ffffffffffffffffffffffffffffffffffffffff168173ffffffffffffffffffffffffffffffffffffffff1614610ba0576040517f08c379a0000000000000000000000000000000000000000000000000000000008152600401610b9790612821565b60405180910390fd5b50505050565b6060610bb182610e93565b610bf0576040517f08c379a0000000000000000000000000000000000000000000000000000000008152600401610be7906128b3565b60405180910390fd5b6000600660008481526020019081526020016000208054610c109061238d565b80601f0160208091040260200160405190810160405280929190818152602001828054610c3c9061238d565b8015610c895780601f10610c5e57610100808354040283529160200191610c89565b820191906000526020600020905b815481529060010190602001808311610c6c57829003601f168201915b505050505090506000610c9a61155e565b90506000815103610caf578192505050610cf2565b600082511115610ce4578082604051602001610ccc92919061290f565b60405160208183030381529060405292505050610cf2565b610ced84611575565b925050505b919050565b6000600860009054906101000a900473ffffffffffffffffffffffffffffffffffffffff1673ffffffffffffffffffffffffffffffffffffffff168273ffffffffffffffffffffffffffffffffffffffff161480610d8057508273ffffffffffffffffffffffffffffffffffffffff168273ffffffffffffffffffffffffffffffffffffffff16145b610dbf576040517f08c379a0000000000000000000000000000000000000000000000000000000008152600401610db69061297f565b60405180910390fd5b610dc9838361161c565b80610e215750600860009054906101000a900473ffffffffffffffffffffffffffffffffffffffff1673ffffffffffffffffffffffffffffffffffffffff168273ffffffffffffffffffffffffffffffffffffffff16145b905092915050565b60007f01ffc9a7000000000000000000000000000000000000000000000000000000007bffffffffffffffffffffffffffffffffffffffffffffffffffffffff1916827bffffffffffffffffffffffffffffffffffffffffffffffffffffffff1916149050919050565b60008073ffffffffffffffffffffffffffffffffffffffff166002600084815260200190815260200160002060009054906101000a900473ffffffffffffffffffffffffffffffffffffffff1673ffffffffffffffffffffffffffffffffffffffff1614159050919050565b600033905090565b816004600083815260200190815260200160002060006101000a81548173ffffffffffffffffffffffffffffffffffffffff021916908373ffffffffffffffffffffffffffffffffffffffff160217905550808273ffffffffffffffffffffffffffffffffffffffff16610f7a836107fd565b73ffffffffffffffffffffffffffffffffffffffff167f8c5be1e5ebec7d5bd14f71427d1e84f3dd0314c0f7b2291e5b200ac8c7c3b92560405160405180910390a45050565b6000610fcb82610e93565b61100a576040517f08c379a000000000000000000000000000000000000000000000000000000000815260040161100190612a11565b60405180910390fd5b6000611015836107fd565b90508073ffffffffffffffffffffffffffffffffffffffff168473ffffffffffffffffffffffffffffffffffffffff16148061108457508373ffffffffffffffffffffffffffffffffffffffff1661106c846105b7565b73ffffffffffffffffffffffffffffffffffffffff16145b8061109557506110948185610cf7565b5b91505092915050565b8273ffffffffffffffffffffffffffffffffffffffff166110be826107fd565b73ffffffffffffffffffffffffffffffffffffffff1614611114576040517f08c379a000000000000000000000000000000000000000000000000000000000815260040161110b90612aa3565b60405180910390fd5b600073ffffffffffffffffffffffffffffffffffffffff168273ffffffffffffffffffffffffffffffffffffffff1603611183576040517f08c379a000000000000000000000000000000000000000000000000000000000815260040161117a90612b35565b60405180910390fd5b61118e8383836116b0565b611199600082610f07565b6001600360008573ffffffffffffffffffffffffffffffffffffffff1673ffffffffffffffffffffffffffffffffffffffff16815260200190815260200160002060008282546111e99190612759565b925050819055506001600360008473ffffffffffffffffffffffffffffffffffffffff1673ffffffffffffffffffffffffffffffffffffffff16815260200190815260200160002060008282546112409190612b55565b92505081905550816002600083815260200190815260200160002060006101000a81548173ffffffffffffffffffffffffffffffffffffffff021916908373ffffffffffffffffffffffffffffffffffffffff160217905550808273ffffffffffffffffffffffffffffffffffffffff168473ffffffffffffffffffffffffffffffffffffffff167fddf252ad1be2c89b69c2b068fc378daa952ba7f163c4a11628f55a4df523b3ef60405160405180910390a46112ff8383836116b5565b505050565b61131e8282604051806020016040528060008152506116ba565b5050565b61132b82610e93565b61136a576040517f08c379a000000000000000000000000000000000000000000000000000000000815260040161136190612c1d565b60405180910390fd5b80600660008481526020019081526020016000209080519060200190611391929190611bf8565b505050565b8173ffffffffffffffffffffffffffffffffffffffff168373ffffffffffffffffffffffffffffffffffffffff1603611404576040517f08c379a00000000000000000000000000000000000000000000000000000000081526004016113fb90612c89565b60405180910390fd5b80600560008573ffffffffffffffffffffffffffffffffffffffff1673ffffffffffffffffffffffffffffffffffffffff16815260200190815260200160002060008473ffffffffffffffffffffffffffffffffffffffff1673ffffffffffffffffffffffffffffffffffffffff16815260200190815260200160002060006101000a81548160ff0219169083151502179055508173ffffffffffffffffffffffffffffffffffffffff168373ffffffffffffffffffffffffffffffffffffffff167f17307eab39ab6107e8899845ad3d59bd9653f200f220920489ca2b5937696c31836040516114f59190611d4f565b60405180910390a3505050565b61150d84848461109e565b61151984848484611715565b611558576040517f08c379a000000000000000000000000000000000000000000000000000000000815260040161154f90612d1b565b60405180910390fd5b50505050565b606060405180602001604052806000815250905090565b606061158082610e93565b6115bf576040517f08c379a00000000000000000000000000000000000000000000000000000000081526004016115b690612dad565b60405180910390fd5b60006115c961155e565b905060008151116115e95760405180602001604052806000815250611614565b806115f38461189c565b60405160200161160492919061290f565b6040516020818303038152906040525b915050919050565b6000600560008473ffffffffffffffffffffffffffffffffffffffff1673ffffffffffffffffffffffffffffffffffffffff16815260200190815260200160002060008373ffffffffffffffffffffffffffffffffffffffff1673ffffffffffffffffffffffffffffffffffffffff16815260200190815260200160002060009054906101000a900460ff16905092915050565b505050565b505050565b6116c483836119fc565b6116d16000848484611715565b611710576040517f08c379a000000000000000000000000000000000000000000000000000000000815260040161170790612d1b565b60405180910390fd5b505050565b60006117368473ffffffffffffffffffffffffffffffffffffffff16611bd5565b1561188f578373ffffffffffffffffffffffffffffffffffffffff1663150b7a0261175f610eff565b8786866040518563ffffffff1660e01b81526004016117819493929190612e22565b6020604051808303816000875af19250505080156117bd57506040513d601f19601f820116820180604052508101906117ba9190612e83565b60015b61183f573d80600081146117ed576040519150601f19603f3d011682016040523d82523d6000602084013e6117f2565b606091505b506000815103611837576040517f08c379a000000000000000000000000000000000000000000000000000000000815260040161182e90612d1b565b60405180910390fd5b805181602001fd5b63150b7a0260e01b7bffffffffffffffffffffffffffffffffffffffffffffffffffffffff1916817bffffffffffffffffffffffffffffffffffffffffffffffffffffffff191614915050611894565b600190505b949350505050565b6060600082036118e3576040518060400160405280600181526020017f300000000000000000000000000000000000000000000000000000000000000081525090506119f7565b600082905060005b600082146119155780806118fe9061278d565b915050600a8261190e9190612edf565b91506118eb565b60008167ffffffffffffffff81111561193157611930612130565b5b6040519080825280601f01601f1916602001820160405280156119635781602001600182028036833780820191505090505b5090505b600085146119f05760018261197c9190612759565b9150600a8561198b9190612f10565b60306119979190612b55565b60f81b8183815181106119ad576119ac612f41565b5b60200101907effffffffffffffffffffffffffffffffffffffffffffffffffffffffffffff1916908160001a905350600a856119e99190612edf565b9450611967565b8093505050505b919050565b600073ffffffffffffffffffffffffffffffffffffffff168273ffffffffffffffffffffffffffffffffffffffff1603611a6b576040517f08c379a0000000000000000000000000000000000000000000000000000000008152600401611a6290612fbc565b60405180910390fd5b611a7481610e93565b15611ab4576040517f08c379a0000000000000000000000000000000000000000000000000000000008152600401611aab90613028565b60405180910390fd5b611ac0600083836116b0565b6001600360008473ffffffffffffffffffffffffffffffffffffffff1673ffffffffffffffffffffffffffffffffffffffff1681526020019081526020016000206000828254611b109190612b55565b92505081905550816002600083815260200190815260200160002060006101000a81548173ffffffffffffffffffffffffffffffffffffffff021916908373ffffffffffffffffffffffffffffffffffffffff160217905550808273ffffffffffffffffffffffffffffffffffffffff16600073ffffffffffffffffffffffffffffffffffffffff167fddf252ad1be2c89b69c2b068fc378daa952ba7f163c4a11628f55a4df523b3ef60405160405180910390a4611bd1600083836116b5565b5050565b6000808273ffffffffffffffffffffffffffffffffffffffff163b119050919050565b828054611c049061238d565b90600052602060002090601f016020900481019282611c265760008555611c6d565b82601f10611c3f57805160ff1916838001178555611c6d565b82800160010185558215611c6d579182015b82811115611c6c578251825591602001919060010190611c51565b5b509050611c7a9190611c7e565b5090565b5b80821115611c97576000816000905550600101611c7f565b5090565b6000604051905090565b600080fd5b600080fd5b60007fffffffff0000000000000000000000000000000000000000000000000000000082169050919050565b611ce481611caf565b8114611cef57600080fd5b50565b600081359050611d0181611cdb565b92915050565b600060208284031215611d1d57611d1c611ca5565b5b6000611d2b84828501611cf2565b91505092915050565b60008115159050919050565b611d4981611d34565b82525050565b6000602082019050611d646000830184611d40565b92915050565b600081519050919050565b600082825260208201905092915050565b60005b83811015611da4578082015181840152602081019050611d89565b83811115611db3576000848401525b50505050565b6000601f19601f8301169050919050565b6000611dd582611d6a565b611ddf8185611d75565b9350611def818560208601611d86565b611df881611db9565b840191505092915050565b60006020820190508181036000830152611e1d8184611dca565b905092915050565b6000819050919050565b611e3881611e25565b8114611e4357600080fd5b50565b600081359050611e5581611e2f565b92915050565b600060208284031215611e7157611e70611ca5565b5b6000611e7f84828501611e46565b91505092915050565b600073ffffffffffffffffffffffffffffffffffffffff82169050919050565b6000611eb382611e88565b9050919050565b611ec381611ea8565b82525050565b6000602082019050611ede6000830184611eba565b92915050565b611eed81611ea8565b8114611ef857600080fd5b50565b600081359050611f0a81611ee4565b92915050565b60008060408385031215611f2757611f26611ca5565b5b6000611f3585828601611efb565b9250506020611f4685828601611e46565b9150509250929050565b600080600060608486031215611f6957611f68611ca5565b5b6000611f7786828701611efb565b9350506020611f8886828701611efb565b9250506040611f9986828701611e46565b9150509250925092565b600060208284031215611fb957611fb8611ca5565b5b6000611fc784828501611efb565b91505092915050565b611fd981611e25565b82525050565b6000602082019050611ff46000830184611fd0565b92915050565b600080fd5b600080fd5b600080fd5b60008083601f84011261201f5761201e611ffa565b5b8235905067ffffffffffffffff81111561203c5761203b611fff565b5b60208301915083600182028301111561205857612057612004565b5b9250929050565b60008060006040848603121561207857612077611ca5565b5b600084013567ffffffffffffffff81111561209657612095611caa565b5b6120a286828701612009565b935093505060206120b586828701611efb565b9150509250925092565b6120c881611d34565b81146120d357600080fd5b50565b6000813590506120e5816120bf565b92915050565b6000806040838503121561210257612101611ca5565b5b600061211085828601611efb565b9250506020612121858286016120d6565b9150509250929050565b600080fd5b7f4e487b7100000000000000000000000000000000000000000000000000000000600052604160045260246000fd5b61216882611db9565b810181811067ffffffffffffffff8211171561218757612186612130565b5b80604052505050565b600061219a611c9b565b90506121a6828261215f565b919050565b600067ffffffffffffffff8211156121c6576121c5612130565b5b6121cf82611db9565b9050602081019050919050565b82818337600083830152505050565b60006121fe6121f9846121ab565b612190565b90508281526020810184848401111561221a5761221961212b565b5b6122258482856121dc565b509392505050565b600082601f83011261224257612241611ffa565b5b81356122528482602086016121eb565b91505092915050565b6000806000806080858703121561227557612274611ca5565b5b600061228387828801611efb565b945050602061229487828801611efb565b93505060406122a587828801611e46565b925050606085013567ffffffffffffffff8111156122c6576122c5611caa565b5b6122d28782880161222d565b91505092959194509250565b600080604083850312156122f5576122f4611ca5565b5b600061230385828601611e46565b925050602061231485828601611efb565b9150509250929050565b6000806040838503121561233557612334611ca5565b5b600061234385828601611efb565b925050602061235485828601611efb565b9150509250929050565b7f4e487b7100000000000000000000000000000000000000000000000000000000600052602260045260246000fd5b600060028204905060018216806123a557607f821691505b6020821081036123b8576123b761235e565b5b50919050565b7f4552433732313a20617070726f76656420717565727920666f72206e6f6e657860008201527f697374656e7420746f6b656e0000000000000000000000000000000000000000602082015250565b600061241a602c83611d75565b9150612425826123be565b604082019050919050565b600060208201905081810360008301526124498161240d565b9050919050565b7f4552433732313a20617070726f76616c20746f2063757272656e74206f776e6560008201527f7200000000000000000000000000000000000000000000000000000000000000602082015250565b60006124ac602183611d75565b91506124b782612450565b604082019050919050565b600060208201905081810360008301526124db8161249f565b9050919050565b7f4552433732313a20617070726f76652063616c6c6572206973206e6f74206f7760008201527f6e6572206e6f7220617070726f76656420666f7220616c6c0000000000000000602082015250565b600061253e603883611d75565b9150612549826124e2565b604082019050919050565b6000602082019050818103600083015261256d81612531565b9050919050565b7f4552433732313a207472616e736665722063616c6c6572206973206e6f74206f60008201527f776e6572206e6f7220617070726f766564000000000000000000000000000000602082015250565b60006125d0603183611d75565b91506125db82612574565b604082019050919050565b600060208201905081810360008301526125ff816125c3565b9050919050565b7f4552433732313a206f776e657220717565727920666f72206e6f6e657869737460008201527f656e7420746f6b656e0000000000000000000000000000000000000000000000602082015250565b6000612662602983611d75565b915061266d82612606565b604082019050919050565b6000602082019050818103600083015261269181612655565b9050919050565b7f4552433732313a2062616c616e636520717565727920666f7220746865207a6560008201527f726f206164647265737300000000000000000000000000000000000000000000602082015250565b60006126f4602a83611d75565b91506126ff82612698565b604082019050919050565b60006020820190508181036000830152612723816126e7565b9050919050565b7f4e487b7100000000000000000000000000000000000000000000000000000000600052601160045260246000fd5b600061276482611e25565b915061276f83611e25565b9250828210156127825761278161272a565b5b828203905092915050565b600061279882611e25565b91507fffffffffffffffffffffffffffffffffffffffffffffffffffffffffffffffff82036127ca576127c961272a565b5b600182019050919050565b7f546f6b656e206e6f74207472616e736665727265640000000000000000000000600082015250565b600061280b601583611d75565b9150612816826127d5565b602082019050919050565b6000602082019050818103600083015261283a816127fe565b9050919050565b7f45524337323155524953746f726167653a2055524920717565727920666f722060008201527f6e6f6e6578697374656e7420746f6b656e000000000000000000000000000000602082015250565b600061289d603183611d75565b91506128a882612841565b604082019050919050565b600060208201905081810360008301526128cc81612890565b9050919050565b600081905092915050565b60006128e982611d6a565b6128f381856128d3565b9350612903818560208601611d86565b80840191505092915050565b600061291b82856128de565b915061292782846128de565b91508190509392505050565b7f6f70657261746f7220213d2073746f7265416464726573730000000000000000600082015250565b6000612969601883611d75565b915061297482612933565b602082019050919050565b600060208201905081810360008301526129988161295c565b9050919050565b7f4552433732313a206f70657261746f7220717565727920666f72206e6f6e657860008201527f697374656e7420746f6b656e0000000000000000000000000000000000000000602082015250565b60006129fb602c83611d75565b9150612a068261299f565b604082019050919050565b60006020820190508181036000830152612a2a816129ee565b9050919050565b7f4552433732313a207472616e736665722066726f6d20696e636f72726563742060008201527f6f776e6572000000000000000000000000000000000000000000000000000000602082015250565b6000612a8d602583611d75565b9150612a9882612a31565b604082019050919050565b60006020820190508181036000830152612abc81612a80565b9050919050565b7f4552433732313a207472616e7366657220746f20746865207a65726f2061646460008201527f7265737300000000000000000000000000000000000000000000000000000000602082015250565b6000612b1f602483611d75565b9150612b2a82612ac3565b604082019050919050565b60006020820190508181036000830152612b4e81612b12565b9050919050565b6000612b6082611e25565b9150612b6b83611e25565b9250827fffffffffffffffffffffffffffffffffffffffffffffffffffffffffffffffff03821115612ba057612b9f61272a565b5b828201905092915050565b7f45524337323155524953746f726167653a2055524920736574206f66206e6f6e60008201527f6578697374656e7420746f6b656e000000000000000000000000000000000000602082015250565b6000612c07602e83611d75565b9150612c1282612bab565b604082019050919050565b60006020820190508181036000830152612c3681612bfa565b9050919050565b7f4552433732313a20617070726f766520746f2063616c6c657200000000000000600082015250565b6000612c73601983611d75565b9150612c7e82612c3d565b602082019050919050565b60006020820190508181036000830152612ca281612c66565b9050919050565b7f4552433732313a207472616e7366657220746f206e6f6e20455243373231526560008201527f63656976657220696d706c656d656e7465720000000000000000000000000000602082015250565b6000612d05603283611d75565b9150612d1082612ca9565b604082019050919050565b60006020820190508181036000830152612d3481612cf8565b9050919050565b7f4552433732314d657461646174613a2055524920717565727920666f72206e6f60008201527f6e6578697374656e7420746f6b656e0000000000000000000000000000000000602082015250565b6000612d97602f83611d75565b9150612da282612d3b565b604082019050919050565b60006020820190508181036000830152612dc681612d8a565b9050919050565b600081519050919050565b600082825260208201905092915050565b6000612df482612dcd565b612dfe8185612dd8565b9350612e0e818560208601611d86565b612e1781611db9565b840191505092915050565b6000608082019050612e376000830187611eba565b612e446020830186611eba565b612e516040830185611fd0565b8181036060830152612e638184612de9565b905095945050505050565b600081519050612e7d81611cdb565b92915050565b600060208284031215612e9957612e98611ca5565b5b6000612ea784828501612e6e565b91505092915050565b7f4e487b7100000000000000000000000000000000000000000000000000000000600052601260045260246000fd5b6000612eea82611e25565b9150612ef583611e25565b925082612f0557612f04612eb0565b5b828204905092915050565b6000612f1b82611e25565b9150612f2683611e25565b925082612f3657612f35612eb0565b5b828206905092915050565b7f4e487b7100000000000000000000000000000000000000000000000000000000600052603260045260246000fd5b7f4552433732313a206d696e7420746f20746865207a65726f2061646472657373600082015250565b6000612fa6602083611d75565b9150612fb182612f70565b602082019050919050565b60006020820190508181036000830152612fd581612f99565b9050919050565b7f4552433732313a20746f6b656e20616c7265616479206d696e74656400000000600082015250565b6000613012601c83611d75565b915061301d82612fdc565b602082019050919050565b6000602082019050818103600083015261304181613005565b905091905056fea2646970667358221220b01bb60e29a9ce4dcc5becc390404c4b5c17b296157cfd755a33432853d8fe9f64736f6c634300080d0033",
  "immutableReferences": {},
  "source": "// SPDX-License-Identifier: MIT\npragma solidity ^0.8.11;\n\nimport \"../node_modules/@openzeppelin/contracts/token/ERC721/ERC721.sol\";\nimport \"../node_modules/@openzeppelin/contracts/token/ERC721/IERC721Receiver.sol\";\nimport \"../node_modules/@openzeppelin/contracts/token/ERC721/extensions/ERC721URIStorage.sol\";\nimport \"./NFTStore.sol\";\n\ncontract CRYPTNFT is ERC721URIStorage {\n    uint256 private tokenId;\n    address private storeOwner;\n\n    event random(string msg, address addr);\n\n    constructor(address marketplaceAddress) ERC721(\"Cryptverse\", \"CRYPT\") {\n        tokenId = 0;\n        storeOwner = marketplaceAddress;\n    }\n\n    function getLastTokenId() public view returns(uint256) {\n        uint256 nToken = tokenId - 1;\n        return nToken;\n    }\n    \n    function getStoreOwner() public view returns(address) {\n        return storeOwner;\n    }\n\n    function createToken(string calldata tokenURI, address creator) public returns(uint256) {\n        uint256 newItemId = tokenId;\n\n        // _safeMint protects token to be recreated if already created based on tokenId\n        _safeMint(creator, newItemId);\n\n        // setting the image/media url to the token\n        _setTokenURI(newItemId, tokenURI);\n\n        tokenId++;\n\n        return newItemId;\n    }\n    // function createToken(string calldata tokenURI) public {\n    //     uint256 newItemId = tokenId;\n\n    //     // _safeMint protects token to be recreated if already created based on tokenId\n    //     _safeMint(msg.sender, newItemId);\n\n    //     // setting the image/media url to the token\n    //     _setTokenURI(newItemId, tokenURI);\n\n    //     tokenId++;\n    // }\n\n    function isApprovedForAll(address owner, address operator)\n        public\n        view\n        virtual\n        override\n        returns (bool) \n    {\n        // preapproved marketplace\n        require(operator == storeOwner || operator == owner, \"operator != storeAddress\");\n        return super.isApprovedForAll(owner, operator) || operator == storeOwner;\n    }\n\n    function transferToken(uint256 id, address buyer) public payable {\n        address currentOwner = ownerOf(id);\n        transferFrom(currentOwner, buyer, id);\n        address newOwner = ownerOf(id);\n        require(newOwner == buyer, \"Token not transferred\");\n    }\n}",
  "sourcePath": "/Users/abhinavkhanduja/Desktop/BlockchainDevelopment/cryptagram/packages/smart-contracts/contracts/CRYPTNFT.sol",
  "compiler": {
    "name": "solc",
    "version": "0.8.13+commit.abaa5c0e.Emscripten.clang"
  },
  "schemaVersion": "3.4.4",
  "updatedAt": "2022-04-13T11:01:52.545Z",
  "networkType": "ethereum",
  "devdoc": {
    "kind": "dev",
    "methods": {
      "approve(address,uint256)": {
        "details": "See {IERC721-approve}."
      },
      "balanceOf(address)": {
        "details": "See {IERC721-balanceOf}."
      },
      "getApproved(uint256)": {
        "details": "See {IERC721-getApproved}."
      },
      "isApprovedForAll(address,address)": {
        "details": "See {IERC721-isApprovedForAll}."
      },
      "name()": {
        "details": "See {IERC721Metadata-name}."
      },
      "ownerOf(uint256)": {
        "details": "See {IERC721-ownerOf}."
      },
      "safeTransferFrom(address,address,uint256)": {
        "details": "See {IERC721-safeTransferFrom}."
      },
      "safeTransferFrom(address,address,uint256,bytes)": {
        "details": "See {IERC721-safeTransferFrom}."
      },
      "setApprovalForAll(address,bool)": {
        "details": "See {IERC721-setApprovalForAll}."
      },
      "supportsInterface(bytes4)": {
        "details": "See {IERC165-supportsInterface}."
      },
      "symbol()": {
        "details": "See {IERC721Metadata-symbol}."
      },
      "tokenURI(uint256)": {
        "details": "See {IERC721Metadata-tokenURI}."
      },
      "transferFrom(address,address,uint256)": {
        "details": "See {IERC721-transferFrom}."
      }
    },
    "version": 1
  },
  "userdoc": {
    "kind": "user",
    "methods": {},
    "version": 1
  }
}