{
  "contractName": "NFT",
  "abi": [
    {
      "inputs": [
        {
          "internalType": "address",
          "name": "marketplaceAddress",
          "type": "address"
        }
      ],
      "stateMutability": "nonpayable",
      "type": "constructor"
    },
    {
      "anonymous": false,
      "inputs": [
        {
          "indexed": true,
          "internalType": "address",
          "name": "owner",
          "type": "address"
        },
        {
          "indexed": true,
          "internalType": "address",
          "name": "approved",
          "type": "address"
        },
        {
          "indexed": true,
          "internalType": "uint256",
          "name": "tokenId",
          "type": "uint256"
        }
      ],
      "name": "Approval",
      "type": "event"
    },
    {
      "anonymous": false,
      "inputs": [
        {
          "indexed": true,
          "internalType": "address",
          "name": "owner",
          "type": "address"
        },
        {
          "indexed": true,
          "internalType": "address",
          "name": "operator",
          "type": "address"
        },
        {
          "indexed": false,
          "internalType": "bool",
          "name": "approved",
          "type": "bool"
        }
      ],
      "name": "ApprovalForAll",
      "type": "event"
    },
    {
      "anonymous": false,
      "inputs": [
        {
          "indexed": true,
          "internalType": "address",
          "name": "from",
          "type": "address"
        },
        {
          "indexed": true,
          "internalType": "address",
          "name": "to",
          "type": "address"
        },
        {
          "indexed": true,
          "internalType": "uint256",
          "name": "tokenId",
          "type": "uint256"
        }
      ],
      "name": "Transfer",
      "type": "event"
    },
    {
      "inputs": [
        {
          "internalType": "address",
          "name": "to",
          "type": "address"
        },
        {
          "internalType": "uint256",
          "name": "tokenId",
          "type": "uint256"
        }
      ],
      "name": "approve",
      "outputs": [],
      "stateMutability": "nonpayable",
      "type": "function"
    },
    {
      "inputs": [
        {
          "internalType": "address",
          "name": "owner",
          "type": "address"
        }
      ],
      "name": "balanceOf",
      "outputs": [
        {
          "internalType": "uint256",
          "name": "",
          "type": "uint256"
        }
      ],
      "stateMutability": "view",
      "type": "function",
      "constant": true
    },
    {
      "inputs": [
        {
          "internalType": "uint256",
          "name": "tokenId",
          "type": "uint256"
        }
      ],
      "name": "getApproved",
      "outputs": [
        {
          "internalType": "address",
          "name": "",
          "type": "address"
        }
      ],
      "stateMutability": "view",
      "type": "function",
      "constant": true
    },
    {
      "inputs": [
        {
          "internalType": "address",
          "name": "owner",
          "type": "address"
        },
        {
          "internalType": "address",
          "name": "operator",
          "type": "address"
        }
      ],
      "name": "isApprovedForAll",
      "outputs": [
        {
          "internalType": "bool",
          "name": "",
          "type": "bool"
        }
      ],
      "stateMutability": "view",
      "type": "function",
      "constant": true
    },
    {
      "inputs": [],
      "name": "name",
      "outputs": [
        {
          "internalType": "string",
          "name": "",
          "type": "string"
        }
      ],
      "stateMutability": "view",
      "type": "function",
      "constant": true
    },
    {
      "inputs": [
        {
          "internalType": "uint256",
          "name": "tokenId",
          "type": "uint256"
        }
      ],
      "name": "ownerOf",
      "outputs": [
        {
          "internalType": "address",
          "name": "",
          "type": "address"
        }
      ],
      "stateMutability": "view",
      "type": "function",
      "constant": true
    },
    {
      "inputs": [
        {
          "internalType": "address",
          "name": "from",
          "type": "address"
        },
        {
          "internalType": "address",
          "name": "to",
          "type": "address"
        },
        {
          "internalType": "uint256",
          "name": "tokenId",
          "type": "uint256"
        }
      ],
      "name": "safeTransferFrom",
      "outputs": [],
      "stateMutability": "nonpayable",
      "type": "function"
    },
    {
      "inputs": [
        {
          "internalType": "address",
          "name": "from",
          "type": "address"
        },
        {
          "internalType": "address",
          "name": "to",
          "type": "address"
        },
        {
          "internalType": "uint256",
          "name": "tokenId",
          "type": "uint256"
        },
        {
          "internalType": "bytes",
          "name": "_data",
          "type": "bytes"
        }
      ],
      "name": "safeTransferFrom",
      "outputs": [],
      "stateMutability": "nonpayable",
      "type": "function"
    },
    {
      "inputs": [
        {
          "internalType": "address",
          "name": "operator",
          "type": "address"
        },
        {
          "internalType": "bool",
          "name": "approved",
          "type": "bool"
        }
      ],
      "name": "setApprovalForAll",
      "outputs": [],
      "stateMutability": "nonpayable",
      "type": "function"
    },
    {
      "inputs": [
        {
          "internalType": "bytes4",
          "name": "interfaceId",
          "type": "bytes4"
        }
      ],
      "name": "supportsInterface",
      "outputs": [
        {
          "internalType": "bool",
          "name": "",
          "type": "bool"
        }
      ],
      "stateMutability": "view",
      "type": "function",
      "constant": true
    },
    {
      "inputs": [],
      "name": "symbol",
      "outputs": [
        {
          "internalType": "string",
          "name": "",
          "type": "string"
        }
      ],
      "stateMutability": "view",
      "type": "function",
      "constant": true
    },
    {
      "inputs": [
        {
          "internalType": "uint256",
          "name": "tokenId",
          "type": "uint256"
        }
      ],
      "name": "tokenURI",
      "outputs": [
        {
          "internalType": "string",
          "name": "",
          "type": "string"
        }
      ],
      "stateMutability": "view",
      "type": "function",
      "constant": true
    },
    {
      "inputs": [
        {
          "internalType": "address",
          "name": "from",
          "type": "address"
        },
        {
          "internalType": "address",
          "name": "to",
          "type": "address"
        },
        {
          "internalType": "uint256",
          "name": "tokenId",
          "type": "uint256"
        }
      ],
      "name": "transferFrom",
      "outputs": [],
      "stateMutability": "nonpayable",
      "type": "function"
    },
    {
      "inputs": [],
      "name": "getCurrentId",
      "outputs": [
        {
          "internalType": "uint256",
          "name": "",
          "type": "uint256"
        }
      ],
      "stateMutability": "view",
      "type": "function",
      "constant": true
    },
    {
      "inputs": [
        {
          "internalType": "string",
          "name": "tokenURI",
          "type": "string"
        }
      ],
      "name": "createToken",
      "outputs": [],
      "stateMutability": "nonpayable",
      "type": "function"
    },
    {
      "inputs": [
        {
          "internalType": "uint256",
          "name": "token",
          "type": "uint256"
        }
      ],
      "name": "getTokenURI",
      "outputs": [
        {
          "internalType": "string",
          "name": "",
          "type": "string"
        }
      ],
      "stateMutability": "view",
      "type": "function",
      "constant": true
    }
  ],
  "bytecode": "0x60806040523480156200001157600080fd5b506040516200311138038062003111833981810160405281019062000037919062000241565b6040518060400160405280600a81526020017f43727970747665727365000000000000000000000000000000000000000000008152506040518060400160405280600581526020017f43525950540000000000000000000000000000000000000000000000000000008152508160009080519060200190620000bb92919062000127565b508060019080519060200190620000d492919062000127565b505050600060078190555080600860006101000a81548173ffffffffffffffffffffffffffffffffffffffff021916908373ffffffffffffffffffffffffffffffffffffffff16021790555050620002d7565b8280546200013590620002a2565b90600052602060002090601f016020900481019282620001595760008555620001a5565b82601f106200017457805160ff1916838001178555620001a5565b82800160010185558215620001a5579182015b82811115620001a457825182559160200191906001019062000187565b5b509050620001b49190620001b8565b5090565b5b80821115620001d3576000816000905550600101620001b9565b5090565b600080fd5b600073ffffffffffffffffffffffffffffffffffffffff82169050919050565b60006200020982620001dc565b9050919050565b6200021b81620001fc565b81146200022757600080fd5b50565b6000815190506200023b8162000210565b92915050565b6000602082840312156200025a5762000259620001d7565b5b60006200026a848285016200022a565b91505092915050565b7f4e487b7100000000000000000000000000000000000000000000000000000000600052602260045260246000fd5b60006002820490506001821680620002bb57607f821691505b602082108103620002d157620002d062000273565b5b50919050565b612e2a80620002e76000396000f3fe608060405234801561001057600080fd5b50600436106101005760003560e01c80636352211e11610097578063a22cb46511610066578063a22cb465146102bf578063b88d4fde146102db578063c87b56dd146102f7578063e985e9c51461032757610100565b80636352211e146102235780636c1438621461025357806370a082311461027157806395d89b41146102a157610100565b806323b872dd116100d357806323b872dd1461019f5780633bb3a24d146101bb57806342842e0e146101eb57806345576f941461020757610100565b806301ffc9a71461010557806306fdde0314610135578063081812fc14610153578063095ea7b314610183575b600080fd5b61011f600480360381019061011a9190611b06565b610357565b60405161012c9190611b4e565b60405180910390f35b61013d610439565b60405161014a9190611c02565b60405180910390f35b61016d60048036038101906101689190611c5a565b6104cb565b60405161017a9190611cc8565b60405180910390f35b61019d60048036038101906101989190611d0f565b610550565b005b6101b960048036038101906101b49190611d4f565b610667565b005b6101d560048036038101906101d09190611c5a565b6106c7565b6040516101e29190611c02565b60405180910390f35b61020560048036038101906102009190611d4f565b610792565b005b610221600480360381019061021c9190611e07565b6107b2565b005b61023d60048036038101906102389190611c5a565b61085b565b60405161024a9190611cc8565b60405180910390f35b61025b61090c565b6040516102689190611e63565b60405180910390f35b61028b60048036038101906102869190611e7e565b610916565b6040516102989190611e63565b60405180910390f35b6102a96109cd565b6040516102b69190611c02565b60405180910390f35b6102d960048036038101906102d49190611ed7565b610a5f565b005b6102f560048036038101906102f09190612047565b610a75565b005b610311600480360381019061030c9190611c5a565b610ad7565b60405161031e9190611c02565b60405180910390f35b610341600480360381019061033c91906120ca565b610c28565b60405161034e9190611b4e565b60405180910390f35b60007f80ac58cd000000000000000000000000000000000000000000000000000000007bffffffffffffffffffffffffffffffffffffffffffffffffffffffff1916827bffffffffffffffffffffffffffffffffffffffffffffffffffffffff1916148061042257507f5b5e139f000000000000000000000000000000000000000000000000000000007bffffffffffffffffffffffffffffffffffffffffffffffffffffffff1916827bffffffffffffffffffffffffffffffffffffffffffffffffffffffff1916145b80610432575061043182610cbc565b5b9050919050565b60606000805461044890612139565b80601f016020809104026020016040519081016040528092919081815260200182805461047490612139565b80156104c15780601f10610496576101008083540402835291602001916104c1565b820191906000526020600020905b8154815290600101906020018083116104a457829003601f168201915b5050505050905090565b60006104d682610d26565b610515576040517f08c379a000000000000000000000000000000000000000000000000000000000815260040161050c906121dc565b60405180910390fd5b6004600083815260200190815260200160002060009054906101000a900473ffffffffffffffffffffffffffffffffffffffff169050919050565b600061055b8261085b565b90508073ffffffffffffffffffffffffffffffffffffffff168373ffffffffffffffffffffffffffffffffffffffff16036105cb576040517f08c379a00000000000000000000000000000000000000000000000000000000081526004016105c29061226e565b60405180910390fd5b8073ffffffffffffffffffffffffffffffffffffffff166105ea610d92565b73ffffffffffffffffffffffffffffffffffffffff161480610619575061061881610613610d92565b610c28565b5b610658576040517f08c379a000000000000000000000000000000000000000000000000000000000815260040161064f90612300565b60405180910390fd5b6106628383610d9a565b505050565b610678610672610d92565b82610e53565b6106b7576040517f08c379a00000000000000000000000000000000000000000000000000000000081526004016106ae90612392565b60405180910390fd5b6106c2838383610f31565b505050565b6060600082101561070d576040517f08c379a0000000000000000000000000000000000000000000000000000000008152600401610704906123fe565b60405180910390fd5b600073ffffffffffffffffffffffffffffffffffffffff163373ffffffffffffffffffffffffffffffffffffffff160361077c576040517f08c379a00000000000000000000000000000000000000000000000000000000081526004016107739061246a565b60405180910390fd5b600061078783610ad7565b905080915050919050565b6107ad83838360405180602001604052806000815250610a75565b505050565b600060075490506107c33382611197565b6108118184848080601f016020809104026020016040519081016040528093929190818152602001838380828437600081840152601f19601f820116905080830192505050505050506111b5565b61083e600860009054906101000a900473ffffffffffffffffffffffffffffffffffffffff166001610a5f565b60076000815480929190610851906124b9565b9190505550505050565b6000806002600084815260200190815260200160002060009054906101000a900473ffffffffffffffffffffffffffffffffffffffff169050600073ffffffffffffffffffffffffffffffffffffffff168173ffffffffffffffffffffffffffffffffffffffff1603610903576040517f08c379a00000000000000000000000000000000000000000000000000000000081526004016108fa90612573565b60405180910390fd5b80915050919050565b6000600754905090565b60008073ffffffffffffffffffffffffffffffffffffffff168273ffffffffffffffffffffffffffffffffffffffff1603610986576040517f08c379a000000000000000000000000000000000000000000000000000000000815260040161097d90612605565b60405180910390fd5b600360008373ffffffffffffffffffffffffffffffffffffffff1673ffffffffffffffffffffffffffffffffffffffff168152602001908152602001600020549050919050565b6060600180546109dc90612139565b80601f0160208091040260200160405190810160405280929190818152602001828054610a0890612139565b8015610a555780601f10610a2a57610100808354040283529160200191610a55565b820191906000526020600020905b815481529060010190602001808311610a3857829003601f168201915b5050505050905090565b610a71610a6a610d92565b8383611229565b5050565b610a86610a80610d92565b83610e53565b610ac5576040517f08c379a0000000000000000000000000000000000000000000000000000000008152600401610abc90612392565b60405180910390fd5b610ad184848484611395565b50505050565b6060610ae282610d26565b610b21576040517f08c379a0000000000000000000000000000000000000000000000000000000008152600401610b1890612697565b60405180910390fd5b6000600660008481526020019081526020016000208054610b4190612139565b80601f0160208091040260200160405190810160405280929190818152602001828054610b6d90612139565b8015610bba5780601f10610b8f57610100808354040283529160200191610bba565b820191906000526020600020905b815481529060010190602001808311610b9d57829003601f168201915b505050505090506000610bcb6113f1565b90506000815103610be0578192505050610c23565b600082511115610c15578082604051602001610bfd9291906126f3565b60405160208183030381529060405292505050610c23565b610c1e84611408565b925050505b919050565b6000600560008473ffffffffffffffffffffffffffffffffffffffff1673ffffffffffffffffffffffffffffffffffffffff16815260200190815260200160002060008373ffffffffffffffffffffffffffffffffffffffff1673ffffffffffffffffffffffffffffffffffffffff16815260200190815260200160002060009054906101000a900460ff16905092915050565b60007f01ffc9a7000000000000000000000000000000000000000000000000000000007bffffffffffffffffffffffffffffffffffffffffffffffffffffffff1916827bffffffffffffffffffffffffffffffffffffffffffffffffffffffff1916149050919050565b60008073ffffffffffffffffffffffffffffffffffffffff166002600084815260200190815260200160002060009054906101000a900473ffffffffffffffffffffffffffffffffffffffff1673ffffffffffffffffffffffffffffffffffffffff1614159050919050565b600033905090565b816004600083815260200190815260200160002060006101000a81548173ffffffffffffffffffffffffffffffffffffffff021916908373ffffffffffffffffffffffffffffffffffffffff160217905550808273ffffffffffffffffffffffffffffffffffffffff16610e0d8361085b565b73ffffffffffffffffffffffffffffffffffffffff167f8c5be1e5ebec7d5bd14f71427d1e84f3dd0314c0f7b2291e5b200ac8c7c3b92560405160405180910390a45050565b6000610e5e82610d26565b610e9d576040517f08c379a0000000000000000000000000000000000000000000000000000000008152600401610e9490612789565b60405180910390fd5b6000610ea88361085b565b90508073ffffffffffffffffffffffffffffffffffffffff168473ffffffffffffffffffffffffffffffffffffffff161480610f1757508373ffffffffffffffffffffffffffffffffffffffff16610eff846104cb565b73ffffffffffffffffffffffffffffffffffffffff16145b80610f285750610f278185610c28565b5b91505092915050565b8273ffffffffffffffffffffffffffffffffffffffff16610f518261085b565b73ffffffffffffffffffffffffffffffffffffffff1614610fa7576040517f08c379a0000000000000000000000000000000000000000000000000000000008152600401610f9e9061281b565b60405180910390fd5b600073ffffffffffffffffffffffffffffffffffffffff168273ffffffffffffffffffffffffffffffffffffffff1603611016576040517f08c379a000000000000000000000000000000000000000000000000000000000815260040161100d906128ad565b60405180910390fd5b6110218383836114af565b61102c600082610d9a565b6001600360008573ffffffffffffffffffffffffffffffffffffffff1673ffffffffffffffffffffffffffffffffffffffff168152602001908152602001600020600082825461107c91906128cd565b925050819055506001600360008473ffffffffffffffffffffffffffffffffffffffff1673ffffffffffffffffffffffffffffffffffffffff16815260200190815260200160002060008282546110d39190612901565b92505081905550816002600083815260200190815260200160002060006101000a81548173ffffffffffffffffffffffffffffffffffffffff021916908373ffffffffffffffffffffffffffffffffffffffff160217905550808273ffffffffffffffffffffffffffffffffffffffff168473ffffffffffffffffffffffffffffffffffffffff167fddf252ad1be2c89b69c2b068fc378daa952ba7f163c4a11628f55a4df523b3ef60405160405180910390a46111928383836114b4565b505050565b6111b18282604051806020016040528060008152506114b9565b5050565b6111be82610d26565b6111fd576040517f08c379a00000000000000000000000000000000000000000000000000000000081526004016111f4906129c9565b60405180910390fd5b806006600084815260200190815260200160002090805190602001906112249291906119f7565b505050565b8173ffffffffffffffffffffffffffffffffffffffff168373ffffffffffffffffffffffffffffffffffffffff1603611297576040517f08c379a000000000000000000000000000000000000000000000000000000000815260040161128e90612a35565b60405180910390fd5b80600560008573ffffffffffffffffffffffffffffffffffffffff1673ffffffffffffffffffffffffffffffffffffffff16815260200190815260200160002060008473ffffffffffffffffffffffffffffffffffffffff1673ffffffffffffffffffffffffffffffffffffffff16815260200190815260200160002060006101000a81548160ff0219169083151502179055508173ffffffffffffffffffffffffffffffffffffffff168373ffffffffffffffffffffffffffffffffffffffff167f17307eab39ab6107e8899845ad3d59bd9653f200f220920489ca2b5937696c31836040516113889190611b4e565b60405180910390a3505050565b6113a0848484610f31565b6113ac84848484611514565b6113eb576040517f08c379a00000000000000000000000000000000000000000000000000000000081526004016113e290612ac7565b60405180910390fd5b50505050565b606060405180602001604052806000815250905090565b606061141382610d26565b611452576040517f08c379a000000000000000000000000000000000000000000000000000000000815260040161144990612b59565b60405180910390fd5b600061145c6113f1565b9050600081511161147c57604051806020016040528060008152506114a7565b806114868461169b565b6040516020016114979291906126f3565b6040516020818303038152906040525b915050919050565b505050565b505050565b6114c383836117fb565b6114d06000848484611514565b61150f576040517f08c379a000000000000000000000000000000000000000000000000000000000815260040161150690612ac7565b60405180910390fd5b505050565b60006115358473ffffffffffffffffffffffffffffffffffffffff166119d4565b1561168e578373ffffffffffffffffffffffffffffffffffffffff1663150b7a0261155e610d92565b8786866040518563ffffffff1660e01b81526004016115809493929190612bce565b6020604051808303816000875af19250505080156115bc57506040513d601f19601f820116820180604052508101906115b99190612c2f565b60015b61163e573d80600081146115ec576040519150601f19603f3d011682016040523d82523d6000602084013e6115f1565b606091505b506000815103611636576040517f08c379a000000000000000000000000000000000000000000000000000000000815260040161162d90612ac7565b60405180910390fd5b805181602001fd5b63150b7a0260e01b7bffffffffffffffffffffffffffffffffffffffffffffffffffffffff1916817bffffffffffffffffffffffffffffffffffffffffffffffffffffffff191614915050611693565b600190505b949350505050565b6060600082036116e2576040518060400160405280600181526020017f300000000000000000000000000000000000000000000000000000000000000081525090506117f6565b600082905060005b600082146117145780806116fd906124b9565b915050600a8261170d9190612c8b565b91506116ea565b60008167ffffffffffffffff8111156117305761172f611f1c565b5b6040519080825280601f01601f1916602001820160405280156117625781602001600182028036833780820191505090505b5090505b600085146117ef5760018261177b91906128cd565b9150600a8561178a9190612cbc565b60306117969190612901565b60f81b8183815181106117ac576117ab612ced565b5b60200101907effffffffffffffffffffffffffffffffffffffffffffffffffffffffffffff1916908160001a905350600a856117e89190612c8b565b9450611766565b8093505050505b919050565b600073ffffffffffffffffffffffffffffffffffffffff168273ffffffffffffffffffffffffffffffffffffffff160361186a576040517f08c379a000000000000000000000000000000000000000000000000000000000815260040161186190612d68565b60405180910390fd5b61187381610d26565b156118b3576040517f08c379a00000000000000000000000000000000000000000000000000000000081526004016118aa90612dd4565b60405180910390fd5b6118bf600083836114af565b6001600360008473ffffffffffffffffffffffffffffffffffffffff1673ffffffffffffffffffffffffffffffffffffffff168152602001908152602001600020600082825461190f9190612901565b92505081905550816002600083815260200190815260200160002060006101000a81548173ffffffffffffffffffffffffffffffffffffffff021916908373ffffffffffffffffffffffffffffffffffffffff160217905550808273ffffffffffffffffffffffffffffffffffffffff16600073ffffffffffffffffffffffffffffffffffffffff167fddf252ad1be2c89b69c2b068fc378daa952ba7f163c4a11628f55a4df523b3ef60405160405180910390a46119d0600083836114b4565b5050565b6000808273ffffffffffffffffffffffffffffffffffffffff163b119050919050565b828054611a0390612139565b90600052602060002090601f016020900481019282611a255760008555611a6c565b82601f10611a3e57805160ff1916838001178555611a6c565b82800160010185558215611a6c579182015b82811115611a6b578251825591602001919060010190611a50565b5b509050611a799190611a7d565b5090565b5b80821115611a96576000816000905550600101611a7e565b5090565b6000604051905090565b600080fd5b600080fd5b60007fffffffff0000000000000000000000000000000000000000000000000000000082169050919050565b611ae381611aae565b8114611aee57600080fd5b50565b600081359050611b0081611ada565b92915050565b600060208284031215611b1c57611b1b611aa4565b5b6000611b2a84828501611af1565b91505092915050565b60008115159050919050565b611b4881611b33565b82525050565b6000602082019050611b636000830184611b3f565b92915050565b600081519050919050565b600082825260208201905092915050565b60005b83811015611ba3578082015181840152602081019050611b88565b83811115611bb2576000848401525b50505050565b6000601f19601f8301169050919050565b6000611bd482611b69565b611bde8185611b74565b9350611bee818560208601611b85565b611bf781611bb8565b840191505092915050565b60006020820190508181036000830152611c1c8184611bc9565b905092915050565b6000819050919050565b611c3781611c24565b8114611c4257600080fd5b50565b600081359050611c5481611c2e565b92915050565b600060208284031215611c7057611c6f611aa4565b5b6000611c7e84828501611c45565b91505092915050565b600073ffffffffffffffffffffffffffffffffffffffff82169050919050565b6000611cb282611c87565b9050919050565b611cc281611ca7565b82525050565b6000602082019050611cdd6000830184611cb9565b92915050565b611cec81611ca7565b8114611cf757600080fd5b50565b600081359050611d0981611ce3565b92915050565b60008060408385031215611d2657611d25611aa4565b5b6000611d3485828601611cfa565b9250506020611d4585828601611c45565b9150509250929050565b600080600060608486031215611d6857611d67611aa4565b5b6000611d7686828701611cfa565b9350506020611d8786828701611cfa565b9250506040611d9886828701611c45565b9150509250925092565b600080fd5b600080fd5b600080fd5b60008083601f840112611dc757611dc6611da2565b5b8235905067ffffffffffffffff811115611de457611de3611da7565b5b602083019150836001820283011115611e0057611dff611dac565b5b9250929050565b60008060208385031215611e1e57611e1d611aa4565b5b600083013567ffffffffffffffff811115611e3c57611e3b611aa9565b5b611e4885828601611db1565b92509250509250929050565b611e5d81611c24565b82525050565b6000602082019050611e786000830184611e54565b92915050565b600060208284031215611e9457611e93611aa4565b5b6000611ea284828501611cfa565b91505092915050565b611eb481611b33565b8114611ebf57600080fd5b50565b600081359050611ed181611eab565b92915050565b60008060408385031215611eee57611eed611aa4565b5b6000611efc85828601611cfa565b9250506020611f0d85828601611ec2565b9150509250929050565b600080fd5b7f4e487b7100000000000000000000000000000000000000000000000000000000600052604160045260246000fd5b611f5482611bb8565b810181811067ffffffffffffffff82111715611f7357611f72611f1c565b5b80604052505050565b6000611f86611a9a565b9050611f928282611f4b565b919050565b600067ffffffffffffffff821115611fb257611fb1611f1c565b5b611fbb82611bb8565b9050602081019050919050565b82818337600083830152505050565b6000611fea611fe584611f97565b611f7c565b90508281526020810184848401111561200657612005611f17565b5b612011848285611fc8565b509392505050565b600082601f83011261202e5761202d611da2565b5b813561203e848260208601611fd7565b91505092915050565b6000806000806080858703121561206157612060611aa4565b5b600061206f87828801611cfa565b945050602061208087828801611cfa565b935050604061209187828801611c45565b925050606085013567ffffffffffffffff8111156120b2576120b1611aa9565b5b6120be87828801612019565b91505092959194509250565b600080604083850312156120e1576120e0611aa4565b5b60006120ef85828601611cfa565b925050602061210085828601611cfa565b9150509250929050565b7f4e487b7100000000000000000000000000000000000000000000000000000000600052602260045260246000fd5b6000600282049050600182168061215157607f821691505b6020821081036121645761216361210a565b5b50919050565b7f4552433732313a20617070726f76656420717565727920666f72206e6f6e657860008201527f697374656e7420746f6b656e0000000000000000000000000000000000000000602082015250565b60006121c6602c83611b74565b91506121d18261216a565b604082019050919050565b600060208201905081810360008301526121f5816121b9565b9050919050565b7f4552433732313a20617070726f76616c20746f2063757272656e74206f776e6560008201527f7200000000000000000000000000000000000000000000000000000000000000602082015250565b6000612258602183611b74565b9150612263826121fc565b604082019050919050565b600060208201905081810360008301526122878161224b565b9050919050565b7f4552433732313a20617070726f76652063616c6c6572206973206e6f74206f7760008201527f6e6572206e6f7220617070726f76656420666f7220616c6c0000000000000000602082015250565b60006122ea603883611b74565b91506122f58261228e565b604082019050919050565b60006020820190508181036000830152612319816122dd565b9050919050565b7f4552433732313a207472616e736665722063616c6c6572206973206e6f74206f60008201527f776e6572206e6f7220617070726f766564000000000000000000000000000000602082015250565b600061237c603183611b74565b915061238782612320565b604082019050919050565b600060208201905081810360008301526123ab8161236f565b9050919050565b7f546f6b656e206964206973207265717569726564000000000000000000000000600082015250565b60006123e8601483611b74565b91506123f3826123b2565b602082019050919050565b60006020820190508181036000830152612417816123db565b9050919050565b7f4163636f756e7420616464726573732069642069732072657175697265640000600082015250565b6000612454601e83611b74565b915061245f8261241e565b602082019050919050565b6000602082019050818103600083015261248381612447565b9050919050565b7f4e487b7100000000000000000000000000000000000000000000000000000000600052601160045260246000fd5b60006124c482611c24565b91507fffffffffffffffffffffffffffffffffffffffffffffffffffffffffffffffff82036124f6576124f561248a565b5b600182019050919050565b7f4552433732313a206f776e657220717565727920666f72206e6f6e657869737460008201527f656e7420746f6b656e0000000000000000000000000000000000000000000000602082015250565b600061255d602983611b74565b915061256882612501565b604082019050919050565b6000602082019050818103600083015261258c81612550565b9050919050565b7f4552433732313a2062616c616e636520717565727920666f7220746865207a6560008201527f726f206164647265737300000000000000000000000000000000000000000000602082015250565b60006125ef602a83611b74565b91506125fa82612593565b604082019050919050565b6000602082019050818103600083015261261e816125e2565b9050919050565b7f45524337323155524953746f726167653a2055524920717565727920666f722060008201527f6e6f6e6578697374656e7420746f6b656e000000000000000000000000000000602082015250565b6000612681603183611b74565b915061268c82612625565b604082019050919050565b600060208201905081810360008301526126b081612674565b9050919050565b600081905092915050565b60006126cd82611b69565b6126d781856126b7565b93506126e7818560208601611b85565b80840191505092915050565b60006126ff82856126c2565b915061270b82846126c2565b91508190509392505050565b7f4552433732313a206f70657261746f7220717565727920666f72206e6f6e657860008201527f697374656e7420746f6b656e0000000000000000000000000000000000000000602082015250565b6000612773602c83611b74565b915061277e82612717565b604082019050919050565b600060208201905081810360008301526127a281612766565b9050919050565b7f4552433732313a207472616e736665722066726f6d20696e636f72726563742060008201527f6f776e6572000000000000000000000000000000000000000000000000000000602082015250565b6000612805602583611b74565b9150612810826127a9565b604082019050919050565b60006020820190508181036000830152612834816127f8565b9050919050565b7f4552433732313a207472616e7366657220746f20746865207a65726f2061646460008201527f7265737300000000000000000000000000000000000000000000000000000000602082015250565b6000612897602483611b74565b91506128a28261283b565b604082019050919050565b600060208201905081810360008301526128c68161288a565b9050919050565b60006128d882611c24565b91506128e383611c24565b9250828210156128f6576128f561248a565b5b828203905092915050565b600061290c82611c24565b915061291783611c24565b9250827fffffffffffffffffffffffffffffffffffffffffffffffffffffffffffffffff0382111561294c5761294b61248a565b5b828201905092915050565b7f45524337323155524953746f726167653a2055524920736574206f66206e6f6e60008201527f6578697374656e7420746f6b656e000000000000000000000000000000000000602082015250565b60006129b3602e83611b74565b91506129be82612957565b604082019050919050565b600060208201905081810360008301526129e2816129a6565b9050919050565b7f4552433732313a20617070726f766520746f2063616c6c657200000000000000600082015250565b6000612a1f601983611b74565b9150612a2a826129e9565b602082019050919050565b60006020820190508181036000830152612a4e81612a12565b9050919050565b7f4552433732313a207472616e7366657220746f206e6f6e20455243373231526560008201527f63656976657220696d706c656d656e7465720000000000000000000000000000602082015250565b6000612ab1603283611b74565b9150612abc82612a55565b604082019050919050565b60006020820190508181036000830152612ae081612aa4565b9050919050565b7f4552433732314d657461646174613a2055524920717565727920666f72206e6f60008201527f6e6578697374656e7420746f6b656e0000000000000000000000000000000000602082015250565b6000612b43602f83611b74565b9150612b4e82612ae7565b604082019050919050565b60006020820190508181036000830152612b7281612b36565b9050919050565b600081519050919050565b600082825260208201905092915050565b6000612ba082612b79565b612baa8185612b84565b9350612bba818560208601611b85565b612bc381611bb8565b840191505092915050565b6000608082019050612be36000830187611cb9565b612bf06020830186611cb9565b612bfd6040830185611e54565b8181036060830152612c0f8184612b95565b905095945050505050565b600081519050612c2981611ada565b92915050565b600060208284031215612c4557612c44611aa4565b5b6000612c5384828501612c1a565b91505092915050565b7f4e487b7100000000000000000000000000000000000000000000000000000000600052601260045260246000fd5b6000612c9682611c24565b9150612ca183611c24565b925082612cb157612cb0612c5c565b5b828204905092915050565b6000612cc782611c24565b9150612cd283611c24565b925082612ce257612ce1612c5c565b5b828206905092915050565b7f4e487b7100000000000000000000000000000000000000000000000000000000600052603260045260246000fd5b7f4552433732313a206d696e7420746f20746865207a65726f2061646472657373600082015250565b6000612d52602083611b74565b9150612d5d82612d1c565b602082019050919050565b60006020820190508181036000830152612d8181612d45565b9050919050565b7f4552433732313a20746f6b656e20616c7265616479206d696e74656400000000600082015250565b6000612dbe601c83611b74565b9150612dc982612d88565b602082019050919050565b60006020820190508181036000830152612ded81612db1565b905091905056fea2646970667358221220e921db7620be5202de9e0e71bc4fa8c8b0be4a02bacc97a7fe71ee61a06bcfbb64736f6c634300080d0033",
  "immutableReferences": {},
  "source": "// SPDX-License-Identifier: MIT\npragma solidity ^0.8.11;\n\nimport \"../node_modules/@openzeppelin/contracts/token/ERC721/ERC721.sol\";\nimport \"../node_modules/@openzeppelin/contracts/token/ERC721/extensions/ERC721URIStorage.sol\";\n\ncontract NFT is ERC721URIStorage {\n    uint256 private tokenId;\n    address private contractAddress;\n\n    constructor(address marketplaceAddress) ERC721(\"Cryptverse\", \"CRYPT\") {\n        tokenId = 0;\n        contractAddress = marketplaceAddress;\n    }\n\n    function getCurrentId() public view returns(uint256) {\n        return tokenId;\n    }\n\n    function createToken(string calldata tokenURI) public {\n        uint256 newItemId = tokenId;\n\n        // _safeMint protects token to be recreated if already created based on tokenId\n        _safeMint(msg.sender, newItemId);\n\n        // setting the image/media url to the token\n        _setTokenURI(newItemId, tokenURI);\n\n        // without setApprovalForAll NFTMarket does not have authority to transfer the token's ownership on ite's behalf\n        setApprovalForAll(contractAddress, true);\n        \n        tokenId++;\n    }\n\n    function getTokenURI(uint256 token) public view returns(string memory) {\n        require(token >= 0, \"Token id is required\");\n        require(msg.sender != address(0), \"Account address id is required\");\n        string memory uri = tokenURI(token);\n        return uri;\n    }\n}",
  "sourcePath": "/Users/abhinavkhanduja/Desktop/BlockchainDevelopment/cryptagram/packages/smart-contracts/contracts/NFT.sol",
  "compiler": {
    "name": "solc",
    "version": "0.8.13+commit.abaa5c0e.Emscripten.clang"
  },
  "schemaVersion": "3.4.4",
  "updatedAt": "2022-04-09T08:37:45.559Z",
  "networkType": "ethereum",
  "devdoc": {
    "kind": "dev",
    "methods": {
      "approve(address,uint256)": {
        "details": "See {IERC721-approve}."
      },
      "balanceOf(address)": {
        "details": "See {IERC721-balanceOf}."
      },
      "getApproved(uint256)": {
        "details": "See {IERC721-getApproved}."
      },
      "isApprovedForAll(address,address)": {
        "details": "See {IERC721-isApprovedForAll}."
      },
      "name()": {
        "details": "See {IERC721Metadata-name}."
      },
      "ownerOf(uint256)": {
        "details": "See {IERC721-ownerOf}."
      },
      "safeTransferFrom(address,address,uint256)": {
        "details": "See {IERC721-safeTransferFrom}."
      },
      "safeTransferFrom(address,address,uint256,bytes)": {
        "details": "See {IERC721-safeTransferFrom}."
      },
      "setApprovalForAll(address,bool)": {
        "details": "See {IERC721-setApprovalForAll}."
      },
      "supportsInterface(bytes4)": {
        "details": "See {IERC165-supportsInterface}."
      },
      "symbol()": {
        "details": "See {IERC721Metadata-symbol}."
      },
      "tokenURI(uint256)": {
        "details": "See {IERC721Metadata-tokenURI}."
      },
      "transferFrom(address,address,uint256)": {
        "details": "See {IERC721-transferFrom}."
      }
    },
    "version": 1
  },
  "userdoc": {
    "kind": "user",
    "methods": {},
    "version": 1
  }
}