{
  "contractName": "NFTMarket",
  "abi": [
    {
      "inputs": [],
      "stateMutability": "nonpayable",
      "type": "constructor"
    },
    {
      "anonymous": false,
      "inputs": [
        {
          "indexed": true,
          "internalType": "uint256",
          "name": "itemId",
          "type": "uint256"
        },
        {
          "indexed": true,
          "internalType": "address",
          "name": "nftContract",
          "type": "address"
        },
        {
          "indexed": true,
          "internalType": "uint256",
          "name": "tokenId",
          "type": "uint256"
        },
        {
          "indexed": false,
          "internalType": "address",
          "name": "owner",
          "type": "address"
        },
        {
          "indexed": false,
          "internalType": "address",
          "name": "creator",
          "type": "address"
        },
        {
          "indexed": false,
          "internalType": "uint256",
          "name": "price",
          "type": "uint256"
        },
        {
          "indexed": false,
          "internalType": "uint256",
          "name": "royalityFee",
          "type": "uint256"
        }
      ],
      "name": "MarketItemCreated",
      "type": "event"
    },
    {
      "anonymous": false,
      "inputs": [
        {
          "indexed": false,
          "internalType": "address",
          "name": "addr",
          "type": "address"
        }
      ],
      "name": "random",
      "type": "event"
    },
    {
      "anonymous": false,
      "inputs": [
        {
          "indexed": false,
          "internalType": "string",
          "name": "msg",
          "type": "string"
        },
        {
          "indexed": false,
          "internalType": "address",
          "name": "addr",
          "type": "address"
        }
      ],
      "name": "random2",
      "type": "event"
    },
    {
      "inputs": [],
      "name": "getCurrentItemId",
      "outputs": [
        {
          "internalType": "uint256",
          "name": "",
          "type": "uint256"
        }
      ],
      "stateMutability": "view",
      "type": "function",
      "constant": true
    },
    {
      "inputs": [
        {
          "internalType": "address",
          "name": "nftContract",
          "type": "address"
        },
        {
          "internalType": "uint256",
          "name": "tokenId",
          "type": "uint256"
        },
        {
          "internalType": "uint256",
          "name": "price",
          "type": "uint256"
        },
        {
          "internalType": "string",
          "name": "name",
          "type": "string"
        }
      ],
      "name": "createMarketItem",
      "outputs": [
        {
          "components": [
            {
              "internalType": "uint256",
              "name": "itemId",
              "type": "uint256"
            },
            {
              "internalType": "string",
              "name": "name",
              "type": "string"
            },
            {
              "internalType": "address",
              "name": "nftContract",
              "type": "address"
            },
            {
              "internalType": "uint256",
              "name": "tokenId",
              "type": "uint256"
            },
            {
              "internalType": "address payable",
              "name": "owner",
              "type": "address"
            },
            {
              "internalType": "address payable",
              "name": "creator",
              "type": "address"
            },
            {
              "internalType": "uint256",
              "name": "price",
              "type": "uint256"
            },
            {
              "internalType": "uint256",
              "name": "royalityFee",
              "type": "uint256"
            }
          ],
          "internalType": "struct NFTMarket.MarketItem",
          "name": "",
          "type": "tuple"
        }
      ],
      "stateMutability": "payable",
      "type": "function",
      "payable": true
    },
    {
      "inputs": [
        {
          "internalType": "uint256",
          "name": "mItemId",
          "type": "uint256"
        }
      ],
      "name": "sellMarketItem",
      "outputs": [],
      "stateMutability": "payable",
      "type": "function",
      "payable": true
    },
    {
      "inputs": [],
      "name": "getMarketItems",
      "outputs": [
        {
          "components": [
            {
              "internalType": "uint256",
              "name": "itemId",
              "type": "uint256"
            },
            {
              "internalType": "string",
              "name": "name",
              "type": "string"
            },
            {
              "internalType": "address",
              "name": "nftContract",
              "type": "address"
            },
            {
              "internalType": "uint256",
              "name": "tokenId",
              "type": "uint256"
            },
            {
              "internalType": "address payable",
              "name": "owner",
              "type": "address"
            },
            {
              "internalType": "address payable",
              "name": "creator",
              "type": "address"
            },
            {
              "internalType": "uint256",
              "name": "price",
              "type": "uint256"
            },
            {
              "internalType": "uint256",
              "name": "royalityFee",
              "type": "uint256"
            }
          ],
          "internalType": "struct NFTMarket.MarketItem[]",
          "name": "",
          "type": "tuple[]"
        }
      ],
      "stateMutability": "view",
      "type": "function",
      "constant": true
    },
    {
      "inputs": [],
      "name": "itemsCreatedByMe",
      "outputs": [
        {
          "components": [
            {
              "internalType": "uint256",
              "name": "itemId",
              "type": "uint256"
            },
            {
              "internalType": "string",
              "name": "name",
              "type": "string"
            },
            {
              "internalType": "address",
              "name": "nftContract",
              "type": "address"
            },
            {
              "internalType": "uint256",
              "name": "tokenId",
              "type": "uint256"
            },
            {
              "internalType": "address payable",
              "name": "owner",
              "type": "address"
            },
            {
              "internalType": "address payable",
              "name": "creator",
              "type": "address"
            },
            {
              "internalType": "uint256",
              "name": "price",
              "type": "uint256"
            },
            {
              "internalType": "uint256",
              "name": "royalityFee",
              "type": "uint256"
            }
          ],
          "internalType": "struct NFTMarket.MarketItem[]",
          "name": "",
          "type": "tuple[]"
        }
      ],
      "stateMutability": "view",
      "type": "function",
      "constant": true
    },
    {
      "inputs": [],
      "name": "itemsCollected",
      "outputs": [
        {
          "components": [
            {
              "internalType": "uint256",
              "name": "itemId",
              "type": "uint256"
            },
            {
              "internalType": "string",
              "name": "name",
              "type": "string"
            },
            {
              "internalType": "address",
              "name": "nftContract",
              "type": "address"
            },
            {
              "internalType": "uint256",
              "name": "tokenId",
              "type": "uint256"
            },
            {
              "internalType": "address payable",
              "name": "owner",
              "type": "address"
            },
            {
              "internalType": "address payable",
              "name": "creator",
              "type": "address"
            },
            {
              "internalType": "uint256",
              "name": "price",
              "type": "uint256"
            },
            {
              "internalType": "uint256",
              "name": "royalityFee",
              "type": "uint256"
            }
          ],
          "internalType": "struct NFTMarket.MarketItem[]",
          "name": "",
          "type": "tuple[]"
        }
      ],
      "stateMutability": "view",
      "type": "function",
      "constant": true
    }
  ],
  "bytecode": "0x60806040526000600160006101000a81548160ff0219169083151502179055506658d15e1762800060025534801561003657600080fd5b50600080819055506125018061004d6000396000f3fe6080604052600436106100555760003560e01c8063256cf31c1461005a57806329aa3a421461008557806368eb4949146100b057806391ddfe0a146100db578063ad9645f0146100f7578063ee45a71114610122575b600080fd5b34801561006657600080fd5b5061006f610152565b60405161007c9190611a49565b60405180910390f35b34801561009157600080fd5b5061009a61048c565b6040516100a79190611a49565b60405180910390f35b3480156100bc57600080fd5b506100c5610708565b6040516100d29190611a7a565b60405180910390f35b6100f560048036038101906100f09190611ad5565b610711565b005b34801561010357600080fd5b5061010c610d71565b6040516101199190611a49565b60405180910390f35b61013c60048036038101906101379190611c63565b6110ab565b6040516101499190611d96565b60405180910390f35b60606000600560003373ffffffffffffffffffffffffffffffffffffffff1673ffffffffffffffffffffffffffffffffffffffff16815260200190815260200160002054905060008167ffffffffffffffff8111156101b4576101b3611b38565b5b6040519080825280602002602001820160405280156101ed57816020015b6101da611699565b8152602001906001900390816101d25790505b5090506000805b600054811015610482573373ffffffffffffffffffffffffffffffffffffffff166003600083815260200190815260200160002060040160009054906101000a900473ffffffffffffffffffffffffffffffffffffffff1673ffffffffffffffffffffffffffffffffffffffff160361046f576003600082815260200190815260200160002060405180610100016040529081600082015481526020016001820180546102a090611de7565b80601f01602080910402602001604051908101604052809291908181526020018280546102cc90611de7565b80156103195780601f106102ee57610100808354040283529160200191610319565b820191906000526020600020905b8154815290600101906020018083116102fc57829003601f168201915b505050505081526020016002820160009054906101000a900473ffffffffffffffffffffffffffffffffffffffff1673ffffffffffffffffffffffffffffffffffffffff1673ffffffffffffffffffffffffffffffffffffffff168152602001600382015481526020016004820160009054906101000a900473ffffffffffffffffffffffffffffffffffffffff1673ffffffffffffffffffffffffffffffffffffffff1673ffffffffffffffffffffffffffffffffffffffff1681526020016005820160009054906101000a900473ffffffffffffffffffffffffffffffffffffffff1673ffffffffffffffffffffffffffffffffffffffff1673ffffffffffffffffffffffffffffffffffffffff1681526020016006820154815260200160078201548152505083838151811061045557610454611e18565b5b6020026020010181905250818061046b90611e76565b9250505b808061047a90611e76565b9150506101f4565b5081935050505090565b60606000805467ffffffffffffffff8111156104ab576104aa611b38565b5b6040519080825280602002602001820160405280156104e457816020015b6104d1611699565b8152602001906001900390816104c95790505b50905060005b6000548110156107005760036000828152602001908152602001600020604051806101000160405290816000820154815260200160018201805461052d90611de7565b80601f016020809104026020016040519081016040528092919081815260200182805461055990611de7565b80156105a65780601f1061057b576101008083540402835291602001916105a6565b820191906000526020600020905b81548152906001019060200180831161058957829003601f168201915b505050505081526020016002820160009054906101000a900473ffffffffffffffffffffffffffffffffffffffff1673ffffffffffffffffffffffffffffffffffffffff1673ffffffffffffffffffffffffffffffffffffffff168152602001600382015481526020016004820160009054906101000a900473ffffffffffffffffffffffffffffffffffffffff1673ffffffffffffffffffffffffffffffffffffffff1673ffffffffffffffffffffffffffffffffffffffff1681526020016005820160009054906101000a900473ffffffffffffffffffffffffffffffffffffffff1673ffffffffffffffffffffffffffffffffffffffff1673ffffffffffffffffffffffffffffffffffffffff168152602001600682015481526020016007820154815250508282815181106106e2576106e1611e18565b5b602002602001018190525080806106f890611e76565b9150506104ea565b508091505090565b60008054905090565b600060036000838152602001908152602001600020604051806101000160405290816000820154815260200160018201805461074c90611de7565b80601f016020809104026020016040519081016040528092919081815260200182805461077890611de7565b80156107c55780601f1061079a576101008083540402835291602001916107c5565b820191906000526020600020905b8154815290600101906020018083116107a857829003601f168201915b505050505081526020016002820160009054906101000a900473ffffffffffffffffffffffffffffffffffffffff1673ffffffffffffffffffffffffffffffffffffffff1673ffffffffffffffffffffffffffffffffffffffff168152602001600382015481526020016004820160009054906101000a900473ffffffffffffffffffffffffffffffffffffffff1673ffffffffffffffffffffffffffffffffffffffff1673ffffffffffffffffffffffffffffffffffffffff1681526020016005820160009054906101000a900473ffffffffffffffffffffffffffffffffffffffff1673ffffffffffffffffffffffffffffffffffffffff1673ffffffffffffffffffffffffffffffffffffffff1681526020016006820154815260200160078201548152505090503073ffffffffffffffffffffffffffffffffffffffff16816080015173ffffffffffffffffffffffffffffffffffffffff1614610962576040517f08c379a000000000000000000000000000000000000000000000000000000000815260040161095990611f1b565b60405180910390fd5b8060c0015134146109a8576040517f08c379a000000000000000000000000000000000000000000000000000000000815260040161099f90611f87565b60405180910390fd5b3373ffffffffffffffffffffffffffffffffffffffff16816080015173ffffffffffffffffffffffffffffffffffffffff1603610a1a576040517f08c379a0000000000000000000000000000000000000000000000000000000008152600401610a1190611ff3565b60405180910390fd5b6000816040015173ffffffffffffffffffffffffffffffffffffffff16636352211e83606001516040518263ffffffff1660e01b8152600401610a5d9190611a7a565b602060405180830381865afa158015610a7a573d6000803e3d6000fd5b505050506040513d601f19601f82011682018060405250810190610a9e9190612028565b90506000600190503373ffffffffffffffffffffffffffffffffffffffff168273ffffffffffffffffffffffffffffffffffffffff1614610b4e578260a0015173ffffffffffffffffffffffffffffffffffffffff168360e00151604051610b0590612086565b60006040518083038185875af1925050503d8060008114610b42576040519150601f19603f3d011682016040523d82523d6000602084013e610b47565b606091505b5050809150505b80610b8e576040517f08c379a0000000000000000000000000000000000000000000000000000000008152600401610b859061210d565b60405180910390fd5b60008273ffffffffffffffffffffffffffffffffffffffff168460e0015134610bb7919061212d565b604051610bc390612086565b60006040518083038185875af1925050503d8060008114610c00576040519150601f19603f3d011682016040523d82523d6000602084013e610c05565b606091505b5050905080610c49576040517f08c379a0000000000000000000000000000000000000000000000000000000008152600401610c40906121d3565b60405180910390fd5b836040015173ffffffffffffffffffffffffffffffffffffffff166323b872dd843387606001516040518463ffffffff1660e01b8152600401610c8e93929190612202565b600060405180830381600087803b158015610ca857600080fd5b505af1158015610cbc573d6000803e3d6000fd5b50505050600560008473ffffffffffffffffffffffffffffffffffffffff1673ffffffffffffffffffffffffffffffffffffffff1681526020019081526020016000206000815480929190610d1090612239565b9190505550336003600087815260200190815260200160002060040160006101000a81548173ffffffffffffffffffffffffffffffffffffffff021916908373ffffffffffffffffffffffffffffffffffffffff1602179055505050505050565b60606000600460003373ffffffffffffffffffffffffffffffffffffffff1673ffffffffffffffffffffffffffffffffffffffff16815260200190815260200160002054905060008167ffffffffffffffff811115610dd357610dd2611b38565b5b604051908082528060200260200182016040528015610e0c57816020015b610df9611699565b815260200190600190039081610df15790505b5090506000805b6000548110156110a1573373ffffffffffffffffffffffffffffffffffffffff166003600083815260200190815260200160002060050160009054906101000a900473ffffffffffffffffffffffffffffffffffffffff1673ffffffffffffffffffffffffffffffffffffffff160361108e57600360008281526020019081526020016000206040518061010001604052908160008201548152602001600182018054610ebf90611de7565b80601f0160208091040260200160405190810160405280929190818152602001828054610eeb90611de7565b8015610f385780601f10610f0d57610100808354040283529160200191610f38565b820191906000526020600020905b815481529060010190602001808311610f1b57829003601f168201915b505050505081526020016002820160009054906101000a900473ffffffffffffffffffffffffffffffffffffffff1673ffffffffffffffffffffffffffffffffffffffff1673ffffffffffffffffffffffffffffffffffffffff168152602001600382015481526020016004820160009054906101000a900473ffffffffffffffffffffffffffffffffffffffff1673ffffffffffffffffffffffffffffffffffffffff1673ffffffffffffffffffffffffffffffffffffffff1681526020016005820160009054906101000a900473ffffffffffffffffffffffffffffffffffffffff1673ffffffffffffffffffffffffffffffffffffffff1673ffffffffffffffffffffffffffffffffffffffff1681526020016006820154815260200160078201548152505083838151811061107457611073611e18565b5b6020026020010181905250818061108a90611e76565b9250505b808061109990611e76565b915050610e13565b5081935050505090565b6110b3611699565b600160009054906101000a900460ff1615611103576040517f08c379a00000000000000000000000000000000000000000000000000000000081526004016110fa906122ae565b60405180910390fd5b60018060006101000a81548160ff02191690831515021790555060008311611160576040517f08c379a00000000000000000000000000000000000000000000000000000000081526004016111579061231a565b60405180910390fd5b6002548310156111a5576040517f08c379a000000000000000000000000000000000000000000000000000000000815260040161119c906123ac565b60405180910390fd5b60006064600a856111b691906123cc565b6111c09190612455565b905060405180610100016040528060005481526020018481526020018773ffffffffffffffffffffffffffffffffffffffff1681526020018681526020013373ffffffffffffffffffffffffffffffffffffffff1681526020013373ffffffffffffffffffffffffffffffffffffffff16815260200185815260200182815250600360008054815260200190815260200160002060008201518160000155602082015181600101908051906020019061127a929190611720565b5060408201518160020160006101000a81548173ffffffffffffffffffffffffffffffffffffffff021916908373ffffffffffffffffffffffffffffffffffffffff1602179055506060820151816003015560808201518160040160006101000a81548173ffffffffffffffffffffffffffffffffffffffff021916908373ffffffffffffffffffffffffffffffffffffffff16021790555060a08201518160050160006101000a81548173ffffffffffffffffffffffffffffffffffffffff021916908373ffffffffffffffffffffffffffffffffffffffff16021790555060c0820151816006015560e08201518160070155905050848673ffffffffffffffffffffffffffffffffffffffff166000547fc3ff4a764c9b9e1277108ea23607246687fc68d2d8d7ad5ef37a8702d4443759333389876040516113c19493929190612486565b60405180910390a4600460003373ffffffffffffffffffffffffffffffffffffffff1673ffffffffffffffffffffffffffffffffffffffff168152602001908152602001600020600081548092919061141990611e76565b9190505550600560003373ffffffffffffffffffffffffffffffffffffffff1673ffffffffffffffffffffffffffffffffffffffff168152602001908152602001600020600081548092919061146e90611e76565b919050555060008081548092919061148590611e76565b919050555060036000600160005461149d919061212d565b815260200190815260200160002060405180610100016040529081600082015481526020016001820180546114d190611de7565b80601f01602080910402602001604051908101604052809291908181526020018280546114fd90611de7565b801561154a5780601f1061151f5761010080835404028352916020019161154a565b820191906000526020600020905b81548152906001019060200180831161152d57829003601f168201915b505050505081526020016002820160009054906101000a900473ffffffffffffffffffffffffffffffffffffffff1673ffffffffffffffffffffffffffffffffffffffff1673ffffffffffffffffffffffffffffffffffffffff168152602001600382015481526020016004820160009054906101000a900473ffffffffffffffffffffffffffffffffffffffff1673ffffffffffffffffffffffffffffffffffffffff1673ffffffffffffffffffffffffffffffffffffffff1681526020016005820160009054906101000a900473ffffffffffffffffffffffffffffffffffffffff1673ffffffffffffffffffffffffffffffffffffffff1673ffffffffffffffffffffffffffffffffffffffff168152602001600682015481526020016007820154815250509150506000600160006101000a81548160ff021916908315150217905550949350505050565b6040518061010001604052806000815260200160608152602001600073ffffffffffffffffffffffffffffffffffffffff16815260200160008152602001600073ffffffffffffffffffffffffffffffffffffffff168152602001600073ffffffffffffffffffffffffffffffffffffffff16815260200160008152602001600081525090565b82805461172c90611de7565b90600052602060002090601f01602090048101928261174e5760008555611795565b82601f1061176757805160ff1916838001178555611795565b82800160010185558215611795579182015b82811115611794578251825591602001919060010190611779565b5b5090506117a291906117a6565b5090565b5b808211156117bf5760008160009055506001016117a7565b5090565b600081519050919050565b600082825260208201905092915050565b6000819050602082019050919050565b6000819050919050565b611802816117ef565b82525050565b600081519050919050565b600082825260208201905092915050565b60005b83811015611842578082015181840152602081019050611827565b83811115611851576000848401525b50505050565b6000601f19601f8301169050919050565b600061187382611808565b61187d8185611813565b935061188d818560208601611824565b61189681611857565b840191505092915050565b600073ffffffffffffffffffffffffffffffffffffffff82169050919050565b60006118cc826118a1565b9050919050565b6118dc816118c1565b82525050565b60006118ed826118a1565b9050919050565b6118fd816118e2565b82525050565b60006101008301600083015161191c60008601826117f9565b50602083015184820360208601526119348282611868565b915050604083015161194960408601826118d3565b50606083015161195c60608601826117f9565b50608083015161196f60808601826118f4565b5060a083015161198260a08601826118f4565b5060c083015161199560c08601826117f9565b5060e08301516119a860e08601826117f9565b508091505092915050565b60006119bf8383611903565b905092915050565b6000602082019050919050565b60006119df826117c3565b6119e981856117ce565b9350836020820285016119fb856117df565b8060005b85811015611a375784840389528151611a1885826119b3565b9450611a23836119c7565b925060208a019950506001810190506119ff565b50829750879550505050505092915050565b60006020820190508181036000830152611a6381846119d4565b905092915050565b611a74816117ef565b82525050565b6000602082019050611a8f6000830184611a6b565b92915050565b6000604051905090565b600080fd5b600080fd5b611ab2816117ef565b8114611abd57600080fd5b50565b600081359050611acf81611aa9565b92915050565b600060208284031215611aeb57611aea611a9f565b5b6000611af984828501611ac0565b91505092915050565b611b0b816118c1565b8114611b1657600080fd5b50565b600081359050611b2881611b02565b92915050565b600080fd5b600080fd5b7f4e487b7100000000000000000000000000000000000000000000000000000000600052604160045260246000fd5b611b7082611857565b810181811067ffffffffffffffff82111715611b8f57611b8e611b38565b5b80604052505050565b6000611ba2611a95565b9050611bae8282611b67565b919050565b600067ffffffffffffffff821115611bce57611bcd611b38565b5b611bd782611857565b9050602081019050919050565b82818337600083830152505050565b6000611c06611c0184611bb3565b611b98565b905082815260208101848484011115611c2257611c21611b33565b5b611c2d848285611be4565b509392505050565b600082601f830112611c4a57611c49611b2e565b5b8135611c5a848260208601611bf3565b91505092915050565b60008060008060808587031215611c7d57611c7c611a9f565b5b6000611c8b87828801611b19565b9450506020611c9c87828801611ac0565b9350506040611cad87828801611ac0565b925050606085013567ffffffffffffffff811115611cce57611ccd611aa4565b5b611cda87828801611c35565b91505092959194509250565b600061010083016000830151611cff60008601826117f9565b5060208301518482036020860152611d178282611868565b9150506040830151611d2c60408601826118d3565b506060830151611d3f60608601826117f9565b506080830151611d5260808601826118f4565b5060a0830151611d6560a08601826118f4565b5060c0830151611d7860c08601826117f9565b5060e0830151611d8b60e08601826117f9565b508091505092915050565b60006020820190508181036000830152611db08184611ce6565b905092915050565b7f4e487b7100000000000000000000000000000000000000000000000000000000600052602260045260246000fd5b60006002820490506001821680611dff57607f821691505b602082108103611e1257611e11611db8565b5b50919050565b7f4e487b7100000000000000000000000000000000000000000000000000000000600052603260045260246000fd5b7f4e487b7100000000000000000000000000000000000000000000000000000000600052601160045260246000fd5b6000611e81826117ef565b91507fffffffffffffffffffffffffffffffffffffffffffffffffffffffffffffffff8203611eb357611eb2611e47565b5b600182019050919050565b600082825260208201905092915050565b7f4974656d206e6f7420666f722073616c65000000000000000000000000000000600082015250565b6000611f05601183611ebe565b9150611f1082611ecf565b602082019050919050565b60006020820190508181036000830152611f3481611ef8565b9050919050565b7f496e76616c69642070726963652076616c756500000000000000000000000000600082015250565b6000611f71601383611ebe565b9150611f7c82611f3b565b602082019050919050565b60006020820190508181036000830152611fa081611f64565b9050919050565b7f596f7520616c7265616479206f776e2074686973206974656d00000000000000600082015250565b6000611fdd601983611ebe565b9150611fe882611fa7565b602082019050919050565b6000602082019050818103600083015261200c81611fd0565b9050919050565b60008151905061202281611b02565b92915050565b60006020828403121561203e5761203d611a9f565b5b600061204c84828501612013565b91505092915050565b600081905092915050565b50565b6000612070600083612055565b915061207b82612060565b600082019050919050565b600061209182612063565b9150819050919050565b7f43616e27742070726f6365656420776974686f757420706179696e6720726f7960008201527f616c69747920746f207468652063726561746f72000000000000000000000000602082015250565b60006120f7603483611ebe565b91506121028261209b565b604082019050919050565b60006020820190508181036000830152612126816120ea565b9050919050565b6000612138826117ef565b9150612143836117ef565b92508282101561215657612155611e47565b5b828203905092915050565b7f43616e27742070726f6365656420776974686f757420706179696e672074686560008201527f206f776e65720000000000000000000000000000000000000000000000000000602082015250565b60006121bd602683611ebe565b91506121c882612161565b604082019050919050565b600060208201905081810360008301526121ec816121b0565b9050919050565b6121fc816118c1565b82525050565b600060608201905061221760008301866121f3565b61222460208301856121f3565b6122316040830184611a6b565b949350505050565b6000612244826117ef565b91506000820361225757612256611e47565b5b600182039050919050565b7f4e6f2072652d656e7472616e6379000000000000000000000000000000000000600082015250565b6000612298600e83611ebe565b91506122a382612262565b602082019050919050565b600060208201905081810360008301526122c78161228b565b9050919050565b7f5072696365206d757374206265206174206c6561737420312077656900000000600082015250565b6000612304601c83611ebe565b915061230f826122ce565b602082019050919050565b60006020820190508181036000830152612333816122f7565b9050919050565b7f5072696365206d7573742062652067726561746572207468616e206f7220657160008201527f75616c20746f206c697374696e672070726963652028302e3032352065746829602082015250565b6000612396604083611ebe565b91506123a18261233a565b604082019050919050565b600060208201905081810360008301526123c581612389565b9050919050565b60006123d7826117ef565b91506123e2836117ef565b9250817fffffffffffffffffffffffffffffffffffffffffffffffffffffffffffffffff048311821515161561241b5761241a611e47565b5b828202905092915050565b7f4e487b7100000000000000000000000000000000000000000000000000000000600052601260045260246000fd5b6000612460826117ef565b915061246b836117ef565b92508261247b5761247a612426565b5b828204905092915050565b600060808201905061249b60008301876121f3565b6124a860208301866121f3565b6124b56040830185611a6b565b6124c26060830184611a6b565b9594505050505056fea2646970667358221220d8cc9f28884f6a2a42f1e0e6ee868ca6521d5d73be22fccaa084637f30ce715764736f6c634300080d0033",
  "immutableReferences": {},
  "source": "// SPDX-License-Identifier: MIT\npragma solidity ^0.8.11;\n\nimport \"../node_modules/@openzeppelin/contracts/token/ERC721/IERC721.sol\";\nimport \"../node_modules/@openzeppelin/contracts/token/ERC721/extensions/ERC721URIStorage.sol\";\n\ncontract NFTMarket {\n    struct MarketItem {\n        uint256 itemId;\n        string name;\n        address nftContract;\n        uint256 tokenId;\n        address payable owner;\n        address payable creator;\n        uint256 price;\n        uint256 royalityFee;\n    }\n\n    event MarketItemCreated (\n        uint256 indexed itemId,\n        address indexed nftContract,\n        uint256 indexed tokenId,\n        address owner,\n        address creator,\n        uint256 price,\n        uint256 royalityFee\n    );\n\n    event random(address addr);\n    event random2(string msg, address addr);\n\n    uint256 private itemId;\n    bool private locked = false;\n    uint256 listingPrice = 0.025 ether;\n    mapping(uint256 => MarketItem) private idToMarketItem;\n    mapping(address => uint256) private addressToItemsCreated;\n    mapping(address => uint256) private addressToItemsCollected;\n    uint256 private constant royality = 10;\n\n    constructor() {\n        itemId = 0;\n    }\n\n    modifier lockEntry() {\n        require(!locked, \"No re-entrancy\");\n        locked = true;\n        _;\n        locked = false;\n    }\n\n    function getCurrentItemId() public view returns(uint256) {\n        return itemId;\n    }\n\n    function createMarketItem(\n        address nftContract, \n        uint256 tokenId,\n        uint256 price,\n        string memory name\n    ) public payable lockEntry returns(MarketItem memory) {\n        require(price > 0, \"Price must be at least 1 wei\");\n        require(price >= listingPrice, \"Price must be greater than or equal to listing price (0.025 eth)\");\n        uint256 itemRoyality = (price * royality) / 100;\n        idToMarketItem[itemId] =  MarketItem(\n            itemId,\n            name,\n            nftContract,\n            tokenId,\n            payable(msg.sender),\n            payable(msg.sender),\n            price,\n            itemRoyality\n        );\n        \n        emit MarketItemCreated(\n            itemId,\n            nftContract,\n            tokenId,\n            msg.sender,\n            msg.sender,\n            price,\n            itemRoyality\n        );\n        addressToItemsCreated[msg.sender]++;\n        addressToItemsCollected[msg.sender]++;\n        itemId++ ;\n        return idToMarketItem[itemId - 1];\n    }\n    \n    function sellMarketItem(uint256 mItemId) public payable {\n        MarketItem memory item = idToMarketItem[mItemId];\n        require(item.owner == address(this), \"Item not for sale\");\n        require(msg.value == item.price, \"Invalid price value\");\n        require(item.owner != msg.sender, \"You already own this item\");\n\n        address currentOwner = IERC721(item.nftContract).ownerOf(item.tokenId);\n        \n        bool success = true;\n        if (currentOwner != msg.sender) {\n            (success, ) = item.creator.call{value: item.royalityFee}(\"\");\n        }\n        require(success, \"Can't proceed without paying royality to the creator\");\n\n        (bool success2, ) = payable(currentOwner).call{value: msg.value - item.royalityFee}(\"\");\n        require(success2, \"Can't proceed without paying the owner\");\n        IERC721(item.nftContract).transferFrom(currentOwner, msg.sender, item.tokenId);\n        addressToItemsCollected[currentOwner]--;\n        idToMarketItem[mItemId].owner = payable(msg.sender);\n    }\n\n    function getMarketItems() public view returns(MarketItem[] memory) {\n        MarketItem[] memory items = new MarketItem[](itemId);\n        for (uint256 index = 0; index < itemId; index++) {\n            items[index] = idToMarketItem[index];\n        }\n        return items;\n    }\n\n    function itemsCreatedByMe() public view returns(MarketItem[] memory) {\n        uint256 count = addressToItemsCreated[msg.sender];\n        MarketItem[] memory arr = new MarketItem[](count);\n        uint256 indx = 0;\n        for (uint256 index = 0; index < itemId; index++) {\n            if (idToMarketItem[index].creator == msg.sender) {\n                arr[indx] = idToMarketItem[index];\n                indx++;\n            }\n        }\n        return arr;\n    }\n    \n    function itemsCollected() public view returns(MarketItem[] memory) {\n        uint256 count = addressToItemsCollected[msg.sender];\n        MarketItem[] memory arr = new MarketItem[](count);\n        uint256 indx = 0;\n        for (uint256 index = 0; index < itemId; index++) {\n            if (idToMarketItem[index].owner == msg.sender) {\n                arr[indx] = idToMarketItem[index];\n                indx++;\n            }\n        }\n        return arr;\n    }\n\n}",
  "sourcePath": "/Users/abhinavkhanduja/Desktop/BlockchainDevelopment/cryptagram/packages/smart-contracts/contracts/NFTMarket.sol",
  "compiler": {
    "name": "solc",
    "version": "0.8.13+commit.abaa5c0e.Emscripten.clang"
  },
  "schemaVersion": "3.4.4",
  "updatedAt": "2022-04-09T08:37:45.618Z",
  "networkType": "ethereum",
  "devdoc": {
    "kind": "dev",
    "methods": {},
    "version": 1
  },
  "userdoc": {
    "kind": "user",
    "methods": {},
    "version": 1
  }
}