{
  "contractName": "NFTStore",
  "abi": [
    {
      "inputs": [
        {
          "internalType": "address",
          "name": "cowner",
          "type": "address"
        }
      ],
      "stateMutability": "nonpayable",
      "type": "constructor"
    },
    {
      "anonymous": false,
      "inputs": [
        {
          "indexed": false,
          "internalType": "string",
          "name": "msg",
          "type": "string"
        },
        {
          "indexed": false,
          "internalType": "address",
          "name": "addr",
          "type": "address"
        }
      ],
      "name": "random",
      "type": "event"
    },
    {
      "inputs": [
        {
          "internalType": "address",
          "name": "nftContract",
          "type": "address"
        },
        {
          "internalType": "string",
          "name": "uri",
          "type": "string"
        },
        {
          "internalType": "string",
          "name": "name",
          "type": "string"
        },
        {
          "internalType": "uint256",
          "name": "price",
          "type": "uint256"
        },
        {
          "internalType": "uint256",
          "name": "royaltyPercent",
          "type": "uint256"
        },
        {
          "internalType": "bool",
          "name": "isSelling",
          "type": "bool"
        }
      ],
      "name": "createItem",
      "outputs": [],
      "stateMutability": "payable",
      "type": "function",
      "payable": true
    },
    {
      "inputs": [
        {
          "internalType": "uint256",
          "name": "id",
          "type": "uint256"
        }
      ],
      "name": "getItemById",
      "outputs": [
        {
          "components": [
            {
              "internalType": "uint256",
              "name": "itemId",
              "type": "uint256"
            },
            {
              "internalType": "string",
              "name": "name",
              "type": "string"
            },
            {
              "internalType": "address",
              "name": "nftContract",
              "type": "address"
            },
            {
              "internalType": "uint256",
              "name": "tokenId",
              "type": "uint256"
            },
            {
              "internalType": "address payable",
              "name": "owner",
              "type": "address"
            },
            {
              "internalType": "address payable",
              "name": "creator",
              "type": "address"
            },
            {
              "internalType": "uint256",
              "name": "price",
              "type": "uint256"
            },
            {
              "internalType": "string",
              "name": "uri",
              "type": "string"
            },
            {
              "internalType": "uint256",
              "name": "royaltyPercent",
              "type": "uint256"
            },
            {
              "internalType": "bool",
              "name": "isSelling",
              "type": "bool"
            }
          ],
          "internalType": "struct NFTStore.Item",
          "name": "",
          "type": "tuple"
        }
      ],
      "stateMutability": "view",
      "type": "function",
      "constant": true
    },
    {
      "inputs": [],
      "name": "getItems",
      "outputs": [
        {
          "components": [
            {
              "internalType": "uint256",
              "name": "itemId",
              "type": "uint256"
            },
            {
              "internalType": "string",
              "name": "name",
              "type": "string"
            },
            {
              "internalType": "address",
              "name": "nftContract",
              "type": "address"
            },
            {
              "internalType": "uint256",
              "name": "tokenId",
              "type": "uint256"
            },
            {
              "internalType": "address payable",
              "name": "owner",
              "type": "address"
            },
            {
              "internalType": "address payable",
              "name": "creator",
              "type": "address"
            },
            {
              "internalType": "uint256",
              "name": "price",
              "type": "uint256"
            },
            {
              "internalType": "string",
              "name": "uri",
              "type": "string"
            },
            {
              "internalType": "uint256",
              "name": "royaltyPercent",
              "type": "uint256"
            },
            {
              "internalType": "bool",
              "name": "isSelling",
              "type": "bool"
            }
          ],
          "internalType": "struct NFTStore.Item[]",
          "name": "",
          "type": "tuple[]"
        }
      ],
      "stateMutability": "view",
      "type": "function",
      "constant": true
    },
    {
      "inputs": [
        {
          "internalType": "address",
          "name": "caller",
          "type": "address"
        }
      ],
      "name": "getItemsOwnedByUser",
      "outputs": [
        {
          "components": [
            {
              "internalType": "uint256",
              "name": "itemId",
              "type": "uint256"
            },
            {
              "internalType": "string",
              "name": "name",
              "type": "string"
            },
            {
              "internalType": "address",
              "name": "nftContract",
              "type": "address"
            },
            {
              "internalType": "uint256",
              "name": "tokenId",
              "type": "uint256"
            },
            {
              "internalType": "address payable",
              "name": "owner",
              "type": "address"
            },
            {
              "internalType": "address payable",
              "name": "creator",
              "type": "address"
            },
            {
              "internalType": "uint256",
              "name": "price",
              "type": "uint256"
            },
            {
              "internalType": "string",
              "name": "uri",
              "type": "string"
            },
            {
              "internalType": "uint256",
              "name": "royaltyPercent",
              "type": "uint256"
            },
            {
              "internalType": "bool",
              "name": "isSelling",
              "type": "bool"
            }
          ],
          "internalType": "struct NFTStore.Item[]",
          "name": "",
          "type": "tuple[]"
        }
      ],
      "stateMutability": "view",
      "type": "function",
      "constant": true
    },
    {
      "inputs": [
        {
          "internalType": "address",
          "name": "caller",
          "type": "address"
        }
      ],
      "name": "getItemsCreatedByUser",
      "outputs": [
        {
          "components": [
            {
              "internalType": "uint256",
              "name": "itemId",
              "type": "uint256"
            },
            {
              "internalType": "string",
              "name": "name",
              "type": "string"
            },
            {
              "internalType": "address",
              "name": "nftContract",
              "type": "address"
            },
            {
              "internalType": "uint256",
              "name": "tokenId",
              "type": "uint256"
            },
            {
              "internalType": "address payable",
              "name": "owner",
              "type": "address"
            },
            {
              "internalType": "address payable",
              "name": "creator",
              "type": "address"
            },
            {
              "internalType": "uint256",
              "name": "price",
              "type": "uint256"
            },
            {
              "internalType": "string",
              "name": "uri",
              "type": "string"
            },
            {
              "internalType": "uint256",
              "name": "royaltyPercent",
              "type": "uint256"
            },
            {
              "internalType": "bool",
              "name": "isSelling",
              "type": "bool"
            }
          ],
          "internalType": "struct NFTStore.Item[]",
          "name": "",
          "type": "tuple[]"
        }
      ],
      "stateMutability": "view",
      "type": "function",
      "constant": true
    },
    {
      "inputs": [
        {
          "internalType": "uint256",
          "name": "id",
          "type": "uint256"
        }
      ],
      "name": "putItemForSale",
      "outputs": [],
      "stateMutability": "nonpayable",
      "type": "function"
    },
    {
      "inputs": [
        {
          "internalType": "uint256",
          "name": "id",
          "type": "uint256"
        }
      ],
      "name": "buyItem",
      "outputs": [],
      "stateMutability": "payable",
      "type": "function",
      "payable": true
    },
    {
      "inputs": [
        {
          "internalType": "uint256",
          "name": "id",
          "type": "uint256"
        },
        {
          "internalType": "bool",
          "name": "status",
          "type": "bool"
        }
      ],
      "name": "changeSellingStatus",
      "outputs": [],
      "stateMutability": "payable",
      "type": "function",
      "payable": true
    }
  ],
  "bytecode": "0x60806040526000600160006101000a81548160ff0219169083151502179055503480156200002c57600080fd5b50604051620034423803806200344283398181016040528101906200005291906200010b565b6000808190555080600460006101000a81548173ffffffffffffffffffffffffffffffffffffffff021916908373ffffffffffffffffffffffffffffffffffffffff160217905550506200013d565b600080fd5b600073ffffffffffffffffffffffffffffffffffffffff82169050919050565b6000620000d382620000a6565b9050919050565b620000e581620000c6565b8114620000f157600080fd5b50565b6000815190506200010581620000da565b92915050565b600060208284031215620001245762000123620000a1565b5b60006200013484828501620000f4565b91505092915050565b6132f5806200014d6000396000f3fe60806040526004361061007b5760003560e01c80637c96da431161004e5780637c96da431461012d578063cd2f07101461016a578063df865377146101a7578063e7fb74c7146101c35761007b565b806315752dde14610080578063410d59cc146100a95780635127ab5b146100d457806359056d5f146100f0575b600080fd5b34801561008c57600080fd5b506100a760048036038101906100a291906122ec565b6101df565b005b3480156100b557600080fd5b506100be610643565b6040516100cb91906125e1565b60405180910390f35b6100ee60048036038101906100e99190612790565b61096c565b005b3480156100fc57600080fd5b5061011760048036038101906101129190612855565b610d2d565b60405161012491906125e1565b60405180910390f35b34801561013957600080fd5b50610154600480360381019061014f9190612855565b611105565b60405161016191906125e1565b60405180910390f35b34801561017657600080fd5b50610191600480360381019061018c91906122ec565b6114de565b60405161019e9190612963565b60405180910390f35b6101c160048036038101906101bc9190612985565b611775565b005b6101dd60048036038101906101d891906122ec565b611ba4565b005b600060026000838152602001908152602001600020604051806101400160405290816000820154815260200160018201805461021a906129f4565b80601f0160208091040260200160405190810160405280929190818152602001828054610246906129f4565b80156102935780601f1061026857610100808354040283529160200191610293565b820191906000526020600020905b81548152906001019060200180831161027657829003601f168201915b505050505081526020016002820160009054906101000a900473ffffffffffffffffffffffffffffffffffffffff1673ffffffffffffffffffffffffffffffffffffffff1673ffffffffffffffffffffffffffffffffffffffff168152602001600382015481526020016004820160009054906101000a900473ffffffffffffffffffffffffffffffffffffffff1673ffffffffffffffffffffffffffffffffffffffff1673ffffffffffffffffffffffffffffffffffffffff1681526020016005820160009054906101000a900473ffffffffffffffffffffffffffffffffffffffff1673ffffffffffffffffffffffffffffffffffffffff1673ffffffffffffffffffffffffffffffffffffffff168152602001600682015481526020016007820180546103c2906129f4565b80601f01602080910402602001604051908101604052809291908181526020018280546103ee906129f4565b801561043b5780601f106104105761010080835404028352916020019161043b565b820191906000526020600020905b81548152906001019060200180831161041e57829003601f168201915b50505050508152602001600882015481526020016009820160009054906101000a900460ff16151515158152505090503373ffffffffffffffffffffffffffffffffffffffff16816080015173ffffffffffffffffffffffffffffffffffffffff16146104dd576040517f08c379a00000000000000000000000000000000000000000000000000000000081526004016104d490612aa8565b60405180910390fd5b6000816040015173ffffffffffffffffffffffffffffffffffffffff16600460009054906101000a900473ffffffffffffffffffffffffffffffffffffffff166001604051602401610530929190612ae6565b6040516020818303038152906040527fa22cb465000000000000000000000000000000000000000000000000000000007bffffffffffffffffffffffffffffffffffffffffffffffffffffffff19166020820180517bffffffffffffffffffffffffffffffffffffffffffffffffffffffff83818316178352505050506040516105ba9190612b56565b600060405180830381855af49150503d80600081146105f5576040519150601f19603f3d011682016040523d82523d6000602084013e6105fa565b606091505b505090508061063e576040517f08c379a000000000000000000000000000000000000000000000000000000000815260040161063590612bb9565b60405180910390fd5b505050565b60606000805467ffffffffffffffff81111561066257610661612639565b5b60405190808252806020026020018201604052801561069b57816020015b610688612168565b8152602001906001900390816106805790505b50905060005b600054811015610964576002600082815260200190815260200160002060405180610140016040529081600082015481526020016001820180546106e4906129f4565b80601f0160208091040260200160405190810160405280929190818152602001828054610710906129f4565b801561075d5780601f106107325761010080835404028352916020019161075d565b820191906000526020600020905b81548152906001019060200180831161074057829003601f168201915b505050505081526020016002820160009054906101000a900473ffffffffffffffffffffffffffffffffffffffff1673ffffffffffffffffffffffffffffffffffffffff1673ffffffffffffffffffffffffffffffffffffffff168152602001600382015481526020016004820160009054906101000a900473ffffffffffffffffffffffffffffffffffffffff1673ffffffffffffffffffffffffffffffffffffffff1673ffffffffffffffffffffffffffffffffffffffff1681526020016005820160009054906101000a900473ffffffffffffffffffffffffffffffffffffffff1673ffffffffffffffffffffffffffffffffffffffff1673ffffffffffffffffffffffffffffffffffffffff1681526020016006820154815260200160078201805461088c906129f4565b80601f01602080910402602001604051908101604052809291908181526020018280546108b8906129f4565b80156109055780601f106108da57610100808354040283529160200191610905565b820191906000526020600020905b8154815290600101906020018083116108e857829003601f168201915b50505050508152602001600882015481526020016009820160009054906101000a900460ff16151515158152505082828151811061094657610945612bd9565b5b6020026020010181905250808061095c90612c37565b9150506106a1565b508091505090565b600160009054906101000a900460ff16156109bc576040517f08c379a00000000000000000000000000000000000000000000000000000000081526004016109b390612ccb565b60405180910390fd5b60018060006101000a81548160ff02191690831515021790555060008311610a19576040517f08c379a0000000000000000000000000000000000000000000000000000000008152600401610a1090612d37565b60405180910390fd5b600033905060008773ffffffffffffffffffffffffffffffffffffffff1663a211937788846040518363ffffffff1660e01b8152600401610a5b929190612def565b6020604051808303816000875af1158015610a7a573d6000803e3d6000fd5b505050506040513d601f19601f82011682018060405250810190610a9e9190612e34565b905060405180610140016040528060005481526020018781526020018973ffffffffffffffffffffffffffffffffffffffff1681526020018281526020018373ffffffffffffffffffffffffffffffffffffffff1681526020018373ffffffffffffffffffffffffffffffffffffffff1681526020018681526020018881526020018581526020018415158152506002600080548152602001908152602001600020600082015181600001556020820151816001019080519060200190610b669291906121ff565b5060408201518160020160006101000a81548173ffffffffffffffffffffffffffffffffffffffff021916908373ffffffffffffffffffffffffffffffffffffffff1602179055506060820151816003015560808201518160040160006101000a81548173ffffffffffffffffffffffffffffffffffffffff021916908373ffffffffffffffffffffffffffffffffffffffff16021790555060a08201518160050160006101000a81548173ffffffffffffffffffffffffffffffffffffffff021916908373ffffffffffffffffffffffffffffffffffffffff16021790555060c0820151816006015560e0820151816007019080519060200190610c6c9291906121ff565b5061010082015181600801556101208201518160090160006101000a81548160ff021916908315150217905550905050600360003373ffffffffffffffffffffffffffffffffffffffff1673ffffffffffffffffffffffffffffffffffffffff1681526020019081526020016000206000815480929190610cec90612c37565b9190505550600080815480929190610d0390612c37565b919050555050506000600160006101000a81548160ff021916908315150217905550505050505050565b60606000600360008473ffffffffffffffffffffffffffffffffffffffff1673ffffffffffffffffffffffffffffffffffffffff16815260200190815260200160002054905060008167ffffffffffffffff811115610d8f57610d8e612639565b5b604051908082528060200260200182016040528015610dc857816020015b610db5612168565b815260200190600190039081610dad5790505b50905060005b60005481116110fa578473ffffffffffffffffffffffffffffffffffffffff166002600083815260200190815260200160002060050160009054906101000a900473ffffffffffffffffffffffffffffffffffffffff1673ffffffffffffffffffffffffffffffffffffffff16036110e757600260008281526020019081526020016000206040518061014001604052908160008201548152602001600182018054610e79906129f4565b80601f0160208091040260200160405190810160405280929190818152602001828054610ea5906129f4565b8015610ef25780601f10610ec757610100808354040283529160200191610ef2565b820191906000526020600020905b815481529060010190602001808311610ed557829003601f168201915b505050505081526020016002820160009054906101000a900473ffffffffffffffffffffffffffffffffffffffff1673ffffffffffffffffffffffffffffffffffffffff1673ffffffffffffffffffffffffffffffffffffffff168152602001600382015481526020016004820160009054906101000a900473ffffffffffffffffffffffffffffffffffffffff1673ffffffffffffffffffffffffffffffffffffffff1673ffffffffffffffffffffffffffffffffffffffff1681526020016005820160009054906101000a900473ffffffffffffffffffffffffffffffffffffffff1673ffffffffffffffffffffffffffffffffffffffff1673ffffffffffffffffffffffffffffffffffffffff16815260200160068201548152602001600782018054611021906129f4565b80601f016020809104026020016040519081016040528092919081815260200182805461104d906129f4565b801561109a5780601f1061106f5761010080835404028352916020019161109a565b820191906000526020600020905b81548152906001019060200180831161107d57829003601f168201915b50505050508152602001600882015481526020016009820160009054906101000a900460ff1615151515815250508282815181106110db576110da612bd9565b5b60200260200101819052505b80806110f290612c37565b915050610dce565b508092505050919050565b60606000600360008473ffffffffffffffffffffffffffffffffffffffff1673ffffffffffffffffffffffffffffffffffffffff16815260200190815260200160002054905060008167ffffffffffffffff81111561116757611166612639565b5b6040519080825280602002602001820160405280156111a057816020015b61118d612168565b8152602001906001900390816111855790505b50905060005b6000548110156114d3578473ffffffffffffffffffffffffffffffffffffffff166002600083815260200190815260200160002060040160009054906101000a900473ffffffffffffffffffffffffffffffffffffffff1673ffffffffffffffffffffffffffffffffffffffff16036114c057600260008281526020019081526020016000206040518061014001604052908160008201548152602001600182018054611252906129f4565b80601f016020809104026020016040519081016040528092919081815260200182805461127e906129f4565b80156112cb5780601f106112a0576101008083540402835291602001916112cb565b820191906000526020600020905b8154815290600101906020018083116112ae57829003601f168201915b505050505081526020016002820160009054906101000a900473ffffffffffffffffffffffffffffffffffffffff1673ffffffffffffffffffffffffffffffffffffffff1673ffffffffffffffffffffffffffffffffffffffff168152602001600382015481526020016004820160009054906101000a900473ffffffffffffffffffffffffffffffffffffffff1673ffffffffffffffffffffffffffffffffffffffff1673ffffffffffffffffffffffffffffffffffffffff1681526020016005820160009054906101000a900473ffffffffffffffffffffffffffffffffffffffff1673ffffffffffffffffffffffffffffffffffffffff1673ffffffffffffffffffffffffffffffffffffffff168152602001600682015481526020016007820180546113fa906129f4565b80601f0160208091040260200160405190810160405280929190818152602001828054611426906129f4565b80156114735780601f1061144857610100808354040283529160200191611473565b820191906000526020600020905b81548152906001019060200180831161145657829003601f168201915b50505050508152602001600882015481526020016009820160009054906101000a900460ff1615151515815250508282815181106114b4576114b3612bd9565b5b60200260200101819052505b80806114cb90612c37565b9150506111a6565b508092505050919050565b6114e6612168565b60026000838152602001908152602001600020604051806101400160405290816000820154815260200160018201805461151f906129f4565b80601f016020809104026020016040519081016040528092919081815260200182805461154b906129f4565b80156115985780601f1061156d57610100808354040283529160200191611598565b820191906000526020600020905b81548152906001019060200180831161157b57829003601f168201915b505050505081526020016002820160009054906101000a900473ffffffffffffffffffffffffffffffffffffffff1673ffffffffffffffffffffffffffffffffffffffff1673ffffffffffffffffffffffffffffffffffffffff168152602001600382015481526020016004820160009054906101000a900473ffffffffffffffffffffffffffffffffffffffff1673ffffffffffffffffffffffffffffffffffffffff1673ffffffffffffffffffffffffffffffffffffffff1681526020016005820160009054906101000a900473ffffffffffffffffffffffffffffffffffffffff1673ffffffffffffffffffffffffffffffffffffffff1673ffffffffffffffffffffffffffffffffffffffff168152602001600682015481526020016007820180546116c7906129f4565b80601f01602080910402602001604051908101604052809291908181526020018280546116f3906129f4565b80156117405780601f1061171557610100808354040283529160200191611740565b820191906000526020600020905b81548152906001019060200180831161172357829003601f168201915b50505050508152602001600882015481526020016009820160009054906101000a900460ff1615151515815250509050919050565b60006002600084815260200190815260200160002060405180610140016040529081600082015481526020016001820180546117b0906129f4565b80601f01602080910402602001604051908101604052809291908181526020018280546117dc906129f4565b80156118295780601f106117fe57610100808354040283529160200191611829565b820191906000526020600020905b81548152906001019060200180831161180c57829003601f168201915b505050505081526020016002820160009054906101000a900473ffffffffffffffffffffffffffffffffffffffff1673ffffffffffffffffffffffffffffffffffffffff1673ffffffffffffffffffffffffffffffffffffffff168152602001600382015481526020016004820160009054906101000a900473ffffffffffffffffffffffffffffffffffffffff1673ffffffffffffffffffffffffffffffffffffffff1673ffffffffffffffffffffffffffffffffffffffff1681526020016005820160009054906101000a900473ffffffffffffffffffffffffffffffffffffffff1673ffffffffffffffffffffffffffffffffffffffff1673ffffffffffffffffffffffffffffffffffffffff16815260200160068201548152602001600782018054611958906129f4565b80601f0160208091040260200160405190810160405280929190818152602001828054611984906129f4565b80156119d15780601f106119a6576101008083540402835291602001916119d1565b820191906000526020600020905b8154815290600101906020018083116119b457829003601f168201915b50505050508152602001600882015481526020016009820160009054906101000a900460ff16151515158152505090506000816040015173ffffffffffffffffffffffffffffffffffffffff16636352211e60026000878152602001908152602001600020600301546040518263ffffffff1660e01b8152600401611a569190612e70565b602060405180830381865afa158015611a73573d6000803e3d6000fd5b505050506040513d601f19601f82011682018060405250810190611a979190612ea0565b90508073ffffffffffffffffffffffffffffffffffffffff163373ffffffffffffffffffffffffffffffffffffffff1614611b07576040517f08c379a0000000000000000000000000000000000000000000000000000000008152600401611afe90612f3f565b60405180910390fd5b826002600086815260200190815260200160002060090160006101000a81548160ff0219169083151502179055508215156002600086815260200190815260200160002060090160009054906101000a900460ff16151514611b9e576040517f08c379a0000000000000000000000000000000000000000000000000000000008152600401611b9590612fab565b60405180910390fd5b50505050565b6000600260008381526020019081526020016000206040518061014001604052908160008201548152602001600182018054611bdf906129f4565b80601f0160208091040260200160405190810160405280929190818152602001828054611c0b906129f4565b8015611c585780601f10611c2d57610100808354040283529160200191611c58565b820191906000526020600020905b815481529060010190602001808311611c3b57829003601f168201915b505050505081526020016002820160009054906101000a900473ffffffffffffffffffffffffffffffffffffffff1673ffffffffffffffffffffffffffffffffffffffff1673ffffffffffffffffffffffffffffffffffffffff168152602001600382015481526020016004820160009054906101000a900473ffffffffffffffffffffffffffffffffffffffff1673ffffffffffffffffffffffffffffffffffffffff1673ffffffffffffffffffffffffffffffffffffffff1681526020016005820160009054906101000a900473ffffffffffffffffffffffffffffffffffffffff1673ffffffffffffffffffffffffffffffffffffffff1673ffffffffffffffffffffffffffffffffffffffff16815260200160068201548152602001600782018054611d87906129f4565b80601f0160208091040260200160405190810160405280929190818152602001828054611db3906129f4565b8015611e005780601f10611dd557610100808354040283529160200191611e00565b820191906000526020600020905b815481529060010190602001808311611de357829003601f168201915b50505050508152602001600882015481526020016009820160009054906101000a900460ff1615151515815250509050806101200151611e75576040517f08c379a0000000000000000000000000000000000000000000000000000000008152600401611e6c90613017565b60405180910390fd5b3373ffffffffffffffffffffffffffffffffffffffff16816080015173ffffffffffffffffffffffffffffffffffffffff1603611ee7576040517f08c379a0000000000000000000000000000000000000000000000000000000008152600401611ede90613083565b60405180910390fd5b8060c001513414611f2d576040517f08c379a0000000000000000000000000000000000000000000000000000000008152600401611f24906130ef565b60405180910390fd5b8060a0015173ffffffffffffffffffffffffffffffffffffffff163373ffffffffffffffffffffffffffffffffffffffff16146120325760008160a0015173ffffffffffffffffffffffffffffffffffffffff16826101000151606434611f94919061313e565b611f9e919061316f565b604051611faa906131ef565b60006040518083038185875af1925050503d8060008114611fe7576040519150601f19603f3d011682016040523d82523d6000602084013e611fec565b606091505b5050905080612030576040517f08c379a000000000000000000000000000000000000000000000000000000000815260040161202790613276565b60405180910390fd5b505b60006002600084815260200190815260200160002060090160006101000a81548160ff021916908315150217905550336002600084815260200190815260200160002060040160006101000a81548173ffffffffffffffffffffffffffffffffffffffff021916908373ffffffffffffffffffffffffffffffffffffffff16021790555060036000826080015173ffffffffffffffffffffffffffffffffffffffff1673ffffffffffffffffffffffffffffffffffffffff168152602001908152602001600020600081548092919061210a90613296565b9190505550600360003373ffffffffffffffffffffffffffffffffffffffff1673ffffffffffffffffffffffffffffffffffffffff168152602001908152602001600020600081548092919061215f90612c37565b91905055505050565b6040518061014001604052806000815260200160608152602001600073ffffffffffffffffffffffffffffffffffffffff16815260200160008152602001600073ffffffffffffffffffffffffffffffffffffffff168152602001600073ffffffffffffffffffffffffffffffffffffffff1681526020016000815260200160608152602001600081526020016000151581525090565b82805461220b906129f4565b90600052602060002090601f01602090048101928261222d5760008555612274565b82601f1061224657805160ff1916838001178555612274565b82800160010185558215612274579182015b82811115612273578251825591602001919060010190612258565b5b5090506122819190612285565b5090565b5b8082111561229e576000816000905550600101612286565b5090565b6000604051905090565b600080fd5b600080fd5b6000819050919050565b6122c9816122b6565b81146122d457600080fd5b50565b6000813590506122e6816122c0565b92915050565b600060208284031215612302576123016122ac565b5b6000612310848285016122d7565b91505092915050565b600081519050919050565b600082825260208201905092915050565b6000819050602082019050919050565b61234e816122b6565b82525050565b600081519050919050565b600082825260208201905092915050565b60005b8381101561238e578082015181840152602081019050612373565b8381111561239d576000848401525b50505050565b6000601f19601f8301169050919050565b60006123bf82612354565b6123c9818561235f565b93506123d9818560208601612370565b6123e2816123a3565b840191505092915050565b600073ffffffffffffffffffffffffffffffffffffffff82169050919050565b6000612418826123ed565b9050919050565b6124288161240d565b82525050565b6000612439826123ed565b9050919050565b6124498161242e565b82525050565b60008115159050919050565b6124648161244f565b82525050565b6000610140830160008301516124836000860182612345565b506020830151848203602086015261249b82826123b4565b91505060408301516124b0604086018261241f565b5060608301516124c36060860182612345565b5060808301516124d66080860182612440565b5060a08301516124e960a0860182612440565b5060c08301516124fc60c0860182612345565b5060e083015184820360e086015261251482826123b4565b91505061010083015161252b610100860182612345565b5061012083015161254061012086018261245b565b508091505092915050565b6000612557838361246a565b905092915050565b6000602082019050919050565b600061257782612319565b6125818185612324565b93508360208202850161259385612335565b8060005b858110156125cf57848403895281516125b0858261254b565b94506125bb8361255f565b925060208a01995050600181019050612597565b50829750879550505050505092915050565b600060208201905081810360008301526125fb818461256c565b905092915050565b61260c8161240d565b811461261757600080fd5b50565b60008135905061262981612603565b92915050565b600080fd5b600080fd5b7f4e487b7100000000000000000000000000000000000000000000000000000000600052604160045260246000fd5b612671826123a3565b810181811067ffffffffffffffff821117156126905761268f612639565b5b80604052505050565b60006126a36122a2565b90506126af8282612668565b919050565b600067ffffffffffffffff8211156126cf576126ce612639565b5b6126d8826123a3565b9050602081019050919050565b82818337600083830152505050565b6000612707612702846126b4565b612699565b90508281526020810184848401111561272357612722612634565b5b61272e8482856126e5565b509392505050565b600082601f83011261274b5761274a61262f565b5b813561275b8482602086016126f4565b91505092915050565b61276d8161244f565b811461277857600080fd5b50565b60008135905061278a81612764565b92915050565b60008060008060008060c087890312156127ad576127ac6122ac565b5b60006127bb89828a0161261a565b965050602087013567ffffffffffffffff8111156127dc576127db6122b1565b5b6127e889828a01612736565b955050604087013567ffffffffffffffff811115612809576128086122b1565b5b61281589828a01612736565b945050606061282689828a016122d7565b935050608061283789828a016122d7565b92505060a061284889828a0161277b565b9150509295509295509295565b60006020828403121561286b5761286a6122ac565b5b60006128798482850161261a565b91505092915050565b60006101408301600083015161289b6000860182612345565b50602083015184820360208601526128b382826123b4565b91505060408301516128c8604086018261241f565b5060608301516128db6060860182612345565b5060808301516128ee6080860182612440565b5060a083015161290160a0860182612440565b5060c083015161291460c0860182612345565b5060e083015184820360e086015261292c82826123b4565b915050610100830151612943610100860182612345565b5061012083015161295861012086018261245b565b508091505092915050565b6000602082019050818103600083015261297d8184612882565b905092915050565b6000806040838503121561299c5761299b6122ac565b5b60006129aa858286016122d7565b92505060206129bb8582860161277b565b9150509250929050565b7f4e487b7100000000000000000000000000000000000000000000000000000000600052602260045260246000fd5b60006002820490506001821680612a0c57607f821691505b602082108103612a1f57612a1e6129c5565b5b50919050565b600082825260208201905092915050565b7f4f6e6c79206f776e65722063616e2070757420746865206974656d20666f722060008201527f73616c6500000000000000000000000000000000000000000000000000000000602082015250565b6000612a92602483612a25565b9150612a9d82612a36565b604082019050919050565b60006020820190508181036000830152612ac181612a85565b9050919050565b612ad18161240d565b82525050565b612ae08161244f565b82525050565b6000604082019050612afb6000830185612ac8565b612b086020830184612ad7565b9392505050565b600081519050919050565b600081905092915050565b6000612b3082612b0f565b612b3a8185612b1a565b9350612b4a818560208601612370565b80840191505092915050565b6000612b628284612b25565b915081905092915050565b7f556e61626c6520746f20707574206974656d20666f722073616c650000000000600082015250565b6000612ba3601b83612a25565b9150612bae82612b6d565b602082019050919050565b60006020820190508181036000830152612bd281612b96565b9050919050565b7f4e487b7100000000000000000000000000000000000000000000000000000000600052603260045260246000fd5b7f4e487b7100000000000000000000000000000000000000000000000000000000600052601160045260246000fd5b6000612c42826122b6565b91507fffffffffffffffffffffffffffffffffffffffffffffffffffffffffffffffff8203612c7457612c73612c08565b5b600182019050919050565b7f4e6f2072652d656e7472616e6379000000000000000000000000000000000000600082015250565b6000612cb5600e83612a25565b9150612cc082612c7f565b602082019050919050565b60006020820190508181036000830152612ce481612ca8565b9050919050565b7f5072696365206d757374206265206174206c6561737420312077656900000000600082015250565b6000612d21601c83612a25565b9150612d2c82612ceb565b602082019050919050565b60006020820190508181036000830152612d5081612d14565b9050919050565b6000612d6282612354565b612d6c8185612a25565b9350612d7c818560208601612370565b612d85816123a3565b840191505092915050565b6000819050919050565b6000612db5612db0612dab846123ed565b612d90565b6123ed565b9050919050565b6000612dc782612d9a565b9050919050565b6000612dd982612dbc565b9050919050565b612de981612dce565b82525050565b60006040820190508181036000830152612e098185612d57565b9050612e186020830184612de0565b9392505050565b600081519050612e2e816122c0565b92915050565b600060208284031215612e4a57612e496122ac565b5b6000612e5884828501612e1f565b91505092915050565b612e6a816122b6565b82525050565b6000602082019050612e856000830184612e61565b92915050565b600081519050612e9a81612603565b92915050565b600060208284031215612eb657612eb56122ac565b5b6000612ec484828501612e8b565b91505092915050565b7f4f6e6c79206f776e65722063616e206368616e6765207468652073656c6c696e60008201527f6720737461747573000000000000000000000000000000000000000000000000602082015250565b6000612f29602883612a25565b9150612f3482612ecd565b604082019050919050565b60006020820190508181036000830152612f5881612f1c565b9050919050565b7f556e61626c6520746f206368616e676520746865207374617475730000000000600082015250565b6000612f95601b83612a25565b9150612fa082612f5f565b602082019050919050565b60006020820190508181036000830152612fc481612f88565b9050919050565b7f4974656d206973206e6f74206265696e6720736f6c6400000000000000000000600082015250565b6000613001601683612a25565b915061300c82612fcb565b602082019050919050565b6000602082019050818103600083015261303081612ff4565b9050919050565b7f596f7520616c7265616479206f776e2074686973206974656d00000000000000600082015250565b600061306d601983612a25565b915061307882613037565b602082019050919050565b6000602082019050818103600083015261309c81613060565b9050919050565b7f496e76616c69642070726963652076616c756500000000000000000000000000600082015250565b60006130d9601383612a25565b91506130e4826130a3565b602082019050919050565b60006020820190508181036000830152613108816130cc565b9050919050565b7f4e487b7100000000000000000000000000000000000000000000000000000000600052601260045260246000fd5b6000613149826122b6565b9150613154836122b6565b9250826131645761316361310f565b5b828204905092915050565b600061317a826122b6565b9150613185836122b6565b9250817fffffffffffffffffffffffffffffffffffffffffffffffffffffffffffffffff04831182151516156131be576131bd612c08565b5b828202905092915050565b50565b60006131d9600083612b1a565b91506131e4826131c9565b600082019050919050565b60006131fa826131cc565b9150819050919050565b7f556e61626c6520746f2070726f6365656420776974686f757420706179696e6760008201527f20726f79616c747920746f207468652063726561746f72000000000000000000602082015250565b6000613260603783612a25565b915061326b82613204565b604082019050919050565b6000602082019050818103600083015261328f81613253565b9050919050565b60006132a1826122b6565b9150600082036132b4576132b3612c08565b5b60018203905091905056fea264697066735822122001b6bed8658f8ba0e4a987913332fa706b3ae04c66e0880079b76ee75dfe9a1764736f6c634300080d0033",
  "immutableReferences": {},
  "source": "// SPDX-License-Identifier: MIT\npragma solidity ^0.8.11;\n\nimport \"../node_modules/@openzeppelin/contracts/token/ERC721/IERC721.sol\";\nimport \"../node_modules/@openzeppelin/contracts/token/ERC721/IERC721Receiver.sol\";\nimport \"../node_modules/@openzeppelin/contracts/token/ERC721/extensions/ERC721URIStorage.sol\";\n\nimport \"./CRYPT.sol\";\n\ncontract NFTStore {\n\n    struct Item {\n        uint256 itemId;\n        string name;\n        address nftContract;\n        uint256 tokenId;\n        address payable owner;\n        address payable creator;\n        uint256 price;\n        string uri;\n        uint256 royaltyPercent;\n        bool isSelling;\n    }\n\n    uint256 private itemId;\n    bool private locked = false;\n    mapping(uint256 => Item) private idToItem;\n    mapping(address => uint256) private addressToItemsCount;\n    address private marketOwner;\n\n    event random(string msg, address addr);\n\n    constructor(address cowner) {\n        itemId = 0;\n        marketOwner = cowner;\n    }\n\n    modifier onlyOwner() {\n        require(marketOwner == msg.sender);\n        _;\n    }\n\n    modifier lockEntry() {\n        require(!locked, \"No re-entrancy\");\n        locked = true;\n        _;\n        locked = false;\n    }\n\n    function createItem(\n        address nftContract, \n        string memory uri, \n        string memory name,\n        uint256 price,\n        // uint256 tId,\n        uint256 royaltyPercent,\n        bool isSelling\n    ) public payable lockEntry {\n        require(price > 0, \"Price must be at least 1 wei\");\n        address payable creator = payable(msg.sender);\n        uint256 tId = CRYPT(nftContract).createToken(uri, creator);\n        idToItem[itemId] = Item(\n            itemId, \n            name, \n            nftContract, \n            tId, \n            creator, \n            creator, \n            price, \n            uri,\n            royaltyPercent,\n            isSelling\n        );\n        addressToItemsCount[msg.sender]++;\n        itemId++;\n    }\n\n    function getItemById(uint256 id) public view returns(Item memory){\n        return idToItem[id];\n    }\n\n    function getItems() public view returns(Item[] memory){\n        Item[] memory items = new Item[](itemId);\n        for (uint256 index = 0; index < itemId; index++) {\n            items[index] = idToItem[index];\n        }\n        return items;\n    }\n    \n    function getItemsOwnedByUser(address caller) public view returns(Item[] memory){\n        uint256 count = addressToItemsCount[caller];\n        Item[] memory items = new Item[](count);\n        for (uint256 index = 0; index < itemId; index++) {\n            if (idToItem[index].owner == caller) {   \n                items[index] = idToItem[index];\n            }\n        }\n        return items;\n    }\n    \n    function getItemsCreatedByUser(address caller) public view returns(Item[] memory){\n        uint256 count = addressToItemsCount[caller];\n        Item[] memory items = new Item[](count);\n        for (uint256 index = 0; index <= itemId; index++) {\n            if (idToItem[index].creator == caller) {   \n                items[index] = idToItem[index];\n            }\n        }\n        return items;\n    }\n\n    function putItemForSale(uint256 id) public {\n        Item memory item = idToItem[id];\n        require(item.owner == msg.sender, \"Only owner can put the item for sale\");\n        // CRYPT(item.nftContract).setApprovalForAll(address(this), true);\n        (bool success,) = item.nftContract.delegatecall(\n            abi.encodeWithSignature(\"setApprovalForAll(address,bool)\", marketOwner ,true)\n        );\n        require(success, \"Unable to put item for sale\");\n    }\n\n    function buyItem(uint256 id) public payable {\n        Item memory item = idToItem[id];\n        require(item.isSelling, \"Item is not being sold\");\n        require(item.owner != msg.sender, \"You already own this item\");\n        require(msg.value == item.price, \"Invalid price value\");\n        if(msg.sender != item.creator) {\n            (bool royaltyGiven,) = item.creator.call{value: (msg.value/100) * item.royaltyPercent}(\"\");\n            require(royaltyGiven, \"Unable to proceed without paying royalty to the creator\");\n        }\n        // address currentOwner = IERC721(item.nftContract).ownerOf(item.tokenId);\n        // require(currentOwner == item.owner, \"Item owner not valid\");\n        // IERC721(item.nftContract).transferFrom(item.owner, buyer, item.tokenId);\n\n        // (bool transferred,) = item.nftContract.delegatecall(\n        //     abi.encodeWithSignature(\"transferFrom(address,address,bool)\", item.owner, buyer, item.tokenId)\n        // );\n        // require(transferred, \"Unable to transfer token\");\n        idToItem[id].isSelling = false;\n        idToItem[id].owner = payable(msg.sender);\n        addressToItemsCount[item.owner]--;\n        addressToItemsCount[msg.sender]++;\n    }\n\n    function changeSellingStatus(uint256 id, bool status) public payable {\n        Item memory item = idToItem[id];\n        address tokenOwner = IERC721(item.nftContract).ownerOf(idToItem[id].tokenId);\n        require(msg.sender == tokenOwner, \"Only owner can change the selling status\");\n        idToItem[id].isSelling = status;\n        require(idToItem[id].isSelling == status, \"Unable to change the status\");\n    }\n}",
  "sourcePath": "/Users/abhinavkhanduja/Desktop/BlockchainDevelopment/cryptagram/packages/smart-contracts/contracts/NFTStore.sol",
  "compiler": {
    "name": "solc",
    "version": "0.8.13+commit.abaa5c0e.Emscripten.clang"
  },
  "schemaVersion": "3.4.4",
  "updatedAt": "2022-04-09T08:37:45.949Z",
  "networkType": "ethereum",
  "devdoc": {
    "kind": "dev",
    "methods": {},
    "version": 1
  },
  "userdoc": {
    "kind": "user",
    "methods": {},
    "version": 1
  }
}