{
  "contractName": "Transfer",
  "abi": [
    {
      "anonymous": false,
      "inputs": [
        {
          "indexed": false,
          "internalType": "string",
          "name": "from",
          "type": "string"
        },
        {
          "indexed": false,
          "internalType": "string",
          "name": "post",
          "type": "string"
        }
      ],
      "name": "PostTipped",
      "type": "event"
    },
    {
      "inputs": [],
      "name": "name",
      "outputs": [
        {
          "internalType": "string",
          "name": "",
          "type": "string"
        }
      ],
      "stateMutability": "view",
      "type": "function",
      "constant": true
    },
    {
      "inputs": [
        {
          "internalType": "address",
          "name": "to",
          "type": "address"
        },
        {
          "internalType": "uint256",
          "name": "amt",
          "type": "uint256"
        }
      ],
      "name": "approve",
      "outputs": [
        {
          "internalType": "bool",
          "name": "",
          "type": "bool"
        }
      ],
      "stateMutability": "nonpayable",
      "type": "function"
    },
    {
      "inputs": [
        {
          "internalType": "string",
          "name": "postId",
          "type": "string"
        },
        {
          "internalType": "string",
          "name": "userId",
          "type": "string"
        }
      ],
      "name": "getSupportStatus",
      "outputs": [
        {
          "components": [
            {
              "internalType": "address",
              "name": "to",
              "type": "address"
            },
            {
              "internalType": "uint256",
              "name": "amount",
              "type": "uint256"
            }
          ],
          "internalType": "struct Transfer.SupportObj",
          "name": "",
          "type": "tuple"
        }
      ],
      "stateMutability": "view",
      "type": "function",
      "constant": true
    },
    {
      "inputs": [
        {
          "internalType": "address payable",
          "name": "to",
          "type": "address"
        },
        {
          "internalType": "string",
          "name": "userId",
          "type": "string"
        },
        {
          "internalType": "string",
          "name": "postId",
          "type": "string"
        }
      ],
      "name": "transfer",
      "outputs": [
        {
          "internalType": "bool",
          "name": "",
          "type": "bool"
        }
      ],
      "stateMutability": "payable",
      "type": "function",
      "payable": true
    }
  ],
  "bytecode": "0x608060405234801561001057600080fd5b50610c9b806100206000396000f3fe60806040526004361061003f5760003560e01c806306fdde0314610044578063095ea7b31461006f57806381378af7146100ac578063b25352fa146100dc575b600080fd5b34801561005057600080fd5b50610059610119565b6040516100669190610633565b60405180910390f35b34801561007b57600080fd5b50610096600480360381019061009191906106fd565b610152565b6040516100a39190610758565b60405180910390f35b6100c660048036038101906100c191906108e6565b610243565b6040516100d39190610758565b60405180910390f35b3480156100e857600080fd5b5061010360048036038101906100fe9190610971565b6104b5565b6040516101109190610a36565b60405180910390f35b6040518060400160405280600881526020017f5472616e7366657200000000000000000000000000000000000000000000000081525081565b600060016000808573ffffffffffffffffffffffffffffffffffffffff1673ffffffffffffffffffffffffffffffffffffffff16815260200190815260200160002060006101000a81548160ff02191690831515021790555081600160008573ffffffffffffffffffffffffffffffffffffffff1673ffffffffffffffffffffffffffffffffffffffff168152602001908152602001600020819055506000808473ffffffffffffffffffffffffffffffffffffffff1673ffffffffffffffffffffffffffffffffffffffff16815260200190815260200160002060009054906101000a900460ff16905092915050565b600080825103610288576040517f08c379a000000000000000000000000000000000000000000000000000000000815260040161027f90610a9d565b60405180910390fd5b60008351036102cc576040517f08c379a00000000000000000000000000000000000000000000000000000000081526004016102c390610b09565b60405180910390fd5b60006002836040516102de9190610b65565b9081526020016040518091039020846040516102fa9190610b65565b9081526020016040518091039020600101541461034c576040517f08c379a000000000000000000000000000000000000000000000000000000000815260040161034390610bc8565b60405180910390fd5b60405180604001604052808573ffffffffffffffffffffffffffffffffffffffff168152602001348152506002836040516103879190610b65565b9081526020016040518091039020846040516103a39190610b65565b908152602001604051809103902060008201518160000160006101000a81548173ffffffffffffffffffffffffffffffffffffffff021916908373ffffffffffffffffffffffffffffffffffffffff1602179055506020820151816001015590505060008473ffffffffffffffffffffffffffffffffffffffff163460405161042b90610c19565b60006040518083038185875af1925050503d8060008114610468576040519150601f19603f3d011682016040523d82523d6000602084013e61046d565b606091505b505090507f9c4f3bb93c6e2a0a66ea2b216bbd53a2cf58c589471b5e72f1342dc8aa45ec3284846040516104a2929190610c2e565b60405180910390a1809150509392505050565b6104bd61056a565b6002836040516104cd9190610b65565b9081526020016040518091039020826040516104e99190610b65565b90815260200160405180910390206040518060400160405290816000820160009054906101000a900473ffffffffffffffffffffffffffffffffffffffff1673ffffffffffffffffffffffffffffffffffffffff1673ffffffffffffffffffffffffffffffffffffffff168152602001600182015481525050905092915050565b6040518060400160405280600073ffffffffffffffffffffffffffffffffffffffff168152602001600081525090565b600081519050919050565b600082825260208201905092915050565b60005b838110156105d45780820151818401526020810190506105b9565b838111156105e3576000848401525b50505050565b6000601f19601f8301169050919050565b60006106058261059a565b61060f81856105a5565b935061061f8185602086016105b6565b610628816105e9565b840191505092915050565b6000602082019050818103600083015261064d81846105fa565b905092915050565b6000604051905090565b600080fd5b600080fd5b600073ffffffffffffffffffffffffffffffffffffffff82169050919050565b600061069482610669565b9050919050565b6106a481610689565b81146106af57600080fd5b50565b6000813590506106c18161069b565b92915050565b6000819050919050565b6106da816106c7565b81146106e557600080fd5b50565b6000813590506106f7816106d1565b92915050565b600080604083850312156107145761071361065f565b5b6000610722858286016106b2565b9250506020610733858286016106e8565b9150509250929050565b60008115159050919050565b6107528161073d565b82525050565b600060208201905061076d6000830184610749565b92915050565b600061077e82610669565b9050919050565b61078e81610773565b811461079957600080fd5b50565b6000813590506107ab81610785565b92915050565b600080fd5b600080fd5b7f4e487b7100000000000000000000000000000000000000000000000000000000600052604160045260246000fd5b6107f3826105e9565b810181811067ffffffffffffffff82111715610812576108116107bb565b5b80604052505050565b6000610825610655565b905061083182826107ea565b919050565b600067ffffffffffffffff821115610851576108506107bb565b5b61085a826105e9565b9050602081019050919050565b82818337600083830152505050565b600061088961088484610836565b61081b565b9050828152602081018484840111156108a5576108a46107b6565b5b6108b0848285610867565b509392505050565b600082601f8301126108cd576108cc6107b1565b5b81356108dd848260208601610876565b91505092915050565b6000806000606084860312156108ff576108fe61065f565b5b600061090d8682870161079c565b935050602084013567ffffffffffffffff81111561092e5761092d610664565b5b61093a868287016108b8565b925050604084013567ffffffffffffffff81111561095b5761095a610664565b5b610967868287016108b8565b9150509250925092565b600080604083850312156109885761098761065f565b5b600083013567ffffffffffffffff8111156109a6576109a5610664565b5b6109b2858286016108b8565b925050602083013567ffffffffffffffff8111156109d3576109d2610664565b5b6109df858286016108b8565b9150509250929050565b6109f281610689565b82525050565b610a01816106c7565b82525050565b604082016000820151610a1d60008501826109e9565b506020820151610a3060208501826109f8565b50505050565b6000604082019050610a4b6000830184610a07565b92915050565b7f506f7374204964206e6f7420666f756e64000000000000000000000000000000600082015250565b6000610a876011836105a5565b9150610a9282610a51565b602082019050919050565b60006020820190508181036000830152610ab681610a7a565b9050919050565b7f55736572204964206e6f7420666f756e64000000000000000000000000000000600082015250565b6000610af36011836105a5565b9150610afe82610abd565b602082019050919050565b60006020820190508181036000830152610b2281610ae6565b9050919050565b600081905092915050565b6000610b3f8261059a565b610b498185610b29565b9350610b598185602086016105b6565b80840191505092915050565b6000610b718284610b34565b915081905092915050565b7f416c726561647920737570706f72746564000000000000000000000000000000600082015250565b6000610bb26011836105a5565b9150610bbd82610b7c565b602082019050919050565b60006020820190508181036000830152610be181610ba5565b9050919050565b600081905092915050565b50565b6000610c03600083610be8565b9150610c0e82610bf3565b600082019050919050565b6000610c2482610bf6565b9150819050919050565b60006040820190508181036000830152610c4881856105fa565b90508181036020830152610c5c81846105fa565b9050939250505056fea26469706673582212206b37a6a193671da7872a010b07fc08ba332398194bd1d3449d54fc17f50fe5af64736f6c634300080d0033",
  "immutableReferences": {},
  "source": "// SPDX-License-Identifier: MIT\npragma solidity ^0.8.11;\n\ncontract Transfer {\n    string public constant name = \"Transfer\";\n    struct SupportObj {\n        address to;\n        uint amount;\n    }\n    mapping(address => bool) private approvals;\n    mapping(address => uint) private amount;\n    mapping(string => mapping(string => SupportObj)) private supportMap;\n\n    event PostTipped(string from, string post);\n\n    function approve(address to, uint amt) external returns(bool) {\n        approvals[to] = true;\n        amount[to] = amt;\n        return approvals[to];\n    }\n    \n    function getSupportStatus(string memory postId, string memory userId) view external returns(SupportObj memory) {\n        return supportMap[postId][userId];\n    }\n\n    function transfer(address payable to, string memory userId, string memory postId) public payable returns(bool) {\n        require(bytes(postId).length != 0, \"Post Id not found\");\n        require(bytes(userId).length != 0, \"User Id not found\");\n        require(supportMap[postId][userId].amount == 0, \"Already supported\");\n\n        supportMap[postId][userId] = SupportObj(to, msg.value);\n        (bool sent, ) = to.call{value: msg.value}(\"\");\n\n        emit PostTipped(userId, postId);\n        return sent;\n    }\n}",
  "sourcePath": "/Users/abhinavkhanduja/Desktop/BlockchainDevelopment/cryptagram/packages/smart-contracts/contracts/Transfer.sol",
  "compiler": {
    "name": "solc",
    "version": "0.8.13+commit.abaa5c0e.Emscripten.clang"
  },
  "schemaVersion": "3.4.4",
  "updatedAt": "2022-04-09T08:37:44.947Z",
  "networkType": "ethereum",
  "devdoc": {
    "kind": "dev",
    "methods": {},
    "version": 1
  },
  "userdoc": {
    "kind": "user",
    "methods": {},
    "version": 1
  }
}