{
  "contractName": "CRYPT",
  "abi": [
    {
      "inputs": [
        {
          "internalType": "address",
          "name": "marketplaceAddress",
          "type": "address"
        }
      ],
      "stateMutability": "nonpayable",
      "type": "constructor"
    },
    {
      "anonymous": false,
      "inputs": [
        {
          "indexed": true,
          "internalType": "address",
          "name": "owner",
          "type": "address"
        },
        {
          "indexed": true,
          "internalType": "address",
          "name": "approved",
          "type": "address"
        },
        {
          "indexed": true,
          "internalType": "uint256",
          "name": "tokenId",
          "type": "uint256"
        }
      ],
      "name": "Approval",
      "type": "event"
    },
    {
      "anonymous": false,
      "inputs": [
        {
          "indexed": true,
          "internalType": "address",
          "name": "owner",
          "type": "address"
        },
        {
          "indexed": true,
          "internalType": "address",
          "name": "operator",
          "type": "address"
        },
        {
          "indexed": false,
          "internalType": "bool",
          "name": "approved",
          "type": "bool"
        }
      ],
      "name": "ApprovalForAll",
      "type": "event"
    },
    {
      "anonymous": false,
      "inputs": [
        {
          "indexed": true,
          "internalType": "address",
          "name": "from",
          "type": "address"
        },
        {
          "indexed": true,
          "internalType": "address",
          "name": "to",
          "type": "address"
        },
        {
          "indexed": true,
          "internalType": "uint256",
          "name": "tokenId",
          "type": "uint256"
        }
      ],
      "name": "Transfer",
      "type": "event"
    },
    {
      "anonymous": false,
      "inputs": [
        {
          "indexed": false,
          "internalType": "string",
          "name": "msg",
          "type": "string"
        },
        {
          "indexed": false,
          "internalType": "address",
          "name": "addr",
          "type": "address"
        }
      ],
      "name": "random",
      "type": "event"
    },
    {
      "inputs": [
        {
          "internalType": "address",
          "name": "to",
          "type": "address"
        },
        {
          "internalType": "uint256",
          "name": "tokenId",
          "type": "uint256"
        }
      ],
      "name": "approve",
      "outputs": [],
      "stateMutability": "nonpayable",
      "type": "function"
    },
    {
      "inputs": [
        {
          "internalType": "address",
          "name": "owner",
          "type": "address"
        }
      ],
      "name": "balanceOf",
      "outputs": [
        {
          "internalType": "uint256",
          "name": "",
          "type": "uint256"
        }
      ],
      "stateMutability": "view",
      "type": "function",
      "constant": true
    },
    {
      "inputs": [
        {
          "internalType": "uint256",
          "name": "tokenId",
          "type": "uint256"
        }
      ],
      "name": "getApproved",
      "outputs": [
        {
          "internalType": "address",
          "name": "",
          "type": "address"
        }
      ],
      "stateMutability": "view",
      "type": "function",
      "constant": true
    },
    {
      "inputs": [],
      "name": "name",
      "outputs": [
        {
          "internalType": "string",
          "name": "",
          "type": "string"
        }
      ],
      "stateMutability": "view",
      "type": "function",
      "constant": true
    },
    {
      "inputs": [
        {
          "internalType": "uint256",
          "name": "tokenId",
          "type": "uint256"
        }
      ],
      "name": "ownerOf",
      "outputs": [
        {
          "internalType": "address",
          "name": "",
          "type": "address"
        }
      ],
      "stateMutability": "view",
      "type": "function",
      "constant": true
    },
    {
      "inputs": [
        {
          "internalType": "address",
          "name": "from",
          "type": "address"
        },
        {
          "internalType": "address",
          "name": "to",
          "type": "address"
        },
        {
          "internalType": "uint256",
          "name": "tokenId",
          "type": "uint256"
        }
      ],
      "name": "safeTransferFrom",
      "outputs": [],
      "stateMutability": "nonpayable",
      "type": "function"
    },
    {
      "inputs": [
        {
          "internalType": "address",
          "name": "from",
          "type": "address"
        },
        {
          "internalType": "address",
          "name": "to",
          "type": "address"
        },
        {
          "internalType": "uint256",
          "name": "tokenId",
          "type": "uint256"
        },
        {
          "internalType": "bytes",
          "name": "_data",
          "type": "bytes"
        }
      ],
      "name": "safeTransferFrom",
      "outputs": [],
      "stateMutability": "nonpayable",
      "type": "function"
    },
    {
      "inputs": [
        {
          "internalType": "address",
          "name": "operator",
          "type": "address"
        },
        {
          "internalType": "bool",
          "name": "approved",
          "type": "bool"
        }
      ],
      "name": "setApprovalForAll",
      "outputs": [],
      "stateMutability": "nonpayable",
      "type": "function"
    },
    {
      "inputs": [
        {
          "internalType": "bytes4",
          "name": "interfaceId",
          "type": "bytes4"
        }
      ],
      "name": "supportsInterface",
      "outputs": [
        {
          "internalType": "bool",
          "name": "",
          "type": "bool"
        }
      ],
      "stateMutability": "view",
      "type": "function",
      "constant": true
    },
    {
      "inputs": [],
      "name": "symbol",
      "outputs": [
        {
          "internalType": "string",
          "name": "",
          "type": "string"
        }
      ],
      "stateMutability": "view",
      "type": "function",
      "constant": true
    },
    {
      "inputs": [
        {
          "internalType": "uint256",
          "name": "tokenId",
          "type": "uint256"
        }
      ],
      "name": "tokenURI",
      "outputs": [
        {
          "internalType": "string",
          "name": "",
          "type": "string"
        }
      ],
      "stateMutability": "view",
      "type": "function",
      "constant": true
    },
    {
      "inputs": [
        {
          "internalType": "address",
          "name": "from",
          "type": "address"
        },
        {
          "internalType": "address",
          "name": "to",
          "type": "address"
        },
        {
          "internalType": "uint256",
          "name": "tokenId",
          "type": "uint256"
        }
      ],
      "name": "transferFrom",
      "outputs": [],
      "stateMutability": "nonpayable",
      "type": "function"
    },
    {
      "inputs": [],
      "name": "getLastTokenId",
      "outputs": [
        {
          "internalType": "uint256",
          "name": "",
          "type": "uint256"
        }
      ],
      "stateMutability": "view",
      "type": "function",
      "constant": true
    },
    {
      "inputs": [],
      "name": "getStoreOwner",
      "outputs": [
        {
          "internalType": "address",
          "name": "",
          "type": "address"
        }
      ],
      "stateMutability": "view",
      "type": "function",
      "constant": true
    },
    {
      "inputs": [
        {
          "internalType": "string",
          "name": "tokenURI",
          "type": "string"
        },
        {
          "internalType": "address",
          "name": "creator",
          "type": "address"
        }
      ],
      "name": "createToken",
      "outputs": [
        {
          "internalType": "uint256",
          "name": "",
          "type": "uint256"
        }
      ],
      "stateMutability": "nonpayable",
      "type": "function"
    },
    {
      "inputs": [
        {
          "internalType": "address",
          "name": "owner",
          "type": "address"
        },
        {
          "internalType": "address",
          "name": "operator",
          "type": "address"
        }
      ],
      "name": "isApprovedForAll",
      "outputs": [
        {
          "internalType": "bool",
          "name": "",
          "type": "bool"
        }
      ],
      "stateMutability": "view",
      "type": "function",
      "constant": true
    },
    {
      "inputs": [
        {
          "internalType": "uint256",
          "name": "id",
          "type": "uint256"
        },
        {
          "internalType": "address",
          "name": "buyer",
          "type": "address"
        }
      ],
      "name": "transferToken",
      "outputs": [],
      "stateMutability": "payable",
      "type": "function",
      "payable": true
    }
  ],
  "bytecode": "0x60806040523480156200001157600080fd5b506040516200333938038062003339833981810160405281019062000037919062000241565b6040518060400160405280600a81526020017f43727970747665727365000000000000000000000000000000000000000000008152506040518060400160405280600581526020017f43525950540000000000000000000000000000000000000000000000000000008152508160009080519060200190620000bb92919062000127565b508060019080519060200190620000d492919062000127565b505050600060078190555080600860006101000a81548173ffffffffffffffffffffffffffffffffffffffff021916908373ffffffffffffffffffffffffffffffffffffffff16021790555050620002d7565b8280546200013590620002a2565b90600052602060002090601f016020900481019282620001595760008555620001a5565b82601f106200017457805160ff1916838001178555620001a5565b82800160010185558215620001a5579182015b82811115620001a457825182559160200191906001019062000187565b5b509050620001b49190620001b8565b5090565b5b80821115620001d3576000816000905550600101620001b9565b5090565b600080fd5b600073ffffffffffffffffffffffffffffffffffffffff82169050919050565b60006200020982620001dc565b9050919050565b6200021b81620001fc565b81146200022757600080fd5b50565b6000815190506200023b8162000210565b92915050565b6000602082840312156200025a5762000259620001d7565b5b60006200026a848285016200022a565b91505092915050565b7f4e487b7100000000000000000000000000000000000000000000000000000000600052602260045260246000fd5b60006002820490506001821680620002bb57607f821691505b602082108103620002d157620002d062000273565b5b50919050565b61305280620002e76000396000f3fe6080604052600436106100fe5760003560e01c806370a0823111610095578063a22cb46511610064578063a22cb4651461035b578063b88d4fde14610384578063bad42590146103ad578063c87b56dd146103c9578063e985e9c514610406576100fe565b806370a082311461028b57806383c4c00d146102c857806395d89b41146102f3578063a21193771461031e576100fe565b806323b872dd116100d157806323b872dd146101d157806326665de8146101fa57806342842e0e146102255780636352211e1461024e576100fe565b806301ffc9a71461010357806306fdde0314610140578063081812fc1461016b578063095ea7b3146101a8575b600080fd5b34801561010f57600080fd5b5061012a60048036038101906101259190611cdb565b610443565b6040516101379190611d23565b60405180910390f35b34801561014c57600080fd5b50610155610525565b6040516101629190611dd7565b60405180910390f35b34801561017757600080fd5b50610192600480360381019061018d9190611e2f565b6105b7565b60405161019f9190611e9d565b60405180910390f35b3480156101b457600080fd5b506101cf60048036038101906101ca9190611ee4565b61063c565b005b3480156101dd57600080fd5b506101f860048036038101906101f39190611f24565b610753565b005b34801561020657600080fd5b5061020f6107b3565b60405161021c9190611e9d565b60405180910390f35b34801561023157600080fd5b5061024c60048036038101906102479190611f24565b6107dd565b005b34801561025a57600080fd5b5061027560048036038101906102709190611e2f565b6107fd565b6040516102829190611e9d565b60405180910390f35b34801561029757600080fd5b506102b260048036038101906102ad9190611f77565b6108ae565b6040516102bf9190611fb3565b60405180910390f35b3480156102d457600080fd5b506102dd610965565b6040516102ea9190611fb3565b60405180910390f35b3480156102ff57600080fd5b50610308610980565b6040516103159190611dd7565b60405180910390f35b34801561032a57600080fd5b5061034560048036038101906103409190612033565b610a12565b6040516103529190611fb3565b60405180910390f35b34801561036757600080fd5b50610382600480360381019061037d91906120bf565b610a95565b005b34801561039057600080fd5b506103ab60048036038101906103a6919061222f565b610aab565b005b6103c760048036038101906103c291906122b2565b610b0d565b005b3480156103d557600080fd5b506103f060048036038101906103eb9190611e2f565b610ba6565b6040516103fd9190611dd7565b60405180910390f35b34801561041257600080fd5b5061042d600480360381019061042891906122f2565b610cf7565b60405161043a9190611d23565b60405180910390f35b60007f80ac58cd000000000000000000000000000000000000000000000000000000007bffffffffffffffffffffffffffffffffffffffffffffffffffffffff1916827bffffffffffffffffffffffffffffffffffffffffffffffffffffffff1916148061050e57507f5b5e139f000000000000000000000000000000000000000000000000000000007bffffffffffffffffffffffffffffffffffffffffffffffffffffffff1916827bffffffffffffffffffffffffffffffffffffffffffffffffffffffff1916145b8061051e575061051d82610e29565b5b9050919050565b60606000805461053490612361565b80601f016020809104026020016040519081016040528092919081815260200182805461056090612361565b80156105ad5780601f10610582576101008083540402835291602001916105ad565b820191906000526020600020905b81548152906001019060200180831161059057829003601f168201915b5050505050905090565b60006105c282610e93565b610601576040517f08c379a00000000000000000000000000000000000000000000000000000000081526004016105f890612404565b60405180910390fd5b6004600083815260200190815260200160002060009054906101000a900473ffffffffffffffffffffffffffffffffffffffff169050919050565b6000610647826107fd565b90508073ffffffffffffffffffffffffffffffffffffffff168373ffffffffffffffffffffffffffffffffffffffff16036106b7576040517f08c379a00000000000000000000000000000000000000000000000000000000081526004016106ae90612496565b60405180910390fd5b8073ffffffffffffffffffffffffffffffffffffffff166106d6610eff565b73ffffffffffffffffffffffffffffffffffffffff1614806107055750610704816106ff610eff565b610cf7565b5b610744576040517f08c379a000000000000000000000000000000000000000000000000000000000815260040161073b90612528565b60405180910390fd5b61074e8383610f07565b505050565b61076461075e610eff565b82610fc0565b6107a3576040517f08c379a000000000000000000000000000000000000000000000000000000000815260040161079a906125ba565b60405180910390fd5b6107ae83838361109e565b505050565b6000600860009054906101000a900473ffffffffffffffffffffffffffffffffffffffff16905090565b6107f883838360405180602001604052806000815250610aab565b505050565b6000806002600084815260200190815260200160002060009054906101000a900473ffffffffffffffffffffffffffffffffffffffff169050600073ffffffffffffffffffffffffffffffffffffffff168173ffffffffffffffffffffffffffffffffffffffff16036108a5576040517f08c379a000000000000000000000000000000000000000000000000000000000815260040161089c9061264c565b60405180910390fd5b80915050919050565b60008073ffffffffffffffffffffffffffffffffffffffff168273ffffffffffffffffffffffffffffffffffffffff160361091e576040517f08c379a0000000000000000000000000000000000000000000000000000000008152600401610915906126de565b60405180910390fd5b600360008373ffffffffffffffffffffffffffffffffffffffff1673ffffffffffffffffffffffffffffffffffffffff168152602001908152602001600020549050919050565b6000806001600754610977919061272d565b90508091505090565b60606001805461098f90612361565b80601f01602080910402602001604051908101604052809291908181526020018280546109bb90612361565b8015610a085780601f106109dd57610100808354040283529160200191610a08565b820191906000526020600020905b8154815290600101906020018083116109eb57829003601f168201915b5050505050905090565b6000806007549050610a2483826112f9565b610a728186868080601f016020809104026020016040519081016040528093929190818152602001838380828437600081840152601f19601f82011690508083019250505050505050611317565b60076000815480929190610a8590612761565b9190505550809150509392505050565b610aa7610aa0610eff565b838361138b565b5050565b610abc610ab6610eff565b83610fc0565b610afb576040517f08c379a0000000000000000000000000000000000000000000000000000000008152600401610af2906125ba565b60405180910390fd5b610b07848484846114f7565b50505050565b6000610b18836107fd565b9050610b25818385610753565b6000610b30846107fd565b90508273ffffffffffffffffffffffffffffffffffffffff168173ffffffffffffffffffffffffffffffffffffffff1614610ba0576040517f08c379a0000000000000000000000000000000000000000000000000000000008152600401610b97906127f5565b60405180910390fd5b50505050565b6060610bb182610e93565b610bf0576040517f08c379a0000000000000000000000000000000000000000000000000000000008152600401610be790612887565b60405180910390fd5b6000600660008481526020019081526020016000208054610c1090612361565b80601f0160208091040260200160405190810160405280929190818152602001828054610c3c90612361565b8015610c895780601f10610c5e57610100808354040283529160200191610c89565b820191906000526020600020905b815481529060010190602001808311610c6c57829003601f168201915b505050505090506000610c9a611553565b90506000815103610caf578192505050610cf2565b600082511115610ce4578082604051602001610ccc9291906128e3565b60405160208183030381529060405292505050610cf2565b610ced8461156a565b925050505b919050565b6000600860009054906101000a900473ffffffffffffffffffffffffffffffffffffffff1673ffffffffffffffffffffffffffffffffffffffff168273ffffffffffffffffffffffffffffffffffffffff161480610d8057508273ffffffffffffffffffffffffffffffffffffffff168273ffffffffffffffffffffffffffffffffffffffff16145b610dbf576040517f08c379a0000000000000000000000000000000000000000000000000000000008152600401610db690612953565b60405180910390fd5b610dc98383611611565b80610e215750600860009054906101000a900473ffffffffffffffffffffffffffffffffffffffff1673ffffffffffffffffffffffffffffffffffffffff168273ffffffffffffffffffffffffffffffffffffffff16145b905092915050565b60007f01ffc9a7000000000000000000000000000000000000000000000000000000007bffffffffffffffffffffffffffffffffffffffffffffffffffffffff1916827bffffffffffffffffffffffffffffffffffffffffffffffffffffffff1916149050919050565b60008073ffffffffffffffffffffffffffffffffffffffff166002600084815260200190815260200160002060009054906101000a900473ffffffffffffffffffffffffffffffffffffffff1673ffffffffffffffffffffffffffffffffffffffff1614159050919050565b600033905090565b816004600083815260200190815260200160002060006101000a81548173ffffffffffffffffffffffffffffffffffffffff021916908373ffffffffffffffffffffffffffffffffffffffff160217905550808273ffffffffffffffffffffffffffffffffffffffff16610f7a836107fd565b73ffffffffffffffffffffffffffffffffffffffff167f8c5be1e5ebec7d5bd14f71427d1e84f3dd0314c0f7b2291e5b200ac8c7c3b92560405160405180910390a45050565b6000610fcb82610e93565b61100a576040517f08c379a0000000000000000000000000000000000000000000000000000000008152600401611001906129e5565b60405180910390fd5b6000611015836107fd565b90508073ffffffffffffffffffffffffffffffffffffffff168473ffffffffffffffffffffffffffffffffffffffff16148061108457508373ffffffffffffffffffffffffffffffffffffffff1661106c846105b7565b73ffffffffffffffffffffffffffffffffffffffff16145b8061109557506110948185610cf7565b5b91505092915050565b8273ffffffffffffffffffffffffffffffffffffffff166110be826107fd565b73ffffffffffffffffffffffffffffffffffffffff1614611114576040517f08c379a000000000000000000000000000000000000000000000000000000000815260040161110b90612a77565b60405180910390fd5b600073ffffffffffffffffffffffffffffffffffffffff168273ffffffffffffffffffffffffffffffffffffffff1603611183576040517f08c379a000000000000000000000000000000000000000000000000000000000815260040161117a90612b09565b60405180910390fd5b61118e8383836116a5565b611199600082610f07565b6001600360008573ffffffffffffffffffffffffffffffffffffffff1673ffffffffffffffffffffffffffffffffffffffff16815260200190815260200160002060008282546111e9919061272d565b925050819055506001600360008473ffffffffffffffffffffffffffffffffffffffff1673ffffffffffffffffffffffffffffffffffffffff16815260200190815260200160002060008282546112409190612b29565b92505081905550816002600083815260200190815260200160002060006101000a81548173ffffffffffffffffffffffffffffffffffffffff021916908373ffffffffffffffffffffffffffffffffffffffff160217905550808273ffffffffffffffffffffffffffffffffffffffff168473ffffffffffffffffffffffffffffffffffffffff167fddf252ad1be2c89b69c2b068fc378daa952ba7f163c4a11628f55a4df523b3ef60405160405180910390a4505050565b6113138282604051806020016040528060008152506116aa565b5050565b61132082610e93565b61135f576040517f08c379a000000000000000000000000000000000000000000000000000000000815260040161135690612bf1565b60405180910390fd5b80600660008481526020019081526020016000209080519060200190611386929190611bcc565b505050565b8173ffffffffffffffffffffffffffffffffffffffff168373ffffffffffffffffffffffffffffffffffffffff16036113f9576040517f08c379a00000000000000000000000000000000000000000000000000000000081526004016113f090612c5d565b60405180910390fd5b80600560008573ffffffffffffffffffffffffffffffffffffffff1673ffffffffffffffffffffffffffffffffffffffff16815260200190815260200160002060008473ffffffffffffffffffffffffffffffffffffffff1673ffffffffffffffffffffffffffffffffffffffff16815260200190815260200160002060006101000a81548160ff0219169083151502179055508173ffffffffffffffffffffffffffffffffffffffff168373ffffffffffffffffffffffffffffffffffffffff167f17307eab39ab6107e8899845ad3d59bd9653f200f220920489ca2b5937696c31836040516114ea9190611d23565b60405180910390a3505050565b61150284848461109e565b61150e84848484611705565b61154d576040517f08c379a000000000000000000000000000000000000000000000000000000000815260040161154490612cef565b60405180910390fd5b50505050565b606060405180602001604052806000815250905090565b606061157582610e93565b6115b4576040517f08c379a00000000000000000000000000000000000000000000000000000000081526004016115ab90612d81565b60405180910390fd5b60006115be611553565b905060008151116115de5760405180602001604052806000815250611609565b806115e88461188c565b6040516020016115f99291906128e3565b6040516020818303038152906040525b915050919050565b6000600560008473ffffffffffffffffffffffffffffffffffffffff1673ffffffffffffffffffffffffffffffffffffffff16815260200190815260200160002060008373ffffffffffffffffffffffffffffffffffffffff1673ffffffffffffffffffffffffffffffffffffffff16815260200190815260200160002060009054906101000a900460ff16905092915050565b505050565b6116b483836119ec565b6116c16000848484611705565b611700576040517f08c379a00000000000000000000000000000000000000000000000000000000081526004016116f790612cef565b60405180910390fd5b505050565b60006117268473ffffffffffffffffffffffffffffffffffffffff16611bb9565b1561187f578373ffffffffffffffffffffffffffffffffffffffff1663150b7a0261174f610eff565b8786866040518563ffffffff1660e01b81526004016117719493929190612df6565b6020604051808303816000875af19250505080156117ad57506040513d601f19601f820116820180604052508101906117aa9190612e57565b60015b61182f573d80600081146117dd576040519150601f19603f3d011682016040523d82523d6000602084013e6117e2565b606091505b506000815103611827576040517f08c379a000000000000000000000000000000000000000000000000000000000815260040161181e90612cef565b60405180910390fd5b805181602001fd5b63150b7a0260e01b7bffffffffffffffffffffffffffffffffffffffffffffffffffffffff1916817bffffffffffffffffffffffffffffffffffffffffffffffffffffffff191614915050611884565b600190505b949350505050565b6060600082036118d3576040518060400160405280600181526020017f300000000000000000000000000000000000000000000000000000000000000081525090506119e7565b600082905060005b600082146119055780806118ee90612761565b915050600a826118fe9190612eb3565b91506118db565b60008167ffffffffffffffff81111561192157611920612104565b5b6040519080825280601f01601f1916602001820160405280156119535781602001600182028036833780820191505090505b5090505b600085146119e05760018261196c919061272d565b9150600a8561197b9190612ee4565b60306119879190612b29565b60f81b81838151811061199d5761199c612f15565b5b60200101907effffffffffffffffffffffffffffffffffffffffffffffffffffffffffffff1916908160001a905350600a856119d99190612eb3565b9450611957565b8093505050505b919050565b600073ffffffffffffffffffffffffffffffffffffffff168273ffffffffffffffffffffffffffffffffffffffff1603611a5b576040517f08c379a0000000000000000000000000000000000000000000000000000000008152600401611a5290612f90565b60405180910390fd5b611a6481610e93565b15611aa4576040517f08c379a0000000000000000000000000000000000000000000000000000000008152600401611a9b90612ffc565b60405180910390fd5b611ab0600083836116a5565b6001600360008473ffffffffffffffffffffffffffffffffffffffff1673ffffffffffffffffffffffffffffffffffffffff1681526020019081526020016000206000828254611b009190612b29565b92505081905550816002600083815260200190815260200160002060006101000a81548173ffffffffffffffffffffffffffffffffffffffff021916908373ffffffffffffffffffffffffffffffffffffffff160217905550808273ffffffffffffffffffffffffffffffffffffffff16600073ffffffffffffffffffffffffffffffffffffffff167fddf252ad1be2c89b69c2b068fc378daa952ba7f163c4a11628f55a4df523b3ef60405160405180910390a45050565b600080823b905060008111915050919050565b828054611bd890612361565b90600052602060002090601f016020900481019282611bfa5760008555611c41565b82601f10611c1357805160ff1916838001178555611c41565b82800160010185558215611c41579182015b82811115611c40578251825591602001919060010190611c25565b5b509050611c4e9190611c52565b5090565b5b80821115611c6b576000816000905550600101611c53565b5090565b6000604051905090565b600080fd5b600080fd5b60007fffffffff0000000000000000000000000000000000000000000000000000000082169050919050565b611cb881611c83565b8114611cc357600080fd5b50565b600081359050611cd581611caf565b92915050565b600060208284031215611cf157611cf0611c79565b5b6000611cff84828501611cc6565b91505092915050565b60008115159050919050565b611d1d81611d08565b82525050565b6000602082019050611d386000830184611d14565b92915050565b600081519050919050565b600082825260208201905092915050565b60005b83811015611d78578082015181840152602081019050611d5d565b83811115611d87576000848401525b50505050565b6000601f19601f8301169050919050565b6000611da982611d3e565b611db38185611d49565b9350611dc3818560208601611d5a565b611dcc81611d8d565b840191505092915050565b60006020820190508181036000830152611df18184611d9e565b905092915050565b6000819050919050565b611e0c81611df9565b8114611e1757600080fd5b50565b600081359050611e2981611e03565b92915050565b600060208284031215611e4557611e44611c79565b5b6000611e5384828501611e1a565b91505092915050565b600073ffffffffffffffffffffffffffffffffffffffff82169050919050565b6000611e8782611e5c565b9050919050565b611e9781611e7c565b82525050565b6000602082019050611eb26000830184611e8e565b92915050565b611ec181611e7c565b8114611ecc57600080fd5b50565b600081359050611ede81611eb8565b92915050565b60008060408385031215611efb57611efa611c79565b5b6000611f0985828601611ecf565b9250506020611f1a85828601611e1a565b9150509250929050565b600080600060608486031215611f3d57611f3c611c79565b5b6000611f4b86828701611ecf565b9350506020611f5c86828701611ecf565b9250506040611f6d86828701611e1a565b9150509250925092565b600060208284031215611f8d57611f8c611c79565b5b6000611f9b84828501611ecf565b91505092915050565b611fad81611df9565b82525050565b6000602082019050611fc86000830184611fa4565b92915050565b600080fd5b600080fd5b600080fd5b60008083601f840112611ff357611ff2611fce565b5b8235905067ffffffffffffffff8111156120105761200f611fd3565b5b60208301915083600182028301111561202c5761202b611fd8565b5b9250929050565b60008060006040848603121561204c5761204b611c79565b5b600084013567ffffffffffffffff81111561206a57612069611c7e565b5b61207686828701611fdd565b9350935050602061208986828701611ecf565b9150509250925092565b61209c81611d08565b81146120a757600080fd5b50565b6000813590506120b981612093565b92915050565b600080604083850312156120d6576120d5611c79565b5b60006120e485828601611ecf565b92505060206120f5858286016120aa565b9150509250929050565b600080fd5b7f4e487b7100000000000000000000000000000000000000000000000000000000600052604160045260246000fd5b61213c82611d8d565b810181811067ffffffffffffffff8211171561215b5761215a612104565b5b80604052505050565b600061216e611c6f565b905061217a8282612133565b919050565b600067ffffffffffffffff82111561219a57612199612104565b5b6121a382611d8d565b9050602081019050919050565b82818337600083830152505050565b60006121d26121cd8461217f565b612164565b9050828152602081018484840111156121ee576121ed6120ff565b5b6121f98482856121b0565b509392505050565b600082601f83011261221657612215611fce565b5b81356122268482602086016121bf565b91505092915050565b6000806000806080858703121561224957612248611c79565b5b600061225787828801611ecf565b945050602061226887828801611ecf565b935050604061227987828801611e1a565b925050606085013567ffffffffffffffff81111561229a57612299611c7e565b5b6122a687828801612201565b91505092959194509250565b600080604083850312156122c9576122c8611c79565b5b60006122d785828601611e1a565b92505060206122e885828601611ecf565b9150509250929050565b6000806040838503121561230957612308611c79565b5b600061231785828601611ecf565b925050602061232885828601611ecf565b9150509250929050565b7f4e487b7100000000000000000000000000000000000000000000000000000000600052602260045260246000fd5b6000600282049050600182168061237957607f821691505b60208210810361238c5761238b612332565b5b50919050565b7f4552433732313a20617070726f76656420717565727920666f72206e6f6e657860008201527f697374656e7420746f6b656e0000000000000000000000000000000000000000602082015250565b60006123ee602c83611d49565b91506123f982612392565b604082019050919050565b6000602082019050818103600083015261241d816123e1565b9050919050565b7f4552433732313a20617070726f76616c20746f2063757272656e74206f776e6560008201527f7200000000000000000000000000000000000000000000000000000000000000602082015250565b6000612480602183611d49565b915061248b82612424565b604082019050919050565b600060208201905081810360008301526124af81612473565b9050919050565b7f4552433732313a20617070726f76652063616c6c6572206973206e6f74206f7760008201527f6e6572206e6f7220617070726f76656420666f7220616c6c0000000000000000602082015250565b6000612512603883611d49565b915061251d826124b6565b604082019050919050565b6000602082019050818103600083015261254181612505565b9050919050565b7f4552433732313a207472616e736665722063616c6c6572206973206e6f74206f60008201527f776e6572206e6f7220617070726f766564000000000000000000000000000000602082015250565b60006125a4603183611d49565b91506125af82612548565b604082019050919050565b600060208201905081810360008301526125d381612597565b9050919050565b7f4552433732313a206f776e657220717565727920666f72206e6f6e657869737460008201527f656e7420746f6b656e0000000000000000000000000000000000000000000000602082015250565b6000612636602983611d49565b9150612641826125da565b604082019050919050565b6000602082019050818103600083015261266581612629565b9050919050565b7f4552433732313a2062616c616e636520717565727920666f7220746865207a6560008201527f726f206164647265737300000000000000000000000000000000000000000000602082015250565b60006126c8602a83611d49565b91506126d38261266c565b604082019050919050565b600060208201905081810360008301526126f7816126bb565b9050919050565b7f4e487b7100000000000000000000000000000000000000000000000000000000600052601160045260246000fd5b600061273882611df9565b915061274383611df9565b925082821015612756576127556126fe565b5b828203905092915050565b600061276c82611df9565b91507fffffffffffffffffffffffffffffffffffffffffffffffffffffffffffffffff820361279e5761279d6126fe565b5b600182019050919050565b7f546f6b656e206e6f74207472616e736665727265640000000000000000000000600082015250565b60006127df601583611d49565b91506127ea826127a9565b602082019050919050565b6000602082019050818103600083015261280e816127d2565b9050919050565b7f45524337323155524953746f726167653a2055524920717565727920666f722060008201527f6e6f6e6578697374656e7420746f6b656e000000000000000000000000000000602082015250565b6000612871603183611d49565b915061287c82612815565b604082019050919050565b600060208201905081810360008301526128a081612864565b9050919050565b600081905092915050565b60006128bd82611d3e565b6128c781856128a7565b93506128d7818560208601611d5a565b80840191505092915050565b60006128ef82856128b2565b91506128fb82846128b2565b91508190509392505050565b7f6f70657261746f7220213d2073746f7265416464726573730000000000000000600082015250565b600061293d601883611d49565b915061294882612907565b602082019050919050565b6000602082019050818103600083015261296c81612930565b9050919050565b7f4552433732313a206f70657261746f7220717565727920666f72206e6f6e657860008201527f697374656e7420746f6b656e0000000000000000000000000000000000000000602082015250565b60006129cf602c83611d49565b91506129da82612973565b604082019050919050565b600060208201905081810360008301526129fe816129c2565b9050919050565b7f4552433732313a207472616e73666572206f6620746f6b656e2074686174206960008201527f73206e6f74206f776e0000000000000000000000000000000000000000000000602082015250565b6000612a61602983611d49565b9150612a6c82612a05565b604082019050919050565b60006020820190508181036000830152612a9081612a54565b9050919050565b7f4552433732313a207472616e7366657220746f20746865207a65726f2061646460008201527f7265737300000000000000000000000000000000000000000000000000000000602082015250565b6000612af3602483611d49565b9150612afe82612a97565b604082019050919050565b60006020820190508181036000830152612b2281612ae6565b9050919050565b6000612b3482611df9565b9150612b3f83611df9565b9250827fffffffffffffffffffffffffffffffffffffffffffffffffffffffffffffffff03821115612b7457612b736126fe565b5b828201905092915050565b7f45524337323155524953746f726167653a2055524920736574206f66206e6f6e60008201527f6578697374656e7420746f6b656e000000000000000000000000000000000000602082015250565b6000612bdb602e83611d49565b9150612be682612b7f565b604082019050919050565b60006020820190508181036000830152612c0a81612bce565b9050919050565b7f4552433732313a20617070726f766520746f2063616c6c657200000000000000600082015250565b6000612c47601983611d49565b9150612c5282612c11565b602082019050919050565b60006020820190508181036000830152612c7681612c3a565b9050919050565b7f4552433732313a207472616e7366657220746f206e6f6e20455243373231526560008201527f63656976657220696d706c656d656e7465720000000000000000000000000000602082015250565b6000612cd9603283611d49565b9150612ce482612c7d565b604082019050919050565b60006020820190508181036000830152612d0881612ccc565b9050919050565b7f4552433732314d657461646174613a2055524920717565727920666f72206e6f60008201527f6e6578697374656e7420746f6b656e0000000000000000000000000000000000602082015250565b6000612d6b602f83611d49565b9150612d7682612d0f565b604082019050919050565b60006020820190508181036000830152612d9a81612d5e565b9050919050565b600081519050919050565b600082825260208201905092915050565b6000612dc882612da1565b612dd28185612dac565b9350612de2818560208601611d5a565b612deb81611d8d565b840191505092915050565b6000608082019050612e0b6000830187611e8e565b612e186020830186611e8e565b612e256040830185611fa4565b8181036060830152612e378184612dbd565b905095945050505050565b600081519050612e5181611caf565b92915050565b600060208284031215612e6d57612e6c611c79565b5b6000612e7b84828501612e42565b91505092915050565b7f4e487b7100000000000000000000000000000000000000000000000000000000600052601260045260246000fd5b6000612ebe82611df9565b9150612ec983611df9565b925082612ed957612ed8612e84565b5b828204905092915050565b6000612eef82611df9565b9150612efa83611df9565b925082612f0a57612f09612e84565b5b828206905092915050565b7f4e487b7100000000000000000000000000000000000000000000000000000000600052603260045260246000fd5b7f4552433732313a206d696e7420746f20746865207a65726f2061646472657373600082015250565b6000612f7a602083611d49565b9150612f8582612f44565b602082019050919050565b60006020820190508181036000830152612fa981612f6d565b9050919050565b7f4552433732313a20746f6b656e20616c7265616479206d696e74656400000000600082015250565b6000612fe6601c83611d49565b9150612ff182612fb0565b602082019050919050565b6000602082019050818103600083015261301581612fd9565b905091905056fea26469706673582212208ac2b3cf62922006517b23312f9e0cb7ac04bf3ca17bbf51c257677ca782d5db64736f6c634300080d0033",
  "immutableReferences": {},
  "source": "// SPDX-License-Identifier: MIT\npragma solidity ^0.8.11;\n\nimport \"../node_modules/@openzeppelin/contracts/token/ERC721/ERC721.sol\";\nimport \"../node_modules/@openzeppelin/contracts/token/ERC721/IERC721Receiver.sol\";\nimport \"../node_modules/@openzeppelin/contracts/token/ERC721/extensions/ERC721URIStorage.sol\";\nimport \"./NFTStore.sol\";\n\ncontract CRYPT is ERC721URIStorage {\n    uint256 private tokenId;\n    address private storeOwner;\n\n    event random(string msg, address addr);\n\n    constructor(address marketplaceAddress) ERC721(\"Cryptverse\", \"CRYPT\") {\n        tokenId = 0;\n        storeOwner = marketplaceAddress;\n    }\n\n    function getLastTokenId() public view returns(uint256) {\n        uint256 nToken = tokenId - 1;\n        return nToken;\n    }\n    \n    function getStoreOwner() public view returns(address) {\n        return storeOwner;\n    }\n\n    function createToken(string calldata tokenURI, address creator) public returns(uint256) {\n        uint256 newItemId = tokenId;\n\n        // _safeMint protects token to be recreated if already created based on tokenId\n        _safeMint(creator, newItemId);\n\n        // setting the image/media url to the token\n        _setTokenURI(newItemId, tokenURI);\n\n        tokenId++;\n\n        return newItemId;\n    }\n    // function createToken(string calldata tokenURI) public {\n    //     uint256 newItemId = tokenId;\n\n    //     // _safeMint protects token to be recreated if already created based on tokenId\n    //     _safeMint(msg.sender, newItemId);\n\n    //     // setting the image/media url to the token\n    //     _setTokenURI(newItemId, tokenURI);\n\n    //     tokenId++;\n    // }\n\n    function isApprovedForAll(address owner, address operator)\n        public\n        view\n        virtual\n        override\n        returns (bool) \n    {\n        // preapproved marketplace\n        require(operator == storeOwner || operator == owner, \"operator != storeAddress\");\n        return super.isApprovedForAll(owner, operator) || operator == storeOwner;\n    }\n\n    function transferToken(uint256 id, address buyer) public payable {\n        address currentOwner = ownerOf(id);\n        transferFrom(currentOwner, buyer, id);\n        address newOwner = ownerOf(id);\n        require(newOwner == buyer, \"Token not transferred\");\n    }\n}",
  "sourcePath": "/Users/abhinavkhanduja/Desktop/BlockchainDevelopment/cryptagram/packages/client/contracts/CRYPT.sol",
  "compiler": {
    "name": "solc",
    "version": "0.8.13+commit.abaa5c0e.Emscripten.clang"
  },
  "schemaVersion": "3.4.4",
  "updatedAt": "2022-04-05T10:45:57.448Z",
  "networkType": "ethereum",
  "devdoc": {
    "kind": "dev",
    "methods": {
      "approve(address,uint256)": {
        "details": "See {IERC721-approve}."
      },
      "balanceOf(address)": {
        "details": "See {IERC721-balanceOf}."
      },
      "getApproved(uint256)": {
        "details": "See {IERC721-getApproved}."
      },
      "isApprovedForAll(address,address)": {
        "details": "See {IERC721-isApprovedForAll}."
      },
      "name()": {
        "details": "See {IERC721Metadata-name}."
      },
      "ownerOf(uint256)": {
        "details": "See {IERC721-ownerOf}."
      },
      "safeTransferFrom(address,address,uint256)": {
        "details": "See {IERC721-safeTransferFrom}."
      },
      "safeTransferFrom(address,address,uint256,bytes)": {
        "details": "See {IERC721-safeTransferFrom}."
      },
      "setApprovalForAll(address,bool)": {
        "details": "See {IERC721-setApprovalForAll}."
      },
      "supportsInterface(bytes4)": {
        "details": "See {IERC165-supportsInterface}."
      },
      "symbol()": {
        "details": "See {IERC721Metadata-symbol}."
      },
      "tokenURI(uint256)": {
        "details": "See {IERC721Metadata-tokenURI}."
      },
      "transferFrom(address,address,uint256)": {
        "details": "See {IERC721-transferFrom}."
      }
    },
    "version": 1
  },
  "userdoc": {
    "kind": "user",
    "methods": {},
    "version": 1
  }
}