{
  "contractName": "CRYPT",
  "abi": [
    {
      "inputs": [
        {
          "internalType": "address",
          "name": "marketplaceAddress",
          "type": "address"
        }
      ],
      "stateMutability": "nonpayable",
      "type": "constructor"
    },
    {
      "anonymous": false,
      "inputs": [
        {
          "indexed": true,
          "internalType": "address",
          "name": "owner",
          "type": "address"
        },
        {
          "indexed": true,
          "internalType": "address",
          "name": "approved",
          "type": "address"
        },
        {
          "indexed": true,
          "internalType": "uint256",
          "name": "tokenId",
          "type": "uint256"
        }
      ],
      "name": "Approval",
      "type": "event"
    },
    {
      "anonymous": false,
      "inputs": [
        {
          "indexed": true,
          "internalType": "address",
          "name": "owner",
          "type": "address"
        },
        {
          "indexed": true,
          "internalType": "address",
          "name": "operator",
          "type": "address"
        },
        {
          "indexed": false,
          "internalType": "bool",
          "name": "approved",
          "type": "bool"
        }
      ],
      "name": "ApprovalForAll",
      "type": "event"
    },
    {
      "anonymous": false,
      "inputs": [
        {
          "indexed": true,
          "internalType": "address",
          "name": "from",
          "type": "address"
        },
        {
          "indexed": true,
          "internalType": "address",
          "name": "to",
          "type": "address"
        },
        {
          "indexed": true,
          "internalType": "uint256",
          "name": "tokenId",
          "type": "uint256"
        }
      ],
      "name": "Transfer",
      "type": "event"
    },
    {
      "anonymous": false,
      "inputs": [
        {
          "indexed": false,
          "internalType": "string",
          "name": "msg",
          "type": "string"
        },
        {
          "indexed": false,
          "internalType": "address",
          "name": "addr",
          "type": "address"
        }
      ],
      "name": "random",
      "type": "event"
    },
    {
      "inputs": [
        {
          "internalType": "address",
          "name": "to",
          "type": "address"
        },
        {
          "internalType": "uint256",
          "name": "tokenId",
          "type": "uint256"
        }
      ],
      "name": "approve",
      "outputs": [],
      "stateMutability": "nonpayable",
      "type": "function"
    },
    {
      "inputs": [
        {
          "internalType": "address",
          "name": "owner",
          "type": "address"
        }
      ],
      "name": "balanceOf",
      "outputs": [
        {
          "internalType": "uint256",
          "name": "",
          "type": "uint256"
        }
      ],
      "stateMutability": "view",
      "type": "function"
    },
    {
      "inputs": [
        {
          "internalType": "uint256",
          "name": "tokenId",
          "type": "uint256"
        }
      ],
      "name": "getApproved",
      "outputs": [
        {
          "internalType": "address",
          "name": "",
          "type": "address"
        }
      ],
      "stateMutability": "view",
      "type": "function"
    },
    {
      "inputs": [],
      "name": "name",
      "outputs": [
        {
          "internalType": "string",
          "name": "",
          "type": "string"
        }
      ],
      "stateMutability": "view",
      "type": "function"
    },
    {
      "inputs": [
        {
          "internalType": "uint256",
          "name": "tokenId",
          "type": "uint256"
        }
      ],
      "name": "ownerOf",
      "outputs": [
        {
          "internalType": "address",
          "name": "",
          "type": "address"
        }
      ],
      "stateMutability": "view",
      "type": "function"
    },
    {
      "inputs": [
        {
          "internalType": "address",
          "name": "from",
          "type": "address"
        },
        {
          "internalType": "address",
          "name": "to",
          "type": "address"
        },
        {
          "internalType": "uint256",
          "name": "tokenId",
          "type": "uint256"
        }
      ],
      "name": "safeTransferFrom",
      "outputs": [],
      "stateMutability": "nonpayable",
      "type": "function"
    },
    {
      "inputs": [
        {
          "internalType": "address",
          "name": "from",
          "type": "address"
        },
        {
          "internalType": "address",
          "name": "to",
          "type": "address"
        },
        {
          "internalType": "uint256",
          "name": "tokenId",
          "type": "uint256"
        },
        {
          "internalType": "bytes",
          "name": "_data",
          "type": "bytes"
        }
      ],
      "name": "safeTransferFrom",
      "outputs": [],
      "stateMutability": "nonpayable",
      "type": "function"
    },
    {
      "inputs": [
        {
          "internalType": "address",
          "name": "operator",
          "type": "address"
        },
        {
          "internalType": "bool",
          "name": "approved",
          "type": "bool"
        }
      ],
      "name": "setApprovalForAll",
      "outputs": [],
      "stateMutability": "nonpayable",
      "type": "function"
    },
    {
      "inputs": [
        {
          "internalType": "bytes4",
          "name": "interfaceId",
          "type": "bytes4"
        }
      ],
      "name": "supportsInterface",
      "outputs": [
        {
          "internalType": "bool",
          "name": "",
          "type": "bool"
        }
      ],
      "stateMutability": "view",
      "type": "function"
    },
    {
      "inputs": [],
      "name": "symbol",
      "outputs": [
        {
          "internalType": "string",
          "name": "",
          "type": "string"
        }
      ],
      "stateMutability": "view",
      "type": "function"
    },
    {
      "inputs": [
        {
          "internalType": "uint256",
          "name": "tokenId",
          "type": "uint256"
        }
      ],
      "name": "tokenURI",
      "outputs": [
        {
          "internalType": "string",
          "name": "",
          "type": "string"
        }
      ],
      "stateMutability": "view",
      "type": "function"
    },
    {
      "inputs": [
        {
          "internalType": "address",
          "name": "from",
          "type": "address"
        },
        {
          "internalType": "address",
          "name": "to",
          "type": "address"
        },
        {
          "internalType": "uint256",
          "name": "tokenId",
          "type": "uint256"
        }
      ],
      "name": "transferFrom",
      "outputs": [],
      "stateMutability": "nonpayable",
      "type": "function"
    },
    {
      "inputs": [],
      "name": "getLastTokenId",
      "outputs": [
        {
          "internalType": "uint256",
          "name": "",
          "type": "uint256"
        }
      ],
      "stateMutability": "view",
      "type": "function"
    },
    {
      "inputs": [],
      "name": "getStoreAddress",
      "outputs": [
        {
          "internalType": "address",
          "name": "",
          "type": "address"
        }
      ],
      "stateMutability": "view",
      "type": "function"
    },
    {
      "inputs": [
        {
          "internalType": "string",
          "name": "tokenURI",
          "type": "string"
        }
      ],
      "name": "createToken",
      "outputs": [],
      "stateMutability": "nonpayable",
      "type": "function"
    },
    {
      "inputs": [
        {
          "internalType": "address",
          "name": "owner",
          "type": "address"
        },
        {
          "internalType": "address",
          "name": "operator",
          "type": "address"
        }
      ],
      "name": "isApprovedForAll",
      "outputs": [
        {
          "internalType": "bool",
          "name": "",
          "type": "bool"
        }
      ],
      "stateMutability": "view",
      "type": "function"
    },
    {
      "inputs": [
        {
          "internalType": "uint256",
          "name": "token",
          "type": "uint256"
        }
      ],
      "name": "getTokenURI",
      "outputs": [
        {
          "internalType": "string",
          "name": "",
          "type": "string"
        }
      ],
      "stateMutability": "view",
      "type": "function"
    }
  ],
  "bytecode": "0x60806040523480156200001157600080fd5b506040516200319538038062003195833981810160405281019062000037919062000241565b6040518060400160405280600a81526020017f43727970747665727365000000000000000000000000000000000000000000008152506040518060400160405280600581526020017f43525950540000000000000000000000000000000000000000000000000000008152508160009080519060200190620000bb92919062000127565b508060019080519060200190620000d492919062000127565b505050600060078190555080600860006101000a81548173ffffffffffffffffffffffffffffffffffffffff021916908373ffffffffffffffffffffffffffffffffffffffff16021790555050620002d8565b8280546200013590620002a2565b90600052602060002090601f016020900481019282620001595760008555620001a5565b82601f106200017457805160ff1916838001178555620001a5565b82800160010185558215620001a5579182015b82811115620001a457825182559160200191906001019062000187565b5b509050620001b49190620001b8565b5090565b5b80821115620001d3576000816000905550600101620001b9565b5090565b600080fd5b600073ffffffffffffffffffffffffffffffffffffffff82169050919050565b60006200020982620001dc565b9050919050565b6200021b81620001fc565b81146200022757600080fd5b50565b6000815190506200023b8162000210565b92915050565b6000602082840312156200025a5762000259620001d7565b5b60006200026a848285016200022a565b91505092915050565b7f4e487b7100000000000000000000000000000000000000000000000000000000600052602260045260246000fd5b60006002820490506001821680620002bb57607f821691505b60208210811415620002d257620002d162000273565b5b50919050565b612ead80620002e86000396000f3fe608060405234801561001057600080fd5b506004361061010b5760003560e01c80636352211e116100a2578063a22cb46511610071578063a22cb465146102ca578063b07ed3a9146102e6578063b88d4fde14610304578063c87b56dd14610320578063e985e9c5146103505761010b565b80636352211e1461022e57806370a082311461025e57806383c4c00d1461028e57806395d89b41146102ac5761010b565b806323b872dd116100de57806323b872dd146101aa5780633bb3a24d146101c657806342842e0e146101f657806345576f94146102125761010b565b806301ffc9a71461011057806306fdde0314610140578063081812fc1461015e578063095ea7b31461018e575b600080fd5b61012a60048036038101906101259190611b87565b610380565b6040516101379190611bcf565b60405180910390f35b610148610462565b6040516101559190611c83565b60405180910390f35b61017860048036038101906101739190611cdb565b6104f4565b6040516101859190611d49565b60405180910390f35b6101a860048036038101906101a39190611d90565b610579565b005b6101c460048036038101906101bf9190611dd0565b610691565b005b6101e060048036038101906101db9190611cdb565b6106f1565b6040516101ed9190611c83565b60405180910390f35b610210600480360381019061020b9190611dd0565b6107bd565b005b61022c60048036038101906102279190611e88565b6107dd565b005b61024860048036038101906102439190611cdb565b610859565b6040516102559190611d49565b60405180910390f35b61027860048036038101906102739190611ed5565b61090b565b6040516102859190611f11565b60405180910390f35b6102966109c3565b6040516102a39190611f11565b60405180910390f35b6102b46109de565b6040516102c19190611c83565b60405180910390f35b6102e460048036038101906102df9190611f58565b610a70565b005b6102ee610a86565b6040516102fb9190611d49565b60405180910390f35b61031e600480360381019061031991906120c8565b610ab0565b005b61033a60048036038101906103359190611cdb565b610b12565b6040516103479190611c83565b60405180910390f35b61036a6004803603810190610365919061214b565b610c64565b6040516103779190611bcf565b60405180910390f35b60007f80ac58cd000000000000000000000000000000000000000000000000000000007bffffffffffffffffffffffffffffffffffffffffffffffffffffffff1916827bffffffffffffffffffffffffffffffffffffffffffffffffffffffff1916148061044b57507f5b5e139f000000000000000000000000000000000000000000000000000000007bffffffffffffffffffffffffffffffffffffffffffffffffffffffff1916827bffffffffffffffffffffffffffffffffffffffffffffffffffffffff1916145b8061045b575061045a82610cd0565b5b9050919050565b606060008054610471906121ba565b80601f016020809104026020016040519081016040528092919081815260200182805461049d906121ba565b80156104ea5780601f106104bf576101008083540402835291602001916104ea565b820191906000526020600020905b8154815290600101906020018083116104cd57829003601f168201915b5050505050905090565b60006104ff82610d3a565b61053e576040517f08c379a00000000000000000000000000000000000000000000000000000000081526004016105359061225e565b60405180910390fd5b6004600083815260200190815260200160002060009054906101000a900473ffffffffffffffffffffffffffffffffffffffff169050919050565b600061058482610859565b90508073ffffffffffffffffffffffffffffffffffffffff168373ffffffffffffffffffffffffffffffffffffffff1614156105f5576040517f08c379a00000000000000000000000000000000000000000000000000000000081526004016105ec906122f0565b60405180910390fd5b8073ffffffffffffffffffffffffffffffffffffffff16610614610da6565b73ffffffffffffffffffffffffffffffffffffffff16148061064357506106428161063d610da6565b610c64565b5b610682576040517f08c379a000000000000000000000000000000000000000000000000000000000815260040161067990612382565b60405180910390fd5b61068c8383610dae565b505050565b6106a261069c610da6565b82610e67565b6106e1576040517f08c379a00000000000000000000000000000000000000000000000000000000081526004016106d890612414565b60405180910390fd5b6106ec838383610f45565b505050565b60606000821015610737576040517f08c379a000000000000000000000000000000000000000000000000000000000815260040161072e90612480565b60405180910390fd5b600073ffffffffffffffffffffffffffffffffffffffff163373ffffffffffffffffffffffffffffffffffffffff1614156107a7576040517f08c379a000000000000000000000000000000000000000000000000000000000815260040161079e906124ec565b60405180910390fd5b60006107b283610b12565b905080915050919050565b6107d883838360405180602001604052806000815250610ab0565b505050565b600060075490506107ee33826111a1565b61083c8184848080601f016020809104026020016040519081016040528093929190818152602001838380828437600081840152601f19601f820116905080830192505050505050506111bf565b6007600081548092919061084f9061253b565b9190505550505050565b6000806002600084815260200190815260200160002060009054906101000a900473ffffffffffffffffffffffffffffffffffffffff169050600073ffffffffffffffffffffffffffffffffffffffff168173ffffffffffffffffffffffffffffffffffffffff161415610902576040517f08c379a00000000000000000000000000000000000000000000000000000000081526004016108f9906125f6565b60405180910390fd5b80915050919050565b60008073ffffffffffffffffffffffffffffffffffffffff168273ffffffffffffffffffffffffffffffffffffffff16141561097c576040517f08c379a000000000000000000000000000000000000000000000000000000000815260040161097390612688565b60405180910390fd5b600360008373ffffffffffffffffffffffffffffffffffffffff1673ffffffffffffffffffffffffffffffffffffffff168152602001908152602001600020549050919050565b60008060016007546109d591906126a8565b90508091505090565b6060600180546109ed906121ba565b80601f0160208091040260200160405190810160405280929190818152602001828054610a19906121ba565b8015610a665780601f10610a3b57610100808354040283529160200191610a66565b820191906000526020600020905b815481529060010190602001808311610a4957829003601f168201915b5050505050905090565b610a82610a7b610da6565b8383611233565b5050565b6000600860009054906101000a900473ffffffffffffffffffffffffffffffffffffffff16905090565b610ac1610abb610da6565b83610e67565b610b00576040517f08c379a0000000000000000000000000000000000000000000000000000000008152600401610af790612414565b60405180910390fd5b610b0c848484846113a0565b50505050565b6060610b1d82610d3a565b610b5c576040517f08c379a0000000000000000000000000000000000000000000000000000000008152600401610b539061274e565b60405180910390fd5b6000600660008481526020019081526020016000208054610b7c906121ba565b80601f0160208091040260200160405190810160405280929190818152602001828054610ba8906121ba565b8015610bf55780601f10610bca57610100808354040283529160200191610bf5565b820191906000526020600020905b815481529060010190602001808311610bd857829003601f168201915b505050505090506000610c066113fc565b9050600081511415610c1c578192505050610c5f565b600082511115610c51578082604051602001610c399291906127aa565b60405160208183030381529060405292505050610c5f565b610c5a84611413565b925050505b919050565b6000610c7083836114ba565b80610cc85750600860009054906101000a900473ffffffffffffffffffffffffffffffffffffffff1673ffffffffffffffffffffffffffffffffffffffff168273ffffffffffffffffffffffffffffffffffffffff16145b905092915050565b60007f01ffc9a7000000000000000000000000000000000000000000000000000000007bffffffffffffffffffffffffffffffffffffffffffffffffffffffff1916827bffffffffffffffffffffffffffffffffffffffffffffffffffffffff1916149050919050565b60008073ffffffffffffffffffffffffffffffffffffffff166002600084815260200190815260200160002060009054906101000a900473ffffffffffffffffffffffffffffffffffffffff1673ffffffffffffffffffffffffffffffffffffffff1614159050919050565b600033905090565b816004600083815260200190815260200160002060006101000a81548173ffffffffffffffffffffffffffffffffffffffff021916908373ffffffffffffffffffffffffffffffffffffffff160217905550808273ffffffffffffffffffffffffffffffffffffffff16610e2183610859565b73ffffffffffffffffffffffffffffffffffffffff167f8c5be1e5ebec7d5bd14f71427d1e84f3dd0314c0f7b2291e5b200ac8c7c3b92560405160405180910390a45050565b6000610e7282610d3a565b610eb1576040517f08c379a0000000000000000000000000000000000000000000000000000000008152600401610ea890612840565b60405180910390fd5b6000610ebc83610859565b90508073ffffffffffffffffffffffffffffffffffffffff168473ffffffffffffffffffffffffffffffffffffffff161480610f2b57508373ffffffffffffffffffffffffffffffffffffffff16610f13846104f4565b73ffffffffffffffffffffffffffffffffffffffff16145b80610f3c5750610f3b8185610c64565b5b91505092915050565b8273ffffffffffffffffffffffffffffffffffffffff16610f6582610859565b73ffffffffffffffffffffffffffffffffffffffff1614610fbb576040517f08c379a0000000000000000000000000000000000000000000000000000000008152600401610fb2906128d2565b60405180910390fd5b600073ffffffffffffffffffffffffffffffffffffffff168273ffffffffffffffffffffffffffffffffffffffff16141561102b576040517f08c379a000000000000000000000000000000000000000000000000000000000815260040161102290612964565b60405180910390fd5b61103683838361154e565b611041600082610dae565b6001600360008573ffffffffffffffffffffffffffffffffffffffff1673ffffffffffffffffffffffffffffffffffffffff168152602001908152602001600020600082825461109191906126a8565b925050819055506001600360008473ffffffffffffffffffffffffffffffffffffffff1673ffffffffffffffffffffffffffffffffffffffff16815260200190815260200160002060008282546110e89190612984565b92505081905550816002600083815260200190815260200160002060006101000a81548173ffffffffffffffffffffffffffffffffffffffff021916908373ffffffffffffffffffffffffffffffffffffffff160217905550808273ffffffffffffffffffffffffffffffffffffffff168473ffffffffffffffffffffffffffffffffffffffff167fddf252ad1be2c89b69c2b068fc378daa952ba7f163c4a11628f55a4df523b3ef60405160405180910390a4505050565b6111bb828260405180602001604052806000815250611553565b5050565b6111c882610d3a565b611207576040517f08c379a00000000000000000000000000000000000000000000000000000000081526004016111fe90612a4c565b60405180910390fd5b8060066000848152602001908152602001600020908051906020019061122e929190611a78565b505050565b8173ffffffffffffffffffffffffffffffffffffffff168373ffffffffffffffffffffffffffffffffffffffff1614156112a2576040517f08c379a000000000000000000000000000000000000000000000000000000000815260040161129990612ab8565b60405180910390fd5b80600560008573ffffffffffffffffffffffffffffffffffffffff1673ffffffffffffffffffffffffffffffffffffffff16815260200190815260200160002060008473ffffffffffffffffffffffffffffffffffffffff1673ffffffffffffffffffffffffffffffffffffffff16815260200190815260200160002060006101000a81548160ff0219169083151502179055508173ffffffffffffffffffffffffffffffffffffffff168373ffffffffffffffffffffffffffffffffffffffff167f17307eab39ab6107e8899845ad3d59bd9653f200f220920489ca2b5937696c31836040516113939190611bcf565b60405180910390a3505050565b6113ab848484610f45565b6113b7848484846115ae565b6113f6576040517f08c379a00000000000000000000000000000000000000000000000000000000081526004016113ed90612b4a565b60405180910390fd5b50505050565b606060405180602001604052806000815250905090565b606061141e82610d3a565b61145d576040517f08c379a000000000000000000000000000000000000000000000000000000000815260040161145490612bdc565b60405180910390fd5b60006114676113fc565b9050600081511161148757604051806020016040528060008152506114b2565b8061149184611736565b6040516020016114a29291906127aa565b6040516020818303038152906040525b915050919050565b6000600560008473ffffffffffffffffffffffffffffffffffffffff1673ffffffffffffffffffffffffffffffffffffffff16815260200190815260200160002060008373ffffffffffffffffffffffffffffffffffffffff1673ffffffffffffffffffffffffffffffffffffffff16815260200190815260200160002060009054906101000a900460ff16905092915050565b505050565b61155d8383611897565b61156a60008484846115ae565b6115a9576040517f08c379a00000000000000000000000000000000000000000000000000000000081526004016115a090612b4a565b60405180910390fd5b505050565b60006115cf8473ffffffffffffffffffffffffffffffffffffffff16611a65565b15611729578373ffffffffffffffffffffffffffffffffffffffff1663150b7a026115f8610da6565b8786866040518563ffffffff1660e01b815260040161161a9493929190612c51565b6020604051808303816000875af192505050801561165657506040513d601f19601f820116820180604052508101906116539190612cb2565b60015b6116d9573d8060008114611686576040519150601f19603f3d011682016040523d82523d6000602084013e61168b565b606091505b506000815114156116d1576040517f08c379a00000000000000000000000000000000000000000000000000000000081526004016116c890612b4a565b60405180910390fd5b805181602001fd5b63150b7a0260e01b7bffffffffffffffffffffffffffffffffffffffffffffffffffffffff1916817bffffffffffffffffffffffffffffffffffffffffffffffffffffffff19161491505061172e565b600190505b949350505050565b6060600082141561177e576040518060400160405280600181526020017f30000000000000000000000000000000000000000000000000000000000000008152509050611892565b600082905060005b600082146117b05780806117999061253b565b915050600a826117a99190612d0e565b9150611786565b60008167ffffffffffffffff8111156117cc576117cb611f9d565b5b6040519080825280601f01601f1916602001820160405280156117fe5781602001600182028036833780820191505090505b5090505b6000851461188b5760018261181791906126a8565b9150600a856118269190612d3f565b60306118329190612984565b60f81b81838151811061184857611847612d70565b5b60200101907effffffffffffffffffffffffffffffffffffffffffffffffffffffffffffff1916908160001a905350600a856118849190612d0e565b9450611802565b8093505050505b919050565b600073ffffffffffffffffffffffffffffffffffffffff168273ffffffffffffffffffffffffffffffffffffffff161415611907576040517f08c379a00000000000000000000000000000000000000000000000000000000081526004016118fe90612deb565b60405180910390fd5b61191081610d3a565b15611950576040517f08c379a000000000000000000000000000000000000000000000000000000000815260040161194790612e57565b60405180910390fd5b61195c6000838361154e565b6001600360008473ffffffffffffffffffffffffffffffffffffffff1673ffffffffffffffffffffffffffffffffffffffff16815260200190815260200160002060008282546119ac9190612984565b92505081905550816002600083815260200190815260200160002060006101000a81548173ffffffffffffffffffffffffffffffffffffffff021916908373ffffffffffffffffffffffffffffffffffffffff160217905550808273ffffffffffffffffffffffffffffffffffffffff16600073ffffffffffffffffffffffffffffffffffffffff167fddf252ad1be2c89b69c2b068fc378daa952ba7f163c4a11628f55a4df523b3ef60405160405180910390a45050565b600080823b905060008111915050919050565b828054611a84906121ba565b90600052602060002090601f016020900481019282611aa65760008555611aed565b82601f10611abf57805160ff1916838001178555611aed565b82800160010185558215611aed579182015b82811115611aec578251825591602001919060010190611ad1565b5b509050611afa9190611afe565b5090565b5b80821115611b17576000816000905550600101611aff565b5090565b6000604051905090565b600080fd5b600080fd5b60007fffffffff0000000000000000000000000000000000000000000000000000000082169050919050565b611b6481611b2f565b8114611b6f57600080fd5b50565b600081359050611b8181611b5b565b92915050565b600060208284031215611b9d57611b9c611b25565b5b6000611bab84828501611b72565b91505092915050565b60008115159050919050565b611bc981611bb4565b82525050565b6000602082019050611be46000830184611bc0565b92915050565b600081519050919050565b600082825260208201905092915050565b60005b83811015611c24578082015181840152602081019050611c09565b83811115611c33576000848401525b50505050565b6000601f19601f8301169050919050565b6000611c5582611bea565b611c5f8185611bf5565b9350611c6f818560208601611c06565b611c7881611c39565b840191505092915050565b60006020820190508181036000830152611c9d8184611c4a565b905092915050565b6000819050919050565b611cb881611ca5565b8114611cc357600080fd5b50565b600081359050611cd581611caf565b92915050565b600060208284031215611cf157611cf0611b25565b5b6000611cff84828501611cc6565b91505092915050565b600073ffffffffffffffffffffffffffffffffffffffff82169050919050565b6000611d3382611d08565b9050919050565b611d4381611d28565b82525050565b6000602082019050611d5e6000830184611d3a565b92915050565b611d6d81611d28565b8114611d7857600080fd5b50565b600081359050611d8a81611d64565b92915050565b60008060408385031215611da757611da6611b25565b5b6000611db585828601611d7b565b9250506020611dc685828601611cc6565b9150509250929050565b600080600060608486031215611de957611de8611b25565b5b6000611df786828701611d7b565b9350506020611e0886828701611d7b565b9250506040611e1986828701611cc6565b9150509250925092565b600080fd5b600080fd5b600080fd5b60008083601f840112611e4857611e47611e23565b5b8235905067ffffffffffffffff811115611e6557611e64611e28565b5b602083019150836001820283011115611e8157611e80611e2d565b5b9250929050565b60008060208385031215611e9f57611e9e611b25565b5b600083013567ffffffffffffffff811115611ebd57611ebc611b2a565b5b611ec985828601611e32565b92509250509250929050565b600060208284031215611eeb57611eea611b25565b5b6000611ef984828501611d7b565b91505092915050565b611f0b81611ca5565b82525050565b6000602082019050611f266000830184611f02565b92915050565b611f3581611bb4565b8114611f4057600080fd5b50565b600081359050611f5281611f2c565b92915050565b60008060408385031215611f6f57611f6e611b25565b5b6000611f7d85828601611d7b565b9250506020611f8e85828601611f43565b9150509250929050565b600080fd5b7f4e487b7100000000000000000000000000000000000000000000000000000000600052604160045260246000fd5b611fd582611c39565b810181811067ffffffffffffffff82111715611ff457611ff3611f9d565b5b80604052505050565b6000612007611b1b565b90506120138282611fcc565b919050565b600067ffffffffffffffff82111561203357612032611f9d565b5b61203c82611c39565b9050602081019050919050565b82818337600083830152505050565b600061206b61206684612018565b611ffd565b90508281526020810184848401111561208757612086611f98565b5b612092848285612049565b509392505050565b600082601f8301126120af576120ae611e23565b5b81356120bf848260208601612058565b91505092915050565b600080600080608085870312156120e2576120e1611b25565b5b60006120f087828801611d7b565b945050602061210187828801611d7b565b935050604061211287828801611cc6565b925050606085013567ffffffffffffffff81111561213357612132611b2a565b5b61213f8782880161209a565b91505092959194509250565b6000806040838503121561216257612161611b25565b5b600061217085828601611d7b565b925050602061218185828601611d7b565b9150509250929050565b7f4e487b7100000000000000000000000000000000000000000000000000000000600052602260045260246000fd5b600060028204905060018216806121d257607f821691505b602082108114156121e6576121e561218b565b5b50919050565b7f4552433732313a20617070726f76656420717565727920666f72206e6f6e657860008201527f697374656e7420746f6b656e0000000000000000000000000000000000000000602082015250565b6000612248602c83611bf5565b9150612253826121ec565b604082019050919050565b600060208201905081810360008301526122778161223b565b9050919050565b7f4552433732313a20617070726f76616c20746f2063757272656e74206f776e6560008201527f7200000000000000000000000000000000000000000000000000000000000000602082015250565b60006122da602183611bf5565b91506122e58261227e565b604082019050919050565b60006020820190508181036000830152612309816122cd565b9050919050565b7f4552433732313a20617070726f76652063616c6c6572206973206e6f74206f7760008201527f6e6572206e6f7220617070726f76656420666f7220616c6c0000000000000000602082015250565b600061236c603883611bf5565b915061237782612310565b604082019050919050565b6000602082019050818103600083015261239b8161235f565b9050919050565b7f4552433732313a207472616e736665722063616c6c6572206973206e6f74206f60008201527f776e6572206e6f7220617070726f766564000000000000000000000000000000602082015250565b60006123fe603183611bf5565b9150612409826123a2565b604082019050919050565b6000602082019050818103600083015261242d816123f1565b9050919050565b7f546f6b656e206964206973207265717569726564000000000000000000000000600082015250565b600061246a601483611bf5565b915061247582612434565b602082019050919050565b600060208201905081810360008301526124998161245d565b9050919050565b7f4163636f756e7420616464726573732069642069732072657175697265640000600082015250565b60006124d6601e83611bf5565b91506124e1826124a0565b602082019050919050565b60006020820190508181036000830152612505816124c9565b9050919050565b7f4e487b7100000000000000000000000000000000000000000000000000000000600052601160045260246000fd5b600061254682611ca5565b91507fffffffffffffffffffffffffffffffffffffffffffffffffffffffffffffffff8214156125795761257861250c565b5b600182019050919050565b7f4552433732313a206f776e657220717565727920666f72206e6f6e657869737460008201527f656e7420746f6b656e0000000000000000000000000000000000000000000000602082015250565b60006125e0602983611bf5565b91506125eb82612584565b604082019050919050565b6000602082019050818103600083015261260f816125d3565b9050919050565b7f4552433732313a2062616c616e636520717565727920666f7220746865207a6560008201527f726f206164647265737300000000000000000000000000000000000000000000602082015250565b6000612672602a83611bf5565b915061267d82612616565b604082019050919050565b600060208201905081810360008301526126a181612665565b9050919050565b60006126b382611ca5565b91506126be83611ca5565b9250828210156126d1576126d061250c565b5b828203905092915050565b7f45524337323155524953746f726167653a2055524920717565727920666f722060008201527f6e6f6e6578697374656e7420746f6b656e000000000000000000000000000000602082015250565b6000612738603183611bf5565b9150612743826126dc565b604082019050919050565b600060208201905081810360008301526127678161272b565b9050919050565b600081905092915050565b600061278482611bea565b61278e818561276e565b935061279e818560208601611c06565b80840191505092915050565b60006127b68285612779565b91506127c28284612779565b91508190509392505050565b7f4552433732313a206f70657261746f7220717565727920666f72206e6f6e657860008201527f697374656e7420746f6b656e0000000000000000000000000000000000000000602082015250565b600061282a602c83611bf5565b9150612835826127ce565b604082019050919050565b600060208201905081810360008301526128598161281d565b9050919050565b7f4552433732313a207472616e73666572206f6620746f6b656e2074686174206960008201527f73206e6f74206f776e0000000000000000000000000000000000000000000000602082015250565b60006128bc602983611bf5565b91506128c782612860565b604082019050919050565b600060208201905081810360008301526128eb816128af565b9050919050565b7f4552433732313a207472616e7366657220746f20746865207a65726f2061646460008201527f7265737300000000000000000000000000000000000000000000000000000000602082015250565b600061294e602483611bf5565b9150612959826128f2565b604082019050919050565b6000602082019050818103600083015261297d81612941565b9050919050565b600061298f82611ca5565b915061299a83611ca5565b9250827fffffffffffffffffffffffffffffffffffffffffffffffffffffffffffffffff038211156129cf576129ce61250c565b5b828201905092915050565b7f45524337323155524953746f726167653a2055524920736574206f66206e6f6e60008201527f6578697374656e7420746f6b656e000000000000000000000000000000000000602082015250565b6000612a36602e83611bf5565b9150612a41826129da565b604082019050919050565b60006020820190508181036000830152612a6581612a29565b9050919050565b7f4552433732313a20617070726f766520746f2063616c6c657200000000000000600082015250565b6000612aa2601983611bf5565b9150612aad82612a6c565b602082019050919050565b60006020820190508181036000830152612ad181612a95565b9050919050565b7f4552433732313a207472616e7366657220746f206e6f6e20455243373231526560008201527f63656976657220696d706c656d656e7465720000000000000000000000000000602082015250565b6000612b34603283611bf5565b9150612b3f82612ad8565b604082019050919050565b60006020820190508181036000830152612b6381612b27565b9050919050565b7f4552433732314d657461646174613a2055524920717565727920666f72206e6f60008201527f6e6578697374656e7420746f6b656e0000000000000000000000000000000000602082015250565b6000612bc6602f83611bf5565b9150612bd182612b6a565b604082019050919050565b60006020820190508181036000830152612bf581612bb9565b9050919050565b600081519050919050565b600082825260208201905092915050565b6000612c2382612bfc565b612c2d8185612c07565b9350612c3d818560208601611c06565b612c4681611c39565b840191505092915050565b6000608082019050612c666000830187611d3a565b612c736020830186611d3a565b612c806040830185611f02565b8181036060830152612c928184612c18565b905095945050505050565b600081519050612cac81611b5b565b92915050565b600060208284031215612cc857612cc7611b25565b5b6000612cd684828501612c9d565b91505092915050565b7f4e487b7100000000000000000000000000000000000000000000000000000000600052601260045260246000fd5b6000612d1982611ca5565b9150612d2483611ca5565b925082612d3457612d33612cdf565b5b828204905092915050565b6000612d4a82611ca5565b9150612d5583611ca5565b925082612d6557612d64612cdf565b5b828206905092915050565b7f4e487b7100000000000000000000000000000000000000000000000000000000600052603260045260246000fd5b7f4552433732313a206d696e7420746f20746865207a65726f2061646472657373600082015250565b6000612dd5602083611bf5565b9150612de082612d9f565b602082019050919050565b60006020820190508181036000830152612e0481612dc8565b9050919050565b7f4552433732313a20746f6b656e20616c7265616479206d696e74656400000000600082015250565b6000612e41601c83611bf5565b9150612e4c82612e0b565b602082019050919050565b60006020820190508181036000830152612e7081612e34565b905091905056fea2646970667358221220c29bf29be8830155cd75e14a6f2209480d8971c4587dd64b5243cff8ca2241a464736f6c634300080c0033",
  "immutableReferences": {},
  "source": "// SPDX-License-Identifier: MIT\npragma solidity ^0.8.11;\n\nimport \"../node_modules/@openzeppelin/contracts/token/ERC721/ERC721.sol\";\nimport \"../node_modules/@openzeppelin/contracts/token/ERC721/IERC721Receiver.sol\";\nimport \"../node_modules/@openzeppelin/contracts/token/ERC721/extensions/ERC721URIStorage.sol\";\n\ncontract CRYPT is ERC721URIStorage {\n    uint256 private tokenId;\n    address private storeAddress;\n\n    event random(string msg, address addr);\n\n    constructor(address marketplaceAddress) ERC721(\"Cryptverse\", \"CRYPT\") {\n        tokenId = 0;\n        storeAddress = marketplaceAddress;\n    }\n\n    function getLastTokenId() public view returns(uint256) {\n        uint256 nToken = tokenId - 1;\n        return nToken;\n    }\n    \n    function getStoreAddress() public view returns(address) {\n        return storeAddress;\n    }\n\n    // function createToken(string calldata tokenURI, address approves) public returns(uint256) {\n    //     uint256 newItemId = tokenId;\n\n    //     // _safeMint protects token to be recreated if already created based on tokenId\n    //     _safeMint(approves, newItemId);\n\n    //     // setting the image/media url to the token\n    //     _setTokenURI(newItemId, tokenURI);\n\n    //     // without setApprovalForAll NFTMarket does not have authority to transfer the token's ownership on ite's behalf\n    //     // setApprovalForAll(approves, true);\n    //     // approve(approves, newItemId);\n\n    //     tokenId++;\n    //     return newItemId;\n    // }\n\n    function createToken(string calldata tokenURI) public {\n        uint256 newItemId = tokenId;\n\n        // _safeMint protects token to be recreated if already created based on tokenId\n        _safeMint(msg.sender, newItemId);\n\n        // setting the image/media url to the token\n        _setTokenURI(newItemId, tokenURI);\n\n        tokenId++;\n    }\n\n    function isApprovedForAll(address owner, address operator)\n        public\n        view\n        virtual\n        override\n        returns (bool) \n    {\n        // preapproved marketplace\n        return super.isApprovedForAll(owner, operator) || operator == storeAddress;\n    }\n\n    function getTokenURI(uint256 token) public view returns(string memory) {\n        require(token >= 0, \"Token id is required\");\n        require(msg.sender != address(0), \"Account address id is required\");\n        string memory uri = tokenURI(token);\n        return uri;\n    }\n}",
  "sourcePath": "/Users/abhinavkhanduja/Desktop/BlockchainDevelopment/cryptagram/packages/client/contracts/CRYPT.sol",
  "compiler": {
    "name": "solc",
    "version": "0.8.12+commit.f00d7308.Emscripten.clang"
  },
  "schemaVersion": "3.4.4",
  "updatedAt": "2022-03-08T15:48:41.351Z",
  "devdoc": {
    "kind": "dev",
    "methods": {
      "approve(address,uint256)": {
        "details": "See {IERC721-approve}."
      },
      "balanceOf(address)": {
        "details": "See {IERC721-balanceOf}."
      },
      "getApproved(uint256)": {
        "details": "See {IERC721-getApproved}."
      },
      "isApprovedForAll(address,address)": {
        "details": "See {IERC721-isApprovedForAll}."
      },
      "name()": {
        "details": "See {IERC721Metadata-name}."
      },
      "ownerOf(uint256)": {
        "details": "See {IERC721-ownerOf}."
      },
      "safeTransferFrom(address,address,uint256)": {
        "details": "See {IERC721-safeTransferFrom}."
      },
      "safeTransferFrom(address,address,uint256,bytes)": {
        "details": "See {IERC721-safeTransferFrom}."
      },
      "setApprovalForAll(address,bool)": {
        "details": "See {IERC721-setApprovalForAll}."
      },
      "supportsInterface(bytes4)": {
        "details": "See {IERC165-supportsInterface}."
      },
      "symbol()": {
        "details": "See {IERC721Metadata-symbol}."
      },
      "tokenURI(uint256)": {
        "details": "See {IERC721Metadata-tokenURI}."
      },
      "transferFrom(address,address,uint256)": {
        "details": "See {IERC721-transferFrom}."
      }
    },
    "version": 1
  },
  "userdoc": {
    "kind": "user",
    "methods": {},
    "version": 1
  }
}