{
  "contractName": "NFT",
  "abi": [
    {
      "inputs": [
        {
          "internalType": "address",
          "name": "marketplaceAddress",
          "type": "address"
        }
      ],
      "stateMutability": "nonpayable",
      "type": "constructor"
    },
    {
      "anonymous": false,
      "inputs": [
        {
          "indexed": true,
          "internalType": "address",
          "name": "owner",
          "type": "address"
        },
        {
          "indexed": true,
          "internalType": "address",
          "name": "approved",
          "type": "address"
        },
        {
          "indexed": true,
          "internalType": "uint256",
          "name": "tokenId",
          "type": "uint256"
        }
      ],
      "name": "Approval",
      "type": "event"
    },
    {
      "anonymous": false,
      "inputs": [
        {
          "indexed": true,
          "internalType": "address",
          "name": "owner",
          "type": "address"
        },
        {
          "indexed": true,
          "internalType": "address",
          "name": "operator",
          "type": "address"
        },
        {
          "indexed": false,
          "internalType": "bool",
          "name": "approved",
          "type": "bool"
        }
      ],
      "name": "ApprovalForAll",
      "type": "event"
    },
    {
      "anonymous": false,
      "inputs": [
        {
          "indexed": true,
          "internalType": "address",
          "name": "from",
          "type": "address"
        },
        {
          "indexed": true,
          "internalType": "address",
          "name": "to",
          "type": "address"
        },
        {
          "indexed": true,
          "internalType": "uint256",
          "name": "tokenId",
          "type": "uint256"
        }
      ],
      "name": "Transfer",
      "type": "event"
    },
    {
      "inputs": [
        {
          "internalType": "address",
          "name": "to",
          "type": "address"
        },
        {
          "internalType": "uint256",
          "name": "tokenId",
          "type": "uint256"
        }
      ],
      "name": "approve",
      "outputs": [],
      "stateMutability": "nonpayable",
      "type": "function"
    },
    {
      "inputs": [
        {
          "internalType": "address",
          "name": "owner",
          "type": "address"
        }
      ],
      "name": "balanceOf",
      "outputs": [
        {
          "internalType": "uint256",
          "name": "",
          "type": "uint256"
        }
      ],
      "stateMutability": "view",
      "type": "function"
    },
    {
      "inputs": [
        {
          "internalType": "uint256",
          "name": "tokenId",
          "type": "uint256"
        }
      ],
      "name": "getApproved",
      "outputs": [
        {
          "internalType": "address",
          "name": "",
          "type": "address"
        }
      ],
      "stateMutability": "view",
      "type": "function"
    },
    {
      "inputs": [
        {
          "internalType": "address",
          "name": "owner",
          "type": "address"
        },
        {
          "internalType": "address",
          "name": "operator",
          "type": "address"
        }
      ],
      "name": "isApprovedForAll",
      "outputs": [
        {
          "internalType": "bool",
          "name": "",
          "type": "bool"
        }
      ],
      "stateMutability": "view",
      "type": "function"
    },
    {
      "inputs": [],
      "name": "name",
      "outputs": [
        {
          "internalType": "string",
          "name": "",
          "type": "string"
        }
      ],
      "stateMutability": "view",
      "type": "function"
    },
    {
      "inputs": [
        {
          "internalType": "uint256",
          "name": "tokenId",
          "type": "uint256"
        }
      ],
      "name": "ownerOf",
      "outputs": [
        {
          "internalType": "address",
          "name": "",
          "type": "address"
        }
      ],
      "stateMutability": "view",
      "type": "function"
    },
    {
      "inputs": [
        {
          "internalType": "address",
          "name": "from",
          "type": "address"
        },
        {
          "internalType": "address",
          "name": "to",
          "type": "address"
        },
        {
          "internalType": "uint256",
          "name": "tokenId",
          "type": "uint256"
        }
      ],
      "name": "safeTransferFrom",
      "outputs": [],
      "stateMutability": "nonpayable",
      "type": "function"
    },
    {
      "inputs": [
        {
          "internalType": "address",
          "name": "from",
          "type": "address"
        },
        {
          "internalType": "address",
          "name": "to",
          "type": "address"
        },
        {
          "internalType": "uint256",
          "name": "tokenId",
          "type": "uint256"
        },
        {
          "internalType": "bytes",
          "name": "_data",
          "type": "bytes"
        }
      ],
      "name": "safeTransferFrom",
      "outputs": [],
      "stateMutability": "nonpayable",
      "type": "function"
    },
    {
      "inputs": [
        {
          "internalType": "address",
          "name": "operator",
          "type": "address"
        },
        {
          "internalType": "bool",
          "name": "approved",
          "type": "bool"
        }
      ],
      "name": "setApprovalForAll",
      "outputs": [],
      "stateMutability": "nonpayable",
      "type": "function"
    },
    {
      "inputs": [
        {
          "internalType": "bytes4",
          "name": "interfaceId",
          "type": "bytes4"
        }
      ],
      "name": "supportsInterface",
      "outputs": [
        {
          "internalType": "bool",
          "name": "",
          "type": "bool"
        }
      ],
      "stateMutability": "view",
      "type": "function"
    },
    {
      "inputs": [],
      "name": "symbol",
      "outputs": [
        {
          "internalType": "string",
          "name": "",
          "type": "string"
        }
      ],
      "stateMutability": "view",
      "type": "function"
    },
    {
      "inputs": [
        {
          "internalType": "uint256",
          "name": "tokenId",
          "type": "uint256"
        }
      ],
      "name": "tokenURI",
      "outputs": [
        {
          "internalType": "string",
          "name": "",
          "type": "string"
        }
      ],
      "stateMutability": "view",
      "type": "function"
    },
    {
      "inputs": [
        {
          "internalType": "address",
          "name": "from",
          "type": "address"
        },
        {
          "internalType": "address",
          "name": "to",
          "type": "address"
        },
        {
          "internalType": "uint256",
          "name": "tokenId",
          "type": "uint256"
        }
      ],
      "name": "transferFrom",
      "outputs": [],
      "stateMutability": "nonpayable",
      "type": "function"
    },
    {
      "inputs": [],
      "name": "getCurrentId",
      "outputs": [
        {
          "internalType": "uint256",
          "name": "",
          "type": "uint256"
        }
      ],
      "stateMutability": "view",
      "type": "function"
    },
    {
      "inputs": [
        {
          "internalType": "string",
          "name": "tokenURI",
          "type": "string"
        }
      ],
      "name": "createToken",
      "outputs": [],
      "stateMutability": "nonpayable",
      "type": "function"
    },
    {
      "inputs": [
        {
          "internalType": "uint256",
          "name": "token",
          "type": "uint256"
        }
      ],
      "name": "getTokenURI",
      "outputs": [
        {
          "internalType": "string",
          "name": "",
          "type": "string"
        }
      ],
      "stateMutability": "view",
      "type": "function"
    }
  ],
  "bytecode": "0x60806040523480156200001157600080fd5b50604051620030f2380380620030f2833981810160405281019062000037919062000241565b6040518060400160405280600a81526020017f43727970747665727365000000000000000000000000000000000000000000008152506040518060400160405280600581526020017f43525950540000000000000000000000000000000000000000000000000000008152508160009080519060200190620000bb92919062000127565b508060019080519060200190620000d492919062000127565b505050600060078190555080600860006101000a81548173ffffffffffffffffffffffffffffffffffffffff021916908373ffffffffffffffffffffffffffffffffffffffff16021790555050620002d8565b8280546200013590620002a2565b90600052602060002090601f016020900481019282620001595760008555620001a5565b82601f106200017457805160ff1916838001178555620001a5565b82800160010185558215620001a5579182015b82811115620001a457825182559160200191906001019062000187565b5b509050620001b49190620001b8565b5090565b5b80821115620001d3576000816000905550600101620001b9565b5090565b600080fd5b600073ffffffffffffffffffffffffffffffffffffffff82169050919050565b60006200020982620001dc565b9050919050565b6200021b81620001fc565b81146200022757600080fd5b50565b6000815190506200023b8162000210565b92915050565b6000602082840312156200025a5762000259620001d7565b5b60006200026a848285016200022a565b91505092915050565b7f4e487b7100000000000000000000000000000000000000000000000000000000600052602260045260246000fd5b60006002820490506001821680620002bb57607f821691505b60208210811415620002d257620002d162000273565b5b50919050565b612e0a80620002e86000396000f3fe608060405234801561001057600080fd5b50600436106101005760003560e01c80636352211e11610097578063a22cb46511610066578063a22cb465146102bf578063b88d4fde146102db578063c87b56dd146102f7578063e985e9c51461032757610100565b80636352211e146102235780636c1438621461025357806370a082311461027157806395d89b41146102a157610100565b806323b872dd116100d357806323b872dd1461019f5780633bb3a24d146101bb57806342842e0e146101eb57806345576f941461020757610100565b806301ffc9a71461010557806306fdde0314610135578063081812fc14610153578063095ea7b314610183575b600080fd5b61011f600480360381019061011a9190611ae4565b610357565b60405161012c9190611b2c565b60405180910390f35b61013d610439565b60405161014a9190611be0565b60405180910390f35b61016d60048036038101906101689190611c38565b6104cb565b60405161017a9190611ca6565b60405180910390f35b61019d60048036038101906101989190611ced565b610550565b005b6101b960048036038101906101b49190611d2d565b610668565b005b6101d560048036038101906101d09190611c38565b6106c8565b6040516101e29190611be0565b60405180910390f35b61020560048036038101906102009190611d2d565b610794565b005b610221600480360381019061021c9190611de5565b6107b4565b005b61023d60048036038101906102389190611c38565b61085d565b60405161024a9190611ca6565b60405180910390f35b61025b61090f565b6040516102689190611e41565b60405180910390f35b61028b60048036038101906102869190611e5c565b610919565b6040516102989190611e41565b60405180910390f35b6102a96109d1565b6040516102b69190611be0565b60405180910390f35b6102d960048036038101906102d49190611eb5565b610a63565b005b6102f560048036038101906102f09190612025565b610a79565b005b610311600480360381019061030c9190611c38565b610adb565b60405161031e9190611be0565b60405180910390f35b610341600480360381019061033c91906120a8565b610c2d565b60405161034e9190611b2c565b60405180910390f35b60007f80ac58cd000000000000000000000000000000000000000000000000000000007bffffffffffffffffffffffffffffffffffffffffffffffffffffffff1916827bffffffffffffffffffffffffffffffffffffffffffffffffffffffff1916148061042257507f5b5e139f000000000000000000000000000000000000000000000000000000007bffffffffffffffffffffffffffffffffffffffffffffffffffffffff1916827bffffffffffffffffffffffffffffffffffffffffffffffffffffffff1916145b80610432575061043182610cc1565b5b9050919050565b60606000805461044890612117565b80601f016020809104026020016040519081016040528092919081815260200182805461047490612117565b80156104c15780601f10610496576101008083540402835291602001916104c1565b820191906000526020600020905b8154815290600101906020018083116104a457829003601f168201915b5050505050905090565b60006104d682610d2b565b610515576040517f08c379a000000000000000000000000000000000000000000000000000000000815260040161050c906121bb565b60405180910390fd5b6004600083815260200190815260200160002060009054906101000a900473ffffffffffffffffffffffffffffffffffffffff169050919050565b600061055b8261085d565b90508073ffffffffffffffffffffffffffffffffffffffff168373ffffffffffffffffffffffffffffffffffffffff1614156105cc576040517f08c379a00000000000000000000000000000000000000000000000000000000081526004016105c39061224d565b60405180910390fd5b8073ffffffffffffffffffffffffffffffffffffffff166105eb610d97565b73ffffffffffffffffffffffffffffffffffffffff16148061061a575061061981610614610d97565b610c2d565b5b610659576040517f08c379a0000000000000000000000000000000000000000000000000000000008152600401610650906122df565b60405180910390fd5b6106638383610d9f565b505050565b610679610673610d97565b82610e58565b6106b8576040517f08c379a00000000000000000000000000000000000000000000000000000000081526004016106af90612371565b60405180910390fd5b6106c3838383610f36565b505050565b6060600082101561070e576040517f08c379a0000000000000000000000000000000000000000000000000000000008152600401610705906123dd565b60405180910390fd5b600073ffffffffffffffffffffffffffffffffffffffff163373ffffffffffffffffffffffffffffffffffffffff16141561077e576040517f08c379a000000000000000000000000000000000000000000000000000000000815260040161077590612449565b60405180910390fd5b600061078983610adb565b905080915050919050565b6107af83838360405180602001604052806000815250610a79565b505050565b600060075490506107c53382611192565b6108138184848080601f016020809104026020016040519081016040528093929190818152602001838380828437600081840152601f19601f820116905080830192505050505050506111b0565b610840600860009054906101000a900473ffffffffffffffffffffffffffffffffffffffff166001610a63565b6007600081548092919061085390612498565b9190505550505050565b6000806002600084815260200190815260200160002060009054906101000a900473ffffffffffffffffffffffffffffffffffffffff169050600073ffffffffffffffffffffffffffffffffffffffff168173ffffffffffffffffffffffffffffffffffffffff161415610906576040517f08c379a00000000000000000000000000000000000000000000000000000000081526004016108fd90612553565b60405180910390fd5b80915050919050565b6000600754905090565b60008073ffffffffffffffffffffffffffffffffffffffff168273ffffffffffffffffffffffffffffffffffffffff16141561098a576040517f08c379a0000000000000000000000000000000000000000000000000000000008152600401610981906125e5565b60405180910390fd5b600360008373ffffffffffffffffffffffffffffffffffffffff1673ffffffffffffffffffffffffffffffffffffffff168152602001908152602001600020549050919050565b6060600180546109e090612117565b80601f0160208091040260200160405190810160405280929190818152602001828054610a0c90612117565b8015610a595780601f10610a2e57610100808354040283529160200191610a59565b820191906000526020600020905b815481529060010190602001808311610a3c57829003601f168201915b5050505050905090565b610a75610a6e610d97565b8383611224565b5050565b610a8a610a84610d97565b83610e58565b610ac9576040517f08c379a0000000000000000000000000000000000000000000000000000000008152600401610ac090612371565b60405180910390fd5b610ad584848484611391565b50505050565b6060610ae682610d2b565b610b25576040517f08c379a0000000000000000000000000000000000000000000000000000000008152600401610b1c90612677565b60405180910390fd5b6000600660008481526020019081526020016000208054610b4590612117565b80601f0160208091040260200160405190810160405280929190818152602001828054610b7190612117565b8015610bbe5780601f10610b9357610100808354040283529160200191610bbe565b820191906000526020600020905b815481529060010190602001808311610ba157829003601f168201915b505050505090506000610bcf6113ed565b9050600081511415610be5578192505050610c28565b600082511115610c1a578082604051602001610c029291906126d3565b60405160208183030381529060405292505050610c28565b610c2384611404565b925050505b919050565b6000600560008473ffffffffffffffffffffffffffffffffffffffff1673ffffffffffffffffffffffffffffffffffffffff16815260200190815260200160002060008373ffffffffffffffffffffffffffffffffffffffff1673ffffffffffffffffffffffffffffffffffffffff16815260200190815260200160002060009054906101000a900460ff16905092915050565b60007f01ffc9a7000000000000000000000000000000000000000000000000000000007bffffffffffffffffffffffffffffffffffffffffffffffffffffffff1916827bffffffffffffffffffffffffffffffffffffffffffffffffffffffff1916149050919050565b60008073ffffffffffffffffffffffffffffffffffffffff166002600084815260200190815260200160002060009054906101000a900473ffffffffffffffffffffffffffffffffffffffff1673ffffffffffffffffffffffffffffffffffffffff1614159050919050565b600033905090565b816004600083815260200190815260200160002060006101000a81548173ffffffffffffffffffffffffffffffffffffffff021916908373ffffffffffffffffffffffffffffffffffffffff160217905550808273ffffffffffffffffffffffffffffffffffffffff16610e128361085d565b73ffffffffffffffffffffffffffffffffffffffff167f8c5be1e5ebec7d5bd14f71427d1e84f3dd0314c0f7b2291e5b200ac8c7c3b92560405160405180910390a45050565b6000610e6382610d2b565b610ea2576040517f08c379a0000000000000000000000000000000000000000000000000000000008152600401610e9990612769565b60405180910390fd5b6000610ead8361085d565b90508073ffffffffffffffffffffffffffffffffffffffff168473ffffffffffffffffffffffffffffffffffffffff161480610f1c57508373ffffffffffffffffffffffffffffffffffffffff16610f04846104cb565b73ffffffffffffffffffffffffffffffffffffffff16145b80610f2d5750610f2c8185610c2d565b5b91505092915050565b8273ffffffffffffffffffffffffffffffffffffffff16610f568261085d565b73ffffffffffffffffffffffffffffffffffffffff1614610fac576040517f08c379a0000000000000000000000000000000000000000000000000000000008152600401610fa3906127fb565b60405180910390fd5b600073ffffffffffffffffffffffffffffffffffffffff168273ffffffffffffffffffffffffffffffffffffffff16141561101c576040517f08c379a00000000000000000000000000000000000000000000000000000000081526004016110139061288d565b60405180910390fd5b6110278383836114ab565b611032600082610d9f565b6001600360008573ffffffffffffffffffffffffffffffffffffffff1673ffffffffffffffffffffffffffffffffffffffff168152602001908152602001600020600082825461108291906128ad565b925050819055506001600360008473ffffffffffffffffffffffffffffffffffffffff1673ffffffffffffffffffffffffffffffffffffffff16815260200190815260200160002060008282546110d991906128e1565b92505081905550816002600083815260200190815260200160002060006101000a81548173ffffffffffffffffffffffffffffffffffffffff021916908373ffffffffffffffffffffffffffffffffffffffff160217905550808273ffffffffffffffffffffffffffffffffffffffff168473ffffffffffffffffffffffffffffffffffffffff167fddf252ad1be2c89b69c2b068fc378daa952ba7f163c4a11628f55a4df523b3ef60405160405180910390a4505050565b6111ac8282604051806020016040528060008152506114b0565b5050565b6111b982610d2b565b6111f8576040517f08c379a00000000000000000000000000000000000000000000000000000000081526004016111ef906129a9565b60405180910390fd5b8060066000848152602001908152602001600020908051906020019061121f9291906119d5565b505050565b8173ffffffffffffffffffffffffffffffffffffffff168373ffffffffffffffffffffffffffffffffffffffff161415611293576040517f08c379a000000000000000000000000000000000000000000000000000000000815260040161128a90612a15565b60405180910390fd5b80600560008573ffffffffffffffffffffffffffffffffffffffff1673ffffffffffffffffffffffffffffffffffffffff16815260200190815260200160002060008473ffffffffffffffffffffffffffffffffffffffff1673ffffffffffffffffffffffffffffffffffffffff16815260200190815260200160002060006101000a81548160ff0219169083151502179055508173ffffffffffffffffffffffffffffffffffffffff168373ffffffffffffffffffffffffffffffffffffffff167f17307eab39ab6107e8899845ad3d59bd9653f200f220920489ca2b5937696c31836040516113849190611b2c565b60405180910390a3505050565b61139c848484610f36565b6113a88484848461150b565b6113e7576040517f08c379a00000000000000000000000000000000000000000000000000000000081526004016113de90612aa7565b60405180910390fd5b50505050565b606060405180602001604052806000815250905090565b606061140f82610d2b565b61144e576040517f08c379a000000000000000000000000000000000000000000000000000000000815260040161144590612b39565b60405180910390fd5b60006114586113ed565b9050600081511161147857604051806020016040528060008152506114a3565b8061148284611693565b6040516020016114939291906126d3565b6040516020818303038152906040525b915050919050565b505050565b6114ba83836117f4565b6114c7600084848461150b565b611506576040517f08c379a00000000000000000000000000000000000000000000000000000000081526004016114fd90612aa7565b60405180910390fd5b505050565b600061152c8473ffffffffffffffffffffffffffffffffffffffff166119c2565b15611686578373ffffffffffffffffffffffffffffffffffffffff1663150b7a02611555610d97565b8786866040518563ffffffff1660e01b81526004016115779493929190612bae565b6020604051808303816000875af19250505080156115b357506040513d601f19601f820116820180604052508101906115b09190612c0f565b60015b611636573d80600081146115e3576040519150601f19603f3d011682016040523d82523d6000602084013e6115e8565b606091505b5060008151141561162e576040517f08c379a000000000000000000000000000000000000000000000000000000000815260040161162590612aa7565b60405180910390fd5b805181602001fd5b63150b7a0260e01b7bffffffffffffffffffffffffffffffffffffffffffffffffffffffff1916817bffffffffffffffffffffffffffffffffffffffffffffffffffffffff19161491505061168b565b600190505b949350505050565b606060008214156116db576040518060400160405280600181526020017f300000000000000000000000000000000000000000000000000000000000000081525090506117ef565b600082905060005b6000821461170d5780806116f690612498565b915050600a826117069190612c6b565b91506116e3565b60008167ffffffffffffffff81111561172957611728611efa565b5b6040519080825280601f01601f19166020018201604052801561175b5781602001600182028036833780820191505090505b5090505b600085146117e85760018261177491906128ad565b9150600a856117839190612c9c565b603061178f91906128e1565b60f81b8183815181106117a5576117a4612ccd565b5b60200101907effffffffffffffffffffffffffffffffffffffffffffffffffffffffffffff1916908160001a905350600a856117e19190612c6b565b945061175f565b8093505050505b919050565b600073ffffffffffffffffffffffffffffffffffffffff168273ffffffffffffffffffffffffffffffffffffffff161415611864576040517f08c379a000000000000000000000000000000000000000000000000000000000815260040161185b90612d48565b60405180910390fd5b61186d81610d2b565b156118ad576040517f08c379a00000000000000000000000000000000000000000000000000000000081526004016118a490612db4565b60405180910390fd5b6118b9600083836114ab565b6001600360008473ffffffffffffffffffffffffffffffffffffffff1673ffffffffffffffffffffffffffffffffffffffff168152602001908152602001600020600082825461190991906128e1565b92505081905550816002600083815260200190815260200160002060006101000a81548173ffffffffffffffffffffffffffffffffffffffff021916908373ffffffffffffffffffffffffffffffffffffffff160217905550808273ffffffffffffffffffffffffffffffffffffffff16600073ffffffffffffffffffffffffffffffffffffffff167fddf252ad1be2c89b69c2b068fc378daa952ba7f163c4a11628f55a4df523b3ef60405160405180910390a45050565b600080823b905060008111915050919050565b8280546119e190612117565b90600052602060002090601f016020900481019282611a035760008555611a4a565b82601f10611a1c57805160ff1916838001178555611a4a565b82800160010185558215611a4a579182015b82811115611a49578251825591602001919060010190611a2e565b5b509050611a579190611a5b565b5090565b5b80821115611a74576000816000905550600101611a5c565b5090565b6000604051905090565b600080fd5b600080fd5b60007fffffffff0000000000000000000000000000000000000000000000000000000082169050919050565b611ac181611a8c565b8114611acc57600080fd5b50565b600081359050611ade81611ab8565b92915050565b600060208284031215611afa57611af9611a82565b5b6000611b0884828501611acf565b91505092915050565b60008115159050919050565b611b2681611b11565b82525050565b6000602082019050611b416000830184611b1d565b92915050565b600081519050919050565b600082825260208201905092915050565b60005b83811015611b81578082015181840152602081019050611b66565b83811115611b90576000848401525b50505050565b6000601f19601f8301169050919050565b6000611bb282611b47565b611bbc8185611b52565b9350611bcc818560208601611b63565b611bd581611b96565b840191505092915050565b60006020820190508181036000830152611bfa8184611ba7565b905092915050565b6000819050919050565b611c1581611c02565b8114611c2057600080fd5b50565b600081359050611c3281611c0c565b92915050565b600060208284031215611c4e57611c4d611a82565b5b6000611c5c84828501611c23565b91505092915050565b600073ffffffffffffffffffffffffffffffffffffffff82169050919050565b6000611c9082611c65565b9050919050565b611ca081611c85565b82525050565b6000602082019050611cbb6000830184611c97565b92915050565b611cca81611c85565b8114611cd557600080fd5b50565b600081359050611ce781611cc1565b92915050565b60008060408385031215611d0457611d03611a82565b5b6000611d1285828601611cd8565b9250506020611d2385828601611c23565b9150509250929050565b600080600060608486031215611d4657611d45611a82565b5b6000611d5486828701611cd8565b9350506020611d6586828701611cd8565b9250506040611d7686828701611c23565b9150509250925092565b600080fd5b600080fd5b600080fd5b60008083601f840112611da557611da4611d80565b5b8235905067ffffffffffffffff811115611dc257611dc1611d85565b5b602083019150836001820283011115611dde57611ddd611d8a565b5b9250929050565b60008060208385031215611dfc57611dfb611a82565b5b600083013567ffffffffffffffff811115611e1a57611e19611a87565b5b611e2685828601611d8f565b92509250509250929050565b611e3b81611c02565b82525050565b6000602082019050611e566000830184611e32565b92915050565b600060208284031215611e7257611e71611a82565b5b6000611e8084828501611cd8565b91505092915050565b611e9281611b11565b8114611e9d57600080fd5b50565b600081359050611eaf81611e89565b92915050565b60008060408385031215611ecc57611ecb611a82565b5b6000611eda85828601611cd8565b9250506020611eeb85828601611ea0565b9150509250929050565b600080fd5b7f4e487b7100000000000000000000000000000000000000000000000000000000600052604160045260246000fd5b611f3282611b96565b810181811067ffffffffffffffff82111715611f5157611f50611efa565b5b80604052505050565b6000611f64611a78565b9050611f708282611f29565b919050565b600067ffffffffffffffff821115611f9057611f8f611efa565b5b611f9982611b96565b9050602081019050919050565b82818337600083830152505050565b6000611fc8611fc384611f75565b611f5a565b905082815260208101848484011115611fe457611fe3611ef5565b5b611fef848285611fa6565b509392505050565b600082601f83011261200c5761200b611d80565b5b813561201c848260208601611fb5565b91505092915050565b6000806000806080858703121561203f5761203e611a82565b5b600061204d87828801611cd8565b945050602061205e87828801611cd8565b935050604061206f87828801611c23565b925050606085013567ffffffffffffffff8111156120905761208f611a87565b5b61209c87828801611ff7565b91505092959194509250565b600080604083850312156120bf576120be611a82565b5b60006120cd85828601611cd8565b92505060206120de85828601611cd8565b9150509250929050565b7f4e487b7100000000000000000000000000000000000000000000000000000000600052602260045260246000fd5b6000600282049050600182168061212f57607f821691505b60208210811415612143576121426120e8565b5b50919050565b7f4552433732313a20617070726f76656420717565727920666f72206e6f6e657860008201527f697374656e7420746f6b656e0000000000000000000000000000000000000000602082015250565b60006121a5602c83611b52565b91506121b082612149565b604082019050919050565b600060208201905081810360008301526121d481612198565b9050919050565b7f4552433732313a20617070726f76616c20746f2063757272656e74206f776e6560008201527f7200000000000000000000000000000000000000000000000000000000000000602082015250565b6000612237602183611b52565b9150612242826121db565b604082019050919050565b600060208201905081810360008301526122668161222a565b9050919050565b7f4552433732313a20617070726f76652063616c6c6572206973206e6f74206f7760008201527f6e6572206e6f7220617070726f76656420666f7220616c6c0000000000000000602082015250565b60006122c9603883611b52565b91506122d48261226d565b604082019050919050565b600060208201905081810360008301526122f8816122bc565b9050919050565b7f4552433732313a207472616e736665722063616c6c6572206973206e6f74206f60008201527f776e6572206e6f7220617070726f766564000000000000000000000000000000602082015250565b600061235b603183611b52565b9150612366826122ff565b604082019050919050565b6000602082019050818103600083015261238a8161234e565b9050919050565b7f546f6b656e206964206973207265717569726564000000000000000000000000600082015250565b60006123c7601483611b52565b91506123d282612391565b602082019050919050565b600060208201905081810360008301526123f6816123ba565b9050919050565b7f4163636f756e7420616464726573732069642069732072657175697265640000600082015250565b6000612433601e83611b52565b915061243e826123fd565b602082019050919050565b6000602082019050818103600083015261246281612426565b9050919050565b7f4e487b7100000000000000000000000000000000000000000000000000000000600052601160045260246000fd5b60006124a382611c02565b91507fffffffffffffffffffffffffffffffffffffffffffffffffffffffffffffffff8214156124d6576124d5612469565b5b600182019050919050565b7f4552433732313a206f776e657220717565727920666f72206e6f6e657869737460008201527f656e7420746f6b656e0000000000000000000000000000000000000000000000602082015250565b600061253d602983611b52565b9150612548826124e1565b604082019050919050565b6000602082019050818103600083015261256c81612530565b9050919050565b7f4552433732313a2062616c616e636520717565727920666f7220746865207a6560008201527f726f206164647265737300000000000000000000000000000000000000000000602082015250565b60006125cf602a83611b52565b91506125da82612573565b604082019050919050565b600060208201905081810360008301526125fe816125c2565b9050919050565b7f45524337323155524953746f726167653a2055524920717565727920666f722060008201527f6e6f6e6578697374656e7420746f6b656e000000000000000000000000000000602082015250565b6000612661603183611b52565b915061266c82612605565b604082019050919050565b6000602082019050818103600083015261269081612654565b9050919050565b600081905092915050565b60006126ad82611b47565b6126b78185612697565b93506126c7818560208601611b63565b80840191505092915050565b60006126df82856126a2565b91506126eb82846126a2565b91508190509392505050565b7f4552433732313a206f70657261746f7220717565727920666f72206e6f6e657860008201527f697374656e7420746f6b656e0000000000000000000000000000000000000000602082015250565b6000612753602c83611b52565b915061275e826126f7565b604082019050919050565b6000602082019050818103600083015261278281612746565b9050919050565b7f4552433732313a207472616e73666572206f6620746f6b656e2074686174206960008201527f73206e6f74206f776e0000000000000000000000000000000000000000000000602082015250565b60006127e5602983611b52565b91506127f082612789565b604082019050919050565b60006020820190508181036000830152612814816127d8565b9050919050565b7f4552433732313a207472616e7366657220746f20746865207a65726f2061646460008201527f7265737300000000000000000000000000000000000000000000000000000000602082015250565b6000612877602483611b52565b91506128828261281b565b604082019050919050565b600060208201905081810360008301526128a68161286a565b9050919050565b60006128b882611c02565b91506128c383611c02565b9250828210156128d6576128d5612469565b5b828203905092915050565b60006128ec82611c02565b91506128f783611c02565b9250827fffffffffffffffffffffffffffffffffffffffffffffffffffffffffffffffff0382111561292c5761292b612469565b5b828201905092915050565b7f45524337323155524953746f726167653a2055524920736574206f66206e6f6e60008201527f6578697374656e7420746f6b656e000000000000000000000000000000000000602082015250565b6000612993602e83611b52565b915061299e82612937565b604082019050919050565b600060208201905081810360008301526129c281612986565b9050919050565b7f4552433732313a20617070726f766520746f2063616c6c657200000000000000600082015250565b60006129ff601983611b52565b9150612a0a826129c9565b602082019050919050565b60006020820190508181036000830152612a2e816129f2565b9050919050565b7f4552433732313a207472616e7366657220746f206e6f6e20455243373231526560008201527f63656976657220696d706c656d656e7465720000000000000000000000000000602082015250565b6000612a91603283611b52565b9150612a9c82612a35565b604082019050919050565b60006020820190508181036000830152612ac081612a84565b9050919050565b7f4552433732314d657461646174613a2055524920717565727920666f72206e6f60008201527f6e6578697374656e7420746f6b656e0000000000000000000000000000000000602082015250565b6000612b23602f83611b52565b9150612b2e82612ac7565b604082019050919050565b60006020820190508181036000830152612b5281612b16565b9050919050565b600081519050919050565b600082825260208201905092915050565b6000612b8082612b59565b612b8a8185612b64565b9350612b9a818560208601611b63565b612ba381611b96565b840191505092915050565b6000608082019050612bc36000830187611c97565b612bd06020830186611c97565b612bdd6040830185611e32565b8181036060830152612bef8184612b75565b905095945050505050565b600081519050612c0981611ab8565b92915050565b600060208284031215612c2557612c24611a82565b5b6000612c3384828501612bfa565b91505092915050565b7f4e487b7100000000000000000000000000000000000000000000000000000000600052601260045260246000fd5b6000612c7682611c02565b9150612c8183611c02565b925082612c9157612c90612c3c565b5b828204905092915050565b6000612ca782611c02565b9150612cb283611c02565b925082612cc257612cc1612c3c565b5b828206905092915050565b7f4e487b7100000000000000000000000000000000000000000000000000000000600052603260045260246000fd5b7f4552433732313a206d696e7420746f20746865207a65726f2061646472657373600082015250565b6000612d32602083611b52565b9150612d3d82612cfc565b602082019050919050565b60006020820190508181036000830152612d6181612d25565b9050919050565b7f4552433732313a20746f6b656e20616c7265616479206d696e74656400000000600082015250565b6000612d9e601c83611b52565b9150612da982612d68565b602082019050919050565b60006020820190508181036000830152612dcd81612d91565b905091905056fea2646970667358221220209b4bfc6bb3c3dc3c905e1f3591925c86f66b8c925e327dfd9377bd072e905f64736f6c634300080c0033",
  "immutableReferences": {},
  "source": "// SPDX-License-Identifier: MIT\npragma solidity ^0.8.11;\n\nimport \"../node_modules/@openzeppelin/contracts/token/ERC721/ERC721.sol\";\nimport \"../node_modules/@openzeppelin/contracts/token/ERC721/extensions/ERC721URIStorage.sol\";\n\ncontract NFT is ERC721URIStorage {\n    uint256 private tokenId;\n    address private contractAddress;\n\n    constructor(address marketplaceAddress) ERC721(\"Cryptverse\", \"CRYPT\") {\n        tokenId = 0;\n        contractAddress = marketplaceAddress;\n    }\n\n    function getCurrentId() public view returns(uint256) {\n        return tokenId;\n    }\n\n    function createToken(string calldata tokenURI) public {\n        uint256 newItemId = tokenId;\n\n        // _safeMint protects token to be recreated if already created based on tokenId\n        _safeMint(msg.sender, newItemId);\n\n        // setting the image/media url to the token\n        _setTokenURI(newItemId, tokenURI);\n\n        // without setApprovalForAll NFTMarket does not have authority to transfer the token's ownership on ite's behalf\n        setApprovalForAll(contractAddress, true);\n        \n        tokenId++;\n    }\n\n    function getTokenURI(uint256 token) public view returns(string memory) {\n        require(token >= 0, \"Token id is required\");\n        require(msg.sender != address(0), \"Account address id is required\");\n        string memory uri = tokenURI(token);\n        return uri;\n    }\n}",
  "sourcePath": "/Users/abhinavkhanduja/Desktop/BlockchainDevelopment/cryptagram/packages/client/contracts/NFT.sol",
  "compiler": {
    "name": "solc",
    "version": "0.8.12+commit.f00d7308.Emscripten.clang"
  },
  "schemaVersion": "3.4.4",
  "updatedAt": "2022-02-18T10:03:59.229Z",
  "devdoc": {
    "kind": "dev",
    "methods": {
      "approve(address,uint256)": {
        "details": "See {IERC721-approve}."
      },
      "balanceOf(address)": {
        "details": "See {IERC721-balanceOf}."
      },
      "getApproved(uint256)": {
        "details": "See {IERC721-getApproved}."
      },
      "isApprovedForAll(address,address)": {
        "details": "See {IERC721-isApprovedForAll}."
      },
      "name()": {
        "details": "See {IERC721Metadata-name}."
      },
      "ownerOf(uint256)": {
        "details": "See {IERC721-ownerOf}."
      },
      "safeTransferFrom(address,address,uint256)": {
        "details": "See {IERC721-safeTransferFrom}."
      },
      "safeTransferFrom(address,address,uint256,bytes)": {
        "details": "See {IERC721-safeTransferFrom}."
      },
      "setApprovalForAll(address,bool)": {
        "details": "See {IERC721-setApprovalForAll}."
      },
      "supportsInterface(bytes4)": {
        "details": "See {IERC165-supportsInterface}."
      },
      "symbol()": {
        "details": "See {IERC721Metadata-symbol}."
      },
      "tokenURI(uint256)": {
        "details": "See {IERC721Metadata-tokenURI}."
      },
      "transferFrom(address,address,uint256)": {
        "details": "See {IERC721-transferFrom}."
      }
    },
    "version": 1
  },
  "userdoc": {
    "kind": "user",
    "methods": {},
    "version": 1
  }
}