{
  "contractName": "NFTMarket",
  "abi": [
    {
      "inputs": [],
      "stateMutability": "nonpayable",
      "type": "constructor"
    },
    {
      "anonymous": false,
      "inputs": [
        {
          "indexed": true,
          "internalType": "uint256",
          "name": "itemId",
          "type": "uint256"
        },
        {
          "indexed": true,
          "internalType": "address",
          "name": "nftContract",
          "type": "address"
        },
        {
          "indexed": true,
          "internalType": "uint256",
          "name": "tokenId",
          "type": "uint256"
        },
        {
          "indexed": false,
          "internalType": "address",
          "name": "owner",
          "type": "address"
        },
        {
          "indexed": false,
          "internalType": "address",
          "name": "creator",
          "type": "address"
        },
        {
          "indexed": false,
          "internalType": "uint256",
          "name": "price",
          "type": "uint256"
        },
        {
          "indexed": false,
          "internalType": "uint256",
          "name": "royalityFee",
          "type": "uint256"
        }
      ],
      "name": "MarketItemCreated",
      "type": "event"
    },
    {
      "anonymous": false,
      "inputs": [
        {
          "indexed": false,
          "internalType": "address",
          "name": "addr",
          "type": "address"
        }
      ],
      "name": "random",
      "type": "event"
    },
    {
      "anonymous": false,
      "inputs": [
        {
          "indexed": false,
          "internalType": "string",
          "name": "msg",
          "type": "string"
        },
        {
          "indexed": false,
          "internalType": "address",
          "name": "addr",
          "type": "address"
        }
      ],
      "name": "random2",
      "type": "event"
    },
    {
      "inputs": [],
      "name": "getCurrentItemId",
      "outputs": [
        {
          "internalType": "uint256",
          "name": "",
          "type": "uint256"
        }
      ],
      "stateMutability": "view",
      "type": "function",
      "constant": true
    },
    {
      "inputs": [],
      "name": "getOwner",
      "outputs": [
        {
          "internalType": "address",
          "name": "",
          "type": "address"
        }
      ],
      "stateMutability": "view",
      "type": "function",
      "constant": true
    },
    {
      "inputs": [
        {
          "internalType": "address",
          "name": "nftContract",
          "type": "address"
        },
        {
          "internalType": "uint256",
          "name": "tokenId",
          "type": "uint256"
        },
        {
          "internalType": "uint256",
          "name": "price",
          "type": "uint256"
        },
        {
          "internalType": "string",
          "name": "name",
          "type": "string"
        }
      ],
      "name": "createMarketItem",
      "outputs": [
        {
          "components": [
            {
              "internalType": "uint256",
              "name": "itemId",
              "type": "uint256"
            },
            {
              "internalType": "string",
              "name": "name",
              "type": "string"
            },
            {
              "internalType": "address",
              "name": "nftContract",
              "type": "address"
            },
            {
              "internalType": "uint256",
              "name": "tokenId",
              "type": "uint256"
            },
            {
              "internalType": "address payable",
              "name": "owner",
              "type": "address"
            },
            {
              "internalType": "address payable",
              "name": "creator",
              "type": "address"
            },
            {
              "internalType": "uint256",
              "name": "price",
              "type": "uint256"
            },
            {
              "internalType": "uint256",
              "name": "royalityFee",
              "type": "uint256"
            },
            {
              "internalType": "bool",
              "name": "isSelling",
              "type": "bool"
            }
          ],
          "internalType": "struct NFTMarket.MarketItem",
          "name": "",
          "type": "tuple"
        }
      ],
      "stateMutability": "payable",
      "type": "function",
      "payable": true
    },
    {
      "inputs": [
        {
          "internalType": "uint256",
          "name": "mItemId",
          "type": "uint256"
        }
      ],
      "name": "sellMarketItem",
      "outputs": [],
      "stateMutability": "payable",
      "type": "function",
      "payable": true
    },
    {
      "inputs": [],
      "name": "getMarketItems",
      "outputs": [
        {
          "components": [
            {
              "internalType": "uint256",
              "name": "itemId",
              "type": "uint256"
            },
            {
              "internalType": "string",
              "name": "name",
              "type": "string"
            },
            {
              "internalType": "address",
              "name": "nftContract",
              "type": "address"
            },
            {
              "internalType": "uint256",
              "name": "tokenId",
              "type": "uint256"
            },
            {
              "internalType": "address payable",
              "name": "owner",
              "type": "address"
            },
            {
              "internalType": "address payable",
              "name": "creator",
              "type": "address"
            },
            {
              "internalType": "uint256",
              "name": "price",
              "type": "uint256"
            },
            {
              "internalType": "uint256",
              "name": "royalityFee",
              "type": "uint256"
            },
            {
              "internalType": "bool",
              "name": "isSelling",
              "type": "bool"
            }
          ],
          "internalType": "struct NFTMarket.MarketItem[]",
          "name": "",
          "type": "tuple[]"
        }
      ],
      "stateMutability": "view",
      "type": "function",
      "constant": true
    },
    {
      "inputs": [],
      "name": "itemsCreatedByMe",
      "outputs": [
        {
          "components": [
            {
              "internalType": "uint256",
              "name": "itemId",
              "type": "uint256"
            },
            {
              "internalType": "string",
              "name": "name",
              "type": "string"
            },
            {
              "internalType": "address",
              "name": "nftContract",
              "type": "address"
            },
            {
              "internalType": "uint256",
              "name": "tokenId",
              "type": "uint256"
            },
            {
              "internalType": "address payable",
              "name": "owner",
              "type": "address"
            },
            {
              "internalType": "address payable",
              "name": "creator",
              "type": "address"
            },
            {
              "internalType": "uint256",
              "name": "price",
              "type": "uint256"
            },
            {
              "internalType": "uint256",
              "name": "royalityFee",
              "type": "uint256"
            },
            {
              "internalType": "bool",
              "name": "isSelling",
              "type": "bool"
            }
          ],
          "internalType": "struct NFTMarket.MarketItem[]",
          "name": "",
          "type": "tuple[]"
        }
      ],
      "stateMutability": "view",
      "type": "function",
      "constant": true
    }
  ],
  "bytecode": "0x60806040526000600160006101000a81548160ff0219169083151502179055506658d15e1762800060025534801561003657600080fd5b5060008081905550336001806101000a81548173ffffffffffffffffffffffffffffffffffffffff021916908373ffffffffffffffffffffffffffffffffffffffff1602179055506121418061008d6000396000f3fe6080604052600436106100555760003560e01c806329aa3a421461005a57806368eb494914610085578063893d20e8146100b057806391ddfe0a146100db578063ad9645f0146100f7578063ee45a71114610122575b600080fd5b34801561006657600080fd5b5061006f610152565b60405161007c91906116ec565b60405180910390f35b34801561009157600080fd5b5061009a6103e9565b6040516100a7919061171d565b60405180910390f35b3480156100bc57600080fd5b506100c56103f2565b6040516100d29190611747565b60405180910390f35b6100f560048036038101906100f091906117a2565b61041a565b005b34801561010357600080fd5b5061010c6109cf565b60405161011991906116ec565b60405180910390f35b61013c60048036038101906101379190611930565b610d25565b6040516101499190611a78565b60405180910390f35b60606000805467ffffffffffffffff81111561017157610170611805565b5b6040519080825280602002602001820160405280156101aa57816020015b610197611303565b81526020019060019003908161018f5790505b50905060005b6000548110156103e1576003600082815260200190815260200160002060405180610120016040529081600082015481526020016001820180546101f390611ac9565b80601f016020809104026020016040519081016040528092919081815260200182805461021f90611ac9565b801561026c5780601f106102415761010080835404028352916020019161026c565b820191906000526020600020905b81548152906001019060200180831161024f57829003601f168201915b505050505081526020016002820160009054906101000a900473ffffffffffffffffffffffffffffffffffffffff1673ffffffffffffffffffffffffffffffffffffffff1673ffffffffffffffffffffffffffffffffffffffff168152602001600382015481526020016004820160009054906101000a900473ffffffffffffffffffffffffffffffffffffffff1673ffffffffffffffffffffffffffffffffffffffff1673ffffffffffffffffffffffffffffffffffffffff1681526020016005820160009054906101000a900473ffffffffffffffffffffffffffffffffffffffff1673ffffffffffffffffffffffffffffffffffffffff1673ffffffffffffffffffffffffffffffffffffffff16815260200160068201548152602001600782015481526020016008820160009054906101000a900460ff1615151515815250508282815181106103c3576103c2611afb565b5b602002602001018190525080806103d990611b59565b9150506101b0565b508091505090565b60008054905090565b600060018054906101000a900473ffffffffffffffffffffffffffffffffffffffff16905090565b600060036000838152602001908152602001600020604051806101200160405290816000820154815260200160018201805461045590611ac9565b80601f016020809104026020016040519081016040528092919081815260200182805461048190611ac9565b80156104ce5780601f106104a3576101008083540402835291602001916104ce565b820191906000526020600020905b8154815290600101906020018083116104b157829003601f168201915b505050505081526020016002820160009054906101000a900473ffffffffffffffffffffffffffffffffffffffff1673ffffffffffffffffffffffffffffffffffffffff1673ffffffffffffffffffffffffffffffffffffffff168152602001600382015481526020016004820160009054906101000a900473ffffffffffffffffffffffffffffffffffffffff1673ffffffffffffffffffffffffffffffffffffffff1673ffffffffffffffffffffffffffffffffffffffff1681526020016005820160009054906101000a900473ffffffffffffffffffffffffffffffffffffffff1673ffffffffffffffffffffffffffffffffffffffff1673ffffffffffffffffffffffffffffffffffffffff16815260200160068201548152602001600782015481526020016008820160009054906101000a900460ff16151515158152505090508060c00151341461065a576040517f08c379a000000000000000000000000000000000000000000000000000000000815260040161065190611bff565b60405180910390fd5b3373ffffffffffffffffffffffffffffffffffffffff16816080015173ffffffffffffffffffffffffffffffffffffffff1614156106cd576040517f08c379a00000000000000000000000000000000000000000000000000000000081526004016106c490611c6b565b60405180910390fd5b6000816040015173ffffffffffffffffffffffffffffffffffffffff16636352211e83606001516040518263ffffffff1660e01b8152600401610710919061171d565b602060405180830381865afa15801561072d573d6000803e3d6000fd5b505050506040513d601f19601f820116820180604052508101906107519190611ca0565b90506000600190503373ffffffffffffffffffffffffffffffffffffffff168273ffffffffffffffffffffffffffffffffffffffff1614610801578260a0015173ffffffffffffffffffffffffffffffffffffffff168360e001516040516107b890611cfe565b60006040518083038185875af1925050503d80600081146107f5576040519150601f19603f3d011682016040523d82523d6000602084013e6107fa565b606091505b5050809150505b80610841576040517f08c379a000000000000000000000000000000000000000000000000000000000815260040161083890611d85565b60405180910390fd5b60008273ffffffffffffffffffffffffffffffffffffffff168460e001513461086a9190611da5565b60405161087690611cfe565b60006040518083038185875af1925050503d80600081146108b3576040519150601f19603f3d011682016040523d82523d6000602084013e6108b8565b606091505b50509050806108fc576040517f08c379a00000000000000000000000000000000000000000000000000000000081526004016108f390611e4b565b60405180910390fd5b836040015173ffffffffffffffffffffffffffffffffffffffff166323b872dd843387606001516040518463ffffffff1660e01b815260040161094193929190611e6b565b600060405180830381600087803b15801561095b57600080fd5b505af115801561096f573d6000803e3d6000fd5b50505050336003600087815260200190815260200160002060040160006101000a81548173ffffffffffffffffffffffffffffffffffffffff021916908373ffffffffffffffffffffffffffffffffffffffff1602179055505050505050565b60606000600460003373ffffffffffffffffffffffffffffffffffffffff1673ffffffffffffffffffffffffffffffffffffffff16815260200190815260200160002054905060008167ffffffffffffffff811115610a3157610a30611805565b5b604051908082528060200260200182016040528015610a6a57816020015b610a57611303565b815260200190600190039081610a4f5790505b5090506000805b600054811015610d1b573373ffffffffffffffffffffffffffffffffffffffff166003600083815260200190815260200160002060050160009054906101000a900473ffffffffffffffffffffffffffffffffffffffff1673ffffffffffffffffffffffffffffffffffffffff161415610d0857600360008381526020019081526020016000206040518061012001604052908160008201548152602001600182018054610b1e90611ac9565b80601f0160208091040260200160405190810160405280929190818152602001828054610b4a90611ac9565b8015610b975780601f10610b6c57610100808354040283529160200191610b97565b820191906000526020600020905b815481529060010190602001808311610b7a57829003601f168201915b505050505081526020016002820160009054906101000a900473ffffffffffffffffffffffffffffffffffffffff1673ffffffffffffffffffffffffffffffffffffffff1673ffffffffffffffffffffffffffffffffffffffff168152602001600382015481526020016004820160009054906101000a900473ffffffffffffffffffffffffffffffffffffffff1673ffffffffffffffffffffffffffffffffffffffff1673ffffffffffffffffffffffffffffffffffffffff1681526020016005820160009054906101000a900473ffffffffffffffffffffffffffffffffffffffff1673ffffffffffffffffffffffffffffffffffffffff1673ffffffffffffffffffffffffffffffffffffffff16815260200160068201548152602001600782015481526020016008820160009054906101000a900460ff161515151581525050838381518110610cee57610ced611afb565b5b60200260200101819052508180610d0490611b59565b9250505b8080610d1390611b59565b915050610a71565b5081935050505090565b610d2d611303565b600160009054906101000a900460ff1615610d7d576040517f08c379a0000000000000000000000000000000000000000000000000000000008152600401610d7490611eee565b60405180910390fd5b60018060006101000a81548160ff02191690831515021790555060008311610dda576040517f08c379a0000000000000000000000000000000000000000000000000000000008152600401610dd190611f5a565b60405180910390fd5b600254831015610e1f576040517f08c379a0000000000000000000000000000000000000000000000000000000008152600401610e1690611fec565b60405180910390fd5b60006064600a85610e30919061200c565b610e3a9190612095565b905060405180610120016040528060005481526020018481526020018773ffffffffffffffffffffffffffffffffffffffff1681526020018681526020013373ffffffffffffffffffffffffffffffffffffffff1681526020013373ffffffffffffffffffffffffffffffffffffffff168152602001858152602001828152602001600115158152506003600080548152602001908152602001600020600082015181600001556020820151816001019080519060200190610efd929190611393565b5060408201518160020160006101000a81548173ffffffffffffffffffffffffffffffffffffffff021916908373ffffffffffffffffffffffffffffffffffffffff1602179055506060820151816003015560808201518160040160006101000a81548173ffffffffffffffffffffffffffffffffffffffff021916908373ffffffffffffffffffffffffffffffffffffffff16021790555060a08201518160050160006101000a81548173ffffffffffffffffffffffffffffffffffffffff021916908373ffffffffffffffffffffffffffffffffffffffff16021790555060c0820151816006015560e082015181600701556101008201518160080160006101000a81548160ff021916908315150217905550905050848673ffffffffffffffffffffffffffffffffffffffff166000547fc3ff4a764c9b9e1277108ea23607246687fc68d2d8d7ad5ef37a8702d44437593333898760405161106594939291906120c6565b60405180910390a4600460003373ffffffffffffffffffffffffffffffffffffffff1673ffffffffffffffffffffffffffffffffffffffff16815260200190815260200160002060008154809291906110bd90611b59565b91905055506000808154809291906110d490611b59565b91905055506003600060016000546110ec9190611da5565b8152602001908152602001600020604051806101200160405290816000820154815260200160018201805461112090611ac9565b80601f016020809104026020016040519081016040528092919081815260200182805461114c90611ac9565b80156111995780601f1061116e57610100808354040283529160200191611199565b820191906000526020600020905b81548152906001019060200180831161117c57829003601f168201915b505050505081526020016002820160009054906101000a900473ffffffffffffffffffffffffffffffffffffffff1673ffffffffffffffffffffffffffffffffffffffff1673ffffffffffffffffffffffffffffffffffffffff168152602001600382015481526020016004820160009054906101000a900473ffffffffffffffffffffffffffffffffffffffff1673ffffffffffffffffffffffffffffffffffffffff1673ffffffffffffffffffffffffffffffffffffffff1681526020016005820160009054906101000a900473ffffffffffffffffffffffffffffffffffffffff1673ffffffffffffffffffffffffffffffffffffffff1673ffffffffffffffffffffffffffffffffffffffff16815260200160068201548152602001600782015481526020016008820160009054906101000a900460ff1615151515815250509150506000600160006101000a81548160ff021916908315150217905550949350505050565b6040518061012001604052806000815260200160608152602001600073ffffffffffffffffffffffffffffffffffffffff16815260200160008152602001600073ffffffffffffffffffffffffffffffffffffffff168152602001600073ffffffffffffffffffffffffffffffffffffffff16815260200160008152602001600081526020016000151581525090565b82805461139f90611ac9565b90600052602060002090601f0160209004810192826113c15760008555611408565b82601f106113da57805160ff1916838001178555611408565b82800160010185558215611408579182015b828111156114075782518255916020019190600101906113ec565b5b5090506114159190611419565b5090565b5b8082111561143257600081600090555060010161141a565b5090565b600081519050919050565b600082825260208201905092915050565b6000819050602082019050919050565b6000819050919050565b61147581611462565b82525050565b600081519050919050565b600082825260208201905092915050565b60005b838110156114b557808201518184015260208101905061149a565b838111156114c4576000848401525b50505050565b6000601f19601f8301169050919050565b60006114e68261147b565b6114f08185611486565b9350611500818560208601611497565b611509816114ca565b840191505092915050565b600073ffffffffffffffffffffffffffffffffffffffff82169050919050565b600061153f82611514565b9050919050565b61154f81611534565b82525050565b600061156082611514565b9050919050565b61157081611555565b82525050565b60008115159050919050565b61158b81611576565b82525050565b6000610120830160008301516115aa600086018261146c565b50602083015184820360208601526115c282826114db565b91505060408301516115d76040860182611546565b5060608301516115ea606086018261146c565b5060808301516115fd6080860182611567565b5060a083015161161060a0860182611567565b5060c083015161162360c086018261146c565b5060e083015161163660e086018261146c565b5061010083015161164b610100860182611582565b508091505092915050565b60006116628383611591565b905092915050565b6000602082019050919050565b600061168282611436565b61168c8185611441565b93508360208202850161169e85611452565b8060005b858110156116da57848403895281516116bb8582611656565b94506116c68361166a565b925060208a019950506001810190506116a2565b50829750879550505050505092915050565b600060208201905081810360008301526117068184611677565b905092915050565b61171781611462565b82525050565b6000602082019050611732600083018461170e565b92915050565b61174181611534565b82525050565b600060208201905061175c6000830184611738565b92915050565b6000604051905090565b600080fd5b600080fd5b61177f81611462565b811461178a57600080fd5b50565b60008135905061179c81611776565b92915050565b6000602082840312156117b8576117b761176c565b5b60006117c68482850161178d565b91505092915050565b6117d881611534565b81146117e357600080fd5b50565b6000813590506117f5816117cf565b92915050565b600080fd5b600080fd5b7f4e487b7100000000000000000000000000000000000000000000000000000000600052604160045260246000fd5b61183d826114ca565b810181811067ffffffffffffffff8211171561185c5761185b611805565b5b80604052505050565b600061186f611762565b905061187b8282611834565b919050565b600067ffffffffffffffff82111561189b5761189a611805565b5b6118a4826114ca565b9050602081019050919050565b82818337600083830152505050565b60006118d36118ce84611880565b611865565b9050828152602081018484840111156118ef576118ee611800565b5b6118fa8482856118b1565b509392505050565b600082601f830112611917576119166117fb565b5b81356119278482602086016118c0565b91505092915050565b6000806000806080858703121561194a5761194961176c565b5b6000611958878288016117e6565b94505060206119698782880161178d565b935050604061197a8782880161178d565b925050606085013567ffffffffffffffff81111561199b5761199a611771565b5b6119a787828801611902565b91505092959194509250565b6000610120830160008301516119cc600086018261146c565b50602083015184820360208601526119e482826114db565b91505060408301516119f96040860182611546565b506060830151611a0c606086018261146c565b506080830151611a1f6080860182611567565b5060a0830151611a3260a0860182611567565b5060c0830151611a4560c086018261146c565b5060e0830151611a5860e086018261146c565b50610100830151611a6d610100860182611582565b508091505092915050565b60006020820190508181036000830152611a9281846119b3565b905092915050565b7f4e487b7100000000000000000000000000000000000000000000000000000000600052602260045260246000fd5b60006002820490506001821680611ae157607f821691505b60208210811415611af557611af4611a9a565b5b50919050565b7f4e487b7100000000000000000000000000000000000000000000000000000000600052603260045260246000fd5b7f4e487b7100000000000000000000000000000000000000000000000000000000600052601160045260246000fd5b6000611b6482611462565b91507fffffffffffffffffffffffffffffffffffffffffffffffffffffffffffffffff821415611b9757611b96611b2a565b5b600182019050919050565b600082825260208201905092915050565b7f496e76616c696470726963652076616c75650000000000000000000000000000600082015250565b6000611be9601283611ba2565b9150611bf482611bb3565b602082019050919050565b60006020820190508181036000830152611c1881611bdc565b9050919050565b7f596f7520616c7265616479206f776e2074686973206974656d00000000000000600082015250565b6000611c55601983611ba2565b9150611c6082611c1f565b602082019050919050565b60006020820190508181036000830152611c8481611c48565b9050919050565b600081519050611c9a816117cf565b92915050565b600060208284031215611cb657611cb561176c565b5b6000611cc484828501611c8b565b91505092915050565b600081905092915050565b50565b6000611ce8600083611ccd565b9150611cf382611cd8565b600082019050919050565b6000611d0982611cdb565b9150819050919050565b7f43616e27742070726f6365656420776974686f757420706179696e6720726f7960008201527f616c69747920746f207468652063726561746f72000000000000000000000000602082015250565b6000611d6f603483611ba2565b9150611d7a82611d13565b604082019050919050565b60006020820190508181036000830152611d9e81611d62565b9050919050565b6000611db082611462565b9150611dbb83611462565b925082821015611dce57611dcd611b2a565b5b828203905092915050565b7f43616e27742070726f6365656420776974686f757420706179696e672074686560008201527f206f776e65720000000000000000000000000000000000000000000000000000602082015250565b6000611e35602683611ba2565b9150611e4082611dd9565b604082019050919050565b60006020820190508181036000830152611e6481611e28565b9050919050565b6000606082019050611e806000830186611738565b611e8d6020830185611738565b611e9a604083018461170e565b949350505050565b7f4e6f2072652d656e7472616e6379000000000000000000000000000000000000600082015250565b6000611ed8600e83611ba2565b9150611ee382611ea2565b602082019050919050565b60006020820190508181036000830152611f0781611ecb565b9050919050565b7f5072696365206d757374206265206174206c6561737420312077656900000000600082015250565b6000611f44601c83611ba2565b9150611f4f82611f0e565b602082019050919050565b60006020820190508181036000830152611f7381611f37565b9050919050565b7f5072696365206d7573742062652067726561746572207468616e206f7220657160008201527f75616c20746f206c697374696e672070726963652028302e3032352065746829602082015250565b6000611fd6604083611ba2565b9150611fe182611f7a565b604082019050919050565b6000602082019050818103600083015261200581611fc9565b9050919050565b600061201782611462565b915061202283611462565b9250817fffffffffffffffffffffffffffffffffffffffffffffffffffffffffffffffff048311821515161561205b5761205a611b2a565b5b828202905092915050565b7f4e487b7100000000000000000000000000000000000000000000000000000000600052601260045260246000fd5b60006120a082611462565b91506120ab83611462565b9250826120bb576120ba612066565b5b828204905092915050565b60006080820190506120db6000830187611738565b6120e86020830186611738565b6120f5604083018561170e565b612102606083018461170e565b9594505050505056fea2646970667358221220dbb03122e81f4f2050765806ed824e6563d29cc12348e79199862ce333841c3364736f6c634300080b0033",
  "immutableReferences": {},
  "source": "// SPDX-License-Identifier: MIT\npragma solidity ^0.8.11;\n\nimport \"../node_modules/@openzeppelin/contracts/token/ERC721/IERC721.sol\";\nimport \"../node_modules/@openzeppelin/contracts/token/ERC721/extensions/ERC721URIStorage.sol\";\n\ncontract NFTMarket {\n    struct MarketItem {\n        uint256 itemId;\n        string name;\n        address nftContract;\n        uint256 tokenId;\n        address payable owner;\n        address payable creator;\n        uint256 price;\n        uint256 royalityFee;\n        bool isSelling;\n    }\n\n    event MarketItemCreated (\n        uint256 indexed itemId,\n        address indexed nftContract,\n        uint256 indexed tokenId,\n        address owner,\n        address creator,\n        uint256 price,\n        uint256 royalityFee\n    );\n\n    event random(address addr);\n    event random2(string msg, address addr);\n\n    uint256 private itemId;\n    bool private locked = false;\n    address payable private owner;\n    uint256 listingPrice = 0.025 ether;\n    mapping(uint256 => MarketItem) private idToMarketItem;\n    mapping(address => uint256) private addressToItemsCreated;\n    uint256 private constant royality = 10;\n\n    constructor() {\n        itemId = 0;\n        owner = payable(msg.sender);\n    }\n\n    modifier lockEntry() {\n        require(!locked, \"No re-entrancy\");\n        locked = true;\n        _;\n        locked = false;\n    }\n\n    function getCurrentItemId() public view returns(uint256) {\n        return itemId;\n    }\n\n    function getOwner() public view returns(address) {\n        return owner;\n    }\n\n    function createMarketItem(\n        address nftContract, \n        uint256 tokenId,\n        uint256 price,\n        string memory name\n    ) public payable lockEntry returns(MarketItem memory) {\n        require(price > 0, \"Price must be at least 1 wei\");\n        require(price >= listingPrice, \"Price must be greater than or equal to listing price (0.025 eth)\");\n        uint256 itemRoyality = (price * royality) / 100;\n        idToMarketItem[itemId] =  MarketItem(\n            itemId,\n            name,\n            nftContract,\n            tokenId,\n            payable(msg.sender),\n            payable(msg.sender),\n            price,\n            itemRoyality,\n            true\n        );\n        \n        emit MarketItemCreated(\n            itemId,\n            nftContract,\n            tokenId,\n            msg.sender,\n            msg.sender,\n            price,\n            itemRoyality\n        );\n        addressToItemsCreated[msg.sender]++; \n        itemId++ ;\n        return idToMarketItem[itemId - 1];\n    }\n\n    // function sellMarketItem(\n    //     address nftContract,\n    //     uint256 mItemId\n    // ) public payable lockEntry {\n    //     MarketItem memory item = idToMarketItem[mItemId];\n\n    //     require(owner != msg.sender, \"Your already own this item\");\n    //     require(item.price > 0, \"Please submit the asking price in order to complete the purchase\");\n\n    //     address currentOwner = NFT(nftContract).ownerOf(item.tokenId);\n\n    //     bool success = item.creator == msg.sender;\n    //     if (currentOwner != msg.sender) {\n    //         (success, ) = payable(currentOwner).call{value: item.royalityFee}(\"\");\n    //     }\n    //     require(success, \"Can't proceed without paying royality to the creator\");\n\n    //     (bool success2, ) = payable(currentOwner).call{value: item.price - item.royalityFee}(\"\");\n    //     require(success2, \"Can't proceed without paying the owner\");\n    //     NFT(nftContract).transferFrom(currentOwner, msg.sender, item.tokenId);\n    //     idToMarketItem[mItemId].owner = payable(msg.sender);\n    // }\n    \n    function sellMarketItem(uint256 mItemId) public payable {\n        MarketItem memory item = idToMarketItem[mItemId];\n        require(msg.value == item.price, \"Invalidprice value\");\n        require(item.owner != msg.sender, \"You already own this item\");\n\n        address currentOwner = IERC721(item.nftContract).ownerOf(item.tokenId);\n        \n        bool success = true;\n        if (currentOwner != msg.sender) {\n            (success, ) = item.creator.call{value: item.royalityFee}(\"\");\n        }\n        require(success, \"Can't proceed without paying royality to the creator\");\n\n        (bool success2, ) = payable(currentOwner).call{value: msg.value - item.royalityFee}(\"\");\n        require(success2, \"Can't proceed without paying the owner\");\n        IERC721(item.nftContract).transferFrom(currentOwner, msg.sender, item.tokenId);\n        idToMarketItem[mItemId].owner = payable(msg.sender);\n    }\n\n    function getMarketItems() public view returns(MarketItem[] memory) {\n        MarketItem[] memory items = new MarketItem[](itemId);\n        for (uint256 index = 0; index < itemId; index++) {\n            items[index] = idToMarketItem[index];\n        }\n        return items;\n    }\n\n    function itemsCreatedByMe() public view returns(MarketItem[] memory) {\n        uint256 count = addressToItemsCreated[msg.sender];\n        MarketItem[] memory arr = new MarketItem[](count);\n        uint256 indx = 0;\n        for (uint256 index = 0; index < itemId; index++) {\n            if (idToMarketItem[index].creator == msg.sender) {\n                arr[indx] = idToMarketItem[indx];\n                indx++;\n            }\n        }\n        return arr;\n    }\n\n}",
  "sourcePath": "/Users/abhinavkhanduja/Desktop/BlockchainDevelopment/cryptagram/packages/client/contracts/NFTMarket.sol",
  "compiler": {
    "name": "solc",
    "version": "0.8.11+commit.d7f03943.Emscripten.clang"
  },
  "schemaVersion": "3.4.4",
  "updatedAt": "2022-02-14T10:19:06.428Z",
  "networkType": "ethereum",
  "devdoc": {
    "kind": "dev",
    "methods": {},
    "version": 1
  },
  "userdoc": {
    "kind": "user",
    "methods": {},
    "version": 1
  }
}