{
  "contractName": "NFTMarket",
  "abi": [
    {
      "inputs": [],
      "stateMutability": "nonpayable",
      "type": "constructor"
    },
    {
      "anonymous": false,
      "inputs": [
        {
          "indexed": true,
          "internalType": "uint256",
          "name": "itemId",
          "type": "uint256"
        },
        {
          "indexed": true,
          "internalType": "address",
          "name": "nftContract",
          "type": "address"
        },
        {
          "indexed": true,
          "internalType": "uint256",
          "name": "tokenId",
          "type": "uint256"
        },
        {
          "indexed": false,
          "internalType": "address",
          "name": "owner",
          "type": "address"
        },
        {
          "indexed": false,
          "internalType": "address",
          "name": "creator",
          "type": "address"
        },
        {
          "indexed": false,
          "internalType": "uint256",
          "name": "price",
          "type": "uint256"
        },
        {
          "indexed": false,
          "internalType": "uint256",
          "name": "royalityFee",
          "type": "uint256"
        }
      ],
      "name": "MarketItemCreated",
      "type": "event"
    },
    {
      "anonymous": false,
      "inputs": [
        {
          "indexed": false,
          "internalType": "address",
          "name": "addr",
          "type": "address"
        }
      ],
      "name": "random",
      "type": "event"
    },
    {
      "anonymous": false,
      "inputs": [
        {
          "indexed": false,
          "internalType": "string",
          "name": "msg",
          "type": "string"
        },
        {
          "indexed": false,
          "internalType": "address",
          "name": "addr",
          "type": "address"
        }
      ],
      "name": "random2",
      "type": "event"
    },
    {
      "inputs": [],
      "name": "getCurrentItemId",
      "outputs": [
        {
          "internalType": "uint256",
          "name": "",
          "type": "uint256"
        }
      ],
      "stateMutability": "view",
      "type": "function"
    },
    {
      "inputs": [],
      "name": "getOwner",
      "outputs": [
        {
          "internalType": "address",
          "name": "",
          "type": "address"
        }
      ],
      "stateMutability": "view",
      "type": "function"
    },
    {
      "inputs": [
        {
          "internalType": "address",
          "name": "nftContract",
          "type": "address"
        },
        {
          "internalType": "uint256",
          "name": "tokenId",
          "type": "uint256"
        },
        {
          "internalType": "uint256",
          "name": "price",
          "type": "uint256"
        },
        {
          "internalType": "string",
          "name": "name",
          "type": "string"
        },
        {
          "internalType": "bool",
          "name": "enlist",
          "type": "bool"
        }
      ],
      "name": "createMarketItem",
      "outputs": [
        {
          "components": [
            {
              "internalType": "uint256",
              "name": "itemId",
              "type": "uint256"
            },
            {
              "internalType": "string",
              "name": "name",
              "type": "string"
            },
            {
              "internalType": "address",
              "name": "nftContract",
              "type": "address"
            },
            {
              "internalType": "uint256",
              "name": "tokenId",
              "type": "uint256"
            },
            {
              "internalType": "address payable",
              "name": "owner",
              "type": "address"
            },
            {
              "internalType": "address payable",
              "name": "creator",
              "type": "address"
            },
            {
              "internalType": "uint256",
              "name": "price",
              "type": "uint256"
            },
            {
              "internalType": "uint256",
              "name": "royalityFee",
              "type": "uint256"
            },
            {
              "internalType": "bool",
              "name": "isSelling",
              "type": "bool"
            }
          ],
          "internalType": "struct NFTMarket.MarketItem",
          "name": "",
          "type": "tuple"
        }
      ],
      "stateMutability": "payable",
      "type": "function"
    },
    {
      "inputs": [
        {
          "internalType": "uint256",
          "name": "mItemId",
          "type": "uint256"
        },
        {
          "internalType": "address",
          "name": "to",
          "type": "address"
        }
      ],
      "name": "sellMarketItem",
      "outputs": [],
      "stateMutability": "payable",
      "type": "function"
    },
    {
      "inputs": [
        {
          "internalType": "uint256",
          "name": "mItemId",
          "type": "uint256"
        }
      ],
      "name": "changeSellingStatus",
      "outputs": [
        {
          "internalType": "string",
          "name": "",
          "type": "string"
        }
      ],
      "stateMutability": "nonpayable",
      "type": "function"
    },
    {
      "inputs": [],
      "name": "getContAddr",
      "outputs": [
        {
          "internalType": "address",
          "name": "",
          "type": "address"
        }
      ],
      "stateMutability": "view",
      "type": "function"
    },
    {
      "inputs": [],
      "name": "getMarketItems",
      "outputs": [
        {
          "components": [
            {
              "internalType": "uint256",
              "name": "itemId",
              "type": "uint256"
            },
            {
              "internalType": "string",
              "name": "name",
              "type": "string"
            },
            {
              "internalType": "address",
              "name": "nftContract",
              "type": "address"
            },
            {
              "internalType": "uint256",
              "name": "tokenId",
              "type": "uint256"
            },
            {
              "internalType": "address payable",
              "name": "owner",
              "type": "address"
            },
            {
              "internalType": "address payable",
              "name": "creator",
              "type": "address"
            },
            {
              "internalType": "uint256",
              "name": "price",
              "type": "uint256"
            },
            {
              "internalType": "uint256",
              "name": "royalityFee",
              "type": "uint256"
            },
            {
              "internalType": "bool",
              "name": "isSelling",
              "type": "bool"
            }
          ],
          "internalType": "struct NFTMarket.MarketItem[]",
          "name": "",
          "type": "tuple[]"
        }
      ],
      "stateMutability": "view",
      "type": "function"
    },
    {
      "inputs": [],
      "name": "itemsCreatedByMe",
      "outputs": [
        {
          "components": [
            {
              "internalType": "uint256",
              "name": "itemId",
              "type": "uint256"
            },
            {
              "internalType": "string",
              "name": "name",
              "type": "string"
            },
            {
              "internalType": "address",
              "name": "nftContract",
              "type": "address"
            },
            {
              "internalType": "uint256",
              "name": "tokenId",
              "type": "uint256"
            },
            {
              "internalType": "address payable",
              "name": "owner",
              "type": "address"
            },
            {
              "internalType": "address payable",
              "name": "creator",
              "type": "address"
            },
            {
              "internalType": "uint256",
              "name": "price",
              "type": "uint256"
            },
            {
              "internalType": "uint256",
              "name": "royalityFee",
              "type": "uint256"
            },
            {
              "internalType": "bool",
              "name": "isSelling",
              "type": "bool"
            }
          ],
          "internalType": "struct NFTMarket.MarketItem[]",
          "name": "",
          "type": "tuple[]"
        }
      ],
      "stateMutability": "view",
      "type": "function"
    },
    {
      "inputs": [],
      "name": "itemsCollected",
      "outputs": [
        {
          "components": [
            {
              "internalType": "uint256",
              "name": "itemId",
              "type": "uint256"
            },
            {
              "internalType": "string",
              "name": "name",
              "type": "string"
            },
            {
              "internalType": "address",
              "name": "nftContract",
              "type": "address"
            },
            {
              "internalType": "uint256",
              "name": "tokenId",
              "type": "uint256"
            },
            {
              "internalType": "address payable",
              "name": "owner",
              "type": "address"
            },
            {
              "internalType": "address payable",
              "name": "creator",
              "type": "address"
            },
            {
              "internalType": "uint256",
              "name": "price",
              "type": "uint256"
            },
            {
              "internalType": "uint256",
              "name": "royalityFee",
              "type": "uint256"
            },
            {
              "internalType": "bool",
              "name": "isSelling",
              "type": "bool"
            }
          ],
          "internalType": "struct NFTMarket.MarketItem[]",
          "name": "",
          "type": "tuple[]"
        }
      ],
      "stateMutability": "view",
      "type": "function"
    }
  ],
  "bytecode": "0x60806040526000600160006101000a81548160ff0219169083151502179055506658d15e1762800060025534801561003657600080fd5b5060008081905550336001806101000a81548173ffffffffffffffffffffffffffffffffffffffff021916908373ffffffffffffffffffffffffffffffffffffffff160217905550612c408061008d6000396000f3fe6080604052600436106100865760003560e01c8063893d20e811610059578063893d20e8146101285780638a98a95814610153578063ad9645f014610183578063aece3bfc146101ae578063f802f4bb146101eb57610086565b8063256cf31c1461008b57806329aa3a42146100b65780635f5e637f146100e157806368eb4949146100fd575b600080fd5b34801561009757600080fd5b506100a0610216565b6040516100ad9190611fe8565b60405180910390f35b3480156100c257600080fd5b506100cb61056c565b6040516100d89190611fe8565b60405180910390f35b6100fb60048036038101906100f69190612076565b610803565b005b34801561010957600080fd5b50610112610ed7565b60405161011f91906120c5565b60405180910390f35b34801561013457600080fd5b5061013d610ee0565b60405161014a91906120ef565b60405180910390f35b61016d6004803603810190610168919061226b565b610f08565b60405161017a91906123c7565b60405180910390f35b34801561018f57600080fd5b5061019861153b565b6040516101a59190611fe8565b60405180910390f35b3480156101ba57600080fd5b506101d560048036038101906101d091906123e9565b611891565b6040516101e29190612460565b60405180910390f35b3480156101f757600080fd5b50610200611bf7565b60405161020d91906120ef565b60405180910390f35b60606000600560003373ffffffffffffffffffffffffffffffffffffffff1673ffffffffffffffffffffffffffffffffffffffff16815260200190815260200160002054905060008167ffffffffffffffff81111561027857610277612114565b5b6040519080825280602002602001820160405280156102b157816020015b61029e611bff565b8152602001906001900390816102965790505b5090506000805b600054811015610562573373ffffffffffffffffffffffffffffffffffffffff166003600083815260200190815260200160002060040160009054906101000a900473ffffffffffffffffffffffffffffffffffffffff1673ffffffffffffffffffffffffffffffffffffffff16141561054f57600360008281526020019081526020016000206040518061012001604052908160008201548152602001600182018054610365906124b1565b80601f0160208091040260200160405190810160405280929190818152602001828054610391906124b1565b80156103de5780601f106103b3576101008083540402835291602001916103de565b820191906000526020600020905b8154815290600101906020018083116103c157829003601f168201915b505050505081526020016002820160009054906101000a900473ffffffffffffffffffffffffffffffffffffffff1673ffffffffffffffffffffffffffffffffffffffff1673ffffffffffffffffffffffffffffffffffffffff168152602001600382015481526020016004820160009054906101000a900473ffffffffffffffffffffffffffffffffffffffff1673ffffffffffffffffffffffffffffffffffffffff1673ffffffffffffffffffffffffffffffffffffffff1681526020016005820160009054906101000a900473ffffffffffffffffffffffffffffffffffffffff1673ffffffffffffffffffffffffffffffffffffffff1673ffffffffffffffffffffffffffffffffffffffff16815260200160068201548152602001600782015481526020016008820160009054906101000a900460ff161515151581525050838381518110610535576105346124e3565b5b6020026020010181905250818061054b90612541565b9250505b808061055a90612541565b9150506102b8565b5081935050505090565b60606000805467ffffffffffffffff81111561058b5761058a612114565b5b6040519080825280602002602001820160405280156105c457816020015b6105b1611bff565b8152602001906001900390816105a95790505b50905060005b6000548110156107fb5760036000828152602001908152602001600020604051806101200160405290816000820154815260200160018201805461060d906124b1565b80601f0160208091040260200160405190810160405280929190818152602001828054610639906124b1565b80156106865780601f1061065b57610100808354040283529160200191610686565b820191906000526020600020905b81548152906001019060200180831161066957829003601f168201915b505050505081526020016002820160009054906101000a900473ffffffffffffffffffffffffffffffffffffffff1673ffffffffffffffffffffffffffffffffffffffff1673ffffffffffffffffffffffffffffffffffffffff168152602001600382015481526020016004820160009054906101000a900473ffffffffffffffffffffffffffffffffffffffff1673ffffffffffffffffffffffffffffffffffffffff1673ffffffffffffffffffffffffffffffffffffffff1681526020016005820160009054906101000a900473ffffffffffffffffffffffffffffffffffffffff1673ffffffffffffffffffffffffffffffffffffffff1673ffffffffffffffffffffffffffffffffffffffff16815260200160068201548152602001600782015481526020016008820160009054906101000a900460ff1615151515815250508282815181106107dd576107dc6124e3565b5b602002602001018190525080806107f390612541565b9150506105ca565b508091505090565b600060036000848152602001908152602001600020604051806101200160405290816000820154815260200160018201805461083e906124b1565b80601f016020809104026020016040519081016040528092919081815260200182805461086a906124b1565b80156108b75780601f1061088c576101008083540402835291602001916108b7565b820191906000526020600020905b81548152906001019060200180831161089a57829003601f168201915b505050505081526020016002820160009054906101000a900473ffffffffffffffffffffffffffffffffffffffff1673ffffffffffffffffffffffffffffffffffffffff1673ffffffffffffffffffffffffffffffffffffffff168152602001600382015481526020016004820160009054906101000a900473ffffffffffffffffffffffffffffffffffffffff1673ffffffffffffffffffffffffffffffffffffffff1673ffffffffffffffffffffffffffffffffffffffff1681526020016005820160009054906101000a900473ffffffffffffffffffffffffffffffffffffffff1673ffffffffffffffffffffffffffffffffffffffff1673ffffffffffffffffffffffffffffffffffffffff16815260200160068201548152602001600782015481526020016008820160009054906101000a900460ff1615151515815250509050806101000151610a42576040517f08c379a0000000000000000000000000000000000000000000000000000000008152600401610a39906125d6565b60405180910390fd5b8060c001513414610a88576040517f08c379a0000000000000000000000000000000000000000000000000000000008152600401610a7f90612642565b60405180910390fd5b8173ffffffffffffffffffffffffffffffffffffffff16816080015173ffffffffffffffffffffffffffffffffffffffff161415610afb576040517f08c379a0000000000000000000000000000000000000000000000000000000008152600401610af2906126ae565b60405180910390fd5b6000816040015173ffffffffffffffffffffffffffffffffffffffff16636352211e83606001516040518263ffffffff1660e01b8152600401610b3e91906120c5565b602060405180830381865afa158015610b5b573d6000803e3d6000fd5b505050506040513d601f19601f82011682018060405250810190610b7f91906126e3565b90506000600190508373ffffffffffffffffffffffffffffffffffffffff168273ffffffffffffffffffffffffffffffffffffffff1614610c2f578260a0015173ffffffffffffffffffffffffffffffffffffffff168360e00151604051610be690612741565b60006040518083038185875af1925050503d8060008114610c23576040519150601f19603f3d011682016040523d82523d6000602084013e610c28565b606091505b5050809150505b80610c6f576040517f08c379a0000000000000000000000000000000000000000000000000000000008152600401610c66906127c8565b60405180910390fd5b60008273ffffffffffffffffffffffffffffffffffffffff168460e0015134610c9891906127e8565b604051610ca490612741565b60006040518083038185875af1925050503d8060008114610ce1576040519150601f19603f3d011682016040523d82523d6000602084013e610ce6565b606091505b5050905080610d2a576040517f08c379a0000000000000000000000000000000000000000000000000000000008152600401610d219061288e565b60405180910390fd5b836040015173ffffffffffffffffffffffffffffffffffffffff166323b872dd848787606001516040518463ffffffff1660e01b8152600401610d6f939291906128ae565b600060405180830381600087803b158015610d8957600080fd5b505af1158015610d9d573d6000803e3d6000fd5b50505050600560008473ffffffffffffffffffffffffffffffffffffffff1673ffffffffffffffffffffffffffffffffffffffff1681526020019081526020016000206000815480929190610df1906128e5565b9190505550600560008673ffffffffffffffffffffffffffffffffffffffff1673ffffffffffffffffffffffffffffffffffffffff1681526020019081526020016000206000815480929190610e4690612541565b9190505550846003600088815260200190815260200160002060040160006101000a81548173ffffffffffffffffffffffffffffffffffffffff021916908373ffffffffffffffffffffffffffffffffffffffff16021790555060006003600088815260200190815260200160002060080160006101000a81548160ff021916908315150217905550505050505050565b60008054905090565b600060018054906101000a900473ffffffffffffffffffffffffffffffffffffffff16905090565b610f10611bff565b600160009054906101000a900460ff1615610f60576040517f08c379a0000000000000000000000000000000000000000000000000000000008152600401610f579061295b565b60405180910390fd5b60018060006101000a81548160ff02191690831515021790555060008411610fbd576040517f08c379a0000000000000000000000000000000000000000000000000000000008152600401610fb4906129c7565b60405180910390fd5b600254841015611002576040517f08c379a0000000000000000000000000000000000000000000000000000000008152600401610ff990612a59565b60405180910390fd5b60006064600a866110139190612a79565b61101d9190612b02565b905060405180610120016040528060005481526020018581526020018873ffffffffffffffffffffffffffffffffffffffff1681526020018781526020013373ffffffffffffffffffffffffffffffffffffffff1681526020013373ffffffffffffffffffffffffffffffffffffffff16815260200186815260200182815260200184151581525060036000805481526020019081526020016000206000820151816000015560208201518160010190805190602001906110df929190611c8f565b5060408201518160020160006101000a81548173ffffffffffffffffffffffffffffffffffffffff021916908373ffffffffffffffffffffffffffffffffffffffff1602179055506060820151816003015560808201518160040160006101000a81548173ffffffffffffffffffffffffffffffffffffffff021916908373ffffffffffffffffffffffffffffffffffffffff16021790555060a08201518160050160006101000a81548173ffffffffffffffffffffffffffffffffffffffff021916908373ffffffffffffffffffffffffffffffffffffffff16021790555060c0820151816006015560e082015181600701556101008201518160080160006101000a81548160ff021916908315150217905550905050858773ffffffffffffffffffffffffffffffffffffffff166000547fc3ff4a764c9b9e1277108ea23607246687fc68d2d8d7ad5ef37a8702d444375933338a876040516112479493929190612b33565b60405180910390a4600460003373ffffffffffffffffffffffffffffffffffffffff1673ffffffffffffffffffffffffffffffffffffffff168152602001908152602001600020600081548092919061129f90612541565b9190505550600560003373ffffffffffffffffffffffffffffffffffffffff1673ffffffffffffffffffffffffffffffffffffffff16815260200190815260200160002060008154809291906112f490612541565b919050555060008081548092919061130b90612541565b919050555060036000600160005461132391906127e8565b81526020019081526020016000206040518061012001604052908160008201548152602001600182018054611357906124b1565b80601f0160208091040260200160405190810160405280929190818152602001828054611383906124b1565b80156113d05780601f106113a5576101008083540402835291602001916113d0565b820191906000526020600020905b8154815290600101906020018083116113b357829003601f168201915b505050505081526020016002820160009054906101000a900473ffffffffffffffffffffffffffffffffffffffff1673ffffffffffffffffffffffffffffffffffffffff1673ffffffffffffffffffffffffffffffffffffffff168152602001600382015481526020016004820160009054906101000a900473ffffffffffffffffffffffffffffffffffffffff1673ffffffffffffffffffffffffffffffffffffffff1673ffffffffffffffffffffffffffffffffffffffff1681526020016005820160009054906101000a900473ffffffffffffffffffffffffffffffffffffffff1673ffffffffffffffffffffffffffffffffffffffff1673ffffffffffffffffffffffffffffffffffffffff16815260200160068201548152602001600782015481526020016008820160009054906101000a900460ff1615151515815250509150506000600160006101000a81548160ff02191690831515021790555095945050505050565b60606000600460003373ffffffffffffffffffffffffffffffffffffffff1673ffffffffffffffffffffffffffffffffffffffff16815260200190815260200160002054905060008167ffffffffffffffff81111561159d5761159c612114565b5b6040519080825280602002602001820160405280156115d657816020015b6115c3611bff565b8152602001906001900390816115bb5790505b5090506000805b600054811015611887573373ffffffffffffffffffffffffffffffffffffffff166003600083815260200190815260200160002060050160009054906101000a900473ffffffffffffffffffffffffffffffffffffffff1673ffffffffffffffffffffffffffffffffffffffff1614156118745760036000828152602001908152602001600020604051806101200160405290816000820154815260200160018201805461168a906124b1565b80601f01602080910402602001604051908101604052809291908181526020018280546116b6906124b1565b80156117035780601f106116d857610100808354040283529160200191611703565b820191906000526020600020905b8154815290600101906020018083116116e657829003601f168201915b505050505081526020016002820160009054906101000a900473ffffffffffffffffffffffffffffffffffffffff1673ffffffffffffffffffffffffffffffffffffffff1673ffffffffffffffffffffffffffffffffffffffff168152602001600382015481526020016004820160009054906101000a900473ffffffffffffffffffffffffffffffffffffffff1673ffffffffffffffffffffffffffffffffffffffff1673ffffffffffffffffffffffffffffffffffffffff1681526020016005820160009054906101000a900473ffffffffffffffffffffffffffffffffffffffff1673ffffffffffffffffffffffffffffffffffffffff1673ffffffffffffffffffffffffffffffffffffffff16815260200160068201548152602001600782015481526020016008820160009054906101000a900460ff16151515158152505083838151811061185a576118596124e3565b5b6020026020010181905250818061187090612541565b9250505b808061187f90612541565b9150506115dd565b5081935050505090565b606060006003600084815260200190815260200160002060405180610120016040529081600082015481526020016001820180546118ce906124b1565b80601f01602080910402602001604051908101604052809291908181526020018280546118fa906124b1565b80156119475780601f1061191c57610100808354040283529160200191611947565b820191906000526020600020905b81548152906001019060200180831161192a57829003601f168201915b505050505081526020016002820160009054906101000a900473ffffffffffffffffffffffffffffffffffffffff1673ffffffffffffffffffffffffffffffffffffffff1673ffffffffffffffffffffffffffffffffffffffff168152602001600382015481526020016004820160009054906101000a900473ffffffffffffffffffffffffffffffffffffffff1673ffffffffffffffffffffffffffffffffffffffff1673ffffffffffffffffffffffffffffffffffffffff1681526020016005820160009054906101000a900473ffffffffffffffffffffffffffffffffffffffff1673ffffffffffffffffffffffffffffffffffffffff1673ffffffffffffffffffffffffffffffffffffffff16815260200160068201548152602001600782015481526020016008820160009054906101000a900460ff16151515158152505090503373ffffffffffffffffffffffffffffffffffffffff16816080015173ffffffffffffffffffffffffffffffffffffffff1614611aff576040517f08c379a0000000000000000000000000000000000000000000000000000000008152600401611af690612bea565b60405180910390fd5b6003600084815260200190815260200160002060080160009054906101000a900460ff16156003600085815260200190815260200160002060080160006101000a81548160ff0219169083151502179055506003600084815260200190815260200160002060080160009054906101000a900460ff1615611bb8576040518060400160405280600881526020017f494620424c4f434b000000000000000000000000000000000000000000000000815250915050611bf2565b6040518060400160405280600a81526020017f454c534520424c4f434b000000000000000000000000000000000000000000008152509150505b919050565b600030905090565b6040518061012001604052806000815260200160608152602001600073ffffffffffffffffffffffffffffffffffffffff16815260200160008152602001600073ffffffffffffffffffffffffffffffffffffffff168152602001600073ffffffffffffffffffffffffffffffffffffffff16815260200160008152602001600081526020016000151581525090565b828054611c9b906124b1565b90600052602060002090601f016020900481019282611cbd5760008555611d04565b82601f10611cd657805160ff1916838001178555611d04565b82800160010185558215611d04579182015b82811115611d03578251825591602001919060010190611ce8565b5b509050611d119190611d15565b5090565b5b80821115611d2e576000816000905550600101611d16565b5090565b600081519050919050565b600082825260208201905092915050565b6000819050602082019050919050565b6000819050919050565b611d7181611d5e565b82525050565b600081519050919050565b600082825260208201905092915050565b60005b83811015611db1578082015181840152602081019050611d96565b83811115611dc0576000848401525b50505050565b6000601f19601f8301169050919050565b6000611de282611d77565b611dec8185611d82565b9350611dfc818560208601611d93565b611e0581611dc6565b840191505092915050565b600073ffffffffffffffffffffffffffffffffffffffff82169050919050565b6000611e3b82611e10565b9050919050565b611e4b81611e30565b82525050565b6000611e5c82611e10565b9050919050565b611e6c81611e51565b82525050565b60008115159050919050565b611e8781611e72565b82525050565b600061012083016000830151611ea66000860182611d68565b5060208301518482036020860152611ebe8282611dd7565b9150506040830151611ed36040860182611e42565b506060830151611ee66060860182611d68565b506080830151611ef96080860182611e63565b5060a0830151611f0c60a0860182611e63565b5060c0830151611f1f60c0860182611d68565b5060e0830151611f3260e0860182611d68565b50610100830151611f47610100860182611e7e565b508091505092915050565b6000611f5e8383611e8d565b905092915050565b6000602082019050919050565b6000611f7e82611d32565b611f888185611d3d565b935083602082028501611f9a85611d4e565b8060005b85811015611fd65784840389528151611fb78582611f52565b9450611fc283611f66565b925060208a01995050600181019050611f9e565b50829750879550505050505092915050565b600060208201905081810360008301526120028184611f73565b905092915050565b6000604051905090565b600080fd5b600080fd5b61202781611d5e565b811461203257600080fd5b50565b6000813590506120448161201e565b92915050565b61205381611e30565b811461205e57600080fd5b50565b6000813590506120708161204a565b92915050565b6000806040838503121561208d5761208c612014565b5b600061209b85828601612035565b92505060206120ac85828601612061565b9150509250929050565b6120bf81611d5e565b82525050565b60006020820190506120da60008301846120b6565b92915050565b6120e981611e30565b82525050565b600060208201905061210460008301846120e0565b92915050565b600080fd5b600080fd5b7f4e487b7100000000000000000000000000000000000000000000000000000000600052604160045260246000fd5b61214c82611dc6565b810181811067ffffffffffffffff8211171561216b5761216a612114565b5b80604052505050565b600061217e61200a565b905061218a8282612143565b919050565b600067ffffffffffffffff8211156121aa576121a9612114565b5b6121b382611dc6565b9050602081019050919050565b82818337600083830152505050565b60006121e26121dd8461218f565b612174565b9050828152602081018484840111156121fe576121fd61210f565b5b6122098482856121c0565b509392505050565b600082601f8301126122265761222561210a565b5b81356122368482602086016121cf565b91505092915050565b61224881611e72565b811461225357600080fd5b50565b6000813590506122658161223f565b92915050565b600080600080600060a0868803121561228757612286612014565b5b600061229588828901612061565b95505060206122a688828901612035565b94505060406122b788828901612035565b935050606086013567ffffffffffffffff8111156122d8576122d7612019565b5b6122e488828901612211565b92505060806122f588828901612256565b9150509295509295909350565b60006101208301600083015161231b6000860182611d68565b50602083015184820360208601526123338282611dd7565b91505060408301516123486040860182611e42565b50606083015161235b6060860182611d68565b50608083015161236e6080860182611e63565b5060a083015161238160a0860182611e63565b5060c083015161239460c0860182611d68565b5060e08301516123a760e0860182611d68565b506101008301516123bc610100860182611e7e565b508091505092915050565b600060208201905081810360008301526123e18184612302565b905092915050565b6000602082840312156123ff576123fe612014565b5b600061240d84828501612035565b91505092915050565b600082825260208201905092915050565b600061243282611d77565b61243c8185612416565b935061244c818560208601611d93565b61245581611dc6565b840191505092915050565b6000602082019050818103600083015261247a8184612427565b905092915050565b7f4e487b7100000000000000000000000000000000000000000000000000000000600052602260045260246000fd5b600060028204905060018216806124c957607f821691505b602082108114156124dd576124dc612482565b5b50919050565b7f4e487b7100000000000000000000000000000000000000000000000000000000600052603260045260246000fd5b7f4e487b7100000000000000000000000000000000000000000000000000000000600052601160045260246000fd5b600061254c82611d5e565b91507fffffffffffffffffffffffffffffffffffffffffffffffffffffffffffffffff82141561257f5761257e612512565b5b600182019050919050565b7f4974656d206e6f7420666f722073616c65000000000000000000000000000000600082015250565b60006125c0601183612416565b91506125cb8261258a565b602082019050919050565b600060208201905081810360008301526125ef816125b3565b9050919050565b7f496e76616c69642070726963652076616c756500000000000000000000000000600082015250565b600061262c601383612416565b9150612637826125f6565b602082019050919050565b6000602082019050818103600083015261265b8161261f565b9050919050565b7f596f7520616c7265616479206f776e2074686973206974656d00000000000000600082015250565b6000612698601983612416565b91506126a382612662565b602082019050919050565b600060208201905081810360008301526126c78161268b565b9050919050565b6000815190506126dd8161204a565b92915050565b6000602082840312156126f9576126f8612014565b5b6000612707848285016126ce565b91505092915050565b600081905092915050565b50565b600061272b600083612710565b91506127368261271b565b600082019050919050565b600061274c8261271e565b9150819050919050565b7f43616e27742070726f6365656420776974686f757420706179696e6720726f7960008201527f616c69747920746f207468652063726561746f72000000000000000000000000602082015250565b60006127b2603483612416565b91506127bd82612756565b604082019050919050565b600060208201905081810360008301526127e1816127a5565b9050919050565b60006127f382611d5e565b91506127fe83611d5e565b92508282101561281157612810612512565b5b828203905092915050565b7f43616e27742070726f6365656420776974686f757420706179696e672074686560008201527f206f776e65720000000000000000000000000000000000000000000000000000602082015250565b6000612878602683612416565b91506128838261281c565b604082019050919050565b600060208201905081810360008301526128a78161286b565b9050919050565b60006060820190506128c360008301866120e0565b6128d060208301856120e0565b6128dd60408301846120b6565b949350505050565b60006128f082611d5e565b9150600082141561290457612903612512565b5b600182039050919050565b7f4e6f2072652d656e7472616e6379000000000000000000000000000000000000600082015250565b6000612945600e83612416565b91506129508261290f565b602082019050919050565b6000602082019050818103600083015261297481612938565b9050919050565b7f5072696365206d757374206265206174206c6561737420312077656900000000600082015250565b60006129b1601c83612416565b91506129bc8261297b565b602082019050919050565b600060208201905081810360008301526129e0816129a4565b9050919050565b7f5072696365206d7573742062652067726561746572207468616e206f7220657160008201527f75616c20746f206c697374696e672070726963652028302e3032352065746829602082015250565b6000612a43604083612416565b9150612a4e826129e7565b604082019050919050565b60006020820190508181036000830152612a7281612a36565b9050919050565b6000612a8482611d5e565b9150612a8f83611d5e565b9250817fffffffffffffffffffffffffffffffffffffffffffffffffffffffffffffffff0483118215151615612ac857612ac7612512565b5b828202905092915050565b7f4e487b7100000000000000000000000000000000000000000000000000000000600052601260045260246000fd5b6000612b0d82611d5e565b9150612b1883611d5e565b925082612b2857612b27612ad3565b5b828204905092915050565b6000608082019050612b4860008301876120e0565b612b5560208301866120e0565b612b6260408301856120b6565b612b6f60608301846120b6565b95945050505050565b7f4f6e6c79206974656d206f776e65722063616e206368616e676520746865207360008201527f7461747573000000000000000000000000000000000000000000000000000000602082015250565b6000612bd4602583612416565b9150612bdf82612b78565b604082019050919050565b60006020820190508181036000830152612c0381612bc7565b905091905056fea264697066735822122013cd230e49cd3fe5ace809e13fd1e4e5c491c2e6c806b03b6dc75e75ce26f60164736f6c634300080c0033",
  "immutableReferences": {},
  "source": "// SPDX-License-Identifier: MIT\npragma solidity ^0.8.11;\n\nimport \"../node_modules/@openzeppelin/contracts/token/ERC721/IERC721.sol\";\nimport \"../node_modules/@openzeppelin/contracts/token/ERC721/extensions/ERC721URIStorage.sol\";\n\ncontract NFTMarket {\n    struct MarketItem {\n        uint256 itemId;\n        string name;\n        address nftContract;\n        uint256 tokenId;\n        address payable owner;\n        address payable creator;\n        uint256 price;\n        uint256 royalityFee;\n        bool isSelling;\n    }\n\n    event MarketItemCreated (\n        uint256 indexed itemId,\n        address indexed nftContract,\n        uint256 indexed tokenId,\n        address owner,\n        address creator,\n        uint256 price,\n        uint256 royalityFee\n    );\n\n    event random(address addr);\n    event random2(string msg, address addr);\n\n    uint256 private itemId;\n    bool private locked = false;\n    address payable private owner;\n    uint256 listingPrice = 0.025 ether;\n    mapping(uint256 => MarketItem) private idToMarketItem;\n    mapping(address => uint256) private addressToItemsCreated;\n    mapping(address => uint256) private addressToItemsCollected;\n    uint256 private constant royality = 10;\n\n    constructor() {\n        itemId = 0;\n        owner = payable(msg.sender);\n    }\n\n    modifier lockEntry() {\n        require(!locked, \"No re-entrancy\");\n        locked = true;\n        _;\n        locked = false;\n    }\n\n    function getCurrentItemId() public view returns(uint256) {\n        return itemId;\n    }\n\n    function getOwner() public view returns(address) {\n        return owner;\n    }\n\n    function createMarketItem(\n        address nftContract, \n        uint256 tokenId,\n        uint256 price,\n        string memory name,\n        bool enlist\n    ) public payable lockEntry returns(MarketItem memory) {\n        require(price > 0, \"Price must be at least 1 wei\");\n        require(price >= listingPrice, \"Price must be greater than or equal to listing price (0.025 eth)\");\n        uint256 itemRoyality = (price * royality) / 100;\n        idToMarketItem[itemId] =  MarketItem(\n            itemId,\n            name,\n            nftContract,\n            tokenId,\n            payable(msg.sender),\n            payable(msg.sender),\n            price,\n            itemRoyality,\n            enlist\n        );\n        \n        emit MarketItemCreated(\n            itemId,\n            nftContract,\n            tokenId,\n            msg.sender,\n            msg.sender,\n            price,\n            itemRoyality\n        );\n        addressToItemsCreated[msg.sender]++;\n        addressToItemsCollected[msg.sender]++;\n        itemId++ ;\n        return idToMarketItem[itemId - 1];\n    }\n    \n    function sellMarketItem(uint256 mItemId, address to) public payable {\n        MarketItem memory item = idToMarketItem[mItemId];\n        require(item.isSelling, \"Item not for sale\");\n        require(msg.value == item.price, \"Invalid price value\");\n        require(item.owner != to, \"You already own this item\");\n\n        address currentOwner = IERC721(item.nftContract).ownerOf(item.tokenId);\n        \n        bool success = true;\n        if (currentOwner != to) {\n            (success, ) = item.creator.call{value: item.royalityFee}(\"\");\n        }\n        require(success, \"Can't proceed without paying royality to the creator\");\n\n        (bool success2, ) = payable(currentOwner).call{value: msg.value - item.royalityFee}(\"\");\n        require(success2, \"Can't proceed without paying the owner\");\n        IERC721(item.nftContract).transferFrom(currentOwner, to, item.tokenId);\n        addressToItemsCollected[currentOwner]--;\n        addressToItemsCollected[to]++;\n        idToMarketItem[mItemId].owner = payable(to);\n        idToMarketItem[mItemId].isSelling = false;\n    }\n\n    function changeSellingStatus(uint256 mItemId) public returns(string memory) {\n        MarketItem memory item = idToMarketItem[mItemId];\n        require(item.owner == msg.sender, \"Only item owner can change the status\");\n        idToMarketItem[mItemId].isSelling = !idToMarketItem[mItemId].isSelling;\n\n        // return idToMarketItem[mItemId].isSelling;\n        if (idToMarketItem[mItemId].isSelling) {\n            return \"IF BLOCK\";\n            // IERC721(item.nftContract).approve(address(this), item.tokenId);\n            // IERC721(item.nftContract).setApprovalForAll(address(this), true);\n        }else {\n            // IERC721(item.nftContract).setApprovalForAll(item.owner, true);\n            return \"ELSE BLOCK\";\n        }\n    }\n\n    function getContAddr() public view returns(address) {\n        return address(this);    \n    }\n\n    function getMarketItems() public view returns(MarketItem[] memory) {\n        MarketItem[] memory items = new MarketItem[](itemId);\n        for (uint256 index = 0; index < itemId; index++) {\n            items[index] = idToMarketItem[index];\n        }\n        return items;\n    }\n\n    function itemsCreatedByMe() public view returns(MarketItem[] memory) {\n        uint256 count = addressToItemsCreated[msg.sender];\n        MarketItem[] memory arr = new MarketItem[](count);\n        uint256 indx = 0;\n        for (uint256 index = 0; index < itemId; index++) {\n            if (idToMarketItem[index].creator == msg.sender) {\n                arr[indx] = idToMarketItem[index];\n                indx++;\n            }\n        }\n        return arr;\n    }\n    \n    function itemsCollected() public view returns(MarketItem[] memory) {\n        uint256 count = addressToItemsCollected[msg.sender];\n        MarketItem[] memory arr = new MarketItem[](count);\n        uint256 indx = 0;\n        for (uint256 index = 0; index < itemId; index++) {\n            if (idToMarketItem[index].owner == msg.sender) {\n                arr[indx] = idToMarketItem[index];\n                indx++;\n            }\n        }\n        return arr;\n    }\n\n}",
  "sourcePath": "/Users/abhinavkhanduja/Desktop/BlockchainDevelopment/cryptagram/packages/client/contracts/NFTMarket.sol",
  "compiler": {
    "name": "solc",
    "version": "0.8.12+commit.f00d7308.Emscripten.clang"
  },
  "schemaVersion": "3.4.4",
  "updatedAt": "2022-02-18T10:29:11.820Z",
  "devdoc": {
    "kind": "dev",
    "methods": {},
    "version": 1
  },
  "userdoc": {
    "kind": "user",
    "methods": {},
    "version": 1
  }
}