{
  "contractName": "NFTMarket",
  "abi": [
    {
      "inputs": [],
      "stateMutability": "nonpayable",
      "type": "constructor"
    },
    {
      "anonymous": false,
      "inputs": [
        {
          "indexed": true,
          "internalType": "uint256",
          "name": "itemId",
          "type": "uint256"
        },
        {
          "indexed": true,
          "internalType": "address",
          "name": "nftContract",
          "type": "address"
        },
        {
          "indexed": true,
          "internalType": "uint256",
          "name": "tokenId",
          "type": "uint256"
        },
        {
          "indexed": false,
          "internalType": "address",
          "name": "owner",
          "type": "address"
        },
        {
          "indexed": false,
          "internalType": "address",
          "name": "creator",
          "type": "address"
        },
        {
          "indexed": false,
          "internalType": "uint256",
          "name": "price",
          "type": "uint256"
        },
        {
          "indexed": false,
          "internalType": "uint256",
          "name": "royalityFee",
          "type": "uint256"
        }
      ],
      "name": "MarketItemCreated",
      "type": "event"
    },
    {
      "anonymous": false,
      "inputs": [
        {
          "indexed": false,
          "internalType": "address",
          "name": "addr",
          "type": "address"
        }
      ],
      "name": "random",
      "type": "event"
    },
    {
      "anonymous": false,
      "inputs": [
        {
          "indexed": false,
          "internalType": "string",
          "name": "msg",
          "type": "string"
        },
        {
          "indexed": false,
          "internalType": "address",
          "name": "addr",
          "type": "address"
        }
      ],
      "name": "random2",
      "type": "event"
    },
    {
      "inputs": [],
      "name": "getCurrentItemId",
      "outputs": [
        {
          "internalType": "uint256",
          "name": "",
          "type": "uint256"
        }
      ],
      "stateMutability": "view",
      "type": "function"
    },
    {
      "inputs": [
        {
          "internalType": "address",
          "name": "nftContract",
          "type": "address"
        },
        {
          "internalType": "uint256",
          "name": "tokenId",
          "type": "uint256"
        },
        {
          "internalType": "uint256",
          "name": "price",
          "type": "uint256"
        },
        {
          "internalType": "string",
          "name": "name",
          "type": "string"
        }
      ],
      "name": "createMarketItem",
      "outputs": [
        {
          "components": [
            {
              "internalType": "uint256",
              "name": "itemId",
              "type": "uint256"
            },
            {
              "internalType": "string",
              "name": "name",
              "type": "string"
            },
            {
              "internalType": "address",
              "name": "nftContract",
              "type": "address"
            },
            {
              "internalType": "uint256",
              "name": "tokenId",
              "type": "uint256"
            },
            {
              "internalType": "address payable",
              "name": "owner",
              "type": "address"
            },
            {
              "internalType": "address payable",
              "name": "creator",
              "type": "address"
            },
            {
              "internalType": "uint256",
              "name": "price",
              "type": "uint256"
            },
            {
              "internalType": "uint256",
              "name": "royalityFee",
              "type": "uint256"
            }
          ],
          "internalType": "struct NFTMarket.MarketItem",
          "name": "",
          "type": "tuple"
        }
      ],
      "stateMutability": "payable",
      "type": "function"
    },
    {
      "inputs": [
        {
          "internalType": "uint256",
          "name": "mItemId",
          "type": "uint256"
        }
      ],
      "name": "sellMarketItem",
      "outputs": [],
      "stateMutability": "payable",
      "type": "function"
    },
    {
      "inputs": [],
      "name": "getMarketItems",
      "outputs": [
        {
          "components": [
            {
              "internalType": "uint256",
              "name": "itemId",
              "type": "uint256"
            },
            {
              "internalType": "string",
              "name": "name",
              "type": "string"
            },
            {
              "internalType": "address",
              "name": "nftContract",
              "type": "address"
            },
            {
              "internalType": "uint256",
              "name": "tokenId",
              "type": "uint256"
            },
            {
              "internalType": "address payable",
              "name": "owner",
              "type": "address"
            },
            {
              "internalType": "address payable",
              "name": "creator",
              "type": "address"
            },
            {
              "internalType": "uint256",
              "name": "price",
              "type": "uint256"
            },
            {
              "internalType": "uint256",
              "name": "royalityFee",
              "type": "uint256"
            }
          ],
          "internalType": "struct NFTMarket.MarketItem[]",
          "name": "",
          "type": "tuple[]"
        }
      ],
      "stateMutability": "view",
      "type": "function"
    },
    {
      "inputs": [],
      "name": "itemsCreatedByMe",
      "outputs": [
        {
          "components": [
            {
              "internalType": "uint256",
              "name": "itemId",
              "type": "uint256"
            },
            {
              "internalType": "string",
              "name": "name",
              "type": "string"
            },
            {
              "internalType": "address",
              "name": "nftContract",
              "type": "address"
            },
            {
              "internalType": "uint256",
              "name": "tokenId",
              "type": "uint256"
            },
            {
              "internalType": "address payable",
              "name": "owner",
              "type": "address"
            },
            {
              "internalType": "address payable",
              "name": "creator",
              "type": "address"
            },
            {
              "internalType": "uint256",
              "name": "price",
              "type": "uint256"
            },
            {
              "internalType": "uint256",
              "name": "royalityFee",
              "type": "uint256"
            }
          ],
          "internalType": "struct NFTMarket.MarketItem[]",
          "name": "",
          "type": "tuple[]"
        }
      ],
      "stateMutability": "view",
      "type": "function"
    },
    {
      "inputs": [],
      "name": "itemsCollected",
      "outputs": [
        {
          "components": [
            {
              "internalType": "uint256",
              "name": "itemId",
              "type": "uint256"
            },
            {
              "internalType": "string",
              "name": "name",
              "type": "string"
            },
            {
              "internalType": "address",
              "name": "nftContract",
              "type": "address"
            },
            {
              "internalType": "uint256",
              "name": "tokenId",
              "type": "uint256"
            },
            {
              "internalType": "address payable",
              "name": "owner",
              "type": "address"
            },
            {
              "internalType": "address payable",
              "name": "creator",
              "type": "address"
            },
            {
              "internalType": "uint256",
              "name": "price",
              "type": "uint256"
            },
            {
              "internalType": "uint256",
              "name": "royalityFee",
              "type": "uint256"
            }
          ],
          "internalType": "struct NFTMarket.MarketItem[]",
          "name": "",
          "type": "tuple[]"
        }
      ],
      "stateMutability": "view",
      "type": "function"
    }
  ],
  "bytecode": "0x60806040526000600160006101000a81548160ff0219169083151502179055506658d15e1762800060025534801561003657600080fd5b50600080819055506125078061004d6000396000f3fe6080604052600436106100555760003560e01c8063256cf31c1461005a57806329aa3a421461008557806368eb4949146100b057806391ddfe0a146100db578063ad9645f0146100f7578063ee45a71114610122575b600080fd5b34801561006657600080fd5b5061006f610152565b60405161007c9190611a4c565b60405180910390f35b34801561009157600080fd5b5061009a61048d565b6040516100a79190611a4c565b60405180910390f35b3480156100bc57600080fd5b506100c5610709565b6040516100d29190611a7d565b60405180910390f35b6100f560048036038101906100f09190611ad8565b610712565b005b34801561010357600080fd5b5061010c610d73565b6040516101199190611a4c565b60405180910390f35b61013c60048036038101906101379190611c66565b6110ae565b6040516101499190611d99565b60405180910390f35b60606000600560003373ffffffffffffffffffffffffffffffffffffffff1673ffffffffffffffffffffffffffffffffffffffff16815260200190815260200160002054905060008167ffffffffffffffff8111156101b4576101b3611b3b565b5b6040519080825280602002602001820160405280156101ed57816020015b6101da61169c565b8152602001906001900390816101d25790505b5090506000805b600054811015610483573373ffffffffffffffffffffffffffffffffffffffff166003600083815260200190815260200160002060040160009054906101000a900473ffffffffffffffffffffffffffffffffffffffff1673ffffffffffffffffffffffffffffffffffffffff161415610470576003600082815260200190815260200160002060405180610100016040529081600082015481526020016001820180546102a190611dea565b80601f01602080910402602001604051908101604052809291908181526020018280546102cd90611dea565b801561031a5780601f106102ef5761010080835404028352916020019161031a565b820191906000526020600020905b8154815290600101906020018083116102fd57829003601f168201915b505050505081526020016002820160009054906101000a900473ffffffffffffffffffffffffffffffffffffffff1673ffffffffffffffffffffffffffffffffffffffff1673ffffffffffffffffffffffffffffffffffffffff168152602001600382015481526020016004820160009054906101000a900473ffffffffffffffffffffffffffffffffffffffff1673ffffffffffffffffffffffffffffffffffffffff1673ffffffffffffffffffffffffffffffffffffffff1681526020016005820160009054906101000a900473ffffffffffffffffffffffffffffffffffffffff1673ffffffffffffffffffffffffffffffffffffffff1673ffffffffffffffffffffffffffffffffffffffff1681526020016006820154815260200160078201548152505083838151811061045657610455611e1c565b5b6020026020010181905250818061046c90611e7a565b9250505b808061047b90611e7a565b9150506101f4565b5081935050505090565b60606000805467ffffffffffffffff8111156104ac576104ab611b3b565b5b6040519080825280602002602001820160405280156104e557816020015b6104d261169c565b8152602001906001900390816104ca5790505b50905060005b6000548110156107015760036000828152602001908152602001600020604051806101000160405290816000820154815260200160018201805461052e90611dea565b80601f016020809104026020016040519081016040528092919081815260200182805461055a90611dea565b80156105a75780601f1061057c576101008083540402835291602001916105a7565b820191906000526020600020905b81548152906001019060200180831161058a57829003601f168201915b505050505081526020016002820160009054906101000a900473ffffffffffffffffffffffffffffffffffffffff1673ffffffffffffffffffffffffffffffffffffffff1673ffffffffffffffffffffffffffffffffffffffff168152602001600382015481526020016004820160009054906101000a900473ffffffffffffffffffffffffffffffffffffffff1673ffffffffffffffffffffffffffffffffffffffff1673ffffffffffffffffffffffffffffffffffffffff1681526020016005820160009054906101000a900473ffffffffffffffffffffffffffffffffffffffff1673ffffffffffffffffffffffffffffffffffffffff1673ffffffffffffffffffffffffffffffffffffffff168152602001600682015481526020016007820154815250508282815181106106e3576106e2611e1c565b5b602002602001018190525080806106f990611e7a565b9150506104eb565b508091505090565b60008054905090565b600060036000838152602001908152602001600020604051806101000160405290816000820154815260200160018201805461074d90611dea565b80601f016020809104026020016040519081016040528092919081815260200182805461077990611dea565b80156107c65780601f1061079b576101008083540402835291602001916107c6565b820191906000526020600020905b8154815290600101906020018083116107a957829003601f168201915b505050505081526020016002820160009054906101000a900473ffffffffffffffffffffffffffffffffffffffff1673ffffffffffffffffffffffffffffffffffffffff1673ffffffffffffffffffffffffffffffffffffffff168152602001600382015481526020016004820160009054906101000a900473ffffffffffffffffffffffffffffffffffffffff1673ffffffffffffffffffffffffffffffffffffffff1673ffffffffffffffffffffffffffffffffffffffff1681526020016005820160009054906101000a900473ffffffffffffffffffffffffffffffffffffffff1673ffffffffffffffffffffffffffffffffffffffff1673ffffffffffffffffffffffffffffffffffffffff1681526020016006820154815260200160078201548152505090503073ffffffffffffffffffffffffffffffffffffffff16816080015173ffffffffffffffffffffffffffffffffffffffff1614610963576040517f08c379a000000000000000000000000000000000000000000000000000000000815260040161095a90611f20565b60405180910390fd5b8060c0015134146109a9576040517f08c379a00000000000000000000000000000000000000000000000000000000081526004016109a090611f8c565b60405180910390fd5b3373ffffffffffffffffffffffffffffffffffffffff16816080015173ffffffffffffffffffffffffffffffffffffffff161415610a1c576040517f08c379a0000000000000000000000000000000000000000000000000000000008152600401610a1390611ff8565b60405180910390fd5b6000816040015173ffffffffffffffffffffffffffffffffffffffff16636352211e83606001516040518263ffffffff1660e01b8152600401610a5f9190611a7d565b602060405180830381865afa158015610a7c573d6000803e3d6000fd5b505050506040513d601f19601f82011682018060405250810190610aa0919061202d565b90506000600190503373ffffffffffffffffffffffffffffffffffffffff168273ffffffffffffffffffffffffffffffffffffffff1614610b50578260a0015173ffffffffffffffffffffffffffffffffffffffff168360e00151604051610b079061208b565b60006040518083038185875af1925050503d8060008114610b44576040519150601f19603f3d011682016040523d82523d6000602084013e610b49565b606091505b5050809150505b80610b90576040517f08c379a0000000000000000000000000000000000000000000000000000000008152600401610b8790612112565b60405180910390fd5b60008273ffffffffffffffffffffffffffffffffffffffff168460e0015134610bb99190612132565b604051610bc59061208b565b60006040518083038185875af1925050503d8060008114610c02576040519150601f19603f3d011682016040523d82523d6000602084013e610c07565b606091505b5050905080610c4b576040517f08c379a0000000000000000000000000000000000000000000000000000000008152600401610c42906121d8565b60405180910390fd5b836040015173ffffffffffffffffffffffffffffffffffffffff166323b872dd843387606001516040518463ffffffff1660e01b8152600401610c9093929190612207565b600060405180830381600087803b158015610caa57600080fd5b505af1158015610cbe573d6000803e3d6000fd5b50505050600560008473ffffffffffffffffffffffffffffffffffffffff1673ffffffffffffffffffffffffffffffffffffffff1681526020019081526020016000206000815480929190610d129061223e565b9190505550336003600087815260200190815260200160002060040160006101000a81548173ffffffffffffffffffffffffffffffffffffffff021916908373ffffffffffffffffffffffffffffffffffffffff1602179055505050505050565b60606000600460003373ffffffffffffffffffffffffffffffffffffffff1673ffffffffffffffffffffffffffffffffffffffff16815260200190815260200160002054905060008167ffffffffffffffff811115610dd557610dd4611b3b565b5b604051908082528060200260200182016040528015610e0e57816020015b610dfb61169c565b815260200190600190039081610df35790505b5090506000805b6000548110156110a4573373ffffffffffffffffffffffffffffffffffffffff166003600083815260200190815260200160002060050160009054906101000a900473ffffffffffffffffffffffffffffffffffffffff1673ffffffffffffffffffffffffffffffffffffffff16141561109157600360008281526020019081526020016000206040518061010001604052908160008201548152602001600182018054610ec290611dea565b80601f0160208091040260200160405190810160405280929190818152602001828054610eee90611dea565b8015610f3b5780601f10610f1057610100808354040283529160200191610f3b565b820191906000526020600020905b815481529060010190602001808311610f1e57829003601f168201915b505050505081526020016002820160009054906101000a900473ffffffffffffffffffffffffffffffffffffffff1673ffffffffffffffffffffffffffffffffffffffff1673ffffffffffffffffffffffffffffffffffffffff168152602001600382015481526020016004820160009054906101000a900473ffffffffffffffffffffffffffffffffffffffff1673ffffffffffffffffffffffffffffffffffffffff1673ffffffffffffffffffffffffffffffffffffffff1681526020016005820160009054906101000a900473ffffffffffffffffffffffffffffffffffffffff1673ffffffffffffffffffffffffffffffffffffffff1673ffffffffffffffffffffffffffffffffffffffff1681526020016006820154815260200160078201548152505083838151811061107757611076611e1c565b5b6020026020010181905250818061108d90611e7a565b9250505b808061109c90611e7a565b915050610e15565b5081935050505090565b6110b661169c565b600160009054906101000a900460ff1615611106576040517f08c379a00000000000000000000000000000000000000000000000000000000081526004016110fd906122b4565b60405180910390fd5b60018060006101000a81548160ff02191690831515021790555060008311611163576040517f08c379a000000000000000000000000000000000000000000000000000000000815260040161115a90612320565b60405180910390fd5b6002548310156111a8576040517f08c379a000000000000000000000000000000000000000000000000000000000815260040161119f906123b2565b60405180910390fd5b60006064600a856111b991906123d2565b6111c3919061245b565b905060405180610100016040528060005481526020018481526020018773ffffffffffffffffffffffffffffffffffffffff1681526020018681526020013373ffffffffffffffffffffffffffffffffffffffff1681526020013373ffffffffffffffffffffffffffffffffffffffff16815260200185815260200182815250600360008054815260200190815260200160002060008201518160000155602082015181600101908051906020019061127d929190611723565b5060408201518160020160006101000a81548173ffffffffffffffffffffffffffffffffffffffff021916908373ffffffffffffffffffffffffffffffffffffffff1602179055506060820151816003015560808201518160040160006101000a81548173ffffffffffffffffffffffffffffffffffffffff021916908373ffffffffffffffffffffffffffffffffffffffff16021790555060a08201518160050160006101000a81548173ffffffffffffffffffffffffffffffffffffffff021916908373ffffffffffffffffffffffffffffffffffffffff16021790555060c0820151816006015560e08201518160070155905050848673ffffffffffffffffffffffffffffffffffffffff166000547fc3ff4a764c9b9e1277108ea23607246687fc68d2d8d7ad5ef37a8702d4443759333389876040516113c4949392919061248c565b60405180910390a4600460003373ffffffffffffffffffffffffffffffffffffffff1673ffffffffffffffffffffffffffffffffffffffff168152602001908152602001600020600081548092919061141c90611e7a565b9190505550600560003373ffffffffffffffffffffffffffffffffffffffff1673ffffffffffffffffffffffffffffffffffffffff168152602001908152602001600020600081548092919061147190611e7a565b919050555060008081548092919061148890611e7a565b91905055506003600060016000546114a09190612132565b815260200190815260200160002060405180610100016040529081600082015481526020016001820180546114d490611dea565b80601f016020809104026020016040519081016040528092919081815260200182805461150090611dea565b801561154d5780601f106115225761010080835404028352916020019161154d565b820191906000526020600020905b81548152906001019060200180831161153057829003601f168201915b505050505081526020016002820160009054906101000a900473ffffffffffffffffffffffffffffffffffffffff1673ffffffffffffffffffffffffffffffffffffffff1673ffffffffffffffffffffffffffffffffffffffff168152602001600382015481526020016004820160009054906101000a900473ffffffffffffffffffffffffffffffffffffffff1673ffffffffffffffffffffffffffffffffffffffff1673ffffffffffffffffffffffffffffffffffffffff1681526020016005820160009054906101000a900473ffffffffffffffffffffffffffffffffffffffff1673ffffffffffffffffffffffffffffffffffffffff1673ffffffffffffffffffffffffffffffffffffffff168152602001600682015481526020016007820154815250509150506000600160006101000a81548160ff021916908315150217905550949350505050565b6040518061010001604052806000815260200160608152602001600073ffffffffffffffffffffffffffffffffffffffff16815260200160008152602001600073ffffffffffffffffffffffffffffffffffffffff168152602001600073ffffffffffffffffffffffffffffffffffffffff16815260200160008152602001600081525090565b82805461172f90611dea565b90600052602060002090601f0160209004810192826117515760008555611798565b82601f1061176a57805160ff1916838001178555611798565b82800160010185558215611798579182015b8281111561179757825182559160200191906001019061177c565b5b5090506117a591906117a9565b5090565b5b808211156117c25760008160009055506001016117aa565b5090565b600081519050919050565b600082825260208201905092915050565b6000819050602082019050919050565b6000819050919050565b611805816117f2565b82525050565b600081519050919050565b600082825260208201905092915050565b60005b8381101561184557808201518184015260208101905061182a565b83811115611854576000848401525b50505050565b6000601f19601f8301169050919050565b60006118768261180b565b6118808185611816565b9350611890818560208601611827565b6118998161185a565b840191505092915050565b600073ffffffffffffffffffffffffffffffffffffffff82169050919050565b60006118cf826118a4565b9050919050565b6118df816118c4565b82525050565b60006118f0826118a4565b9050919050565b611900816118e5565b82525050565b60006101008301600083015161191f60008601826117fc565b5060208301518482036020860152611937828261186b565b915050604083015161194c60408601826118d6565b50606083015161195f60608601826117fc565b50608083015161197260808601826118f7565b5060a083015161198560a08601826118f7565b5060c083015161199860c08601826117fc565b5060e08301516119ab60e08601826117fc565b508091505092915050565b60006119c28383611906565b905092915050565b6000602082019050919050565b60006119e2826117c6565b6119ec81856117d1565b9350836020820285016119fe856117e2565b8060005b85811015611a3a5784840389528151611a1b85826119b6565b9450611a26836119ca565b925060208a01995050600181019050611a02565b50829750879550505050505092915050565b60006020820190508181036000830152611a6681846119d7565b905092915050565b611a77816117f2565b82525050565b6000602082019050611a926000830184611a6e565b92915050565b6000604051905090565b600080fd5b600080fd5b611ab5816117f2565b8114611ac057600080fd5b50565b600081359050611ad281611aac565b92915050565b600060208284031215611aee57611aed611aa2565b5b6000611afc84828501611ac3565b91505092915050565b611b0e816118c4565b8114611b1957600080fd5b50565b600081359050611b2b81611b05565b92915050565b600080fd5b600080fd5b7f4e487b7100000000000000000000000000000000000000000000000000000000600052604160045260246000fd5b611b738261185a565b810181811067ffffffffffffffff82111715611b9257611b91611b3b565b5b80604052505050565b6000611ba5611a98565b9050611bb18282611b6a565b919050565b600067ffffffffffffffff821115611bd157611bd0611b3b565b5b611bda8261185a565b9050602081019050919050565b82818337600083830152505050565b6000611c09611c0484611bb6565b611b9b565b905082815260208101848484011115611c2557611c24611b36565b5b611c30848285611be7565b509392505050565b600082601f830112611c4d57611c4c611b31565b5b8135611c5d848260208601611bf6565b91505092915050565b60008060008060808587031215611c8057611c7f611aa2565b5b6000611c8e87828801611b1c565b9450506020611c9f87828801611ac3565b9350506040611cb087828801611ac3565b925050606085013567ffffffffffffffff811115611cd157611cd0611aa7565b5b611cdd87828801611c38565b91505092959194509250565b600061010083016000830151611d0260008601826117fc565b5060208301518482036020860152611d1a828261186b565b9150506040830151611d2f60408601826118d6565b506060830151611d4260608601826117fc565b506080830151611d5560808601826118f7565b5060a0830151611d6860a08601826118f7565b5060c0830151611d7b60c08601826117fc565b5060e0830151611d8e60e08601826117fc565b508091505092915050565b60006020820190508181036000830152611db38184611ce9565b905092915050565b7f4e487b7100000000000000000000000000000000000000000000000000000000600052602260045260246000fd5b60006002820490506001821680611e0257607f821691505b60208210811415611e1657611e15611dbb565b5b50919050565b7f4e487b7100000000000000000000000000000000000000000000000000000000600052603260045260246000fd5b7f4e487b7100000000000000000000000000000000000000000000000000000000600052601160045260246000fd5b6000611e85826117f2565b91507fffffffffffffffffffffffffffffffffffffffffffffffffffffffffffffffff821415611eb857611eb7611e4b565b5b600182019050919050565b600082825260208201905092915050565b7f4974656d206e6f7420666f722073616c65000000000000000000000000000000600082015250565b6000611f0a601183611ec3565b9150611f1582611ed4565b602082019050919050565b60006020820190508181036000830152611f3981611efd565b9050919050565b7f496e76616c69642070726963652076616c756500000000000000000000000000600082015250565b6000611f76601383611ec3565b9150611f8182611f40565b602082019050919050565b60006020820190508181036000830152611fa581611f69565b9050919050565b7f596f7520616c7265616479206f776e2074686973206974656d00000000000000600082015250565b6000611fe2601983611ec3565b9150611fed82611fac565b602082019050919050565b6000602082019050818103600083015261201181611fd5565b9050919050565b60008151905061202781611b05565b92915050565b60006020828403121561204357612042611aa2565b5b600061205184828501612018565b91505092915050565b600081905092915050565b50565b600061207560008361205a565b915061208082612065565b600082019050919050565b600061209682612068565b9150819050919050565b7f43616e27742070726f6365656420776974686f757420706179696e6720726f7960008201527f616c69747920746f207468652063726561746f72000000000000000000000000602082015250565b60006120fc603483611ec3565b9150612107826120a0565b604082019050919050565b6000602082019050818103600083015261212b816120ef565b9050919050565b600061213d826117f2565b9150612148836117f2565b92508282101561215b5761215a611e4b565b5b828203905092915050565b7f43616e27742070726f6365656420776974686f757420706179696e672074686560008201527f206f776e65720000000000000000000000000000000000000000000000000000602082015250565b60006121c2602683611ec3565b91506121cd82612166565b604082019050919050565b600060208201905081810360008301526121f1816121b5565b9050919050565b612201816118c4565b82525050565b600060608201905061221c60008301866121f8565b61222960208301856121f8565b6122366040830184611a6e565b949350505050565b6000612249826117f2565b9150600082141561225d5761225c611e4b565b5b600182039050919050565b7f4e6f2072652d656e7472616e6379000000000000000000000000000000000000600082015250565b600061229e600e83611ec3565b91506122a982612268565b602082019050919050565b600060208201905081810360008301526122cd81612291565b9050919050565b7f5072696365206d757374206265206174206c6561737420312077656900000000600082015250565b600061230a601c83611ec3565b9150612315826122d4565b602082019050919050565b60006020820190508181036000830152612339816122fd565b9050919050565b7f5072696365206d7573742062652067726561746572207468616e206f7220657160008201527f75616c20746f206c697374696e672070726963652028302e3032352065746829602082015250565b600061239c604083611ec3565b91506123a782612340565b604082019050919050565b600060208201905081810360008301526123cb8161238f565b9050919050565b60006123dd826117f2565b91506123e8836117f2565b9250817fffffffffffffffffffffffffffffffffffffffffffffffffffffffffffffffff048311821515161561242157612420611e4b565b5b828202905092915050565b7f4e487b7100000000000000000000000000000000000000000000000000000000600052601260045260246000fd5b6000612466826117f2565b9150612471836117f2565b9250826124815761248061242c565b5b828204905092915050565b60006080820190506124a160008301876121f8565b6124ae60208301866121f8565b6124bb6040830185611a6e565b6124c86060830184611a6e565b9594505050505056fea264697066735822122016ed1ff7dd67711f2df8d4ca1513627dccbb5255b03169f14204eaae12b31a1364736f6c634300080c0033",
  "immutableReferences": {},
  "source": "// SPDX-License-Identifier: MIT\npragma solidity ^0.8.11;\n\nimport \"../node_modules/@openzeppelin/contracts/token/ERC721/IERC721.sol\";\nimport \"../node_modules/@openzeppelin/contracts/token/ERC721/extensions/ERC721URIStorage.sol\";\n\ncontract NFTMarket {\n    struct MarketItem {\n        uint256 itemId;\n        string name;\n        address nftContract;\n        uint256 tokenId;\n        address payable owner;\n        address payable creator;\n        uint256 price;\n        uint256 royalityFee;\n    }\n\n    event MarketItemCreated (\n        uint256 indexed itemId,\n        address indexed nftContract,\n        uint256 indexed tokenId,\n        address owner,\n        address creator,\n        uint256 price,\n        uint256 royalityFee\n    );\n\n    event random(address addr);\n    event random2(string msg, address addr);\n\n    uint256 private itemId;\n    bool private locked = false;\n    uint256 listingPrice = 0.025 ether;\n    mapping(uint256 => MarketItem) private idToMarketItem;\n    mapping(address => uint256) private addressToItemsCreated;\n    mapping(address => uint256) private addressToItemsCollected;\n    uint256 private constant royality = 10;\n\n    constructor() {\n        itemId = 0;\n    }\n\n    modifier lockEntry() {\n        require(!locked, \"No re-entrancy\");\n        locked = true;\n        _;\n        locked = false;\n    }\n\n    function getCurrentItemId() public view returns(uint256) {\n        return itemId;\n    }\n\n    function createMarketItem(\n        address nftContract, \n        uint256 tokenId,\n        uint256 price,\n        string memory name\n    ) public payable lockEntry returns(MarketItem memory) {\n        require(price > 0, \"Price must be at least 1 wei\");\n        require(price >= listingPrice, \"Price must be greater than or equal to listing price (0.025 eth)\");\n        uint256 itemRoyality = (price * royality) / 100;\n        idToMarketItem[itemId] =  MarketItem(\n            itemId,\n            name,\n            nftContract,\n            tokenId,\n            payable(msg.sender),\n            payable(msg.sender),\n            price,\n            itemRoyality\n        );\n        \n        emit MarketItemCreated(\n            itemId,\n            nftContract,\n            tokenId,\n            msg.sender,\n            msg.sender,\n            price,\n            itemRoyality\n        );\n        addressToItemsCreated[msg.sender]++;\n        addressToItemsCollected[msg.sender]++;\n        itemId++ ;\n        return idToMarketItem[itemId - 1];\n    }\n    \n    function sellMarketItem(uint256 mItemId) public payable {\n        MarketItem memory item = idToMarketItem[mItemId];\n        require(item.owner == address(this), \"Item not for sale\");\n        require(msg.value == item.price, \"Invalid price value\");\n        require(item.owner != msg.sender, \"You already own this item\");\n\n        address currentOwner = IERC721(item.nftContract).ownerOf(item.tokenId);\n        \n        bool success = true;\n        if (currentOwner != msg.sender) {\n            (success, ) = item.creator.call{value: item.royalityFee}(\"\");\n        }\n        require(success, \"Can't proceed without paying royality to the creator\");\n\n        (bool success2, ) = payable(currentOwner).call{value: msg.value - item.royalityFee}(\"\");\n        require(success2, \"Can't proceed without paying the owner\");\n        IERC721(item.nftContract).transferFrom(currentOwner, msg.sender, item.tokenId);\n        addressToItemsCollected[currentOwner]--;\n        idToMarketItem[mItemId].owner = payable(msg.sender);\n    }\n\n    function getMarketItems() public view returns(MarketItem[] memory) {\n        MarketItem[] memory items = new MarketItem[](itemId);\n        for (uint256 index = 0; index < itemId; index++) {\n            items[index] = idToMarketItem[index];\n        }\n        return items;\n    }\n\n    function itemsCreatedByMe() public view returns(MarketItem[] memory) {\n        uint256 count = addressToItemsCreated[msg.sender];\n        MarketItem[] memory arr = new MarketItem[](count);\n        uint256 indx = 0;\n        for (uint256 index = 0; index < itemId; index++) {\n            if (idToMarketItem[index].creator == msg.sender) {\n                arr[indx] = idToMarketItem[index];\n                indx++;\n            }\n        }\n        return arr;\n    }\n    \n    function itemsCollected() public view returns(MarketItem[] memory) {\n        uint256 count = addressToItemsCollected[msg.sender];\n        MarketItem[] memory arr = new MarketItem[](count);\n        uint256 indx = 0;\n        for (uint256 index = 0; index < itemId; index++) {\n            if (idToMarketItem[index].owner == msg.sender) {\n                arr[indx] = idToMarketItem[index];\n                indx++;\n            }\n        }\n        return arr;\n    }\n\n}",
  "sourcePath": "/Users/abhinavkhanduja/Desktop/BlockchainDevelopment/cryptagram/packages/client/contracts/NFTMarket.sol",
  "compiler": {
    "name": "solc",
    "version": "0.8.12+commit.f00d7308.Emscripten.clang"
  },
  "schemaVersion": "3.4.4",
  "updatedAt": "2022-03-06T08:29:38.921Z",
  "devdoc": {
    "kind": "dev",
    "methods": {},
    "version": 1
  },
  "userdoc": {
    "kind": "user",
    "methods": {},
    "version": 1
  }
}