{
  "contractName": "NFTMarket",
  "abi": [
    {
      "inputs": [],
      "stateMutability": "nonpayable",
      "type": "constructor"
    },
    {
      "anonymous": false,
      "inputs": [
        {
          "indexed": true,
          "internalType": "uint256",
          "name": "itemId",
          "type": "uint256"
        },
        {
          "indexed": true,
          "internalType": "address",
          "name": "nftContract",
          "type": "address"
        },
        {
          "indexed": true,
          "internalType": "uint256",
          "name": "tokenId",
          "type": "uint256"
        },
        {
          "indexed": false,
          "internalType": "address",
          "name": "owner",
          "type": "address"
        },
        {
          "indexed": false,
          "internalType": "address",
          "name": "creator",
          "type": "address"
        },
        {
          "indexed": false,
          "internalType": "uint256",
          "name": "price",
          "type": "uint256"
        },
        {
          "indexed": false,
          "internalType": "uint256",
          "name": "royalityFee",
          "type": "uint256"
        }
      ],
      "name": "MarketItemCreated",
      "type": "event"
    },
    {
      "anonymous": false,
      "inputs": [
        {
          "indexed": false,
          "internalType": "address",
          "name": "addr",
          "type": "address"
        }
      ],
      "name": "random",
      "type": "event"
    },
    {
      "inputs": [],
      "name": "getCurrentItemId",
      "outputs": [
        {
          "internalType": "uint256",
          "name": "",
          "type": "uint256"
        }
      ],
      "stateMutability": "view",
      "type": "function",
      "constant": true
    },
    {
      "inputs": [],
      "name": "getOwner",
      "outputs": [
        {
          "internalType": "address",
          "name": "",
          "type": "address"
        }
      ],
      "stateMutability": "view",
      "type": "function",
      "constant": true
    },
    {
      "inputs": [
        {
          "internalType": "address",
          "name": "nftContract",
          "type": "address"
        },
        {
          "internalType": "uint256",
          "name": "tokenId",
          "type": "uint256"
        },
        {
          "internalType": "uint256",
          "name": "price",
          "type": "uint256"
        },
        {
          "internalType": "string",
          "name": "name",
          "type": "string"
        }
      ],
      "name": "createMarketItem",
      "outputs": [
        {
          "components": [
            {
              "internalType": "uint256",
              "name": "itemId",
              "type": "uint256"
            },
            {
              "internalType": "string",
              "name": "name",
              "type": "string"
            },
            {
              "internalType": "address",
              "name": "nftContract",
              "type": "address"
            },
            {
              "internalType": "uint256",
              "name": "tokenId",
              "type": "uint256"
            },
            {
              "internalType": "address payable",
              "name": "owner",
              "type": "address"
            },
            {
              "internalType": "address payable",
              "name": "creator",
              "type": "address"
            },
            {
              "internalType": "uint256",
              "name": "price",
              "type": "uint256"
            },
            {
              "internalType": "uint256",
              "name": "royalityFee",
              "type": "uint256"
            },
            {
              "internalType": "bool",
              "name": "isSelling",
              "type": "bool"
            }
          ],
          "internalType": "struct NFTMarket.MarketItem",
          "name": "",
          "type": "tuple"
        }
      ],
      "stateMutability": "payable",
      "type": "function",
      "payable": true
    },
    {
      "inputs": [
        {
          "internalType": "address",
          "name": "nftContract",
          "type": "address"
        },
        {
          "internalType": "uint256",
          "name": "tokenId",
          "type": "uint256"
        }
      ],
      "name": "sellMarketItem",
      "outputs": [],
      "stateMutability": "payable",
      "type": "function",
      "payable": true
    },
    {
      "inputs": [],
      "name": "getMarketItems",
      "outputs": [
        {
          "components": [
            {
              "internalType": "uint256",
              "name": "itemId",
              "type": "uint256"
            },
            {
              "internalType": "string",
              "name": "name",
              "type": "string"
            },
            {
              "internalType": "address",
              "name": "nftContract",
              "type": "address"
            },
            {
              "internalType": "uint256",
              "name": "tokenId",
              "type": "uint256"
            },
            {
              "internalType": "address payable",
              "name": "owner",
              "type": "address"
            },
            {
              "internalType": "address payable",
              "name": "creator",
              "type": "address"
            },
            {
              "internalType": "uint256",
              "name": "price",
              "type": "uint256"
            },
            {
              "internalType": "uint256",
              "name": "royalityFee",
              "type": "uint256"
            },
            {
              "internalType": "bool",
              "name": "isSelling",
              "type": "bool"
            }
          ],
          "internalType": "struct NFTMarket.MarketItem[]",
          "name": "",
          "type": "tuple[]"
        }
      ],
      "stateMutability": "view",
      "type": "function",
      "constant": true
    },
    {
      "inputs": [],
      "name": "itemsCreatedByMe",
      "outputs": [
        {
          "components": [
            {
              "internalType": "uint256",
              "name": "itemId",
              "type": "uint256"
            },
            {
              "internalType": "string",
              "name": "name",
              "type": "string"
            },
            {
              "internalType": "address",
              "name": "nftContract",
              "type": "address"
            },
            {
              "internalType": "uint256",
              "name": "tokenId",
              "type": "uint256"
            },
            {
              "internalType": "address payable",
              "name": "owner",
              "type": "address"
            },
            {
              "internalType": "address payable",
              "name": "creator",
              "type": "address"
            },
            {
              "internalType": "uint256",
              "name": "price",
              "type": "uint256"
            },
            {
              "internalType": "uint256",
              "name": "royalityFee",
              "type": "uint256"
            },
            {
              "internalType": "bool",
              "name": "isSelling",
              "type": "bool"
            }
          ],
          "internalType": "struct NFTMarket.MarketItem[]",
          "name": "",
          "type": "tuple[]"
        }
      ],
      "stateMutability": "view",
      "type": "function",
      "constant": true
    }
  ],
  "bytecode": "0x60806040526000600160006101000a81548160ff0219169083151502179055506658d15e1762800060025534801561003657600080fd5b5060008081905550336001806101000a81548173ffffffffffffffffffffffffffffffffffffffff021916908373ffffffffffffffffffffffffffffffffffffffff1602179055506121d88061008d6000396000f3fe6080604052600436106100555760003560e01c806329aa3a421461005a57806368eb494914610085578063893d20e8146100b0578063ad9645f0146100db578063b0916feb14610106578063ee45a71114610122575b600080fd5b34801561006657600080fd5b5061006f610152565b60405161007c9190611757565b60405180910390f35b34801561009157600080fd5b5061009a6103e9565b6040516100a79190611788565b60405180910390f35b3480156100bc57600080fd5b506100c56103f2565b6040516100d291906117b2565b60405180910390f35b3480156100e757600080fd5b506100f061041a565b6040516100fd9190611757565b60405180910390f35b610120600480360381019061011b9190611839565b610770565b005b61013c600480360381019061013791906119ae565b610d90565b6040516101499190611af6565b60405180910390f35b60606000805467ffffffffffffffff81111561017157610170611883565b5b6040519080825280602002602001820160405280156101aa57816020015b61019761136e565b81526020019060019003908161018f5790505b50905060005b6000548110156103e1576003600082815260200190815260200160002060405180610120016040529081600082015481526020016001820180546101f390611b47565b80601f016020809104026020016040519081016040528092919081815260200182805461021f90611b47565b801561026c5780601f106102415761010080835404028352916020019161026c565b820191906000526020600020905b81548152906001019060200180831161024f57829003601f168201915b505050505081526020016002820160009054906101000a900473ffffffffffffffffffffffffffffffffffffffff1673ffffffffffffffffffffffffffffffffffffffff1673ffffffffffffffffffffffffffffffffffffffff168152602001600382015481526020016004820160009054906101000a900473ffffffffffffffffffffffffffffffffffffffff1673ffffffffffffffffffffffffffffffffffffffff1673ffffffffffffffffffffffffffffffffffffffff1681526020016005820160009054906101000a900473ffffffffffffffffffffffffffffffffffffffff1673ffffffffffffffffffffffffffffffffffffffff1673ffffffffffffffffffffffffffffffffffffffff16815260200160068201548152602001600782015481526020016008820160009054906101000a900460ff1615151515815250508282815181106103c3576103c2611b79565b5b602002602001018190525080806103d990611bd7565b9150506101b0565b508091505090565b60008054905090565b600060018054906101000a900473ffffffffffffffffffffffffffffffffffffffff16905090565b60606000600460003373ffffffffffffffffffffffffffffffffffffffff1673ffffffffffffffffffffffffffffffffffffffff16815260200190815260200160002054905060008167ffffffffffffffff81111561047c5761047b611883565b5b6040519080825280602002602001820160405280156104b557816020015b6104a261136e565b81526020019060019003908161049a5790505b5090506000805b600054811015610766573373ffffffffffffffffffffffffffffffffffffffff166003600083815260200190815260200160002060050160009054906101000a900473ffffffffffffffffffffffffffffffffffffffff1673ffffffffffffffffffffffffffffffffffffffff1614156107535760036000838152602001908152602001600020604051806101200160405290816000820154815260200160018201805461056990611b47565b80601f016020809104026020016040519081016040528092919081815260200182805461059590611b47565b80156105e25780601f106105b7576101008083540402835291602001916105e2565b820191906000526020600020905b8154815290600101906020018083116105c557829003601f168201915b505050505081526020016002820160009054906101000a900473ffffffffffffffffffffffffffffffffffffffff1673ffffffffffffffffffffffffffffffffffffffff1673ffffffffffffffffffffffffffffffffffffffff168152602001600382015481526020016004820160009054906101000a900473ffffffffffffffffffffffffffffffffffffffff1673ffffffffffffffffffffffffffffffffffffffff1673ffffffffffffffffffffffffffffffffffffffff1681526020016005820160009054906101000a900473ffffffffffffffffffffffffffffffffffffffff1673ffffffffffffffffffffffffffffffffffffffff1673ffffffffffffffffffffffffffffffffffffffff16815260200160068201548152602001600782015481526020016008820160009054906101000a900460ff16151515158152505083838151811061073957610738611b79565b5b6020026020010181905250818061074f90611bd7565b9250505b808061075e90611bd7565b9150506104bc565b5081935050505090565b600160009054906101000a900460ff16156107c0576040517f08c379a00000000000000000000000000000000000000000000000000000000081526004016107b790611c7d565b60405180910390fd5b60018060006101000a81548160ff021916908315150217905550600060036000838152602001908152602001600020604051806101200160405290816000820154815260200160018201805461081590611b47565b80601f016020809104026020016040519081016040528092919081815260200182805461084190611b47565b801561088e5780601f106108635761010080835404028352916020019161088e565b820191906000526020600020905b81548152906001019060200180831161087157829003601f168201915b505050505081526020016002820160009054906101000a900473ffffffffffffffffffffffffffffffffffffffff1673ffffffffffffffffffffffffffffffffffffffff1673ffffffffffffffffffffffffffffffffffffffff168152602001600382015481526020016004820160009054906101000a900473ffffffffffffffffffffffffffffffffffffffff1673ffffffffffffffffffffffffffffffffffffffff1673ffffffffffffffffffffffffffffffffffffffff1681526020016005820160009054906101000a900473ffffffffffffffffffffffffffffffffffffffff1673ffffffffffffffffffffffffffffffffffffffff1673ffffffffffffffffffffffffffffffffffffffff16815260200160068201548152602001600782015481526020016008820160009054906101000a900460ff16151515158152505090508060c001513414610a1a576040517f08c379a0000000000000000000000000000000000000000000000000000000008152600401610a1190611d0f565b60405180910390fd5b60008373ffffffffffffffffffffffffffffffffffffffff16636352211e846040518263ffffffff1660e01b8152600401610a559190611788565b602060405180830381865afa158015610a72573d6000803e3d6000fd5b505050506040513d601f19601f82011682018060405250810190610a969190611d44565b905060003373ffffffffffffffffffffffffffffffffffffffff168273ffffffffffffffffffffffffffffffffffffffff161490503373ffffffffffffffffffffffffffffffffffffffff168273ffffffffffffffffffffffffffffffffffffffff1614610b6f578173ffffffffffffffffffffffffffffffffffffffff168360e00151604051610b2690611da2565b60006040518083038185875af1925050503d8060008114610b63576040519150601f19603f3d011682016040523d82523d6000602084013e610b68565b606091505b5050809150505b80610baf576040517f08c379a0000000000000000000000000000000000000000000000000000000008152600401610ba690611e29565b60405180910390fd5b6000600360008054815260200190815260200160002060040160009054906101000a900473ffffffffffffffffffffffffffffffffffffffff1673ffffffffffffffffffffffffffffffffffffffff168460e0015134610c0f9190611e49565b604051610c1b90611da2565b60006040518083038185875af1925050503d8060008114610c58576040519150601f19603f3d011682016040523d82523d6000602084013e610c5d565b606091505b5050905080610ca1576040517f08c379a0000000000000000000000000000000000000000000000000000000008152600401610c9890611eef565b60405180910390fd5b8573ffffffffffffffffffffffffffffffffffffffff166323b872dd85608001513387606001516040518463ffffffff1660e01b8152600401610ce693929190611f6e565b600060405180830381600087803b158015610d0057600080fd5b505af1158015610d14573d6000803e3d6000fd5b50505050336003600087815260200190815260200160002060040160006101000a81548173ffffffffffffffffffffffffffffffffffffffff021916908373ffffffffffffffffffffffffffffffffffffffff160217905550505050506000600160006101000a81548160ff0219169083151502179055505050565b610d9861136e565b600160009054906101000a900460ff1615610de8576040517f08c379a0000000000000000000000000000000000000000000000000000000008152600401610ddf90611c7d565b60405180910390fd5b60018060006101000a81548160ff02191690831515021790555060008311610e45576040517f08c379a0000000000000000000000000000000000000000000000000000000008152600401610e3c90611ff1565b60405180910390fd5b600254831015610e8a576040517f08c379a0000000000000000000000000000000000000000000000000000000008152600401610e8190612083565b60405180910390fd5b60006064600a85610e9b91906120a3565b610ea5919061212c565b905060405180610120016040528060005481526020018481526020018773ffffffffffffffffffffffffffffffffffffffff1681526020018681526020013373ffffffffffffffffffffffffffffffffffffffff1681526020013373ffffffffffffffffffffffffffffffffffffffff168152602001858152602001828152602001600015158152506003600080548152602001908152602001600020600082015181600001556020820151816001019080519060200190610f689291906113fe565b5060408201518160020160006101000a81548173ffffffffffffffffffffffffffffffffffffffff021916908373ffffffffffffffffffffffffffffffffffffffff1602179055506060820151816003015560808201518160040160006101000a81548173ffffffffffffffffffffffffffffffffffffffff021916908373ffffffffffffffffffffffffffffffffffffffff16021790555060a08201518160050160006101000a81548173ffffffffffffffffffffffffffffffffffffffff021916908373ffffffffffffffffffffffffffffffffffffffff16021790555060c0820151816006015560e082015181600701556101008201518160080160006101000a81548160ff021916908315150217905550905050848673ffffffffffffffffffffffffffffffffffffffff166000547fc3ff4a764c9b9e1277108ea23607246687fc68d2d8d7ad5ef37a8702d4443759333389876040516110d0949392919061215d565b60405180910390a4600460003373ffffffffffffffffffffffffffffffffffffffff1673ffffffffffffffffffffffffffffffffffffffff168152602001908152602001600020600081548092919061112890611bd7565b919050555060008081548092919061113f90611bd7565b91905055506003600060016000546111579190611e49565b8152602001908152602001600020604051806101200160405290816000820154815260200160018201805461118b90611b47565b80601f01602080910402602001604051908101604052809291908181526020018280546111b790611b47565b80156112045780601f106111d957610100808354040283529160200191611204565b820191906000526020600020905b8154815290600101906020018083116111e757829003601f168201915b505050505081526020016002820160009054906101000a900473ffffffffffffffffffffffffffffffffffffffff1673ffffffffffffffffffffffffffffffffffffffff1673ffffffffffffffffffffffffffffffffffffffff168152602001600382015481526020016004820160009054906101000a900473ffffffffffffffffffffffffffffffffffffffff1673ffffffffffffffffffffffffffffffffffffffff1673ffffffffffffffffffffffffffffffffffffffff1681526020016005820160009054906101000a900473ffffffffffffffffffffffffffffffffffffffff1673ffffffffffffffffffffffffffffffffffffffff1673ffffffffffffffffffffffffffffffffffffffff16815260200160068201548152602001600782015481526020016008820160009054906101000a900460ff1615151515815250509150506000600160006101000a81548160ff021916908315150217905550949350505050565b6040518061012001604052806000815260200160608152602001600073ffffffffffffffffffffffffffffffffffffffff16815260200160008152602001600073ffffffffffffffffffffffffffffffffffffffff168152602001600073ffffffffffffffffffffffffffffffffffffffff16815260200160008152602001600081526020016000151581525090565b82805461140a90611b47565b90600052602060002090601f01602090048101928261142c5760008555611473565b82601f1061144557805160ff1916838001178555611473565b82800160010185558215611473579182015b82811115611472578251825591602001919060010190611457565b5b5090506114809190611484565b5090565b5b8082111561149d576000816000905550600101611485565b5090565b600081519050919050565b600082825260208201905092915050565b6000819050602082019050919050565b6000819050919050565b6114e0816114cd565b82525050565b600081519050919050565b600082825260208201905092915050565b60005b83811015611520578082015181840152602081019050611505565b8381111561152f576000848401525b50505050565b6000601f19601f8301169050919050565b6000611551826114e6565b61155b81856114f1565b935061156b818560208601611502565b61157481611535565b840191505092915050565b600073ffffffffffffffffffffffffffffffffffffffff82169050919050565b60006115aa8261157f565b9050919050565b6115ba8161159f565b82525050565b60006115cb8261157f565b9050919050565b6115db816115c0565b82525050565b60008115159050919050565b6115f6816115e1565b82525050565b60006101208301600083015161161560008601826114d7565b506020830151848203602086015261162d8282611546565b915050604083015161164260408601826115b1565b50606083015161165560608601826114d7565b50608083015161166860808601826115d2565b5060a083015161167b60a08601826115d2565b5060c083015161168e60c08601826114d7565b5060e08301516116a160e08601826114d7565b506101008301516116b66101008601826115ed565b508091505092915050565b60006116cd83836115fc565b905092915050565b6000602082019050919050565b60006116ed826114a1565b6116f781856114ac565b935083602082028501611709856114bd565b8060005b85811015611745578484038952815161172685826116c1565b9450611731836116d5565b925060208a0199505060018101905061170d565b50829750879550505050505092915050565b6000602082019050818103600083015261177181846116e2565b905092915050565b611782816114cd565b82525050565b600060208201905061179d6000830184611779565b92915050565b6117ac8161159f565b82525050565b60006020820190506117c760008301846117a3565b92915050565b6000604051905090565b600080fd5b600080fd5b6117ea8161159f565b81146117f557600080fd5b50565b600081359050611807816117e1565b92915050565b611816816114cd565b811461182157600080fd5b50565b6000813590506118338161180d565b92915050565b600080604083850312156118505761184f6117d7565b5b600061185e858286016117f8565b925050602061186f85828601611824565b9150509250929050565b600080fd5b600080fd5b7f4e487b7100000000000000000000000000000000000000000000000000000000600052604160045260246000fd5b6118bb82611535565b810181811067ffffffffffffffff821117156118da576118d9611883565b5b80604052505050565b60006118ed6117cd565b90506118f982826118b2565b919050565b600067ffffffffffffffff82111561191957611918611883565b5b61192282611535565b9050602081019050919050565b82818337600083830152505050565b600061195161194c846118fe565b6118e3565b90508281526020810184848401111561196d5761196c61187e565b5b61197884828561192f565b509392505050565b600082601f83011261199557611994611879565b5b81356119a584826020860161193e565b91505092915050565b600080600080608085870312156119c8576119c76117d7565b5b60006119d6878288016117f8565b94505060206119e787828801611824565b93505060406119f887828801611824565b925050606085013567ffffffffffffffff811115611a1957611a186117dc565b5b611a2587828801611980565b91505092959194509250565b600061012083016000830151611a4a60008601826114d7565b5060208301518482036020860152611a628282611546565b9150506040830151611a7760408601826115b1565b506060830151611a8a60608601826114d7565b506080830151611a9d60808601826115d2565b5060a0830151611ab060a08601826115d2565b5060c0830151611ac360c08601826114d7565b5060e0830151611ad660e08601826114d7565b50610100830151611aeb6101008601826115ed565b508091505092915050565b60006020820190508181036000830152611b108184611a31565b905092915050565b7f4e487b7100000000000000000000000000000000000000000000000000000000600052602260045260246000fd5b60006002820490506001821680611b5f57607f821691505b60208210811415611b7357611b72611b18565b5b50919050565b7f4e487b7100000000000000000000000000000000000000000000000000000000600052603260045260246000fd5b7f4e487b7100000000000000000000000000000000000000000000000000000000600052601160045260246000fd5b6000611be2826114cd565b91507fffffffffffffffffffffffffffffffffffffffffffffffffffffffffffffffff821415611c1557611c14611ba8565b5b600182019050919050565b600082825260208201905092915050565b7f4e6f2072652d656e7472616e6379000000000000000000000000000000000000600082015250565b6000611c67600e83611c20565b9150611c7282611c31565b602082019050919050565b60006020820190508181036000830152611c9681611c5a565b9050919050565b7f506c65617365207375626d6974207468652061736b696e67207072696365206960008201527f6e206f7264657220746f20636f6d706c65746520746865207075726368617365602082015250565b6000611cf9604083611c20565b9150611d0482611c9d565b604082019050919050565b60006020820190508181036000830152611d2881611cec565b9050919050565b600081519050611d3e816117e1565b92915050565b600060208284031215611d5a57611d596117d7565b5b6000611d6884828501611d2f565b91505092915050565b600081905092915050565b50565b6000611d8c600083611d71565b9150611d9782611d7c565b600082019050919050565b6000611dad82611d7f565b9150819050919050565b7f43616e27742070726f6365656420776974686f757420706179696e6720726f7960008201527f616c69747920746f207468652063726561746f72000000000000000000000000602082015250565b6000611e13603483611c20565b9150611e1e82611db7565b604082019050919050565b60006020820190508181036000830152611e4281611e06565b9050919050565b6000611e54826114cd565b9150611e5f836114cd565b925082821015611e7257611e71611ba8565b5b828203905092915050565b7f43616e27742070726f6365656420776974686f757420706179696e672074686560008201527f206f776e65720000000000000000000000000000000000000000000000000000602082015250565b6000611ed9602683611c20565b9150611ee482611e7d565b604082019050919050565b60006020820190508181036000830152611f0881611ecc565b9050919050565b6000819050919050565b6000611f34611f2f611f2a8461157f565b611f0f565b61157f565b9050919050565b6000611f4682611f19565b9050919050565b6000611f5882611f3b565b9050919050565b611f6881611f4d565b82525050565b6000606082019050611f836000830186611f5f565b611f9060208301856117a3565b611f9d6040830184611779565b949350505050565b7f5072696365206d757374206265206174206c6561737420312077656900000000600082015250565b6000611fdb601c83611c20565b9150611fe682611fa5565b602082019050919050565b6000602082019050818103600083015261200a81611fce565b9050919050565b7f5072696365206d7573742062652067726561746572207468616e206f7220657160008201527f75616c20746f206c697374696e672070726963652028302e3032352065746829602082015250565b600061206d604083611c20565b915061207882612011565b604082019050919050565b6000602082019050818103600083015261209c81612060565b9050919050565b60006120ae826114cd565b91506120b9836114cd565b9250817fffffffffffffffffffffffffffffffffffffffffffffffffffffffffffffffff04831182151516156120f2576120f1611ba8565b5b828202905092915050565b7f4e487b7100000000000000000000000000000000000000000000000000000000600052601260045260246000fd5b6000612137826114cd565b9150612142836114cd565b925082612152576121516120fd565b5b828204905092915050565b600060808201905061217260008301876117a3565b61217f60208301866117a3565b61218c6040830185611779565b6121996060830184611779565b9594505050505056fea2646970667358221220bbae6d8fbe8074cf57eea41171907a4590a5aae84aa7f2d3790f8f920a6d132864736f6c634300080b0033",
  "immutableReferences": {},
  "source": "// SPDX-License-Identifier: MIT\npragma solidity ^0.8.11;\n\nimport \"../node_modules/@openzeppelin/contracts/token/ERC721/ERC721.sol\";\nimport \"./NFT.sol\";\n\ncontract NFTMarket {\n    struct MarketItem {\n        uint itemId;\n        string name;\n        address nftContract;\n        uint256 tokenId;\n        address payable owner;\n        address payable creator;\n        uint256 price;\n        uint256 royalityFee;\n        bool isSelling;\n    }\n\n    event MarketItemCreated (\n        uint indexed itemId,\n        address indexed nftContract,\n        uint256 indexed tokenId,\n        address owner,\n        address creator,\n        uint256 price,\n        uint256 royalityFee\n    );\n\n    event random(address addr);\n\n    uint256 private itemId;\n    bool private locked = false;\n    address payable private owner;\n    uint256 listingPrice = 0.025 ether;\n    mapping(uint256 => MarketItem) private idToMarketItem;\n    mapping(address => uint256) private addressToItemsCreated;\n    uint256 private constant royality = 10;\n\n    constructor() {\n        itemId = 0;\n        owner = payable(msg.sender);\n    }\n\n    modifier lockEntry() {\n        require(!locked, \"No re-entrancy\");\n        locked = true;\n        _;\n        locked = false;\n    }\n\n    function getCurrentItemId() public view returns(uint256) {\n        return itemId;\n    }\n\n    function getOwner() public view returns(address) {\n        return owner;\n    }\n\n    // function createMarketItem(\n    //     address nftContract, \n    //     uint256 price,\n    //     string calldata tokenURI\n    // ) public payable lockEntry returns(bytes memory) {\n    //     require(price > 0, \"Price must be at least 1 wei\");\n    //     require(price == listingPrice, \"Price must be equal to listing price (0.025 eth)\");\n\n    //     // uint256 tokenId = NFT(nftContract).createToken(tokenURI);\n    //     (bool status, bytes memory result) = nftContract.call{gas: 10000}(abi.encodePacked(bytes4(keccak256(\"createToken(string)\")), tokenURI));\n\n    //     // uint256 itemRoyality = (price * royality) / 100;\n    //     // idToMarketItem[itemId] =  MarketItem(\n    //     //     itemId,\n    //     //     nftContract,\n    //     //     tokenId,\n    //     //     payable(msg.sender),\n    //     //     payable(msg.sender),\n    //     //     price,\n    //     //     itemRoyality,\n    //     //     false\n    //     // );\n        \n    //     // emit MarketItemCreated(\n    //     //     itemId,\n    //     //     nftContract,\n    //     //     tokenId,\n    //     //     msg.sender,\n    //     //     msg.sender,\n    //     //     price,\n    //     //     itemRoyality\n    //     // );\n    //     // itemId ++;\n    //     return result;//idToMarketItem[itemId - 1];\n    // }\n\n    function createMarketItem(\n        address nftContract, \n        uint256 tokenId,\n        uint256 price,\n        string memory name\n    ) public payable lockEntry returns(MarketItem memory) {\n        require(price > 0, \"Price must be at least 1 wei\");\n        require(price >= listingPrice, \"Price must be greater than or equal to listing price (0.025 eth)\");\n        uint256 itemRoyality = (price * royality) / 100;\n        idToMarketItem[itemId] =  MarketItem(\n            itemId,\n            name,\n            nftContract,\n            tokenId,\n            payable(msg.sender),\n            payable(msg.sender),\n            price,\n            itemRoyality,\n            false\n        );\n        \n        emit MarketItemCreated(\n            itemId,\n            nftContract,\n            tokenId,\n            msg.sender,\n            msg.sender,\n            price,\n            itemRoyality\n        );\n        addressToItemsCreated[msg.sender]++; \n        itemId++ ;\n        return idToMarketItem[itemId - 1];\n    }\n\n    function sellMarketItem(\n        address nftContract,\n        uint256 tokenId\n    ) public payable lockEntry {\n        MarketItem memory item = idToMarketItem[tokenId];\n\n        require(msg.value == item.price, \"Please submit the asking price in order to complete the purchase\");\n\n        address creatorAddress = ERC721(nftContract).ownerOf(tokenId);\n        bool success = creatorAddress == msg.sender;\n        if (creatorAddress != msg.sender) {\n            (success, ) = payable(creatorAddress).call{value: item.royalityFee}(\"\");\n        }\n        require(success, \"Can't proceed without paying royality to the creator\");\n\n        (bool success2, ) = payable(idToMarketItem[itemId].owner).call{value: msg.value - item.royalityFee}(\"\");\n        require(success2, \"Can't proceed without paying the owner\");\n        ERC721(nftContract).transferFrom(item.owner, msg.sender, item.tokenId);\n        idToMarketItem[tokenId].owner = payable(msg.sender);\n    }\n\n    function getMarketItems() public view returns(MarketItem[] memory) {\n        MarketItem[] memory items = new MarketItem[](itemId);\n        for (uint256 index = 0; index < itemId; index++) {\n            items[index] = idToMarketItem[index];\n        }\n        return items;\n    }\n\n    function itemsCreatedByMe() public view returns(MarketItem[] memory) {\n        uint256 count = addressToItemsCreated[msg.sender];\n        MarketItem[] memory arr = new MarketItem[](count);\n        uint256 indx = 0;\n        for (uint256 index = 0; index < itemId; index++) {\n            if (idToMarketItem[index].creator == msg.sender) {\n                arr[indx] = idToMarketItem[indx];\n                indx++;\n            }\n        }\n        return arr;\n    }\n\n    // function getTokenURI(address nftContract, uint256 tokenId) public view returns(string memory) {\n    //     require(nftContract != address(0), \"Contract address id is required\");\n    //     require(tokenId >= 0, \"Token id is required\");\n    //     require(msg.sender != address(0), \"Account address id is required\");\n    //     // require(idToMarketItem[tokenId].owner == msg.sender, \"Not authorised to view the token uri\");\n    //     string memory uri = ERC721(nftContract).tokenURI(tokenId);\n    //     return uri;\n    // }\n\n}",
  "sourcePath": "/Users/abhinavkhanduja/Desktop/BlockchainDevelopment/cryptagram/packages/client/contracts/NFTMarket.sol",
  "compiler": {
    "name": "solc",
    "version": "0.8.11+commit.d7f03943.Emscripten.clang"
  },
  "schemaVersion": "3.4.4",
  "updatedAt": "2022-02-06T15:24:25.740Z",
  "networkType": "ethereum",
  "devdoc": {
    "kind": "dev",
    "methods": {},
    "version": 1
  },
  "userdoc": {
    "kind": "user",
    "methods": {},
    "version": 1
  }
}