{
  "contractName": "NFTStore",
  "abi": [
    {
      "inputs": [
        {
          "internalType": "address",
          "name": "cowner",
          "type": "address"
        }
      ],
      "stateMutability": "nonpayable",
      "type": "constructor"
    },
    {
      "anonymous": false,
      "inputs": [
        {
          "indexed": false,
          "internalType": "string",
          "name": "msg",
          "type": "string"
        },
        {
          "indexed": false,
          "internalType": "address",
          "name": "addr",
          "type": "address"
        }
      ],
      "name": "random",
      "type": "event"
    },
    {
      "inputs": [
        {
          "internalType": "address",
          "name": "nftContract",
          "type": "address"
        },
        {
          "internalType": "string",
          "name": "uri",
          "type": "string"
        },
        {
          "internalType": "string",
          "name": "name",
          "type": "string"
        },
        {
          "internalType": "uint256",
          "name": "price",
          "type": "uint256"
        },
        {
          "internalType": "uint256",
          "name": "tId",
          "type": "uint256"
        },
        {
          "internalType": "uint256",
          "name": "royaltyPercent",
          "type": "uint256"
        }
      ],
      "name": "createItem",
      "outputs": [],
      "stateMutability": "payable",
      "type": "function"
    },
    {
      "inputs": [
        {
          "internalType": "uint256",
          "name": "id",
          "type": "uint256"
        }
      ],
      "name": "getItemById",
      "outputs": [
        {
          "components": [
            {
              "internalType": "uint256",
              "name": "itemId",
              "type": "uint256"
            },
            {
              "internalType": "string",
              "name": "name",
              "type": "string"
            },
            {
              "internalType": "address",
              "name": "nftContract",
              "type": "address"
            },
            {
              "internalType": "uint256",
              "name": "tokenId",
              "type": "uint256"
            },
            {
              "internalType": "address payable",
              "name": "owner",
              "type": "address"
            },
            {
              "internalType": "address payable",
              "name": "creator",
              "type": "address"
            },
            {
              "internalType": "uint256",
              "name": "price",
              "type": "uint256"
            },
            {
              "internalType": "string",
              "name": "uri",
              "type": "string"
            },
            {
              "internalType": "uint256",
              "name": "royaltyPercent",
              "type": "uint256"
            }
          ],
          "internalType": "struct NFTStore.Item",
          "name": "",
          "type": "tuple"
        }
      ],
      "stateMutability": "view",
      "type": "function"
    },
    {
      "inputs": [],
      "name": "getItems",
      "outputs": [
        {
          "components": [
            {
              "internalType": "uint256",
              "name": "itemId",
              "type": "uint256"
            },
            {
              "internalType": "string",
              "name": "name",
              "type": "string"
            },
            {
              "internalType": "address",
              "name": "nftContract",
              "type": "address"
            },
            {
              "internalType": "uint256",
              "name": "tokenId",
              "type": "uint256"
            },
            {
              "internalType": "address payable",
              "name": "owner",
              "type": "address"
            },
            {
              "internalType": "address payable",
              "name": "creator",
              "type": "address"
            },
            {
              "internalType": "uint256",
              "name": "price",
              "type": "uint256"
            },
            {
              "internalType": "string",
              "name": "uri",
              "type": "string"
            },
            {
              "internalType": "uint256",
              "name": "royaltyPercent",
              "type": "uint256"
            }
          ],
          "internalType": "struct NFTStore.Item[]",
          "name": "",
          "type": "tuple[]"
        }
      ],
      "stateMutability": "view",
      "type": "function"
    },
    {
      "inputs": [
        {
          "internalType": "address",
          "name": "caller",
          "type": "address"
        }
      ],
      "name": "getItemsOwnedByUser",
      "outputs": [
        {
          "components": [
            {
              "internalType": "uint256",
              "name": "itemId",
              "type": "uint256"
            },
            {
              "internalType": "string",
              "name": "name",
              "type": "string"
            },
            {
              "internalType": "address",
              "name": "nftContract",
              "type": "address"
            },
            {
              "internalType": "uint256",
              "name": "tokenId",
              "type": "uint256"
            },
            {
              "internalType": "address payable",
              "name": "owner",
              "type": "address"
            },
            {
              "internalType": "address payable",
              "name": "creator",
              "type": "address"
            },
            {
              "internalType": "uint256",
              "name": "price",
              "type": "uint256"
            },
            {
              "internalType": "string",
              "name": "uri",
              "type": "string"
            },
            {
              "internalType": "uint256",
              "name": "royaltyPercent",
              "type": "uint256"
            }
          ],
          "internalType": "struct NFTStore.Item[]",
          "name": "",
          "type": "tuple[]"
        }
      ],
      "stateMutability": "view",
      "type": "function"
    },
    {
      "inputs": [
        {
          "internalType": "address",
          "name": "caller",
          "type": "address"
        }
      ],
      "name": "getItemsCreatedByUser",
      "outputs": [
        {
          "components": [
            {
              "internalType": "uint256",
              "name": "itemId",
              "type": "uint256"
            },
            {
              "internalType": "string",
              "name": "name",
              "type": "string"
            },
            {
              "internalType": "address",
              "name": "nftContract",
              "type": "address"
            },
            {
              "internalType": "uint256",
              "name": "tokenId",
              "type": "uint256"
            },
            {
              "internalType": "address payable",
              "name": "owner",
              "type": "address"
            },
            {
              "internalType": "address payable",
              "name": "creator",
              "type": "address"
            },
            {
              "internalType": "uint256",
              "name": "price",
              "type": "uint256"
            },
            {
              "internalType": "string",
              "name": "uri",
              "type": "string"
            },
            {
              "internalType": "uint256",
              "name": "royaltyPercent",
              "type": "uint256"
            }
          ],
          "internalType": "struct NFTStore.Item[]",
          "name": "",
          "type": "tuple[]"
        }
      ],
      "stateMutability": "view",
      "type": "function"
    },
    {
      "inputs": [
        {
          "internalType": "uint256",
          "name": "id",
          "type": "uint256"
        }
      ],
      "name": "putItemForSale",
      "outputs": [],
      "stateMutability": "nonpayable",
      "type": "function"
    },
    {
      "inputs": [
        {
          "internalType": "uint256",
          "name": "id",
          "type": "uint256"
        },
        {
          "internalType": "address",
          "name": "buyer",
          "type": "address"
        }
      ],
      "name": "buyItem",
      "outputs": [],
      "stateMutability": "payable",
      "type": "function"
    }
  ],
  "bytecode": "0x60806040526000600160006101000a81548160ff0219169083151502179055503480156200002c57600080fd5b5060405162002c8b38038062002c8b83398181016040528101906200005291906200010b565b6000808190555080600460006101000a81548173ffffffffffffffffffffffffffffffffffffffff021916908373ffffffffffffffffffffffffffffffffffffffff160217905550506200013d565b600080fd5b600073ffffffffffffffffffffffffffffffffffffffff82169050919050565b6000620000d382620000a6565b9050919050565b620000e581620000c6565b8114620000f157600080fd5b50565b6000815190506200010581620000da565b92915050565b600060208284031215620001245762000123620000a1565b5b60006200013484828501620000f4565b91505092915050565b612b3e806200014d6000396000f3fe6080604052600436106100705760003560e01c80637383d7091161004e5780637383d709146101065780637c96da431461012257806391a81bc81461015f578063cd2f07101461017b57610070565b806315752dde14610075578063410d59cc1461009e57806359056d5f146100c9575b600080fd5b34801561008157600080fd5b5061009c60048036038101906100979190611dd4565b6101b8565b005b3480156100aa57600080fd5b506100b3610601565b6040516100c09190612099565b60405180910390f35b3480156100d557600080fd5b506100f060048036038101906100eb91906120e7565b61090f565b6040516100fd9190612099565b60405180910390f35b610120600480360381019061011b9190612114565b610cce565b005b34801561012e57600080fd5b50610149600480360381019061014491906120e7565b611309565b6040516101569190612099565b60405180910390f35b61017960048036038101906101749190612289565b6116c8565b005b34801561018757600080fd5b506101a2600480360381019061019d9190611dd4565b6119dd565b6040516101af919061241a565b60405180910390f35b60006002600083815260200190815260200160002060405180610120016040529081600082015481526020016001820180546101f39061246b565b80601f016020809104026020016040519081016040528092919081815260200182805461021f9061246b565b801561026c5780601f106102415761010080835404028352916020019161026c565b820191906000526020600020905b81548152906001019060200180831161024f57829003601f168201915b505050505081526020016002820160009054906101000a900473ffffffffffffffffffffffffffffffffffffffff1673ffffffffffffffffffffffffffffffffffffffff1673ffffffffffffffffffffffffffffffffffffffff168152602001600382015481526020016004820160009054906101000a900473ffffffffffffffffffffffffffffffffffffffff1673ffffffffffffffffffffffffffffffffffffffff1673ffffffffffffffffffffffffffffffffffffffff1681526020016005820160009054906101000a900473ffffffffffffffffffffffffffffffffffffffff1673ffffffffffffffffffffffffffffffffffffffff1673ffffffffffffffffffffffffffffffffffffffff1681526020016006820154815260200160078201805461039b9061246b565b80601f01602080910402602001604051908101604052809291908181526020018280546103c79061246b565b80156104145780601f106103e957610100808354040283529160200191610414565b820191906000526020600020905b8154815290600101906020018083116103f757829003601f168201915b5050505050815260200160088201548152505090503373ffffffffffffffffffffffffffffffffffffffff16816080015173ffffffffffffffffffffffffffffffffffffffff161461049b576040517f08c379a000000000000000000000000000000000000000000000000000000000815260040161049290612520565b60405180910390fd5b6000816040015173ffffffffffffffffffffffffffffffffffffffff16600460009054906101000a900473ffffffffffffffffffffffffffffffffffffffff1660016040516024016104ee92919061256a565b6040516020818303038152906040527fa22cb465000000000000000000000000000000000000000000000000000000007bffffffffffffffffffffffffffffffffffffffffffffffffffffffff19166020820180517bffffffffffffffffffffffffffffffffffffffffffffffffffffffff838183161783525050505060405161057891906125da565b600060405180830381855af49150503d80600081146105b3576040519150601f19603f3d011682016040523d82523d6000602084013e6105b8565b606091505b50509050806105fc576040517f08c379a00000000000000000000000000000000000000000000000000000000081526004016105f39061263d565b60405180910390fd5b505050565b60606000805467ffffffffffffffff8111156106205761061f61215e565b5b60405190808252806020026020018201604052801561065957816020015b610646611c59565b81526020019060019003908161063e5790505b50905060005b600054811015610907576002600082815260200190815260200160002060405180610120016040529081600082015481526020016001820180546106a29061246b565b80601f01602080910402602001604051908101604052809291908181526020018280546106ce9061246b565b801561071b5780601f106106f05761010080835404028352916020019161071b565b820191906000526020600020905b8154815290600101906020018083116106fe57829003601f168201915b505050505081526020016002820160009054906101000a900473ffffffffffffffffffffffffffffffffffffffff1673ffffffffffffffffffffffffffffffffffffffff1673ffffffffffffffffffffffffffffffffffffffff168152602001600382015481526020016004820160009054906101000a900473ffffffffffffffffffffffffffffffffffffffff1673ffffffffffffffffffffffffffffffffffffffff1673ffffffffffffffffffffffffffffffffffffffff1681526020016005820160009054906101000a900473ffffffffffffffffffffffffffffffffffffffff1673ffffffffffffffffffffffffffffffffffffffff1673ffffffffffffffffffffffffffffffffffffffff1681526020016006820154815260200160078201805461084a9061246b565b80601f01602080910402602001604051908101604052809291908181526020018280546108769061246b565b80156108c35780601f10610898576101008083540402835291602001916108c3565b820191906000526020600020905b8154815290600101906020018083116108a657829003601f168201915b505050505081526020016008820154815250508282815181106108e9576108e861265d565b5b602002602001018190525080806108ff906126bb565b91505061065f565b508091505090565b60606000600360008473ffffffffffffffffffffffffffffffffffffffff1673ffffffffffffffffffffffffffffffffffffffff16815260200190815260200160002054905060008167ffffffffffffffff8111156109715761097061215e565b5b6040519080825280602002602001820160405280156109aa57816020015b610997611c59565b81526020019060019003908161098f5790505b50905060005b600054811015610cc3578473ffffffffffffffffffffffffffffffffffffffff166002600083815260200190815260200160002060050160009054906101000a900473ffffffffffffffffffffffffffffffffffffffff1673ffffffffffffffffffffffffffffffffffffffff161415610cb057600260008281526020019081526020016000206040518061012001604052908160008201548152602001600182018054610a5d9061246b565b80601f0160208091040260200160405190810160405280929190818152602001828054610a899061246b565b8015610ad65780601f10610aab57610100808354040283529160200191610ad6565b820191906000526020600020905b815481529060010190602001808311610ab957829003601f168201915b505050505081526020016002820160009054906101000a900473ffffffffffffffffffffffffffffffffffffffff1673ffffffffffffffffffffffffffffffffffffffff1673ffffffffffffffffffffffffffffffffffffffff168152602001600382015481526020016004820160009054906101000a900473ffffffffffffffffffffffffffffffffffffffff1673ffffffffffffffffffffffffffffffffffffffff1673ffffffffffffffffffffffffffffffffffffffff1681526020016005820160009054906101000a900473ffffffffffffffffffffffffffffffffffffffff1673ffffffffffffffffffffffffffffffffffffffff1673ffffffffffffffffffffffffffffffffffffffff16815260200160068201548152602001600782018054610c059061246b565b80601f0160208091040260200160405190810160405280929190818152602001828054610c319061246b565b8015610c7e5780601f10610c5357610100808354040283529160200191610c7e565b820191906000526020600020905b815481529060010190602001808311610c6157829003601f168201915b50505050508152602001600882015481525050828281518110610ca457610ca361265d565b5b60200260200101819052505b8080610cbb906126bb565b9150506109b0565b508092505050919050565b6000600260008481526020019081526020016000206040518061012001604052908160008201548152602001600182018054610d099061246b565b80601f0160208091040260200160405190810160405280929190818152602001828054610d359061246b565b8015610d825780601f10610d5757610100808354040283529160200191610d82565b820191906000526020600020905b815481529060010190602001808311610d6557829003601f168201915b505050505081526020016002820160009054906101000a900473ffffffffffffffffffffffffffffffffffffffff1673ffffffffffffffffffffffffffffffffffffffff1673ffffffffffffffffffffffffffffffffffffffff168152602001600382015481526020016004820160009054906101000a900473ffffffffffffffffffffffffffffffffffffffff1673ffffffffffffffffffffffffffffffffffffffff1673ffffffffffffffffffffffffffffffffffffffff1681526020016005820160009054906101000a900473ffffffffffffffffffffffffffffffffffffffff1673ffffffffffffffffffffffffffffffffffffffff1673ffffffffffffffffffffffffffffffffffffffff16815260200160068201548152602001600782018054610eb19061246b565b80601f0160208091040260200160405190810160405280929190818152602001828054610edd9061246b565b8015610f2a5780601f10610eff57610100808354040283529160200191610f2a565b820191906000526020600020905b815481529060010190602001808311610f0d57829003601f168201915b5050505050815260200160088201548152505090508173ffffffffffffffffffffffffffffffffffffffff16816080015173ffffffffffffffffffffffffffffffffffffffff161415610fb2576040517f08c379a0000000000000000000000000000000000000000000000000000000008152600401610fa990612750565b60405180910390fd5b8060c001513414610ff8576040517f08c379a0000000000000000000000000000000000000000000000000000000008152600401610fef906127bc565b60405180910390fd5b8060a0015173ffffffffffffffffffffffffffffffffffffffff168273ffffffffffffffffffffffffffffffffffffffff16146111035760006064826101000151611043919061280b565b3461104e919061283c565b905060008260a0015173ffffffffffffffffffffffffffffffffffffffff168260405161107a906128bc565b60006040518083038185875af1925050503d80600081146110b7576040519150601f19603f3d011682016040523d82523d6000602084013e6110bc565b606091505b5050905080611100576040517f08c379a00000000000000000000000000000000000000000000000000000000081526004016110f790612943565b60405180910390fd5b50505b6000816040015173ffffffffffffffffffffffffffffffffffffffff16636352211e83606001516040518263ffffffff1660e01b81526004016111469190612972565b602060405180830381865afa158015611163573d6000803e3d6000fd5b505050506040513d601f19601f8201168201806040525081019061118791906129a2565b9050816040015173ffffffffffffffffffffffffffffffffffffffff166323b872dd828585606001516040518463ffffffff1660e01b81526004016111ce939291906129cf565b600060405180830381600087803b1580156111e857600080fd5b505af11580156111fc573d6000803e3d6000fd5b50505050826002600086815260200190815260200160002060040160006101000a81548173ffffffffffffffffffffffffffffffffffffffff021916908373ffffffffffffffffffffffffffffffffffffffff16021790555060036000836080015173ffffffffffffffffffffffffffffffffffffffff1673ffffffffffffffffffffffffffffffffffffffff16815260200190815260200160002060008154809291906112a990612a06565b9190505550600360008473ffffffffffffffffffffffffffffffffffffffff1673ffffffffffffffffffffffffffffffffffffffff16815260200190815260200160002060008154809291906112fe906126bb565b919050555050505050565b60606000600360008473ffffffffffffffffffffffffffffffffffffffff1673ffffffffffffffffffffffffffffffffffffffff16815260200190815260200160002054905060008167ffffffffffffffff81111561136b5761136a61215e565b5b6040519080825280602002602001820160405280156113a457816020015b611391611c59565b8152602001906001900390816113895790505b50905060005b6000548110156116bd578473ffffffffffffffffffffffffffffffffffffffff166002600083815260200190815260200160002060040160009054906101000a900473ffffffffffffffffffffffffffffffffffffffff1673ffffffffffffffffffffffffffffffffffffffff1614156116aa576002600082815260200190815260200160002060405180610120016040529081600082015481526020016001820180546114579061246b565b80601f01602080910402602001604051908101604052809291908181526020018280546114839061246b565b80156114d05780601f106114a5576101008083540402835291602001916114d0565b820191906000526020600020905b8154815290600101906020018083116114b357829003601f168201915b505050505081526020016002820160009054906101000a900473ffffffffffffffffffffffffffffffffffffffff1673ffffffffffffffffffffffffffffffffffffffff1673ffffffffffffffffffffffffffffffffffffffff168152602001600382015481526020016004820160009054906101000a900473ffffffffffffffffffffffffffffffffffffffff1673ffffffffffffffffffffffffffffffffffffffff1673ffffffffffffffffffffffffffffffffffffffff1681526020016005820160009054906101000a900473ffffffffffffffffffffffffffffffffffffffff1673ffffffffffffffffffffffffffffffffffffffff1673ffffffffffffffffffffffffffffffffffffffff168152602001600682015481526020016007820180546115ff9061246b565b80601f016020809104026020016040519081016040528092919081815260200182805461162b9061246b565b80156116785780601f1061164d57610100808354040283529160200191611678565b820191906000526020600020905b81548152906001019060200180831161165b57829003601f168201915b5050505050815260200160088201548152505082828151811061169e5761169d61265d565b5b60200260200101819052505b80806116b5906126bb565b9150506113aa565b508092505050919050565b600160009054906101000a900460ff1615611718576040517f08c379a000000000000000000000000000000000000000000000000000000000815260040161170f90612a7c565b60405180910390fd5b60018060006101000a81548160ff02191690831515021790555060008311611775576040517f08c379a000000000000000000000000000000000000000000000000000000000815260040161176c90612ae8565b60405180910390fd5b600033905060405180610120016040528060005481526020018681526020018873ffffffffffffffffffffffffffffffffffffffff1681526020018481526020018273ffffffffffffffffffffffffffffffffffffffff1681526020018273ffffffffffffffffffffffffffffffffffffffff168152602001858152602001878152602001838152506002600080548152602001908152602001600020600082015181600001556020820151816001019080519060200190611838929190611ce7565b5060408201518160020160006101000a81548173ffffffffffffffffffffffffffffffffffffffff021916908373ffffffffffffffffffffffffffffffffffffffff1602179055506060820151816003015560808201518160040160006101000a81548173ffffffffffffffffffffffffffffffffffffffff021916908373ffffffffffffffffffffffffffffffffffffffff16021790555060a08201518160050160006101000a81548173ffffffffffffffffffffffffffffffffffffffff021916908373ffffffffffffffffffffffffffffffffffffffff16021790555060c0820151816006015560e082015181600701908051906020019061193e929190611ce7565b506101008201518160080155905050600360003373ffffffffffffffffffffffffffffffffffffffff1673ffffffffffffffffffffffffffffffffffffffff168152602001908152602001600020600081548092919061199d906126bb565b91905055506000808154809291906119b4906126bb565b9190505550506000600160006101000a81548160ff021916908315150217905550505050505050565b6119e5611c59565b600260008381526020019081526020016000206040518061012001604052908160008201548152602001600182018054611a1e9061246b565b80601f0160208091040260200160405190810160405280929190818152602001828054611a4a9061246b565b8015611a975780601f10611a6c57610100808354040283529160200191611a97565b820191906000526020600020905b815481529060010190602001808311611a7a57829003601f168201915b505050505081526020016002820160009054906101000a900473ffffffffffffffffffffffffffffffffffffffff1673ffffffffffffffffffffffffffffffffffffffff1673ffffffffffffffffffffffffffffffffffffffff168152602001600382015481526020016004820160009054906101000a900473ffffffffffffffffffffffffffffffffffffffff1673ffffffffffffffffffffffffffffffffffffffff1673ffffffffffffffffffffffffffffffffffffffff1681526020016005820160009054906101000a900473ffffffffffffffffffffffffffffffffffffffff1673ffffffffffffffffffffffffffffffffffffffff1673ffffffffffffffffffffffffffffffffffffffff16815260200160068201548152602001600782018054611bc69061246b565b80601f0160208091040260200160405190810160405280929190818152602001828054611bf29061246b565b8015611c3f5780601f10611c1457610100808354040283529160200191611c3f565b820191906000526020600020905b815481529060010190602001808311611c2257829003601f168201915b505050505081526020016008820154815250509050919050565b6040518061012001604052806000815260200160608152602001600073ffffffffffffffffffffffffffffffffffffffff16815260200160008152602001600073ffffffffffffffffffffffffffffffffffffffff168152602001600073ffffffffffffffffffffffffffffffffffffffff1681526020016000815260200160608152602001600081525090565b828054611cf39061246b565b90600052602060002090601f016020900481019282611d155760008555611d5c565b82601f10611d2e57805160ff1916838001178555611d5c565b82800160010185558215611d5c579182015b82811115611d5b578251825591602001919060010190611d40565b5b509050611d699190611d6d565b5090565b5b80821115611d86576000816000905550600101611d6e565b5090565b6000604051905090565b600080fd5b600080fd5b6000819050919050565b611db181611d9e565b8114611dbc57600080fd5b50565b600081359050611dce81611da8565b92915050565b600060208284031215611dea57611de9611d94565b5b6000611df884828501611dbf565b91505092915050565b600081519050919050565b600082825260208201905092915050565b6000819050602082019050919050565b611e3681611d9e565b82525050565b600081519050919050565b600082825260208201905092915050565b60005b83811015611e76578082015181840152602081019050611e5b565b83811115611e85576000848401525b50505050565b6000601f19601f8301169050919050565b6000611ea782611e3c565b611eb18185611e47565b9350611ec1818560208601611e58565b611eca81611e8b565b840191505092915050565b600073ffffffffffffffffffffffffffffffffffffffff82169050919050565b6000611f0082611ed5565b9050919050565b611f1081611ef5565b82525050565b6000611f2182611ed5565b9050919050565b611f3181611f16565b82525050565b600061012083016000830151611f506000860182611e2d565b5060208301518482036020860152611f688282611e9c565b9150506040830151611f7d6040860182611f07565b506060830151611f906060860182611e2d565b506080830151611fa36080860182611f28565b5060a0830151611fb660a0860182611f28565b5060c0830151611fc960c0860182611e2d565b5060e083015184820360e0860152611fe18282611e9c565b915050610100830151611ff8610100860182611e2d565b508091505092915050565b600061200f8383611f37565b905092915050565b6000602082019050919050565b600061202f82611e01565b6120398185611e0c565b93508360208202850161204b85611e1d565b8060005b8581101561208757848403895281516120688582612003565b945061207383612017565b925060208a0199505060018101905061204f565b50829750879550505050505092915050565b600060208201905081810360008301526120b38184612024565b905092915050565b6120c481611ef5565b81146120cf57600080fd5b50565b6000813590506120e1816120bb565b92915050565b6000602082840312156120fd576120fc611d94565b5b600061210b848285016120d2565b91505092915050565b6000806040838503121561212b5761212a611d94565b5b600061213985828601611dbf565b925050602061214a858286016120d2565b9150509250929050565b600080fd5b600080fd5b7f4e487b7100000000000000000000000000000000000000000000000000000000600052604160045260246000fd5b61219682611e8b565b810181811067ffffffffffffffff821117156121b5576121b461215e565b5b80604052505050565b60006121c8611d8a565b90506121d4828261218d565b919050565b600067ffffffffffffffff8211156121f4576121f361215e565b5b6121fd82611e8b565b9050602081019050919050565b82818337600083830152505050565b600061222c612227846121d9565b6121be565b90508281526020810184848401111561224857612247612159565b5b61225384828561220a565b509392505050565b600082601f8301126122705761226f612154565b5b8135612280848260208601612219565b91505092915050565b60008060008060008060c087890312156122a6576122a5611d94565b5b60006122b489828a016120d2565b965050602087013567ffffffffffffffff8111156122d5576122d4611d99565b5b6122e189828a0161225b565b955050604087013567ffffffffffffffff81111561230257612301611d99565b5b61230e89828a0161225b565b945050606061231f89828a01611dbf565b935050608061233089828a01611dbf565b92505060a061234189828a01611dbf565b9150509295509295509295565b6000610120830160008301516123676000860182611e2d565b506020830151848203602086015261237f8282611e9c565b91505060408301516123946040860182611f07565b5060608301516123a76060860182611e2d565b5060808301516123ba6080860182611f28565b5060a08301516123cd60a0860182611f28565b5060c08301516123e060c0860182611e2d565b5060e083015184820360e08601526123f88282611e9c565b91505061010083015161240f610100860182611e2d565b508091505092915050565b60006020820190508181036000830152612434818461234e565b905092915050565b7f4e487b7100000000000000000000000000000000000000000000000000000000600052602260045260246000fd5b6000600282049050600182168061248357607f821691505b602082108114156124975761249661243c565b5b50919050565b600082825260208201905092915050565b7f4f6e6c79206f776e65722063616e2070757420746865206974656d20666f722060008201527f73616c6500000000000000000000000000000000000000000000000000000000602082015250565b600061250a60248361249d565b9150612515826124ae565b604082019050919050565b60006020820190508181036000830152612539816124fd565b9050919050565b61254981611ef5565b82525050565b60008115159050919050565b6125648161254f565b82525050565b600060408201905061257f6000830185612540565b61258c602083018461255b565b9392505050565b600081519050919050565b600081905092915050565b60006125b482612593565b6125be818561259e565b93506125ce818560208601611e58565b80840191505092915050565b60006125e682846125a9565b915081905092915050565b7f556e61626c6520746f20707574206974656d20666f722073616c650000000000600082015250565b6000612627601b8361249d565b9150612632826125f1565b602082019050919050565b600060208201905081810360008301526126568161261a565b9050919050565b7f4e487b7100000000000000000000000000000000000000000000000000000000600052603260045260246000fd5b7f4e487b7100000000000000000000000000000000000000000000000000000000600052601160045260246000fd5b60006126c682611d9e565b91507fffffffffffffffffffffffffffffffffffffffffffffffffffffffffffffffff8214156126f9576126f861268c565b5b600182019050919050565b7f596f7520616c7265616479206f776e2074686973206974656d00000000000000600082015250565b600061273a60198361249d565b915061274582612704565b602082019050919050565b600060208201905081810360008301526127698161272d565b9050919050565b7f496e76616c69642070726963652076616c756500000000000000000000000000600082015250565b60006127a660138361249d565b91506127b182612770565b602082019050919050565b600060208201905081810360008301526127d581612799565b9050919050565b7f4e487b7100000000000000000000000000000000000000000000000000000000600052601260045260246000fd5b600061281682611d9e565b915061282183611d9e565b925082612831576128306127dc565b5b828204905092915050565b600061284782611d9e565b915061285283611d9e565b9250817fffffffffffffffffffffffffffffffffffffffffffffffffffffffffffffffff048311821515161561288b5761288a61268c565b5b828202905092915050565b50565b60006128a660008361259e565b91506128b182612896565b600082019050919050565b60006128c782612899565b9150819050919050565b7f556e61626c6520746f2070726f6365656420776974686f757420706179696e6760008201527f20726f79616c747920746f207468652063726561746f72000000000000000000602082015250565b600061292d60378361249d565b9150612938826128d1565b604082019050919050565b6000602082019050818103600083015261295c81612920565b9050919050565b61296c81611d9e565b82525050565b60006020820190506129876000830184612963565b92915050565b60008151905061299c816120bb565b92915050565b6000602082840312156129b8576129b7611d94565b5b60006129c68482850161298d565b91505092915050565b60006060820190506129e46000830186612540565b6129f16020830185612540565b6129fe6040830184612963565b949350505050565b6000612a1182611d9e565b91506000821415612a2557612a2461268c565b5b600182039050919050565b7f4e6f2072652d656e7472616e6379000000000000000000000000000000000000600082015250565b6000612a66600e8361249d565b9150612a7182612a30565b602082019050919050565b60006020820190508181036000830152612a9581612a59565b9050919050565b7f5072696365206d757374206265206174206c6561737420312077656900000000600082015250565b6000612ad2601c8361249d565b9150612add82612a9c565b602082019050919050565b60006020820190508181036000830152612b0181612ac5565b905091905056fea2646970667358221220a468e2ae990749006a6a794acc2578af6d81c74ceee6bbb3da2174b8e652f66264736f6c634300080c0033",
  "immutableReferences": {},
  "source": "// SPDX-License-Identifier: MIT\npragma solidity ^0.8.11;\n\nimport \"../node_modules/@openzeppelin/contracts/token/ERC721/IERC721.sol\";\nimport \"../node_modules/@openzeppelin/contracts/token/ERC721/IERC721Receiver.sol\";\nimport \"../node_modules/@openzeppelin/contracts/token/ERC721/extensions/ERC721URIStorage.sol\";\n\nimport \"./CRYPT.sol\";\n\ncontract NFTStore {\n\n    struct Item {\n        uint256 itemId;\n        string name;\n        address nftContract;\n        uint256 tokenId;\n        address payable owner;\n        address payable creator;\n        uint256 price;\n        string uri;\n        uint256 royaltyPercent;\n    }\n\n    uint256 private itemId;\n    bool private locked = false;\n    mapping(uint256 => Item) private idToItem;\n    mapping(address => uint256) private addressToItemsCount;\n    address private marketOwner;\n\n    event random(string msg, address addr);\n\n    constructor(address cowner) {\n        itemId = 0;\n        marketOwner = cowner;\n    }\n\n    modifier onlyOwner() {\n        require(marketOwner == msg.sender);\n        _;\n    }\n\n    modifier lockEntry() {\n        require(!locked, \"No re-entrancy\");\n        locked = true;\n        _;\n        locked = false;\n    }\n\n    function createItem(\n        address nftContract, \n        string memory uri, \n        string memory name,\n        uint256 price,\n        uint256 tId,\n        uint256 royaltyPercent\n    ) public payable lockEntry {\n        require(price > 0, \"Price must be at least 1 wei\");\n        // uint256 tId = CRYPT(nftContract).createToken(uri, msg.sender);\n        // (bool success,) = nftContract.delegatecall(\n        //     abi.encodeWithSignature(\"createToken(string,address)\", uri, msg.sender)\n        // );\n        // require(success, \"Unable to createToken\");\n        // uint256 tId = CRYPT(nftContract).getLastTokenId();\n        address payable addr = payable(msg.sender);\n        idToItem[itemId] = Item(\n            itemId, \n            name, \n            nftContract, \n            tId, \n            addr, \n            addr, \n            price, \n            uri,\n            royaltyPercent\n        );\n        addressToItemsCount[msg.sender]++;\n        itemId++;\n    }\n\n    function getItemById(uint256 id) public view returns(Item memory){\n        return idToItem[id];\n    }\n\n    function getItems() public view returns(Item[] memory){\n        Item[] memory items = new Item[](itemId);\n        for (uint256 index = 0; index < itemId; index++) {\n            items[index] = idToItem[index];\n        }\n        return items;\n    }\n    \n    function getItemsOwnedByUser(address caller) public view returns(Item[] memory){\n        uint256 count = addressToItemsCount[caller];\n        Item[] memory items = new Item[](count);\n        for (uint256 index = 0; index < itemId; index++) {\n            if (idToItem[index].owner == caller) {   \n                items[index] = idToItem[index];\n            }\n        }\n        return items;\n    }\n    \n    function getItemsCreatedByUser(address caller) public view returns(Item[] memory){\n        uint256 count = addressToItemsCount[caller];\n        Item[] memory items = new Item[](count);\n        for (uint256 index = 0; index < itemId; index++) {\n            if (idToItem[index].creator == caller) {   \n                items[index] = idToItem[index];\n            }\n        }\n        return items;\n    }\n\n    function putItemForSale(uint256 id) public {\n        Item memory item = idToItem[id];\n        require(item.owner == msg.sender, \"Only owner can put the item for sale\");\n        // CRYPT(item.nftContract).setApprovalForAll(address(this), true);\n        (bool success,) = item.nftContract.delegatecall(\n            abi.encodeWithSignature(\"setApprovalForAll(address,bool)\", marketOwner ,true)\n        );\n        require(success, \"Unable to put item for sale\");\n    }\n\n    function buyItem(uint256 id, address buyer) public payable {\n        Item memory item = idToItem[id];\n        require(item.owner != buyer, \"You already own this item\");\n        require(msg.value == item.price, \"Invalid price value\");\n        if(buyer != item.creator) {\n            uint256 royalty = msg.value * (item.royaltyPercent/100);\n            (bool royaltyGiven,) = item.creator.call{value: royalty}(\"\");\n            require(royaltyGiven, \"Unable to proceed without paying royalty to the creator\");\n        }\n        address currentOwner = IERC721(item.nftContract).ownerOf(item.tokenId);\n        IERC721(item.nftContract).transferFrom(currentOwner, buyer, item.tokenId);\n\n        // (bool transferred,) = item.nftContract.delegatecall(\n        //     abi.encodeWithSignature(\"transferFrom(address,address,bool)\", item.owner, buyer, item.tokenId)\n        // );\n        // require(transferred, \"Unable to transfer token\");\n        idToItem[id].owner = payable(buyer);\n        addressToItemsCount[item.owner]--;\n        addressToItemsCount[buyer]++;\n    }\n}",
  "sourcePath": "/Users/abhinavkhanduja/Desktop/BlockchainDevelopment/cryptagram/packages/client/contracts/NFTStore.sol",
  "compiler": {
    "name": "solc",
    "version": "0.8.12+commit.f00d7308.Emscripten.clang"
  },
  "schemaVersion": "3.4.4",
  "updatedAt": "2022-03-08T15:48:41.382Z",
  "devdoc": {
    "kind": "dev",
    "methods": {},
    "version": 1
  },
  "userdoc": {
    "kind": "user",
    "methods": {},
    "version": 1
  }
}