{
  "contractName": "Post",
  "abi": [
    {
      "anonymous": false,
      "inputs": [
        {
          "components": [
            {
              "internalType": "address",
              "name": "from",
              "type": "address"
            },
            {
              "internalType": "uint256",
              "name": "date",
              "type": "uint256"
            },
            {
              "internalType": "string",
              "name": "postUrl",
              "type": "string"
            },
            {
              "internalType": "string",
              "name": "postType",
              "type": "string"
            }
          ],
          "indexed": false,
          "internalType": "struct Post.PostData",
          "name": "data",
          "type": "tuple"
        }
      ],
      "name": "PostAdded",
      "type": "event"
    },
    {
      "inputs": [],
      "name": "name",
      "outputs": [
        {
          "internalType": "string",
          "name": "",
          "type": "string"
        }
      ],
      "stateMutability": "view",
      "type": "function",
      "constant": true
    },
    {
      "inputs": [
        {
          "internalType": "uint256",
          "name": "",
          "type": "uint256"
        }
      ],
      "name": "posts",
      "outputs": [
        {
          "internalType": "address",
          "name": "from",
          "type": "address"
        },
        {
          "internalType": "uint256",
          "name": "date",
          "type": "uint256"
        },
        {
          "internalType": "string",
          "name": "postUrl",
          "type": "string"
        },
        {
          "internalType": "string",
          "name": "postType",
          "type": "string"
        }
      ],
      "stateMutability": "view",
      "type": "function",
      "constant": true
    },
    {
      "inputs": [
        {
          "internalType": "uint256",
          "name": "results",
          "type": "uint256"
        },
        {
          "internalType": "uint256",
          "name": "lastPage",
          "type": "uint256"
        }
      ],
      "name": "getPosts",
      "outputs": [
        {
          "components": [
            {
              "internalType": "address",
              "name": "from",
              "type": "address"
            },
            {
              "internalType": "uint256",
              "name": "date",
              "type": "uint256"
            },
            {
              "internalType": "string",
              "name": "postUrl",
              "type": "string"
            },
            {
              "internalType": "string",
              "name": "postType",
              "type": "string"
            }
          ],
          "internalType": "struct Post.PostData[]",
          "name": "",
          "type": "tuple[]"
        }
      ],
      "stateMutability": "view",
      "type": "function",
      "constant": true
    },
    {
      "inputs": [
        {
          "components": [
            {
              "internalType": "address",
              "name": "from",
              "type": "address"
            },
            {
              "internalType": "uint256",
              "name": "date",
              "type": "uint256"
            },
            {
              "internalType": "string",
              "name": "postUrl",
              "type": "string"
            },
            {
              "internalType": "string",
              "name": "postType",
              "type": "string"
            }
          ],
          "internalType": "struct Post.PostData",
          "name": "post",
          "type": "tuple"
        }
      ],
      "name": "savePost",
      "outputs": [
        {
          "internalType": "uint256",
          "name": "",
          "type": "uint256"
        }
      ],
      "stateMutability": "nonpayable",
      "type": "function"
    },
    {
      "inputs": [],
      "name": "getCount",
      "outputs": [
        {
          "internalType": "uint256",
          "name": "count",
          "type": "uint256"
        }
      ],
      "stateMutability": "view",
      "type": "function",
      "constant": true
    }
  ],
  "bytecode": "0x608060405234801561001057600080fd5b506110c5806100206000396000f3fe608060405234801561001057600080fd5b50600436106100575760003560e01c806306fdde031461005c5780630b1e7f831461007a5780634ffd1be6146100ad578063a87d942c146100dd578063fd2c7745146100fb575b600080fd5b61006461012b565b60405161007191906108aa565b60405180910390f35b610094600480360381019061008f9190610916565b610164565b6040516100a49493929190610993565b60405180910390f35b6100c760048036038101906100c291906109e6565b6102d4565b6040516100d49190610bba565b60405180910390f35b6100e56105a9565b6040516100f29190610bdc565b60405180910390f35b61011560048036038101906101109190610e12565b6105b5565b6040516101229190610bdc565b60405180910390f35b6040518060400160405280600481526020017f506f73740000000000000000000000000000000000000000000000000000000081525081565b6000818154811061017457600080fd5b90600052602060002090600402016000915090508060000160009054906101000a900473ffffffffffffffffffffffffffffffffffffffff16908060010154908060020180546101c390610e8a565b80601f01602080910402602001604051908101604052809291908181526020018280546101ef90610e8a565b801561023c5780601f106102115761010080835404028352916020019161023c565b820191906000526020600020905b81548152906001019060200180831161021f57829003601f168201915b50505050509080600301805461025190610e8a565b80601f016020809104026020016040519081016040528092919081815260200182805461027d90610e8a565b80156102ca5780601f1061029f576101008083540402835291602001916102ca565b820191906000526020600020905b8154815290600101906020018083116102ad57829003601f168201915b5050505050905084565b606060016000805490506102e89190610eeb565b8214156103505760008067ffffffffffffffff81111561030b5761030a610bfc565b5b60405190808252806020026020018201604052801561034457816020015b610331610730565b8152602001906001900390816103295790505b509050809150506105a3565b60008367ffffffffffffffff81111561036c5761036b610bfc565b5b6040519080825280602002602001820160405280156103a557816020015b610392610730565b81526020019060019003908161038a5790505b50905060008390505b60008054905081101561059d57600081815481106103cf576103ce610f1f565b5b90600052602060002090600402016040518060800160405290816000820160009054906101000a900473ffffffffffffffffffffffffffffffffffffffff1673ffffffffffffffffffffffffffffffffffffffff1673ffffffffffffffffffffffffffffffffffffffff1681526020016001820154815260200160028201805461045890610e8a565b80601f016020809104026020016040519081016040528092919081815260200182805461048490610e8a565b80156104d15780601f106104a6576101008083540402835291602001916104d1565b820191906000526020600020905b8154815290600101906020018083116104b457829003601f168201915b505050505081526020016003820180546104ea90610e8a565b80601f016020809104026020016040519081016040528092919081815260200182805461051690610e8a565b80156105635780601f1061053857610100808354040283529160200191610563565b820191906000526020600020905b81548152906001019060200180831161054657829003601f168201915b50505050508152505082828151811061057f5761057e610f1f565b5b6020026020010181905250808061059590610f4e565b9150506103ae565b50809150505b92915050565b60008080549050905090565b60003373ffffffffffffffffffffffffffffffffffffffff16826000015173ffffffffffffffffffffffffffffffffffffffff1614610629576040517f08c379a000000000000000000000000000000000000000000000000000000000815260040161062090610fe3565b60405180910390fd5b42826020018181525050600082908060018154018082558091505060019003906000526020600020906004020160009091909190915060008201518160000160006101000a81548173ffffffffffffffffffffffffffffffffffffffff021916908373ffffffffffffffffffffffffffffffffffffffff1602179055506020820151816001015560408201518160020190805190602001906106cc92919061076e565b5060608201518160030190805190602001906106e992919061076e565b5050507fa3ddbeb230b96f08d5d54f09da7e1d6e77e4f66697d6518a0b7a82c8f1d86b458260405161071b919061106d565b60405180910390a16000805490509050919050565b6040518060800160405280600073ffffffffffffffffffffffffffffffffffffffff1681526020016000815260200160608152602001606081525090565b82805461077a90610e8a565b90600052602060002090601f01602090048101928261079c57600085556107e3565b82601f106107b557805160ff19168380011785556107e3565b828001600101855582156107e3579182015b828111156107e25782518255916020019190600101906107c7565b5b5090506107f091906107f4565b5090565b5b8082111561080d5760008160009055506001016107f5565b5090565b600081519050919050565b600082825260208201905092915050565b60005b8381101561084b578082015181840152602081019050610830565b8381111561085a576000848401525b50505050565b6000601f19601f8301169050919050565b600061087c82610811565b610886818561081c565b935061089681856020860161082d565b61089f81610860565b840191505092915050565b600060208201905081810360008301526108c48184610871565b905092915050565b6000604051905090565b600080fd5b600080fd5b6000819050919050565b6108f3816108e0565b81146108fe57600080fd5b50565b600081359050610910816108ea565b92915050565b60006020828403121561092c5761092b6108d6565b5b600061093a84828501610901565b91505092915050565b600073ffffffffffffffffffffffffffffffffffffffff82169050919050565b600061096e82610943565b9050919050565b61097e81610963565b82525050565b61098d816108e0565b82525050565b60006080820190506109a86000830187610975565b6109b56020830186610984565b81810360408301526109c78185610871565b905081810360608301526109db8184610871565b905095945050505050565b600080604083850312156109fd576109fc6108d6565b5b6000610a0b85828601610901565b9250506020610a1c85828601610901565b9150509250929050565b600081519050919050565b600082825260208201905092915050565b6000819050602082019050919050565b610a5b81610963565b82525050565b610a6a816108e0565b82525050565b600082825260208201905092915050565b6000610a8c82610811565b610a968185610a70565b9350610aa681856020860161082d565b610aaf81610860565b840191505092915050565b6000608083016000830151610ad26000860182610a52565b506020830151610ae56020860182610a61565b5060408301518482036040860152610afd8282610a81565b91505060608301518482036060860152610b178282610a81565b9150508091505092915050565b6000610b308383610aba565b905092915050565b6000602082019050919050565b6000610b5082610a26565b610b5a8185610a31565b935083602082028501610b6c85610a42565b8060005b85811015610ba85784840389528151610b898582610b24565b9450610b9483610b38565b925060208a01995050600181019050610b70565b50829750879550505050505092915050565b60006020820190508181036000830152610bd48184610b45565b905092915050565b6000602082019050610bf16000830184610984565b92915050565b600080fd5b7f4e487b7100000000000000000000000000000000000000000000000000000000600052604160045260246000fd5b610c3482610860565b810181811067ffffffffffffffff82111715610c5357610c52610bfc565b5b80604052505050565b6000610c666108cc565b9050610c728282610c2b565b919050565b600080fd5b610c8581610963565b8114610c9057600080fd5b50565b600081359050610ca281610c7c565b92915050565b600080fd5b600080fd5b600067ffffffffffffffff821115610ccd57610ccc610bfc565b5b610cd682610860565b9050602081019050919050565b82818337600083830152505050565b6000610d05610d0084610cb2565b610c5c565b905082815260208101848484011115610d2157610d20610cad565b5b610d2c848285610ce3565b509392505050565b600082601f830112610d4957610d48610ca8565b5b8135610d59848260208601610cf2565b91505092915050565b600060808284031215610d7857610d77610bf7565b5b610d826080610c5c565b90506000610d9284828501610c93565b6000830152506020610da684828501610901565b602083015250604082013567ffffffffffffffff811115610dca57610dc9610c77565b5b610dd684828501610d34565b604083015250606082013567ffffffffffffffff811115610dfa57610df9610c77565b5b610e0684828501610d34565b60608301525092915050565b600060208284031215610e2857610e276108d6565b5b600082013567ffffffffffffffff811115610e4657610e456108db565b5b610e5284828501610d62565b91505092915050565b7f4e487b7100000000000000000000000000000000000000000000000000000000600052602260045260246000fd5b60006002820490506001821680610ea257607f821691505b60208210811415610eb657610eb5610e5b565b5b50919050565b7f4e487b7100000000000000000000000000000000000000000000000000000000600052601160045260246000fd5b6000610ef6826108e0565b9150610f01836108e0565b925082821015610f1457610f13610ebc565b5b828203905092915050565b7f4e487b7100000000000000000000000000000000000000000000000000000000600052603260045260246000fd5b6000610f59826108e0565b91507fffffffffffffffffffffffffffffffffffffffffffffffffffffffffffffffff821415610f8c57610f8b610ebc565b5b600182019050919050565b7f75736572206164647265737320696e76616c6964000000000000000000000000600082015250565b6000610fcd60148361081c565b9150610fd882610f97565b602082019050919050565b60006020820190508181036000830152610ffc81610fc0565b9050919050565b600060808301600083015161101b6000860182610a52565b50602083015161102e6020860182610a61565b50604083015184820360408601526110468282610a81565b915050606083015184820360608601526110608282610a81565b9150508091505092915050565b600060208201905081810360008301526110878184611003565b90509291505056fea2646970667358221220dbd2ef416e0ad1fea74c770639f05ba2d6c05b945b8971ae242fe52dc723dc8864736f6c634300080b0033",
  "immutableReferences": {},
  "source": "// SPDX-License-Identifier: MIT\npragma solidity ^0.8.11;\n\ncontract Post {\n    string public constant name = \"Post\";\n\n    struct PostData {\n        address from;\n        uint date;\n        string postUrl;\n        string postType;\n    }\n\n    PostData[] public posts;\n\n    event PostAdded(PostData data);\n\n    function getPosts(uint results, uint lastPage) public view returns(PostData[] memory) {\n        if (lastPage == (posts.length - 1)) {\n            PostData[] memory p = new PostData[](0);\n            return p;\n        } else {    \n            PostData[] memory p = new PostData[](results);\n            for (uint256 i = lastPage; i < posts.length; i++) {\n                p[i] = posts[i];\n            }\n            return p;\n        }\n    }\n    \n    function savePost(PostData memory post) public returns(uint){\n        require(post.from == msg.sender, \"user address invalid\");\n        post.date = block.timestamp;\n        posts.push(post);\n        // bool res = posts[posts.length - 1].from == msg.sender;\n        emit PostAdded(post);\n        return posts.length;\n    }\n\n    function getCount() public view returns(uint count) {\n        return posts.length;\n    }\n}",
  "sourcePath": "/Users/abhinavkhanduja/Desktop/BlockchainDevelopment/cryptagram/packages/client/contracts/Post.sol",
  "compiler": {
    "name": "solc",
    "version": "0.8.11+commit.d7f03943.Emscripten.clang"
  },
  "schemaVersion": "3.4.4",
  "updatedAt": "2022-01-24T19:43:04.717Z",
  "networkType": "ethereum",
  "devdoc": {
    "kind": "dev",
    "methods": {},
    "version": 1
  },
  "userdoc": {
    "kind": "user",
    "methods": {},
    "version": 1
  }
}