{
  "contractName": "Transfer",
  "abi": [
    {
      "anonymous": false,
      "inputs": [
        {
          "indexed": false,
          "internalType": "string",
          "name": "from",
          "type": "string"
        },
        {
          "indexed": false,
          "internalType": "string",
          "name": "post",
          "type": "string"
        }
      ],
      "name": "PostTipped",
      "type": "event"
    },
    {
      "inputs": [],
      "name": "name",
      "outputs": [
        {
          "internalType": "string",
          "name": "",
          "type": "string"
        }
      ],
      "stateMutability": "view",
      "type": "function",
      "constant": true
    },
    {
      "inputs": [
        {
          "internalType": "address",
          "name": "to",
          "type": "address"
        },
        {
          "internalType": "uint256",
          "name": "amt",
          "type": "uint256"
        }
      ],
      "name": "approve",
      "outputs": [
        {
          "internalType": "bool",
          "name": "",
          "type": "bool"
        }
      ],
      "stateMutability": "nonpayable",
      "type": "function"
    },
    {
      "inputs": [
        {
          "internalType": "string",
          "name": "postId",
          "type": "string"
        },
        {
          "internalType": "string",
          "name": "userId",
          "type": "string"
        }
      ],
      "name": "getSupportStatus",
      "outputs": [
        {
          "components": [
            {
              "internalType": "address",
              "name": "to",
              "type": "address"
            },
            {
              "internalType": "uint256",
              "name": "amount",
              "type": "uint256"
            }
          ],
          "internalType": "struct Transfer.SupportObj",
          "name": "",
          "type": "tuple"
        }
      ],
      "stateMutability": "view",
      "type": "function",
      "constant": true
    },
    {
      "inputs": [
        {
          "internalType": "address payable",
          "name": "to",
          "type": "address"
        },
        {
          "internalType": "string",
          "name": "userId",
          "type": "string"
        },
        {
          "internalType": "string",
          "name": "postId",
          "type": "string"
        }
      ],
      "name": "transfer",
      "outputs": [
        {
          "internalType": "bool",
          "name": "",
          "type": "bool"
        }
      ],
      "stateMutability": "payable",
      "type": "function",
      "payable": true
    }
  ],
  "bytecode": "0x608060405234801561001057600080fd5b50610c9d806100206000396000f3fe60806040526004361061003f5760003560e01c806306fdde0314610044578063095ea7b31461006f57806381378af7146100ac578063b25352fa146100dc575b600080fd5b34801561005057600080fd5b50610059610119565b6040516100669190610635565b60405180910390f35b34801561007b57600080fd5b50610096600480360381019061009191906106ff565b610152565b6040516100a3919061075a565b60405180910390f35b6100c660048036038101906100c191906108e8565b610243565b6040516100d3919061075a565b60405180910390f35b3480156100e857600080fd5b5061010360048036038101906100fe9190610973565b6104b7565b6040516101109190610a38565b60405180910390f35b6040518060400160405280600881526020017f5472616e7366657200000000000000000000000000000000000000000000000081525081565b600060016000808573ffffffffffffffffffffffffffffffffffffffff1673ffffffffffffffffffffffffffffffffffffffff16815260200190815260200160002060006101000a81548160ff02191690831515021790555081600160008573ffffffffffffffffffffffffffffffffffffffff1673ffffffffffffffffffffffffffffffffffffffff168152602001908152602001600020819055506000808473ffffffffffffffffffffffffffffffffffffffff1673ffffffffffffffffffffffffffffffffffffffff16815260200190815260200160002060009054906101000a900460ff16905092915050565b60008082511415610289576040517f08c379a000000000000000000000000000000000000000000000000000000000815260040161028090610a9f565b60405180910390fd5b6000835114156102ce576040517f08c379a00000000000000000000000000000000000000000000000000000000081526004016102c590610b0b565b60405180910390fd5b60006002836040516102e09190610b67565b9081526020016040518091039020846040516102fc9190610b67565b9081526020016040518091039020600101541461034e576040517f08c379a000000000000000000000000000000000000000000000000000000000815260040161034590610bca565b60405180910390fd5b60405180604001604052808573ffffffffffffffffffffffffffffffffffffffff168152602001348152506002836040516103899190610b67565b9081526020016040518091039020846040516103a59190610b67565b908152602001604051809103902060008201518160000160006101000a81548173ffffffffffffffffffffffffffffffffffffffff021916908373ffffffffffffffffffffffffffffffffffffffff1602179055506020820151816001015590505060008473ffffffffffffffffffffffffffffffffffffffff163460405161042d90610c1b565b60006040518083038185875af1925050503d806000811461046a576040519150601f19603f3d011682016040523d82523d6000602084013e61046f565b606091505b505090507f9c4f3bb93c6e2a0a66ea2b216bbd53a2cf58c589471b5e72f1342dc8aa45ec3284846040516104a4929190610c30565b60405180910390a1809150509392505050565b6104bf61056c565b6002836040516104cf9190610b67565b9081526020016040518091039020826040516104eb9190610b67565b90815260200160405180910390206040518060400160405290816000820160009054906101000a900473ffffffffffffffffffffffffffffffffffffffff1673ffffffffffffffffffffffffffffffffffffffff1673ffffffffffffffffffffffffffffffffffffffff168152602001600182015481525050905092915050565b6040518060400160405280600073ffffffffffffffffffffffffffffffffffffffff168152602001600081525090565b600081519050919050565b600082825260208201905092915050565b60005b838110156105d65780820151818401526020810190506105bb565b838111156105e5576000848401525b50505050565b6000601f19601f8301169050919050565b60006106078261059c565b61061181856105a7565b93506106218185602086016105b8565b61062a816105eb565b840191505092915050565b6000602082019050818103600083015261064f81846105fc565b905092915050565b6000604051905090565b600080fd5b600080fd5b600073ffffffffffffffffffffffffffffffffffffffff82169050919050565b60006106968261066b565b9050919050565b6106a68161068b565b81146106b157600080fd5b50565b6000813590506106c38161069d565b92915050565b6000819050919050565b6106dc816106c9565b81146106e757600080fd5b50565b6000813590506106f9816106d3565b92915050565b6000806040838503121561071657610715610661565b5b6000610724858286016106b4565b9250506020610735858286016106ea565b9150509250929050565b60008115159050919050565b6107548161073f565b82525050565b600060208201905061076f600083018461074b565b92915050565b60006107808261066b565b9050919050565b61079081610775565b811461079b57600080fd5b50565b6000813590506107ad81610787565b92915050565b600080fd5b600080fd5b7f4e487b7100000000000000000000000000000000000000000000000000000000600052604160045260246000fd5b6107f5826105eb565b810181811067ffffffffffffffff82111715610814576108136107bd565b5b80604052505050565b6000610827610657565b905061083382826107ec565b919050565b600067ffffffffffffffff821115610853576108526107bd565b5b61085c826105eb565b9050602081019050919050565b82818337600083830152505050565b600061088b61088684610838565b61081d565b9050828152602081018484840111156108a7576108a66107b8565b5b6108b2848285610869565b509392505050565b600082601f8301126108cf576108ce6107b3565b5b81356108df848260208601610878565b91505092915050565b60008060006060848603121561090157610900610661565b5b600061090f8682870161079e565b935050602084013567ffffffffffffffff8111156109305761092f610666565b5b61093c868287016108ba565b925050604084013567ffffffffffffffff81111561095d5761095c610666565b5b610969868287016108ba565b9150509250925092565b6000806040838503121561098a57610989610661565b5b600083013567ffffffffffffffff8111156109a8576109a7610666565b5b6109b4858286016108ba565b925050602083013567ffffffffffffffff8111156109d5576109d4610666565b5b6109e1858286016108ba565b9150509250929050565b6109f48161068b565b82525050565b610a03816106c9565b82525050565b604082016000820151610a1f60008501826109eb565b506020820151610a3260208501826109fa565b50505050565b6000604082019050610a4d6000830184610a09565b92915050565b7f506f7374204964206e6f7420666f756e64000000000000000000000000000000600082015250565b6000610a896011836105a7565b9150610a9482610a53565b602082019050919050565b60006020820190508181036000830152610ab881610a7c565b9050919050565b7f55736572204964206e6f7420666f756e64000000000000000000000000000000600082015250565b6000610af56011836105a7565b9150610b0082610abf565b602082019050919050565b60006020820190508181036000830152610b2481610ae8565b9050919050565b600081905092915050565b6000610b418261059c565b610b4b8185610b2b565b9350610b5b8185602086016105b8565b80840191505092915050565b6000610b738284610b36565b915081905092915050565b7f416c726561647920737570706f72746564000000000000000000000000000000600082015250565b6000610bb46011836105a7565b9150610bbf82610b7e565b602082019050919050565b60006020820190508181036000830152610be381610ba7565b9050919050565b600081905092915050565b50565b6000610c05600083610bea565b9150610c1082610bf5565b600082019050919050565b6000610c2682610bf8565b9150819050919050565b60006040820190508181036000830152610c4a81856105fc565b90508181036020830152610c5e81846105fc565b9050939250505056fea2646970667358221220a71294420067a6bf6f9ebdf7a07ebdc4f2b817873adbfb2889373c1ffde732bf64736f6c634300080b0033",
  "immutableReferences": {},
  "source": "// SPDX-License-Identifier: MIT\npragma solidity ^0.8.11;\n\ncontract Transfer {\n    string public constant name = \"Transfer\";\n    struct SupportObj {\n        address to;\n        uint amount;\n    }\n    mapping(address => bool) private approvals;\n    mapping(address => uint) private amount;\n    mapping(string => mapping(string => SupportObj)) private supportMap;\n\n    event PostTipped(string from, string post);\n\n    function approve(address to, uint amt) external returns(bool) {\n        approvals[to] = true;\n        amount[to] = amt;\n        return approvals[to];\n    }\n    \n    function getSupportStatus(string memory postId, string memory userId) view external returns(SupportObj memory) {\n        return supportMap[postId][userId];\n    }\n\n    function transfer(address payable to, string memory userId, string memory postId) public payable returns(bool) {\n        require(bytes(postId).length != 0, \"Post Id not found\");\n        require(bytes(userId).length != 0, \"User Id not found\");\n        require(supportMap[postId][userId].amount == 0, \"Already supported\");\n\n        supportMap[postId][userId] = SupportObj(to, msg.value);\n        (bool sent, ) = to.call{value: msg.value}(\"\");\n\n        emit PostTipped(userId, postId);\n        return sent;\n    }\n}",
  "sourcePath": "/Users/abhinavkhanduja/Desktop/BlockchainDevelopment/cryptagram/packages/client/contracts/Transfer.sol",
  "compiler": {
    "name": "solc",
    "version": "0.8.11+commit.d7f03943.Emscripten.clang"
  },
  "schemaVersion": "3.4.4",
  "updatedAt": "2022-01-24T17:48:44.805Z",
  "networkType": "ethereum",
  "devdoc": {
    "kind": "dev",
    "methods": {},
    "version": 1
  },
  "userdoc": {
    "kind": "user",
    "methods": {},
    "version": 1
  }
}