{
  "contractName": "Transfer",
  "abi": [
    {
      "inputs": [],
      "name": "name",
      "outputs": [
        {
          "internalType": "string",
          "name": "",
          "type": "string"
        }
      ],
      "stateMutability": "view",
      "type": "function",
      "constant": true
    },
    {
      "inputs": [
        {
          "internalType": "address",
          "name": "to",
          "type": "address"
        },
        {
          "internalType": "uint256",
          "name": "amt",
          "type": "uint256"
        }
      ],
      "name": "approve",
      "outputs": [
        {
          "internalType": "bool",
          "name": "",
          "type": "bool"
        }
      ],
      "stateMutability": "nonpayable",
      "type": "function"
    },
    {
      "inputs": [
        {
          "internalType": "address payable",
          "name": "to",
          "type": "address"
        }
      ],
      "name": "transfer",
      "outputs": [],
      "stateMutability": "payable",
      "type": "function",
      "payable": true
    }
  ],
  "bytecode": "0x608060405234801561001057600080fd5b506107e8806100206000396000f3fe6080604052600436106100345760003560e01c806306fdde0314610039578063095ea7b3146100645780631a695230146100a1575b600080fd5b34801561004557600080fd5b5061004e6100bd565b60405161005b9190610440565b60405180910390f35b34801561007057600080fd5b5061008b600480360381019061008691906104fb565b6100f6565b6040516100989190610556565b60405180910390f35b6100bb60048036038101906100b691906105af565b61019d565b005b6040518060400160405280600881526020017f5472616e7366657200000000000000000000000000000000000000000000000081525081565b600060016000808573ffffffffffffffffffffffffffffffffffffffff1673ffffffffffffffffffffffffffffffffffffffff16815260200190815260200160002060006101000a81548160ff02191690831515021790555081600160008573ffffffffffffffffffffffffffffffffffffffff1673ffffffffffffffffffffffffffffffffffffffff168152602001908152602001600020819055506001905092915050565b34600160008373ffffffffffffffffffffffffffffffffffffffff1673ffffffffffffffffffffffffffffffffffffffff168152602001908152602001600020541461021e576040517f08c379a00000000000000000000000000000000000000000000000000000000081526004016102159061064e565b60405180910390fd5b6000808273ffffffffffffffffffffffffffffffffffffffff1673ffffffffffffffffffffffffffffffffffffffff16815260200190815260200160002060009054906101000a900460ff166102a9576040517f08c379a00000000000000000000000000000000000000000000000000000000081526004016102a0906106e0565b60405180910390fd5b60008173ffffffffffffffffffffffffffffffffffffffff16346040516102cf90610731565b60006040518083038185875af1925050503d806000811461030c576040519150601f19603f3d011682016040523d82523d6000602084013e610311565b606091505b5050905080610355576040517f08c379a000000000000000000000000000000000000000000000000000000000815260040161034c90610792565b60405180910390fd5b6000808373ffffffffffffffffffffffffffffffffffffffff1673ffffffffffffffffffffffffffffffffffffffff16815260200190815260200160002060006101000a81549060ff02191690555050565b600081519050919050565b600082825260208201905092915050565b60005b838110156103e15780820151818401526020810190506103c6565b838111156103f0576000848401525b50505050565b6000601f19601f8301169050919050565b6000610412826103a7565b61041c81856103b2565b935061042c8185602086016103c3565b610435816103f6565b840191505092915050565b6000602082019050818103600083015261045a8184610407565b905092915050565b600080fd5b600073ffffffffffffffffffffffffffffffffffffffff82169050919050565b600061049282610467565b9050919050565b6104a281610487565b81146104ad57600080fd5b50565b6000813590506104bf81610499565b92915050565b6000819050919050565b6104d8816104c5565b81146104e357600080fd5b50565b6000813590506104f5816104cf565b92915050565b6000806040838503121561051257610511610462565b5b6000610520858286016104b0565b9250506020610531858286016104e6565b9150509250929050565b60008115159050919050565b6105508161053b565b82525050565b600060208201905061056b6000830184610547565b92915050565b600061057c82610467565b9050919050565b61058c81610571565b811461059757600080fd5b50565b6000813590506105a981610583565b92915050565b6000602082840312156105c5576105c4610462565b5b60006105d38482850161059a565b91505092915050565b7f5472616e73616374696f6e20616d6f756e74206973206e6f7420617070726f7660008201527f6564000000000000000000000000000000000000000000000000000000000000602082015250565b60006106386022836103b2565b9150610643826105dc565b604082019050919050565b600060208201905081810360008301526106678161062b565b9050919050565b7f5472616e73616374696f6e20746f20746869732061646472657373206973206e60008201527f6f7420617070726f766564000000000000000000000000000000000000000000602082015250565b60006106ca602b836103b2565b91506106d58261066e565b604082019050919050565b600060208201905081810360008301526106f9816106bd565b9050919050565b600081905092915050565b50565b600061071b600083610700565b91506107268261070b565b600082019050919050565b600061073c8261070e565b9150819050919050565b7f5472616e73616374696f6e206661696c65640000000000000000000000000000600082015250565b600061077c6012836103b2565b915061078782610746565b602082019050919050565b600060208201905081810360008301526107ab8161076f565b905091905056fea2646970667358221220c864f57101c7694957b38a38ea063874673f40b3af40f7c6df7afb71ead35b2264736f6c634300080b0033",
  "immutableReferences": {},
  "source": "// SPDX-License-Identifier: MIT\npragma solidity ^0.8.11;\n\ncontract Transfer {\n    string public constant name = \"Transfer\";\n    mapping(address => bool) private approvals;\n    mapping(address => uint) private amount;\n\n    function approve(address to, uint amt) external returns(bool) {\n        approvals[to] = true;\n        amount[to] = amt;\n        return true;\n    }\n\n    function transfer(address payable to) public payable {\n        require(amount[to] == msg.value, \"Transaction amount is not approved\");\n        require(approvals[to], \"Transaction to this address is not approved\");\n        (bool sent, ) = to.call{value: msg.value}(\"\");\n        require(sent, \"Transaction failed\");\n\n        delete approvals[to];\n    }\n}",
  "sourcePath": "/Users/abhinavkhanduja/Desktop/BlockchainDevelopment/cryptagram/contracts/Transfer.sol",
  "compiler": {
    "name": "solc",
    "version": "0.8.11+commit.d7f03943.Emscripten.clang"
  },
  "schemaVersion": "3.4.4",
  "updatedAt": "2022-01-06T15:24:31.090Z",
  "networkType": "ethereum",
  "devdoc": {
    "kind": "dev",
    "methods": {},
    "version": 1
  },
  "userdoc": {
    "kind": "user",
    "methods": {},
    "version": 1
  }
}