{
  "contractName": "Post",
  "abi": [
    {
      "anonymous": false,
      "inputs": [
        {
          "components": [
            {
              "internalType": "address",
              "name": "from",
              "type": "address"
            },
            {
              "internalType": "uint256",
              "name": "date",
              "type": "uint256"
            },
            {
              "internalType": "string",
              "name": "postUrl",
              "type": "string"
            },
            {
              "internalType": "string",
              "name": "postType",
              "type": "string"
            }
          ],
          "indexed": false,
          "internalType": "struct Post.PostData",
          "name": "data",
          "type": "tuple"
        }
      ],
      "name": "PostAdded",
      "type": "event"
    },
    {
      "inputs": [],
      "name": "name",
      "outputs": [
        {
          "internalType": "string",
          "name": "",
          "type": "string"
        }
      ],
      "stateMutability": "view",
      "type": "function",
      "constant": true
    },
    {
      "inputs": [
        {
          "internalType": "uint256",
          "name": "",
          "type": "uint256"
        }
      ],
      "name": "posts",
      "outputs": [
        {
          "internalType": "address",
          "name": "from",
          "type": "address"
        },
        {
          "internalType": "uint256",
          "name": "date",
          "type": "uint256"
        },
        {
          "internalType": "string",
          "name": "postUrl",
          "type": "string"
        },
        {
          "internalType": "string",
          "name": "postType",
          "type": "string"
        }
      ],
      "stateMutability": "view",
      "type": "function",
      "constant": true
    },
    {
      "inputs": [
        {
          "internalType": "uint256",
          "name": "results",
          "type": "uint256"
        },
        {
          "internalType": "uint256",
          "name": "lastPage",
          "type": "uint256"
        }
      ],
      "name": "getPosts",
      "outputs": [
        {
          "components": [
            {
              "internalType": "address",
              "name": "from",
              "type": "address"
            },
            {
              "internalType": "uint256",
              "name": "date",
              "type": "uint256"
            },
            {
              "internalType": "string",
              "name": "postUrl",
              "type": "string"
            },
            {
              "internalType": "string",
              "name": "postType",
              "type": "string"
            }
          ],
          "internalType": "struct Post.PostData[]",
          "name": "",
          "type": "tuple[]"
        }
      ],
      "stateMutability": "view",
      "type": "function",
      "constant": true
    },
    {
      "inputs": [
        {
          "components": [
            {
              "internalType": "address",
              "name": "from",
              "type": "address"
            },
            {
              "internalType": "uint256",
              "name": "date",
              "type": "uint256"
            },
            {
              "internalType": "string",
              "name": "postUrl",
              "type": "string"
            },
            {
              "internalType": "string",
              "name": "postType",
              "type": "string"
            }
          ],
          "internalType": "struct Post.PostData",
          "name": "post",
          "type": "tuple"
        }
      ],
      "name": "savePost",
      "outputs": [
        {
          "internalType": "bool",
          "name": "",
          "type": "bool"
        }
      ],
      "stateMutability": "nonpayable",
      "type": "function"
    }
  ],
  "bytecode": "0x608060405234801561001057600080fd5b50611130806100206000396000f3fe608060405234801561001057600080fd5b506004361061004c5760003560e01c806306fdde03146100515780630b1e7f831461006f5780634ffd1be6146100a2578063fd2c7745146100d2575b600080fd5b610059610102565b60405161006691906108fa565b60405180910390f35b61008960048036038101906100849190610966565b61013b565b60405161009994939291906109e3565b60405180910390f35b6100bc60048036038101906100b79190610a36565b6102ab565b6040516100c99190610c0a565b60405180910390f35b6100ec60048036038101906100e79190610e47565b610580565b6040516100f99190610eab565b60405180910390f35b6040518060400160405280600481526020017f506f73740000000000000000000000000000000000000000000000000000000081525081565b6000818154811061014b57600080fd5b90600052602060002090600402016000915090508060000160009054906101000a900473ffffffffffffffffffffffffffffffffffffffff169080600101549080600201805461019a90610ef5565b80601f01602080910402602001604051908101604052809291908181526020018280546101c690610ef5565b80156102135780601f106101e857610100808354040283529160200191610213565b820191906000526020600020905b8154815290600101906020018083116101f657829003601f168201915b50505050509080600301805461022890610ef5565b80601f016020809104026020016040519081016040528092919081815260200182805461025490610ef5565b80156102a15780601f10610276576101008083540402835291602001916102a1565b820191906000526020600020905b81548152906001019060200180831161028457829003601f168201915b5050505050905084565b606060016000805490506102bf9190610f56565b8214156103275760008067ffffffffffffffff8111156102e2576102e1610c31565b5b60405190808252806020026020018201604052801561031b57816020015b610308610780565b8152602001906001900390816103005790505b5090508091505061057a565b60008367ffffffffffffffff81111561034357610342610c31565b5b60405190808252806020026020018201604052801561037c57816020015b610369610780565b8152602001906001900390816103615790505b50905060008390505b60008054905081101561057457600081815481106103a6576103a5610f8a565b5b90600052602060002090600402016040518060800160405290816000820160009054906101000a900473ffffffffffffffffffffffffffffffffffffffff1673ffffffffffffffffffffffffffffffffffffffff1673ffffffffffffffffffffffffffffffffffffffff1681526020016001820154815260200160028201805461042f90610ef5565b80601f016020809104026020016040519081016040528092919081815260200182805461045b90610ef5565b80156104a85780601f1061047d576101008083540402835291602001916104a8565b820191906000526020600020905b81548152906001019060200180831161048b57829003601f168201915b505050505081526020016003820180546104c190610ef5565b80601f01602080910402602001604051908101604052809291908181526020018280546104ed90610ef5565b801561053a5780601f1061050f5761010080835404028352916020019161053a565b820191906000526020600020905b81548152906001019060200180831161051d57829003601f168201915b50505050508152505082828151811061055657610555610f8a565b5b6020026020010181905250808061056c90610fb9565b915050610385565b50809150505b92915050565b60003373ffffffffffffffffffffffffffffffffffffffff16826000015173ffffffffffffffffffffffffffffffffffffffff16146105f4576040517f08c379a00000000000000000000000000000000000000000000000000000000081526004016105eb9061104e565b60405180910390fd5b42826020018181525050600082908060018154018082558091505060019003906000526020600020906004020160009091909190915060008201518160000160006101000a81548173ffffffffffffffffffffffffffffffffffffffff021916908373ffffffffffffffffffffffffffffffffffffffff1602179055506020820151816001015560408201518160020190805190602001906106979291906107be565b5060608201518160030190805190602001906106b49291906107be565b50505060003373ffffffffffffffffffffffffffffffffffffffff16600060016000805490506106e49190610f56565b815481106106f5576106f4610f8a565b5b906000526020600020906004020160000160009054906101000a900473ffffffffffffffffffffffffffffffffffffffff1673ffffffffffffffffffffffffffffffffffffffff161490507fa3ddbeb230b96f08d5d54f09da7e1d6e77e4f66697d6518a0b7a82c8f1d86b458360405161076f91906110d8565b60405180910390a180915050919050565b6040518060800160405280600073ffffffffffffffffffffffffffffffffffffffff1681526020016000815260200160608152602001606081525090565b8280546107ca90610ef5565b90600052602060002090601f0160209004810192826107ec5760008555610833565b82601f1061080557805160ff1916838001178555610833565b82800160010185558215610833579182015b82811115610832578251825591602001919060010190610817565b5b5090506108409190610844565b5090565b5b8082111561085d576000816000905550600101610845565b5090565b600081519050919050565b600082825260208201905092915050565b60005b8381101561089b578082015181840152602081019050610880565b838111156108aa576000848401525b50505050565b6000601f19601f8301169050919050565b60006108cc82610861565b6108d6818561086c565b93506108e681856020860161087d565b6108ef816108b0565b840191505092915050565b6000602082019050818103600083015261091481846108c1565b905092915050565b6000604051905090565b600080fd5b600080fd5b6000819050919050565b61094381610930565b811461094e57600080fd5b50565b6000813590506109608161093a565b92915050565b60006020828403121561097c5761097b610926565b5b600061098a84828501610951565b91505092915050565b600073ffffffffffffffffffffffffffffffffffffffff82169050919050565b60006109be82610993565b9050919050565b6109ce816109b3565b82525050565b6109dd81610930565b82525050565b60006080820190506109f860008301876109c5565b610a0560208301866109d4565b8181036040830152610a1781856108c1565b90508181036060830152610a2b81846108c1565b905095945050505050565b60008060408385031215610a4d57610a4c610926565b5b6000610a5b85828601610951565b9250506020610a6c85828601610951565b9150509250929050565b600081519050919050565b600082825260208201905092915050565b6000819050602082019050919050565b610aab816109b3565b82525050565b610aba81610930565b82525050565b600082825260208201905092915050565b6000610adc82610861565b610ae68185610ac0565b9350610af681856020860161087d565b610aff816108b0565b840191505092915050565b6000608083016000830151610b226000860182610aa2565b506020830151610b356020860182610ab1565b5060408301518482036040860152610b4d8282610ad1565b91505060608301518482036060860152610b678282610ad1565b9150508091505092915050565b6000610b808383610b0a565b905092915050565b6000602082019050919050565b6000610ba082610a76565b610baa8185610a81565b935083602082028501610bbc85610a92565b8060005b85811015610bf85784840389528151610bd98582610b74565b9450610be483610b88565b925060208a01995050600181019050610bc0565b50829750879550505050505092915050565b60006020820190508181036000830152610c248184610b95565b905092915050565b600080fd5b7f4e487b7100000000000000000000000000000000000000000000000000000000600052604160045260246000fd5b610c69826108b0565b810181811067ffffffffffffffff82111715610c8857610c87610c31565b5b80604052505050565b6000610c9b61091c565b9050610ca78282610c60565b919050565b600080fd5b610cba816109b3565b8114610cc557600080fd5b50565b600081359050610cd781610cb1565b92915050565b600080fd5b600080fd5b600067ffffffffffffffff821115610d0257610d01610c31565b5b610d0b826108b0565b9050602081019050919050565b82818337600083830152505050565b6000610d3a610d3584610ce7565b610c91565b905082815260208101848484011115610d5657610d55610ce2565b5b610d61848285610d18565b509392505050565b600082601f830112610d7e57610d7d610cdd565b5b8135610d8e848260208601610d27565b91505092915050565b600060808284031215610dad57610dac610c2c565b5b610db76080610c91565b90506000610dc784828501610cc8565b6000830152506020610ddb84828501610951565b602083015250604082013567ffffffffffffffff811115610dff57610dfe610cac565b5b610e0b84828501610d69565b604083015250606082013567ffffffffffffffff811115610e2f57610e2e610cac565b5b610e3b84828501610d69565b60608301525092915050565b600060208284031215610e5d57610e5c610926565b5b600082013567ffffffffffffffff811115610e7b57610e7a61092b565b5b610e8784828501610d97565b91505092915050565b60008115159050919050565b610ea581610e90565b82525050565b6000602082019050610ec06000830184610e9c565b92915050565b7f4e487b7100000000000000000000000000000000000000000000000000000000600052602260045260246000fd5b60006002820490506001821680610f0d57607f821691505b60208210811415610f2157610f20610ec6565b5b50919050565b7f4e487b7100000000000000000000000000000000000000000000000000000000600052601160045260246000fd5b6000610f6182610930565b9150610f6c83610930565b925082821015610f7f57610f7e610f27565b5b828203905092915050565b7f4e487b7100000000000000000000000000000000000000000000000000000000600052603260045260246000fd5b6000610fc482610930565b91507fffffffffffffffffffffffffffffffffffffffffffffffffffffffffffffffff821415610ff757610ff6610f27565b5b600182019050919050565b7f75736572206164647265737320696e76616c6964000000000000000000000000600082015250565b600061103860148361086c565b915061104382611002565b602082019050919050565b600060208201905081810360008301526110678161102b565b9050919050565b60006080830160008301516110866000860182610aa2565b5060208301516110996020860182610ab1565b50604083015184820360408601526110b18282610ad1565b915050606083015184820360608601526110cb8282610ad1565b9150508091505092915050565b600060208201905081810360008301526110f2818461106e565b90509291505056fea26469706673582212208406f12d80ae7839ee5ff4b76680d7bc8670134ea8d3d4c2131d58b72d69ae6964736f6c634300080b0033",
  "immutableReferences": {},
  "source": "// SPDX-License-Identifier: MIT\npragma solidity ^0.8.11;\n\ncontract Post {\n    string public constant name = \"Post\";\n\n    struct PostData {\n        address from;\n        uint date;\n        string postUrl;\n        string postType;\n    }\n\n    PostData[] public posts;\n\n    event PostAdded(PostData data);\n\n    function getPosts(uint results, uint lastPage) public view returns(PostData[] memory) {\n        if (lastPage == (posts.length - 1)) {\n            PostData[] memory p = new PostData[](0);\n            return p;\n        } else {    \n            PostData[] memory p = new PostData[](results);\n            for (uint256 i = lastPage; i < posts.length; i++) {\n                p[i] = posts[i];\n            }\n            return p;\n        }\n    }\n    \n    function savePost(PostData memory post) public returns(bool){\n        require(post.from == msg.sender, \"user address invalid\");\n        post.date = block.timestamp;\n        posts.push(post);\n        bool res = posts[posts.length - 1].from == msg.sender;\n        emit PostAdded(post);\n        return res;\n    }\n}",
  "sourcePath": "/Users/abhinavkhanduja/Desktop/BlockchainDevelopment/cryptagram/contracts/Post.sol",
  "compiler": {
    "name": "solc",
    "version": "0.8.11+commit.d7f03943.Emscripten.clang"
  },
  "schemaVersion": "3.4.4",
  "updatedAt": "2022-01-06T15:24:31.101Z",
  "networkType": "ethereum",
  "devdoc": {
    "kind": "dev",
    "methods": {},
    "version": 1
  },
  "userdoc": {
    "kind": "user",
    "methods": {},
    "version": 1
  }
}